Component: ARM Compiler 5.06 update 6 (build 750) Tool: armlink [4d35ed]

==============================================================================

Section Cross References

    main.o(i.ADC0_1_IRQHandler) refers to gd32f30x_adc.o(i.adc_interrupt_flag_clear) for adc_interrupt_flag_clear
    main.o(i.ADC0_1_IRQHandler) refers to gd32f30x_adc.o(i.adc_inserted_data_read) for adc_inserted_data_read
    main.o(i.ADC0_1_IRQHandler) refers to motor_hardware.o(i.motor_pwm_channel_enable) for motor_pwm_channel_enable
    main.o(i.ADC0_1_IRQHandler) refers to mt6701.o(i.mt6701_read_angle0) for mt6701_read_angle0
    main.o(i.ADC0_1_IRQHandler) refers to pmsm.o(i.pmsm_foc_run) for pmsm_foc_run
    main.o(i.ADC0_1_IRQHandler) refers to uart.o(i.usart_send_data) for usart_send_data
    main.o(i.ADC0_1_IRQHandler) refers to main.o(.data) for adc_calibration
    main.o(i.ADC0_1_IRQHandler) refers to pmsm.o(.bss) for pmsm_mc_param
    main.o(i.ADC0_1_IRQHandler) refers to main.o(.bss) for speed_buf
    main.o(i.ADC0_1_IRQHandler) refers to motor_hardware.o(i.motor_pwm_set_duty) for motor_pwm_set_duty
    main.o(i.TIMER0_BRK_IRQHandler) refers to gd32f30x_timer.o(i.timer_channel_output_mode_config) for timer_channel_output_mode_config
    main.o(i.TIMER0_BRK_IRQHandler) refers to gd32f30x_timer.o(i.timer_interrupt_flag_clear) for timer_interrupt_flag_clear
    main.o(i.TIMER0_BRK_IRQHandler) refers to led.o(i.led_on) for led_on
    main.o(i.TIMER2_IRQHandler) refers to gd32f30x_timer.o(i.timer_interrupt_flag_get) for timer_interrupt_flag_get
    main.o(i.TIMER2_IRQHandler) refers to gd32f30x_timer.o(i.timer_interrupt_flag_clear) for timer_interrupt_flag_clear
    main.o(i.main) refers to systick.o(i.systick_init) for systick_init
    main.o(i.main) refers to led.o(i.led_init) for led_init
    main.o(i.main) refers to uart.o(i.usart_init) for usart_init
==============================================================================

Removing Unused input sections from the image.

    Removing gd32f30x_it.o(.rev16_text), (4 bytes).
    Removing gd32f30x_it.o(.revsh_text), (4 bytes).
    Removing main.o(.rev16_text), (4 bytes).
    Removing main.o(.revsh_text), (4 bytes).
    Removing motor_hardware.o(.rev16_text), (4 bytes).
    Removing motor_hardware.o(.revsh_text), (4 bytes).
    Removing motor_hardware.o(i.comp_protect_init), (76 bytes).
    Removing motor_hardware.o(i.hall_get), (52 bytes).
    Removing adc_simple.o(.rev16_text), (4 bytes).
    Removing adc_simple.o(.revsh_text), (4 bytes).
    Removing adc_simple.o(i.adc1_init), (132 bytes).
    Removing adc_simple.o(i.adc_get_ntc), (56 bytes).
    Removing adc_simple.o(i.adc_get_vdc), (56 bytes).
    Removing can.o(.rev16_text), (4 bytes).
    Removing can.o(.revsh_text), (4 bytes).
    Removing can.o(i.can_bus_init), (28 bytes).
    Removing can.o(i.can_config), (160 bytes).
    Removing can.o(i.can_gpio_config), (44 bytes).
==============================================================================

Image Symbol Table

    Local Symbols

    Symbol Name                              Value     Ov Type        Size  Object(Section)

    ../clib/microlib/init/entry.s            0x00000000   Number         0  entry11b.o ABSOLUTE
    ../clib/microlib/init/entry.s            0x00000000   Number         0  entry7b.o ABSOLUTE
    ../clib/microlib/init/entry.s            0x00000000   Number         0  entry10a.o ABSOLUTE
    ../clib/microlib/init/entry.s            0x00000000   Number         0  entry7a.o ABSOLUTE
    ../clib/microlib/init/entry.s            0x00000000   Number         0  entry10b.o ABSOLUTE
    ../clib/microlib/init/entry.s            0x00000000   Number         0  entry5.o ABSOLUTE
    ../clib/microlib/init/entry.s            0x00000000   Number         0  entry.o ABSOLUTE
    ../clib/microlib/init/entry.s            0x00000000   Number         0  entry11a.o ABSOLUTE
    ../clib/microlib/init/entry.s            0x00000000   Number         0  entry2.o ABSOLUTE
    ../clib/microlib/init/entry.s            0x00000000   Number         0  entry9b.o ABSOLUTE
    ../clib/microlib/init/entry.s            0x00000000   Number         0  entry8a.o ABSOLUTE
    ../clib/microlib/init/entry.s            0x00000000   Number         0  entry9a.o ABSOLUTE
    ../clib/microlib/init/entry.s            0x00000000   Number         0  entry8b.o ABSOLUTE
    ../clib/microlib/longlong.c              0x00000000   Number         0  llshl.o ABSOLUTE
    ../clib/microlib/longlong.c              0x00000000   Number         0  llushr.o ABSOLUTE
    ../clib/microlib/string/memcpy.c         0x00000000   Number         0  memcpya.o ABSOLUTE
    ../clib/microlib/string/memcpy.c         0x00000000   Number         0  memcpyb.o ABSOLUTE
    ../clib/microlib/stubs.s                 0x00000000   Number         0  iusefp.o ABSOLUTE
    ../fplib/microlib/d2f.c                  0x00000000   Number         0  d2f.o ABSOLUTE
    ../fplib/microlib/f2d.c                  0x00000000   Number         0  f2d.o ABSOLUTE
    ../fplib/microlib/fpdiv.c                0x00000000   Number         0  ddiv.o ABSOLUTE
    ../fplib/microlib/fpepilogue.c           0x00000000   Number         0  fepilogue.o ABSOLUTE
    ../fplib/microlib/fpepilogue.c           0x00000000   Number         0  depilogue.o ABSOLUTE
    ../fplib/microlib/fpmul.c                0x00000000   Number         0  dmul.o ABSOLUTE
    ..\CommonTables\arm_common_tables.c      0x00000000   Number         0  arm_common_tables.o ABSOLUTE
    ..\FOC\foc.c                             0x00000000   Number         0  foc.o ABSOLUTE
    ..\FOC\pmsm.c                            0x00000000   Number         0  pmsm.o ABSOLUTE
    ..\FastMathFunctions\arm_cos_f32.c       0x00000000   Number         0  arm_cos_f32.o ABSOLUTE
    ..\FastMathFunctions\arm_sin_f32.c       0x00000000   Number         0  arm_sin_f32.o ABSOLUTE
    ..\LCD\lcd.c                             0x00000000   Number         0  lcd.o ABSOLUTE
    ..\LCD\lcd_init.c                        0x00000000   Number         0  lcd_init.o ABSOLUTE
    ..\Libraries\CMSIS\GD\GD32F30x\Source\ARM\startup_gd32f30x_hd.s 0x00000000   Number         0  startup_gd32f30x_hd.o ABSOLUTE
    ..\Libraries\CMSIS\GD\GD32F30x\Source\system_gd32f30x.c 0x00000000   Number         0  system_gd32f30x.o ABSOLUTE
    ..\Libraries\GD32F30x_standard_peripheral\Source\gd32f30x_adc.c 0x00000000   Number         0  gd32f30x_adc.o ABSOLUTE
    ..\Libraries\GD32F30x_standard_peripheral\Source\gd32f30x_bkp.c 0x00000000   Number         0  gd32f30x_bkp.o ABSOLUTE
    ..\Libraries\GD32F30x_standard_peripheral\Source\gd32f30x_can.c 0x00000000   Number         0  gd32f30x_can.o ABSOLUTE
    ..\Libraries\GD32F30x_standard_peripheral\Source\gd32f30x_crc.c 0x00000000   Number         0  gd32f30x_crc.o ABSOLUTE
    ..\Libraries\GD32F30x_standard_peripheral\Source\gd32f30x_ctc.c 0x00000000   Number         0  gd32f30x_ctc.o ABSOLUTE
    ..\Libraries\GD32F30x_standard_peripheral\Source\gd32f30x_dac.c 0x00000000   Number         0  gd32f30x_dac.o ABSOLUTE
    ..\Libraries\GD32F30x_standard_peripheral\Source\gd32f30x_dbg.c 0x00000000   Number         0  gd32f30x_dbg.o ABSOLUTE
    ..\Libraries\GD32F30x_standard_peripheral\Source\gd32f30x_dma.c 0x00000000   Number         0  gd32f30x_dma.o ABSOLUTE
    ..\Libraries\GD32F30x_standard_peripheral\Source\gd32f30x_enet.c 0x00000000   Number         0  gd32f30x_enet.o ABSOLUTE
    ..\Libraries\GD32F30x_standard_peripheral\Source\gd32f30x_exmc.c 0x00000000   Number         0  gd32f30x_exmc.o ABSOLUTE
    ..\Libraries\GD32F30x_standard_peripheral\Source\gd32f30x_exti.c 0x00000000   Number         0  gd32f30x_exti.o ABSOLUTE
    ..\Libraries\GD32F30x_standard_peripheral\Source\gd32f30x_fmc.c 0x00000000   Number         0  gd32f30x_fmc.o ABSOLUTE
    ..\Libraries\GD32F30x_standard_peripheral\Source\gd32f30x_fwdgt.c 0x00000000   Number         0  gd32f30x_fwdgt.o ABSOLUTE
    ..\Libraries\GD32F30x_standard_peripheral\Source\gd32f30x_gpio.c 0x00000000   Number         0  gd32f30x_gpio.o ABSOLUTE
    ..\Libraries\GD32F30x_standard_peripheral\Source\gd32f30x_i2c.c 0x00000000   Number         0  gd32f30x_i2c.o ABSOLUTE
    ..\Libraries\GD32F30x_standard_peripheral\Source\gd32f30x_misc.c 0x00000000   Number         0  gd32f30x_misc.o ABSOLUTE
    ..\Libraries\GD32F30x_standard_peripheral\Source\gd32f30x_pmu.c 0x00000000   Number         0  gd32f30x_pmu.o ABSOLUTE
    ..\Libraries\GD32F30x_standard_peripheral\Source\gd32f30x_rcu.c 0x00000000   Number         0  gd32f30x_rcu.o ABSOLUTE
    ..\Libraries\GD32F30x_standard_peripheral\Source\gd32f30x_rtc.c 0x00000000   Number         0  gd32f30x_rtc.o ABSOLUTE
    ..\Libraries\GD32F30x_standard_peripheral\Source\gd32f30x_sdio.c 0x00000000   Number         0  gd32f30x_sdio.o ABSOLUTE
    ..\Libraries\GD32F30x_standard_peripheral\Source\gd32f30x_spi.c 0x00000000   Number         0  gd32f30x_spi.o ABSOLUTE
    ..\Libraries\GD32F30x_standard_peripheral\Source\gd32f30x_timer.c 0x00000000   Number         0  gd32f30x_timer.o ABSOLUTE
    ..\Libraries\GD32F30x_standard_peripheral\Source\gd32f30x_usart.c 0x00000000   Number         0  gd32f30x_usart.o ABSOLUTE
    ..\Libraries\GD32F30x_standard_peripheral\Source\gd32f30x_wwdgt.c 0x00000000   Number         0  gd32f30x_wwdgt.o ABSOLUTE
    ..\User\BSP\adc_simple.c                 0x00000000   Number         0  adc_simple.o ABSOLUTE
    ..\User\BSP\can.c                        0x00000000   Number         0  can.o ABSOLUTE
    ..\User\BSP\dac.c                        0x00000000   Number         0  dac.o ABSOLUTE
    ..\User\BSP\delay.c                      0x00000000   Number         0  delay.o ABSOLUTE
    ..\User\BSP\drv8323rs.c                  0x00000000   Number         0  drv8323rs.o ABSOLUTE
    ..\User\BSP\eeprom.c                     0x00000000   Number         0  eeprom.o ABSOLUTE
    ..\User\BSP\i2c.c                        0x00000000   Number         0  i2c.o ABSOLUTE
    ..\User\BSP\led.c                        0x00000000   Number         0  led.o ABSOLUTE
    ..\User\BSP\mt6701.c                     0x00000000   Number         0  mt6701.o ABSOLUTE
    ..\User\BSP\ntc.c                        0x00000000   Number         0  ntc.o ABSOLUTE
    ..\User\BSP\spi.c                        0x00000000   Number         0  spi.o ABSOLUTE
    ..\User\BSP\systick.c                    0x00000000   Number         0  systick.o ABSOLUTE
    ..\User\BSP\uart.c                       0x00000000   Number         0  uart.o ABSOLUTE
    ..\User\gd32f30x_it.c                    0x00000000   Number         0  gd32f30x_it.o ABSOLUTE
    ..\User\main.c                           0x00000000   Number         0  main.o ABSOLUTE
    ..\User\motor_hardware.c                 0x00000000   Number         0  motor_hardware.o ABSOLUTE
    ..\\CommonTables\\arm_common_tables.c    0x00000000   Number         0  arm_common_tables.o ABSOLUTE
    ..\\FOC\\foc.c                           0x00000000   Number         0  foc.o ABSOLUTE
    ..\\FOC\\pmsm.c                          0x00000000   Number         0  pmsm.o ABSOLUTE
    ..\\FastMathFunctions\\arm_cos_f32.c     0x00000000   Number         0  arm_cos_f32.o ABSOLUTE
    ..\\FastMathFunctions\\arm_sin_f32.c     0x00000000   Number         0  arm_sin_f32.o ABSOLUTE
    ..\\LCD\\lcd.c                           0x00000000   Number         0  lcd.o ABSOLUTE
    ..\\LCD\\lcd_init.c                      0x00000000   Number         0  lcd_init.o ABSOLUTE
    ..\\Libraries\\CMSIS\\GD\\GD32F30x\\Source\\system_gd32f30x.c 0x00000000   Number         0  system_gd32f30x.o ABSOLUTE
    ..\\Libraries\\GD32F30x_standard_peripheral\\Source\\gd32f30x_adc.c 0x00000000   Number         0  gd32f30x_adc.o ABSOLUTE
    ..\\Libraries\\GD32F30x_standard_peripheral\\Source\\gd32f30x_bkp.c 0x00000000   Number         0  gd32f30x_bkp.o ABSOLUTE
    ..\\Libraries\\GD32F30x_standard_peripheral\\Source\\gd32f30x_can.c 0x00000000   Number         0  gd32f30x_can.o ABSOLUTE
    ..\\Libraries\\GD32F30x_standard_peripheral\\Source\\gd32f30x_crc.c 0x00000000   Number         0  gd32f30x_crc.o ABSOLUTE
    ..\\Libraries\\GD32F30x_standard_peripheral\\Source\\gd32f30x_ctc.c 0x00000000   Number         0  gd32f30x_ctc.o ABSOLUTE
    ..\\Libraries\\GD32F30x_standard_peripheral\\Source\\gd32f30x_dac.c 0x00000000   Number         0  gd32f30x_dac.o ABSOLUTE
    ..\\Libraries\\GD32F30x_standard_peripheral\\Source\\gd32f30x_dbg.c 0x00000000   Number         0  gd32f30x_dbg.o ABSOLUTE
    ..\\Libraries\\GD32F30x_standard_peripheral\\Source\\gd32f30x_dma.c 0x00000000   Number         0  gd32f30x_dma.o ABSOLUTE
    ..\\Libraries\\GD32F30x_standard_peripheral\\Source\\gd32f30x_enet.c 0x00000000   Number         0  gd32f30x_enet.o ABSOLUTE
    ..\\Libraries\\GD32F30x_standard_peripheral\\Source\\gd32f30x_exmc.c 0x00000000   Number         0  gd32f30x_exmc.o ABSOLUTE
    ..\\Libraries\\GD32F30x_standard_peripheral\\Source\\gd32f30x_exti.c 0x00000000   Number         0  gd32f30x_exti.o ABSOLUTE
    ..\\Libraries\\GD32F30x_standard_peripheral\\Source\\gd32f30x_fmc.c 0x00000000   Number         0  gd32f30x_fmc.o ABSOLUTE
    ..\\Libraries\\GD32F30x_standard_peripheral\\Source\\gd32f30x_fwdgt.c 0x00000000   Number         0  gd32f30x_fwdgt.o ABSOLUTE
    ..\\Libraries\\GD32F30x_standard_peripheral\\Source\\gd32f30x_gpio.c 0x00000000   Number         0  gd32f30x_gpio.o ABSOLUTE
    ..\\Libraries\\GD32F30x_standard_peripheral\\Source\\gd32f30x_i2c.c 0x00000000   Number         0  gd32f30x_i2c.o ABSOLUTE
    ..\\Libraries\\GD32F30x_standard_peripheral\\Source\\gd32f30x_misc.c 0x00000000   Number         0  gd32f30x_misc.o ABSOLUTE
    ..\\Libraries\\GD32F30x_standard_peripheral\\Source\\gd32f30x_pmu.c 0x00000000   Number         0  gd32f30x_pmu.o ABSOLUTE
    ..\\Libraries\\GD32F30x_standard_peripheral\\Source\\gd32f30x_rcu.c 0x00000000   Number         0  gd32f30x_rcu.o ABSOLUTE
    ..\\Libraries\\GD32F30x_standard_peripheral\\Source\\gd32f30x_rtc.c 0x00000000   Number         0  gd32f30x_rtc.o ABSOLUTE
    ..\\Libraries\\GD32F30x_standard_peripheral\\Source\\gd32f30x_sdio.c 0x00000000   Number         0  gd32f30x_sdio.o ABSOLUTE
    ..\\Libraries\\GD32F30x_standard_peripheral\\Source\\gd32f30x_spi.c 0x00000000   Number         0  gd32f30x_spi.o ABSOLUTE
    ..\\Libraries\\GD32F30x_standard_peripheral\\Source\\gd32f30x_timer.c 0x00000000   Number         0  gd32f30x_timer.o ABSOLUTE
    ..\\Libraries\\GD32F30x_standard_peripheral\\Source\\gd32f30x_usart.c 0x00000000   Number         0  gd32f30x_usart.o ABSOLUTE
    ..\\Libraries\\GD32F30x_standard_peripheral\\Source\\gd32f30x_wwdgt.c 0x00000000   Number         0  gd32f30x_wwdgt.o ABSOLUTE
    ..\\User\\BSP\\adc_simple.c              0x00000000   Number         0  adc_simple.o ABSOLUTE
    ..\\User\\BSP\\can.c                     0x00000000   Number         0  can.o ABSOLUTE
    ..\\User\\BSP\\dac.c                     0x00000000   Number         0  dac.o ABSOLUTE
    ..\\User\\BSP\\delay.c                   0x00000000   Number         0  delay.o ABSOLUTE
    ..\\User\\BSP\\drv8323rs.c               0x00000000   Number         0  drv8323rs.o ABSOLUTE
    ..\\User\\BSP\\eeprom.c                  0x00000000   Number         0  eeprom.o ABSOLUTE
    ..\\User\\BSP\\i2c.c                     0x00000000   Number         0  i2c.o ABSOLUTE
    ..\\User\\BSP\\led.c                     0x00000000   Number         0  led.o ABSOLUTE
    ..\\User\\BSP\\mt6701.c                  0x00000000   Number         0  mt6701.o ABSOLUTE
    ..\\User\\BSP\\ntc.c                     0x00000000   Number         0  ntc.o ABSOLUTE
    ..\\User\\BSP\\spi.c                     0x00000000   Number         0  spi.o ABSOLUTE
    ..\\User\\BSP\\systick.c                 0x00000000   Number         0  systick.o ABSOLUTE
    ..\\User\\BSP\\uart.c                    0x00000000   Number         0  uart.o ABSOLUTE
    ..\\User\\gd32f30x_it.c                  0x00000000   Number         0  gd32f30x_it.o ABSOLUTE
    ..\\User\\main.c                         0x00000000   Number         0  main.o ABSOLUTE
    ..\\User\\motor_hardware.c               0x00000000   Number         0  motor_hardware.o ABSOLUTE
    dc.s                                     0x00000000   Number         0  dc.o ABSOLUTE
    handlers.s                               0x00000000   Number         0  handlers.o ABSOLUTE
    init.s                                   0x00000000   Number         0  init.o ABSOLUTE
    RESET                                    0x08004000   Section      304  startup_gd32f30x_hd.o(RESET)
    .ARM.Collect$$$$00000000                 0x08004130   Section        0  entry.o(.ARM.Collect$$$$00000000)
    .ARM.Collect$$$$00000001                 0x08004130   Section        4  entry2.o(.ARM.Collect$$$$00000001)
    .ARM.Collect$$$$00000004                 0x08004134   Section        4  entry5.o(.ARM.Collect$$$$00000004)
    .ARM.Collect$$$$00000008                 0x08004138   Section        0  entry7b.o(.ARM.Collect$$$$00000008)
    .ARM.Collect$$$$0000000A                 0x08004138   Section        0  entry8b.o(.ARM.Collect$$$$0000000A)
    .ARM.Collect$$$$0000000B                 0x08004138   Section        8  entry9a.o(.ARM.Collect$$$$0000000B)
    .ARM.Collect$$$$0000000D                 0x08004140   Section        0  entry10a.o(.ARM.Collect$$$$0000000D)
    .ARM.Collect$$$$0000000F                 0x08004140   Section        0  entry11a.o(.ARM.Collect$$$$0000000F)
    .ARM.Collect$$$$00002712                 0x08004140   Section        4  entry2.o(.ARM.Collect$$$$00002712)
    __lit__00000000                          0x08004140   Data           4  entry2.o(.ARM.Collect$$$$00002712)
    .text                                    0x08004144   Section       36  startup_gd32f30x_hd.o(.text)
    $v0                                      0x08004144   Number         0  startup_gd32f30x_hd.o(.text)
    .text                                    0x08004168   Section        0  arm_cos_f32.o(.text)
    .text                                    0x080041e0   Section        0  arm_sin_f32.o(.text)
    .text                                    0x08004264   Section        0  memcpya.o(.text)
    .text                                    0x08004288   Section       36  init.o(.text)
    i.ADC0_1_IRQHandler                      0x080042ac   Section        0  main.o(i.ADC0_1_IRQHandler)
    i.BusFault_Handler                       0x0800472e   Section        0  gd32f30x_it.o(i.BusFault_Handler)
    i.DRV8323RS_clearFaults                  0x08004732   Section        0  drv8323rs.o(i.DRV8323RS_clearFaults)
    i.DRV8323RS_createSPIDataWord            0x08004740   Section        0  drv8323rs.o(i.DRV8323RS_createSPIDataWord)
    i.DRV8323RS_disable                      0x08004760   Section        0  drv8323rs.o(i.DRV8323RS_disable)
    i.DRV8323RS_enable                       0x0800477c   Section        0  drv8323rs.o(i.DRV8323RS_enable)
    i.DRV8323RS_init                         0x08004794   Section        0  drv8323rs.o(i.DRV8323RS_init)
    i.DRV8323RS_setCsaGain                   0x0800484c   Section        0  drv8323rs.o(i.DRV8323RS_setCsaGain)
    i.DRV8323RS_setVdsLvl                    0x0800485c   Section        0  drv8323rs.o(i.DRV8323RS_setVdsLvl)
    i.DRV8323RS_spiRead                      0x0800486c   Section        0  drv8323rs.o(i.DRV8323RS_spiRead)
    i.DRV8323RS_spiUpdateRegister            0x080048a4   Section        0  drv8323rs.o(i.DRV8323RS_spiUpdateRegister)
    i.DRV8323RS_spiWrite                     0x080048c8   Section        0  drv8323rs.o(i.DRV8323RS_spiWrite)
    i.DebugMon_Handler                       0x080048fc   Section        0  gd32f30x_it.o(i.DebugMon_Handler)
    i.HardFault_Handler                      0x080048fe   Section        0  gd32f30x_it.o(i.HardFault_Handler)
    i.LCD_Address_Set                        0x08004902   Section        0  lcd_init.o(i.LCD_Address_Set)
    i.LCD_DrawPoint                          0x0800494c   Section        0  lcd.o(i.LCD_DrawPoint)
    i.LCD_Fill                               0x08004968   Section        0  lcd.o(i.LCD_Fill)
    i.LCD_GPIO_Init                          0x080049b4   Section        0  lcd_init.o(i.LCD_GPIO_Init)
    i.LCD_Init                               0x08004a2c   Section        0  lcd_init.o(i.LCD_Init)
    i.LCD_ShowChar                           0x08004bdc   Section        0  lcd.o(i.LCD_ShowChar)
    i.LCD_ShowString                         0x08004d34   Section        0  lcd.o(i.LCD_ShowString)
    i.LCD_WR_DATA                            0x08004d76   Section        0  lcd_init.o(i.LCD_WR_DATA)
    i.LCD_WR_DATA8                           0x08004d88   Section        0  lcd_init.o(i.LCD_WR_DATA8)
    i.LCD_WR_REG                             0x08004d94   Section        0  lcd_init.o(i.LCD_WR_REG)
    i.LCD_Writ_Bus                           0x08004dbc   Section        0  lcd_init.o(i.LCD_Writ_Bus)
    i.MemManage_Handler                      0x08004de0   Section        0  gd32f30x_it.o(i.MemManage_Handler)
    i.NMI_Handler                            0x08004de4   Section        0  gd32f30x_it.o(i.NMI_Handler)
    i.NVIC_SetPriority                       0x08004de8   Section        0  systick.o(i.NVIC_SetPriority)
    NVIC_SetPriority                         0x08004de9   Thumb Code    32  systick.o(i.NVIC_SetPriority)
    i.PendSV_Handler                         0x08004e10   Section        0  gd32f30x_it.o(i.PendSV_Handler)
    i.SVC_Handler                            0x08004e12   Section        0  gd32f30x_it.o(i.SVC_Handler)
    i.SysTick_Handler                        0x08004e14   Section        0  systick.o(i.SysTick_Handler)
    i.SystemInit                             0x08004e24   Section        0  system_gd32f30x.o(i.SystemInit)
    i.TIMER0_BRK_IRQHandler                  0x08004ecc   Section        0  main.o(i.TIMER0_BRK_IRQHandler)
    i.TIMER2_IRQHandler                      0x08004f00   Section        0  main.o(i.TIMER2_IRQHandler)
    i.UsageFault_Handler                     0x08004f1c   Section        0  gd32f30x_it.o(i.UsageFault_Handler)
    i.__scatterload_copy                     0x08004f20   Section       14  handlers.o(i.__scatterload_copy)
    i.__scatterload_null                     0x08004f2e   Section        2  handlers.o(i.__scatterload_null)
    i.__scatterload_zeroinit                 0x08004f30   Section       14  handlers.o(i.__scatterload_zeroinit)
    i.adc0_config                            0x08004f40   Section        0  motor_hardware.o(i.adc0_config)
    adc0_config                              0x08004f41   Thumb Code   174  motor_hardware.o(i.adc0_config)
    i.adc0_init                              0x08004ff4   Section        0  motor_hardware.o(i.adc0_init)
    i.adc_calibration_enable                 0x08005000   Section        0  gd32f30x_adc.o(i.adc_calibration_enable)
    i.adc_channel_length_config              0x0800502a   Section        0  gd32f30x_adc.o(i.adc_channel_length_config)
    i.adc_data_alignment_config              0x08005070   Section        0  gd32f30x_adc.o(i.adc_data_alignment_config)
    i.adc_enable                             0x08005086   Section        0  gd32f30x_adc.o(i.adc_enable)
    i.adc_external_trigger_config            0x08005098   Section        0  gd32f30x_adc.o(i.adc_external_trigger_config)
    i.adc_external_trigger_source_config     0x080050d6   Section        0  gd32f30x_adc.o(i.adc_external_trigger_source_config)
    i.adc_gpio_init                          0x08005108   Section        0  motor_hardware.o(i.adc_gpio_init)
    adc_gpio_init                            0x08005109   Thumb Code    84  motor_hardware.o(i.adc_gpio_init)
    i.adc_inserted_channel_config            0x08005168   Section        0  gd32f30x_adc.o(i.adc_inserted_channel_config)
    i.adc_inserted_data_read                 0x080051dc   Section        0  gd32f30x_adc.o(i.adc_inserted_data_read)
    i.adc_interrupt_enable                   0x0800520a   Section        0  gd32f30x_adc.o(i.adc_interrupt_enable)
    i.adc_interrupt_flag_clear               0x08005236   Section        0  gd32f30x_adc.o(i.adc_interrupt_flag_clear)
    i.adc_mode_config                        0x0800523c   Section        0  gd32f30x_adc.o(i.adc_mode_config)
    i.adc_special_function_config            0x08005258   Section        0  gd32f30x_adc.o(i.adc_special_function_config)
    i.calc_pi                                0x080052b2   Section        0  foc.o(i.calc_pi)
    i.calculate_park_angle                   0x0800532c   Section        0  pmsm.o(i.calculate_park_angle)
    calculate_park_angle                     0x0800532d   Thumb Code   122  pmsm.o(i.calculate_park_angle)
    i.clark                                  0x080053bc   Section        0  foc.o(i.clark)
    i.crc6                                   0x080053f0   Section        0  mt6701.o(i.crc6)
    crc6                                     0x080053f1   Thumb Code    64  mt6701.o(i.crc6)
    i.dma_channel_enable                     0x08005430   Section        0  gd32f30x_dma.o(i.dma_channel_enable)
    i.dma_circulation_disable                0x08005462   Section        0  gd32f30x_dma.o(i.dma_circulation_disable)
    i.dma_deinit                             0x08005494   Section        0  gd32f30x_dma.o(i.dma_deinit)
    i.dma_flag_get                           0x08005504   Section        0  gd32f30x_dma.o(i.dma_flag_get)
    i.dma_init                               0x0800551c   Section        0  gd32f30x_dma.o(i.dma_init)
    i.dma_memory_to_memory_disable           0x0800564a   Section        0  gd32f30x_dma.o(i.dma_memory_to_memory_disable)
    i.dma_periph_and_channel_check           0x0800567c   Section        0  gd32f30x_dma.o(i.dma_periph_and_channel_check)
    dma_periph_and_channel_check             0x0800567d   Thumb Code    18  gd32f30x_dma.o(i.dma_periph_and_channel_check)
    i.dma_struct_para_init                   0x08005694   Section        0  gd32f30x_dma.o(i.dma_struct_para_init)
    i.gpio_bit_write                         0x080056b0   Section        0  gd32f30x_gpio.o(i.gpio_bit_write)
    i.gpio_init                              0x080056ba   Section        0  gd32f30x_gpio.o(i.gpio_init)
    i.gpio_output_bit_get                    0x08005776   Section        0  gd32f30x_gpio.o(i.gpio_output_bit_get)
    i.gpio_pin_remap_config                  0x08005788   Section        0  gd32f30x_gpio.o(i.gpio_pin_remap_config)
    i.hall_init                              0x08005818   Section        0  motor_hardware.o(i.hall_init)
    i.hall_timer_config                      0x08005878   Section        0  motor_hardware.o(i.hall_timer_config)
    hall_timer_config                        0x08005879   Thumb Code   210  motor_hardware.o(i.hall_timer_config)
    i.init_pi                                0x08005950   Section        0  foc.o(i.init_pi)
    i.interrupt_init                         0x08005968   Section        0  motor_hardware.o(i.interrupt_init)
    i.inv_park                               0x0800598a   Section        0  foc.o(i.inv_park)
    i.led_init                               0x080059c4   Section        0  led.o(i.led_init)
    i.led_on                                 0x08005a58   Section        0  led.o(i.led_on)
    i.led_toggle                             0x08005a70   Section        0  led.o(i.led_toggle)
    i.main                                   0x08005aa8   Section        0  main.o(i.main)
    i.motor_hardware_init                    0x08005b88   Section        0  motor_hardware.o(i.motor_hardware_init)
    i.motor_pwm_channel_enable               0x08005ba0   Section        0  motor_hardware.o(i.motor_pwm_channel_enable)
    i.motor_pwm_set_duty                     0x08005c28   Section        0  motor_hardware.o(i.motor_pwm_set_duty)
    i.mt6701_init                            0x08005c54   Section        0  mt6701.o(i.mt6701_init)
    i.mt6701_read_angle0                     0x08005c80   Section        0  mt6701.o(i.mt6701_read_angle0)
    i.nvic_irq_enable                        0x08005ce8   Section        0  gd32f30x_misc.o(i.nvic_irq_enable)
    i.nvic_priority_group_set                0x08005dac   Section        0  gd32f30x_misc.o(i.nvic_priority_group_set)
    i.park                                   0x08005dc0   Section        0  foc.o(i.park)
    i.pid_control                            0x08005dfc   Section        0  pmsm.o(i.pid_control)
    pid_control                              0x08005dfd   Thumb Code   520  pmsm.o(i.pid_control)
    i.pmsm_foc_init                          0x08006024   Section        0  pmsm.o(i.pmsm_foc_init)
    i.pmsm_foc_init_control_parameters       0x08006058   Section        0  pmsm.o(i.pmsm_foc_init_control_parameters)
    pmsm_foc_init_control_parameters         0x08006059   Thumb Code   160  pmsm.o(i.pmsm_foc_init_control_parameters)
    i.pmsm_foc_run                           0x08006110   Section        0  pmsm.o(i.pmsm_foc_run)
    i.pwm_gpio_init                          0x08006140   Section        0  motor_hardware.o(i.pwm_gpio_init)
    pwm_gpio_init                            0x08006141   Thumb Code   126  motor_hardware.o(i.pwm_gpio_init)
    i.pwm_timer_config                       0x080061c8   Section        0  motor_hardware.o(i.pwm_timer_config)
    pwm_timer_config                         0x080061c9   Thumb Code   410  motor_hardware.o(i.pwm_timer_config)
    i.rcu_adc_clock_config                   0x08006368   Section        0  gd32f30x_rcu.o(i.rcu_adc_clock_config)
    i.rcu_clock_freq_get                     0x080063d4   Section        0  gd32f30x_rcu.o(i.rcu_clock_freq_get)
    i.rcu_periph_clock_enable                0x0800652c   Section        0  gd32f30x_rcu.o(i.rcu_periph_clock_enable)
    i.rcu_periph_reset_disable               0x0800654c   Section        0  gd32f30x_rcu.o(i.rcu_periph_reset_disable)
    i.rcu_periph_reset_enable                0x0800656c   Section        0  gd32f30x_rcu.o(i.rcu_periph_reset_enable)
    i.sin_cos                                0x0800658c   Section        0  foc.o(i.sin_cos)
    i.spi0_init                              0x080065b4   Section        0  spi.o(i.spi0_init)
    i.spi0_transmit_receive_data             0x0800661c   Section        0  spi.o(i.spi0_transmit_receive_data)
    i.spi2_init                              0x08006650   Section        0  spi.o(i.spi2_init)
    i.spi2_transmit_receive_data             0x080066b4   Section        0  spi.o(i.spi2_transmit_receive_data)
    i.spi_enable                             0x080066ec   Section        0  gd32f30x_spi.o(i.spi_enable)
    i.spi_i2s_data_receive                   0x080066f6   Section        0  gd32f30x_spi.o(i.spi_i2s_data_receive)
    i.spi_i2s_data_transmit                  0x080066fe   Section        0  gd32f30x_spi.o(i.spi_i2s_data_transmit)
    i.spi_i2s_flag_get                       0x08006702   Section        0  gd32f30x_spi.o(i.spi_i2s_flag_get)
    i.spi_init                               0x08006712   Section        0  gd32f30x_spi.o(i.spi_init)
    i.svpwm                                  0x08006744   Section        0  foc.o(i.svpwm)
    i.system_clock_120m_hxtal                0x08006a1c   Section        0  system_gd32f30x.o(i.system_clock_120m_hxtal)
    system_clock_120m_hxtal                  0x08006a1d   Thumb Code   258  system_gd32f30x.o(i.system_clock_120m_hxtal)
    i.system_clock_config                    0x08006b30   Section        0  system_gd32f30x.o(i.system_clock_config)
    system_clock_config                      0x08006b31   Thumb Code     8  system_gd32f30x.o(i.system_clock_config)
    i.systick_delay                          0x08006b38   Section        0  systick.o(i.systick_delay)
    i.systick_get_current_tick               0x08006b68   Section        0  systick.o(i.systick_get_current_tick)
    i.systick_init                           0x08006b74   Section        0  systick.o(i.systick_init)
    i.timer_auto_reload_shadow_enable        0x08006bc4   Section        0  gd32f30x_timer.o(i.timer_auto_reload_shadow_enable)
    i.timer_break_config                     0x08006bce   Section        0  gd32f30x_timer.o(i.timer_break_config)
    i.timer_channel_complementary_output_state_config 0x08006bec   Section        0  gd32f30x_timer.o(i.timer_channel_complementary_output_state_config)
    i.timer_channel_input_capture_prescaler_config 0x08006c32   Section        0  gd32f30x_timer.o(i.timer_channel_input_capture_prescaler_config)
    i.timer_channel_output_config            0x08006c8c   Section        0  gd32f30x_timer.o(i.timer_channel_output_config)
    i.timer_channel_output_mode_config       0x08006e78   Section        0  gd32f30x_timer.o(i.timer_channel_output_mode_config)
    i.timer_channel_output_pulse_value_config 0x08006ed2   Section        0  gd32f30x_timer.o(i.timer_channel_output_pulse_value_config)
    i.timer_channel_output_shadow_config     0x08006ef8   Section        0  gd32f30x_timer.o(i.timer_channel_output_shadow_config)
    i.timer_channel_output_state_config      0x08006f52   Section        0  gd32f30x_timer.o(i.timer_channel_output_state_config)
    i.timer_deinit                           0x08006fb0   Section        0  gd32f30x_timer.o(i.timer_deinit)
    i.timer_enable                           0x0800708c   Section        0  gd32f30x_timer.o(i.timer_enable)
    i.timer_hall_mode_config                 0x08007096   Section        0  gd32f30x_timer.o(i.timer_hall_mode_config)
    i.timer_init                             0x080070b0   Section        0  gd32f30x_timer.o(i.timer_init)
    i.timer_input_capture_config             0x08007148   Section        0  gd32f30x_timer.o(i.timer_input_capture_config)
    i.timer_input_trigger_source_select      0x0800728e   Section        0  gd32f30x_timer.o(i.timer_input_trigger_source_select)
    i.timer_interrupt_enable                 0x0800729e   Section        0  gd32f30x_timer.o(i.timer_interrupt_enable)
    i.timer_interrupt_flag_clear             0x080072a6   Section        0  gd32f30x_timer.o(i.timer_interrupt_flag_clear)
    i.timer_interrupt_flag_get               0x080072ac   Section        0  gd32f30x_timer.o(i.timer_interrupt_flag_get)
    i.timer_primary_output_config            0x080072c4   Section        0  gd32f30x_timer.o(i.timer_primary_output_config)
    i.timer_slave_mode_select                0x080072dc   Section        0  gd32f30x_timer.o(i.timer_slave_mode_select)
    i.usart_baudrate_set                     0x080072ec   Section        0  gd32f30x_usart.o(i.usart_baudrate_set)
    i.usart_deinit                           0x0800737c   Section        0  gd32f30x_usart.o(i.usart_deinit)
    i.usart_dma_receive_config               0x0800740c   Section        0  gd32f30x_usart.o(i.usart_dma_receive_config)
    i.usart_dma_transmit_config              0x08007420   Section        0  gd32f30x_usart.o(i.usart_dma_transmit_config)
    i.usart_enable                           0x08007434   Section        0  gd32f30x_usart.o(i.usart_enable)
    i.usart_init                             0x08007440   Section        0  uart.o(i.usart_init)
    i.usart_receive_config                   0x08007594   Section        0  gd32f30x_usart.o(i.usart_receive_config)
    i.usart_send_data                        0x080075a8   Section        0  uart.o(i.usart_send_data)
    i.usart_transmit_config                  0x08007630   Section        0  gd32f30x_usart.o(i.usart_transmit_config)
    .constdata                               0x08007644   Section    13300  lcd.o(.constdata)
    .constdata                               0x0800aa38   Section     2052  arm_common_tables.o(.constdata)
    .data                                    0x20000000   Section       62  main.o(.data)
    cnt                                      0x2000003c   Data           2  main.o(.data)
    .data                                    0x20000040   Section       24  led.o(.data)
    GPIO_PORT                                0x20000040   Data          12  led.o(.data)
    GPIO_PIN                                 0x2000004c   Data          12  led.o(.data)
    .data                                    0x20000058   Section        4  systick.o(.data)
    tick_cnt                                 0x20000058   Data           4  systick.o(.data)
    .data                                    0x2000005c   Section        4  system_gd32f30x.o(.data)
    .bss                                     0x20000060   Section       40  main.o(.bss)
    .bss                                     0x20000088   Section       64  uart.o(.bss)
    rxbuffer                                 0x20000088   Data          32  uart.o(.bss)
    txbuffer                                 0x200000a8   Data          32  uart.o(.bss)
    .bss                                     0x200000c8   Section      248  pmsm.o(.bss)
    STACK                                    0x200001c0   Section     1024  startup_gd32f30x_hd.o(STACK)

    Global Symbols

    Symbol Name                              Value     Ov Type        Size  Object(Section)

    BuildAttributes$$THM_ISAv4$E$P$D$K$B$S$7EM$VFPi3$EXTD16$VFPS$VFMA$PE$A:L22UL41UL21$X:L11$S22US41US21$IEEE1$IW$USESV6$~STKCKD$USESV7$~SHL$OTIME$ROPI$IEEEX$EBA8$MICROLIB$REQ8$PRES8$EABIv2 0x00000000   Number         0  anon$$obj.o ABSOLUTE
    __ARM_use_no_argv                        0x00000000   Number         0  main.o ABSOLUTE
    __cpp_initialize__aeabi_                  - Undefined Weak Reference
    __cxa_finalize                            - Undefined Weak Reference
    __decompress                              - Undefined Weak Reference
    _clock_init                               - Undefined Weak Reference
    _microlib_exit                            - Undefined Weak Reference
    __Vectors_Size                           0x00000130   Number         0  startup_gd32f30x_hd.o ABSOLUTE
    __Vectors                                0x08004000   Data           4  startup_gd32f30x_hd.o(RESET)
    __Vectors_End                            0x08004130   Data           0  startup_gd32f30x_hd.o(RESET)
    __main                                   0x08004131   Thumb Code     0  entry.o(.ARM.Collect$$$$00000000)
    _main_stk                                0x08004131   Thumb Code     0  entry2.o(.ARM.Collect$$$$00000001)
    _main_scatterload                        0x08004135   Thumb Code     0  entry5.o(.ARM.Collect$$$$00000004)
    __main_after_scatterload                 0x08004139   Thumb Code     0  entry5.o(.ARM.Collect$$$$00000004)
    _main_clock                              0x08004139   Thumb Code     0  entry7b.o(.ARM.Collect$$$$00000008)
    _main_cpp_init                           0x08004139   Thumb Code     0  entry8b.o(.ARM.Collect$$$$0000000A)
    _main_init                               0x08004139   Thumb Code     0  entry9a.o(.ARM.Collect$$$$0000000B)
    __rt_final_cpp                           0x08004141   Thumb Code     0  entry10a.o(.ARM.Collect$$$$0000000D)
    __rt_final_exit                          0x08004141   Thumb Code     0  entry11a.o(.ARM.Collect$$$$0000000F)
    Reset_Handler                            0x08004145   Thumb Code     8  startup_gd32f30x_hd.o(.text)
    ADC2_IRQHandler                          0x0800415f   Thumb Code     0  startup_gd32f30x_hd.o(.text)
    CAN0_EWMC_IRQHandler                     0x0800415f   Thumb Code     0  startup_gd32f30x_hd.o(.text)
    CAN0_RX1_IRQHandler                      0x0800415f   Thumb Code     0  startup_gd32f30x_hd.o(.text)
    DMA0_Channel0_IRQHandler                 0x0800415f   Thumb Code     0  startup_gd32f30x_hd.o(.text)
    DMA0_Channel1_IRQHandler                 0x0800415f   Thumb Code     0  startup_gd32f30x_hd.o(.text)
    DMA0_Channel2_IRQHandler                 0x0800415f   Thumb Code     0  startup_gd32f30x_hd.o(.text)
    DMA0_Channel3_IRQHandler                 0x0800415f   Thumb Code     0  startup_gd32f30x_hd.o(.text)
    DMA0_Channel4_IRQHandler                 0x0800415f   Thumb Code     0  startup_gd32f30x_hd.o(.text)
    DMA0_Channel5_IRQHandler                 0x0800415f   Thumb Code     0  startup_gd32f30x_hd.o(.text)
    DMA0_Channel6_IRQHandler                 0x0800415f   Thumb Code     0  startup_gd32f30x_hd.o(.text)
    DMA1_Channel0_IRQHandler                 0x0800415f   Thumb Code     0  startup_gd32f30x_hd.o(.text)
    DMA1_Channel1_IRQHandler                 0x0800415f   Thumb Code     0  startup_gd32f30x_hd.o(.text)
    DMA1_Channel2_IRQHandler                 0x0800415f   Thumb Code     0  startup_gd32f30x_hd.o(.text)
    DMA1_Channel3_4_IRQHandler               0x0800415f   Thumb Code     0  startup_gd32f30x_hd.o(.text)
    EXMC_IRQHandler                          0x0800415f   Thumb Code     0  startup_gd32f30x_hd.o(.text)
    EXTI0_IRQHandler                         0x0800415f   Thumb Code     0  startup_gd32f30x_hd.o(.text)
    EXTI10_15_IRQHandler                     0x0800415f   Thumb Code     0  startup_gd32f30x_hd.o(.text)
    EXTI1_IRQHandler                         0x0800415f   Thumb Code     0  startup_gd32f30x_hd.o(.text)
    EXTI2_IRQHandler                         0x0800415f   Thumb Code     0  startup_gd32f30x_hd.o(.text)
    EXTI3_IRQHandler                         0x0800415f   Thumb Code     0  startup_gd32f30x_hd.o(.text)
    EXTI4_IRQHandler                         0x0800415f   Thumb Code     0  startup_gd32f30x_hd.o(.text)
    EXTI5_9_IRQHandler                       0x0800415f   Thumb Code     0  startup_gd32f30x_hd.o(.text)
    FMC_IRQHandler                           0x0800415f   Thumb Code     0  startup_gd32f30x_hd.o(.text)
    I2C0_ER_IRQHandler                       0x0800415f   Thumb Code     0  startup_gd32f30x_hd.o(.text)
    I2C0_EV_IRQHandler                       0x0800415f   Thumb Code     0  startup_gd32f30x_hd.o(.text)
    I2C1_ER_IRQHandler                       0x0800415f   Thumb Code     0  startup_gd32f30x_hd.o(.text)
    I2C1_EV_IRQHandler                       0x0800415f   Thumb Code     0  startup_gd32f30x_hd.o(.text)
    LVD_IRQHandler                           0x0800415f   Thumb Code     0  startup_gd32f30x_hd.o(.text)
    RCU_CTC_IRQHandler                       0x0800415f   Thumb Code     0  startup_gd32f30x_hd.o(.text)
    RTC_Alarm_IRQHandler                     0x0800415f   Thumb Code     0  startup_gd32f30x_hd.o(.text)
    RTC_IRQHandler                           0x0800415f   Thumb Code     0  startup_gd32f30x_hd.o(.text)
    SDIO_IRQHandler                          0x0800415f   Thumb Code     0  startup_gd32f30x_hd.o(.text)
    SPI0_IRQHandler                          0x0800415f   Thumb Code     0  startup_gd32f30x_hd.o(.text)
    SPI1_IRQHandler                          0x0800415f   Thumb Code     0  startup_gd32f30x_hd.o(.text)
    SPI2_IRQHandler                          0x0800415f   Thumb Code     0  startup_gd32f30x_hd.o(.text)
    TAMPER_IRQHandler                        0x0800415f   Thumb Code     0  startup_gd32f30x_hd.o(.text)
    TIMER0_Channel_IRQHandler                0x0800415f   Thumb Code     0  startup_gd32f30x_hd.o(.text)
    TIMER0_TRG_CMT_IRQHandler                0x0800415f   Thumb Code     0  startup_gd32f30x_hd.o(.text)
    TIMER0_UP_IRQHandler                     0x0800415f   Thumb Code     0  startup_gd32f30x_hd.o(.text)
    TIMER1_IRQHandler                        0x0800415f   Thumb Code     0  startup_gd32f30x_hd.o(.text)
    TIMER3_IRQHandler                        0x0800415f   Thumb Code     0  startup_gd32f30x_hd.o(.text)
    TIMER4_IRQHandler                        0x0800415f   Thumb Code     0  startup_gd32f30x_hd.o(.text)
    TIMER5_IRQHandler                        0x0800415f   Thumb Code     0  startup_gd32f30x_hd.o(.text)
    TIMER6_IRQHandler                        0x0800415f   Thumb Code     0  startup_gd32f30x_hd.o(.text)
    TIMER7_BRK_IRQHandler                    0x0800415f   Thumb Code     0  startup_gd32f30x_hd.o(.text)
    TIMER7_Channel_IRQHandler                0x0800415f   Thumb Code     0  startup_gd32f30x_hd.o(.text)
    TIMER7_TRG_CMT_IRQHandler                0x0800415f   Thumb Code     0  startup_gd32f30x_hd.o(.text)
    TIMER7_UP_IRQHandler                     0x0800415f   Thumb Code     0  startup_gd32f30x_hd.o(.text)
    UART3_IRQHandler                         0x0800415f   Thumb Code     0  startup_gd32f30x_hd.o(.text)
    UART4_IRQHandler                         0x0800415f   Thumb Code     0  startup_gd32f30x_hd.o(.text)
    USART0_IRQHandler                        0x0800415f   Thumb Code     0  startup_gd32f30x_hd.o(.text)
    USART1_IRQHandler                        0x0800415f   Thumb Code     0  startup_gd32f30x_hd.o(.text)
    USART2_IRQHandler                        0x0800415f   Thumb Code     0  startup_gd32f30x_hd.o(.text)
    USBD_HP_CAN0_TX_IRQHandler               0x0800415f   Thumb Code     0  startup_gd32f30x_hd.o(.text)
    USBD_LP_CAN0_RX0_IRQHandler              0x0800415f   Thumb Code     0  startup_gd32f30x_hd.o(.text)
    USBD_WKUP_IRQHandler                     0x0800415f   Thumb Code     0  startup_gd32f30x_hd.o(.text)
    WWDGT_IRQHandler                         0x0800415f   Thumb Code     0  startup_gd32f30x_hd.o(.text)
    arm_cos_f32                              0x08004169   Thumb Code   108  arm_cos_f32.o(.text)
    arm_sin_f32                              0x080041e1   Thumb Code   118  arm_sin_f32.o(.text)
    __aeabi_memcpy                           0x08004265   Thumb Code    36  memcpya.o(.text)
    __aeabi_memcpy4                          0x08004265   Thumb Code     0  memcpya.o(.text)
    __aeabi_memcpy8                          0x08004265   Thumb Code     0  memcpya.o(.text)
    __scatterload                            0x08004289   Thumb Code    28  init.o(.text)
    __scatterload_rt2                        0x08004289   Thumb Code     0  init.o(.text)
    ADC0_1_IRQHandler                        0x080042ad   Thumb Code  1154  main.o(i.ADC0_1_IRQHandler)
    BusFault_Handler                         0x0800472f   Thumb Code     4  gd32f30x_it.o(i.BusFault_Handler)
    DRV8323RS_clearFaults                    0x08004733   Thumb Code    14  drv8323rs.o(i.DRV8323RS_clearFaults)
    DRV8323RS_createSPIDataWord              0x08004741   Thumb Code    30  drv8323rs.o(i.DRV8323RS_createSPIDataWord)
    DRV8323RS_disable                        0x08004761   Thumb Code    22  drv8323rs.o(i.DRV8323RS_disable)
    DRV8323RS_enable                         0x0800477d   Thumb Code    20  drv8323rs.o(i.DRV8323RS_enable)
    DRV8323RS_init                           0x08004795   Thumb Code   174  drv8323rs.o(i.DRV8323RS_init)
    DRV8323RS_setCsaGain                     0x0800484d   Thumb Code    16  drv8323rs.o(i.DRV8323RS_setCsaGain)
    DRV8323RS_setVdsLvl                      0x0800485d   Thumb Code    16  drv8323rs.o(i.DRV8323RS_setVdsLvl)
    DRV8323RS_spiRead                        0x0800486d   Thumb Code    52  drv8323rs.o(i.DRV8323RS_spiRead)
    DRV8323RS_spiUpdateRegister              0x080048a5   Thumb Code    34  drv8323rs.o(i.DRV8323RS_spiUpdateRegister)
    DRV8323RS_spiWrite                       0x080048c9   Thumb Code    46  drv8323rs.o(i.DRV8323RS_spiWrite)
    DebugMon_Handler                         0x080048fd   Thumb Code     2  gd32f30x_it.o(i.DebugMon_Handler)
    HardFault_Handler                        0x080048ff   Thumb Code     4  gd32f30x_it.o(i.HardFault_Handler)
    LCD_Address_Set                          0x08004903   Thumb Code    74  lcd_init.o(i.LCD_Address_Set)
    LCD_DrawPoint                            0x0800494d   Thumb Code    28  lcd.o(i.LCD_DrawPoint)
    LCD_Fill                                 0x08004969   Thumb Code    74  lcd.o(i.LCD_Fill)
    LCD_GPIO_Init                            0x080049b5   Thumb Code   114  lcd_init.o(i.LCD_GPIO_Init)
    LCD_Init                                 0x08004a2d   Thumb Code   428  lcd_init.o(i.LCD_Init)
    LCD_ShowChar                             0x08004bdd   Thumb Code   328  lcd.o(i.LCD_ShowChar)
    LCD_ShowString                           0x08004d35   Thumb Code    66  lcd.o(i.LCD_ShowString)
    LCD_WR_DATA                              0x08004d77   Thumb Code    18  lcd_init.o(i.LCD_WR_DATA)
    LCD_WR_DATA8                             0x08004d89   Thumb Code    12  lcd_init.o(i.LCD_WR_DATA8)
    LCD_WR_REG                               0x08004d95   Thumb Code    34  lcd_init.o(i.LCD_WR_REG)
    LCD_Writ_Bus                             0x08004dbd   Thumb Code    32  lcd_init.o(i.LCD_Writ_Bus)
    MemManage_Handler                        0x08004de1   Thumb Code     4  gd32f30x_it.o(i.MemManage_Handler)
    NMI_Handler                              0x08004de5   Thumb Code     2  gd32f30x_it.o(i.NMI_Handler)
    PendSV_Handler                           0x08004e11   Thumb Code     2  gd32f30x_it.o(i.PendSV_Handler)
    SVC_Handler                              0x08004e13   Thumb Code     2  gd32f30x_it.o(i.SVC_Handler)
    SysTick_Handler                          0x08004e15   Thumb Code    12  systick.o(i.SysTick_Handler)
    SystemInit                               0x08004e25   Thumb Code   156  system_gd32f30x.o(i.SystemInit)
    TIMER0_BRK_IRQHandler                    0x08004ecd   Thumb Code    48  main.o(i.TIMER0_BRK_IRQHandler)
    TIMER2_IRQHandler                        0x08004f01   Thumb Code    24  main.o(i.TIMER2_IRQHandler)
    UsageFault_Handler                       0x08004f1d   Thumb Code     4  gd32f30x_it.o(i.UsageFault_Handler)
    __scatterload_copy                       0x08004f21   Thumb Code    14  handlers.o(i.__scatterload_copy)
    __scatterload_null                       0x08004f2f   Thumb Code     2  handlers.o(i.__scatterload_null)
    __scatterload_zeroinit                   0x08004f31   Thumb Code    14  handlers.o(i.__scatterload_zeroinit)
    adc0_init                                0x08004ff5   Thumb Code    12  motor_hardware.o(i.adc0_init)
    adc_calibration_enable                   0x08005001   Thumb Code    42  gd32f30x_adc.o(i.adc_calibration_enable)
    adc_channel_length_config                0x0800502b   Thumb Code    70  gd32f30x_adc.o(i.adc_channel_length_config)
    adc_data_alignment_config                0x08005071   Thumb Code    22  gd32f30x_adc.o(i.adc_data_alignment_config)
    adc_enable                               0x08005087   Thumb Code    18  gd32f30x_adc.o(i.adc_enable)
    adc_external_trigger_config              0x08005099   Thumb Code    62  gd32f30x_adc.o(i.adc_external_trigger_config)
    adc_external_trigger_source_config       0x080050d7   Thumb Code    48  gd32f30x_adc.o(i.adc_external_trigger_source_config)
    adc_inserted_channel_config              0x08005169   Thumb Code   116  gd32f30x_adc.o(i.adc_inserted_channel_config)
    adc_inserted_data_read                   0x080051dd   Thumb Code    46  gd32f30x_adc.o(i.adc_inserted_data_read)
    adc_interrupt_enable                     0x0800520b   Thumb Code    44  gd32f30x_adc.o(i.adc_interrupt_enable)
    adc_interrupt_flag_clear                 0x08005237   Thumb Code     6  gd32f30x_adc.o(i.adc_interrupt_flag_clear)
    adc_mode_config                          0x0800523d   Thumb Code    22  gd32f30x_adc.o(i.adc_mode_config)
    adc_special_function_config              0x08005259   Thumb Code    90  gd32f30x_adc.o(i.adc_special_function_config)
    calc_pi                                  0x080052b3   Thumb Code   122  foc.o(i.calc_pi)
    clark                                    0x080053bd   Thumb Code    46  foc.o(i.clark)
    dma_channel_enable                       0x08005431   Thumb Code    50  gd32f30x_dma.o(i.dma_channel_enable)
    dma_circulation_disable                  0x08005463   Thumb Code    50  gd32f30x_dma.o(i.dma_circulation_disable)
    dma_deinit                               0x08005495   Thumb Code   112  gd32f30x_dma.o(i.dma_deinit)
    dma_flag_get                             0x08005505   Thumb Code    24  gd32f30x_dma.o(i.dma_flag_get)
    dma_init                                 0x0800551d   Thumb Code   302  gd32f30x_dma.o(i.dma_init)
    dma_memory_to_memory_disable             0x0800564b   Thumb Code    50  gd32f30x_dma.o(i.dma_memory_to_memory_disable)
    dma_struct_para_init                     0x08005695   Thumb Code    28  gd32f30x_dma.o(i.dma_struct_para_init)
    gpio_bit_write                           0x080056b1   Thumb Code    10  gd32f30x_gpio.o(i.gpio_bit_write)
    gpio_init                                0x080056bb   Thumb Code   188  gd32f30x_gpio.o(i.gpio_init)
    gpio_output_bit_get                      0x08005777   Thumb Code    16  gd32f30x_gpio.o(i.gpio_output_bit_get)
    gpio_pin_remap_config                    0x08005789   Thumb Code   138  gd32f30x_gpio.o(i.gpio_pin_remap_config)
    hall_init                                0x08005819   Thumb Code    86  motor_hardware.o(i.hall_init)
    init_pi                                  0x08005951   Thumb Code    18  foc.o(i.init_pi)
    interrupt_init                           0x08005969   Thumb Code    34  motor_hardware.o(i.interrupt_init)
    inv_park                                 0x0800598b   Thumb Code    58  foc.o(i.inv_park)
    led_init                                 0x080059c5   Thumb Code   134  led.o(i.led_init)
    led_on                                   0x08005a59   Thumb Code    16  led.o(i.led_on)
    led_toggle                               0x08005a71   Thumb Code    46  led.o(i.led_toggle)
    main                                     0x08005aa9   Thumb Code   168  main.o(i.main)
    motor_hardware_init                      0x08005b89   Thumb Code    24  motor_hardware.o(i.motor_hardware_init)
    motor_pwm_channel_enable                 0x08005ba1   Thumb Code   132  motor_hardware.o(i.motor_pwm_channel_enable)
    motor_pwm_set_duty                       0x08005c29   Thumb Code    40  motor_hardware.o(i.motor_pwm_set_duty)
    mt6701_init                              0x08005c55   Thumb Code    38  mt6701.o(i.mt6701_init)
    mt6701_read_angle0                       0x08005c81   Thumb Code   100  mt6701.o(i.mt6701_read_angle0)
    nvic_irq_enable                          0x08005ce9   Thumb Code   186  gd32f30x_misc.o(i.nvic_irq_enable)
    nvic_priority_group_set                  0x08005dad   Thumb Code    10  gd32f30x_misc.o(i.nvic_priority_group_set)
    park                                     0x08005dc1   Thumb Code    58  foc.o(i.park)
    pmsm_foc_init                            0x08006025   Thumb Code    40  pmsm.o(i.pmsm_foc_init)
    pmsm_foc_run                             0x08006111   Thumb Code    42  pmsm.o(i.pmsm_foc_run)
    rcu_adc_clock_config                     0x08006369   Thumb Code    98  gd32f30x_rcu.o(i.rcu_adc_clock_config)
    rcu_clock_freq_get                       0x080063d5   Thumb Code   310  gd32f30x_rcu.o(i.rcu_clock_freq_get)
    rcu_periph_clock_enable                  0x0800652d   Thumb Code    28  gd32f30x_rcu.o(i.rcu_periph_clock_enable)
    rcu_periph_reset_disable                 0x0800654d   Thumb Code    28  gd32f30x_rcu.o(i.rcu_periph_reset_disable)
    rcu_periph_reset_enable                  0x0800656d   Thumb Code    28  gd32f30x_rcu.o(i.rcu_periph_reset_enable)
    sin_cos                                  0x0800658d   Thumb Code    38  foc.o(i.sin_cos)
    spi0_init                                0x080065b5   Thumb Code    94  spi.o(i.spi0_init)
    spi0_transmit_receive_data               0x0800661d   Thumb Code    48  spi.o(i.spi0_transmit_receive_data)
    spi2_init                                0x08006651   Thumb Code    88  spi.o(i.spi2_init)
    spi2_transmit_receive_data               0x080066b5   Thumb Code    50  spi.o(i.spi2_transmit_receive_data)
    spi_enable                               0x080066ed   Thumb Code    10  gd32f30x_spi.o(i.spi_enable)
    spi_i2s_data_receive                     0x080066f7   Thumb Code     8  gd32f30x_spi.o(i.spi_i2s_data_receive)
    spi_i2s_data_transmit                    0x080066ff   Thumb Code     4  gd32f30x_spi.o(i.spi_i2s_data_transmit)
    spi_i2s_flag_get                         0x08006703   Thumb Code    16  gd32f30x_spi.o(i.spi_i2s_flag_get)
    spi_init                                 0x08006713   Thumb Code    50  gd32f30x_spi.o(i.spi_init)
    svpwm                                    0x08006745   Thumb Code   718  foc.o(i.svpwm)
    systick_delay                            0x08006b39   Thumb Code    48  systick.o(i.systick_delay)
    systick_get_current_tick                 0x08006b69   Thumb Code     6  systick.o(i.systick_get_current_tick)
    systick_init                             0x08006b75   Thumb Code    74  systick.o(i.systick_init)
    timer_auto_reload_shadow_enable          0x08006bc5   Thumb Code    10  gd32f30x_timer.o(i.timer_auto_reload_shadow_enable)
    timer_break_config                       0x08006bcf   Thumb Code    30  gd32f30x_timer.o(i.timer_break_config)
    timer_channel_complementary_output_state_config 0x08006bed   Thumb Code    70  gd32f30x_timer.o(i.timer_channel_complementary_output_state_config)
    timer_channel_input_capture_prescaler_config 0x08006c33   Thumb Code    90  gd32f30x_timer.o(i.timer_channel_input_capture_prescaler_config)
    timer_channel_output_config              0x08006c8d   Thumb Code   484  gd32f30x_timer.o(i.timer_channel_output_config)
    timer_channel_output_mode_config         0x08006e79   Thumb Code    90  gd32f30x_timer.o(i.timer_channel_output_mode_config)
    timer_channel_output_pulse_value_config  0x08006ed3   Thumb Code    38  gd32f30x_timer.o(i.timer_channel_output_pulse_value_config)
    timer_channel_output_shadow_config       0x08006ef9   Thumb Code    90  gd32f30x_timer.o(i.timer_channel_output_shadow_config)
    timer_channel_output_state_config        0x08006f53   Thumb Code    92  gd32f30x_timer.o(i.timer_channel_output_state_config)
    timer_deinit                             0x08006fb1   Thumb Code   210  gd32f30x_timer.o(i.timer_deinit)
    timer_enable                             0x0800708d   Thumb Code    10  gd32f30x_timer.o(i.timer_enable)
    timer_hall_mode_config                   0x08007097   Thumb Code    26  gd32f30x_timer.o(i.timer_hall_mode_config)
    timer_init                               0x080070b1   Thumb Code   122  gd32f30x_timer.o(i.timer_init)
    timer_input_capture_config               0x08007149   Thumb Code   326  gd32f30x_timer.o(i.timer_input_capture_config)
    timer_input_trigger_source_select        0x0800728f   Thumb Code    16  gd32f30x_timer.o(i.timer_input_trigger_source_select)
    timer_interrupt_enable                   0x0800729f   Thumb Code     8  gd32f30x_timer.o(i.timer_interrupt_enable)
    timer_interrupt_flag_clear               0x080072a7   Thumb Code     6  gd32f30x_timer.o(i.timer_interrupt_flag_clear)
    timer_interrupt_flag_get                 0x080072ad   Thumb Code    24  gd32f30x_timer.o(i.timer_interrupt_flag_get)
    timer_primary_output_config              0x080072c5   Thumb Code    24  gd32f30x_timer.o(i.timer_primary_output_config)
    timer_slave_mode_select                  0x080072dd   Thumb Code    16  gd32f30x_timer.o(i.timer_slave_mode_select)
    usart_baudrate_set                       0x080072ed   Thumb Code   136  gd32f30x_usart.o(i.usart_baudrate_set)
    usart_deinit                             0x0800737d   Thumb Code   136  gd32f30x_usart.o(i.usart_deinit)
    usart_dma_receive_config                 0x0800740d   Thumb Code    20  gd32f30x_usart.o(i.usart_dma_receive_config)
    usart_dma_transmit_config                0x08007421   Thumb Code    20  gd32f30x_usart.o(i.usart_dma_transmit_config)
    usart_enable                             0x08007435   Thumb Code    10  gd32f30x_usart.o(i.usart_enable)
    usart_init                               0x08007441   Thumb Code   314  uart.o(i.usart_init)
    usart_receive_config                     0x08007595   Thumb Code    20  gd32f30x_usart.o(i.usart_receive_config)
    usart_send_data                          0x080075a9   Thumb Code   122  uart.o(i.usart_send_data)
    usart_transmit_config                    0x08007631   Thumb Code    20  gd32f30x_usart.o(i.usart_transmit_config)
    ascii_1206                               0x08007644   Data        1140  lcd.o(.constdata)
    ascii_1608                               0x08007ab8   Data        1520  lcd.o(.constdata)
    ascii_2412                               0x080080a8   Data        4560  lcd.o(.constdata)
    ascii_3216                               0x08009278   Data        6080  lcd.o(.constdata)
    sinTable_f32                             0x0800aa38   Data        2052  arm_common_tables.o(.constdata)
    Region$$Table$$Base                      0x0800b23c   Number         0  anon$$obj.o(Region$$Table)
    Region$$Table$$Limit                     0x0800b25c   Number         0  anon$$obj.o(Region$$Table)
    adc_calibration                          0x20000000   Data           1  main.o(.data)
    ia_offset                                0x20000004   Data           4  main.o(.data)
    ib_offset                                0x20000008   Data           4  main.o(.data)
    ic_offset                                0x2000000c   Data           4  main.o(.data)
    idc_offset                               0x20000010   Data           4  main.o(.data)
    adc1_ia                                  0x20000014   Data           2  main.o(.data)
    adc1_ib                                  0x20000016   Data           2  main.o(.data)
    adc1_ic                                  0x20000018   Data           2  main.o(.data)
    adc1_idc                                 0x2000001a   Data           2  main.o(.data)
    start_delay_tick                         0x2000001c   Data           4  main.o(.data)
    delta_angle                              0x20000020   Data           4  main.o(.data)
    angle_last                               0x20000024   Data           4  main.o(.data)
    angle_init                               0x20000028   Data           4  main.o(.data)
    angle                                    0x2000002c   Data           4  main.o(.data)
    mt6701_speed                             0x20000030   Data           4  main.o(.data)
    angle_u16                                0x20000034   Data           2  main.o(.data)
    speed_filter_count                       0x20000036   Data           2  main.o(.data)
    speed_sum                                0x20000038   Data           4  main.o(.data)
    SystemCoreClock                          0x2000005c   Data           4  system_gd32f30x.o(.data)
    speed_buf                                0x20000060   Data          40  main.o(.bss)
    pmsm_foc_param                           0x200000c8   Data         204  pmsm.o(.bss)
    pmsm_mc_param                            0x20000194   Data          44  pmsm.o(.bss)
    __initial_sp                             0x200005c0   Data           0  startup_gd32f30x_hd.o(STACK)



==============================================================================

Memory Map of the image

  Image Entry point : 0x08004131

  Load Region LR_IROM1 (Base: 0x08004000, Size: 0x000072bc, Max: 0x00040000, ABSOLUTE)

    Execution Region ER_IROM1 (Exec base: 0x08004000, Load base: 0x08004000, Size: 0x0000725c, Max: 0x00040000, ABSOLUTE)

    Exec Addr    Load Addr    Size         Type   Attr      Idx    E Section Name        Object

    0x08004000   0x08004000   0x00000130   Data   RO         1075    RESET               startup_gd32f30x_hd.o
    0x08004130   0x08004130   0x00000000   Code   RO         5399  * .ARM.Collect$$$$00000000  mc_w.l(entry.o)
    0x08004130   0x08004130   0x00000004   Code   RO         5414    .ARM.Collect$$$$00000001  mc_w.l(entry2.o)
    0x08004134   0x08004134   0x00000004   Code   RO         5417    .ARM.Collect$$$$00000004  mc_w.l(entry5.o)
    0x08004138   0x08004138   0x00000000   Code   RO         5419    .ARM.Collect$$$$00000008  mc_w.l(entry7b.o)
    0x08004138   0x08004138   0x00000000   Code   RO         5421    .ARM.Collect$$$$0000000A  mc_w.l(entry8b.o)
    0x08004138   0x08004138   0x00000008   Code   RO         5422    .ARM.Collect$$$$0000000B  mc_w.l(entry9a.o)
    0x08004140   0x08004140   0x00000000   Code   RO         5424    .ARM.Collect$$$$0000000D  mc_w.l(entry10a.o)
    0x08004140   0x08004140   0x00000000   Code   RO         5426    .ARM.Collect$$$$0000000F  mc_w.l(entry11a.o)
    0x08004140   0x08004140   0x00000004   Code   RO         5415    .ARM.Collect$$$$00002712  mc_w.l(entry2.o)
    0x08004144   0x08004144   0x00000024   Code   RO         1076    .text               startup_gd32f30x_hd.o
    0x08004168   0x08004168   0x00000078   Code   RO         5240    .text               arm_cortexM4lf_math.lib(arm_cos_f32.o)
    0x080041e0   0x080041e0   0x00000084   Code   RO         5296    .text               arm_cortexM4lf_math.lib(arm_sin_f32.o)
    0x08004264   0x08004264   0x00000024   Code   RO         5402    .text               mc_w.l(memcpya.o)
    0x08004288   0x08004288   0x00000024   Code   RO         5433    .text               mc_w.l(init.o)
    0x080042ac   0x080042ac   0x00000482   Code   RO          172    i.ADC0_1_IRQHandler  main.o
    0x0800472e   0x0800472e   0x00000004   Code   RO            3    i.BusFault_Handler  gd32f30x_it.o
    0x08004732   0x08004732   0x0000000e   Code   RO          814    i.DRV8323RS_clearFaults  drv8323rs.o
    0x08004740   0x08004740   0x0000001e   Code   RO          815    i.DRV8323RS_createSPIDataWord  drv8323rs.o
    0x0800475e   0x0800475e   0x00000002   PAD
    0x08004760   0x08004760   0x0000001c   Code   RO          816    i.DRV8323RS_disable  drv8323rs.o
    0x0800477c   0x0800477c   0x00000018   Code   RO          817    i.DRV8323RS_enable  drv8323rs.o
    0x08004794   0x08004794   0x000000b8   Code   RO          818    i.DRV8323RS_init    drv8323rs.o
    0x0800484c   0x0800484c   0x00000010   Code   RO          821    i.DRV8323RS_setCsaGain  drv8323rs.o
    0x0800485c   0x0800485c   0x00000010   Code   RO          834    i.DRV8323RS_setVdsLvl  drv8323rs.o
    0x0800486c   0x0800486c   0x00000038   Code   RO          836    i.DRV8323RS_spiRead  drv8323rs.o
    0x080048a4   0x080048a4   0x00000022   Code   RO          837    i.DRV8323RS_spiUpdateRegister  drv8323rs.o
    0x080048c6   0x080048c6   0x00000002   PAD
    0x080048c8   0x080048c8   0x00000034   Code   RO          838    i.DRV8323RS_spiWrite  drv8323rs.o
    0x080048fc   0x080048fc   0x00000002   Code   RO            4    i.DebugMon_Handler  gd32f30x_it.o
    0x080048fe   0x080048fe   0x00000004   Code   RO            5    i.HardFault_Handler  gd32f30x_it.o
    0x08004902   0x08004902   0x0000004a   Code   RO         5068    i.LCD_Address_Set   lcd_init.o
    0x0800494c   0x0800494c   0x0000001c   Code   RO         4984    i.LCD_DrawPoint     lcd.o
    0x08004968   0x08004968   0x0000004a   Code   RO         4986    i.LCD_Fill          lcd.o
    0x080049b2   0x080049b2   0x00000002   PAD
    0x080049b4   0x080049b4   0x00000078   Code   RO         5069    i.LCD_GPIO_Init     lcd_init.o
    0x08004a2c   0x08004a2c   0x000001b0   Code   RO         5070    i.LCD_Init          lcd_init.o
    0x08004bdc   0x08004bdc   0x00000158   Code   RO         4987    i.LCD_ShowChar      lcd.o
    0x08004d34   0x08004d34   0x00000042   Code   RO         4991    i.LCD_ShowString    lcd.o
    0x08004d76   0x08004d76   0x00000012   Code   RO         5071    i.LCD_WR_DATA       lcd_init.o
    0x08004d88   0x08004d88   0x0000000c   Code   RO         5072    i.LCD_WR_DATA8      lcd_init.o
    0x08004d94   0x08004d94   0x00000028   Code   RO         5073    i.LCD_WR_REG        lcd_init.o
    0x08004dbc   0x08004dbc   0x00000024   Code   RO         5074    i.LCD_Writ_Bus      lcd_init.o
    0x08004de0   0x08004de0   0x00000004   Code   RO            6    i.MemManage_Handler  gd32f30x_it.o
    0x08004de4   0x08004de4   0x00000002   Code   RO            7    i.NMI_Handler       gd32f30x_it.o
    0x08004de6   0x08004de6   0x00000002   PAD
    0x08004de8   0x08004de8   0x00000028   Code   RO          725    i.NVIC_SetPriority  systick.o
    0x08004e10   0x08004e10   0x00000002   Code   RO            8    i.PendSV_Handler    gd32f30x_it.o
    0x08004e12   0x08004e12   0x00000002   Code   RO            9    i.SVC_Handler       gd32f30x_it.o
    0x08004e14   0x08004e14   0x00000010   Code   RO          726    i.SysTick_Handler   systick.o
    0x08004e24   0x08004e24   0x000000a8   Code   RO         1034    i.SystemInit        system_gd32f30x.o
    0x08004ecc   0x08004ecc   0x00000034   Code   RO          173    i.TIMER0_BRK_IRQHandler  main.o
    0x08004f00   0x08004f00   0x0000001c   Code   RO          174    i.TIMER2_IRQHandler  main.o
    0x08004f1c   0x08004f1c   0x00000004   Code   RO           10    i.UsageFault_Handler  gd32f30x_it.o
    0x08004f20   0x08004f20   0x0000000e   Code   RO         5441    i.__scatterload_copy  mc_w.l(handlers.o)
    0x08004f2e   0x08004f2e   0x00000002   Code   RO         5442    i.__scatterload_null  mc_w.l(handlers.o)
    0x08004f30   0x08004f30   0x0000000e   Code   RO         5443    i.__scatterload_zeroinit  mc_w.l(handlers.o)
    0x08004f3e   0x08004f3e   0x00000002   PAD
    0x08004f40   0x08004f40   0x000000b4   Code   RO          280    i.adc0_config       motor_hardware.o
    0x08004ff4   0x08004ff4   0x0000000c   Code   RO          281    i.adc0_init         motor_hardware.o
    0x08005000   0x08005000   0x0000002a   Code   RO         1082    i.adc_calibration_enable  gd32f30x_adc.o
    0x0800502a   0x0800502a   0x00000046   Code   RO         1083    i.adc_channel_length_config  gd32f30x_adc.o
    0x08005070   0x08005070   0x00000016   Code   RO         1084    i.adc_data_alignment_config  gd32f30x_adc.o
    0x08005086   0x08005086   0x00000012   Code   RO         1090    i.adc_enable        gd32f30x_adc.o
    0x08005098   0x08005098   0x0000003e   Code   RO         1091    i.adc_external_trigger_config  gd32f30x_adc.o
    0x080050d6   0x080050d6   0x00000030   Code   RO         1092    i.adc_external_trigger_source_config  gd32f30x_adc.o
    0x08005106   0x08005106   0x00000002   PAD
    0x08005108   0x08005108   0x00000060   Code   RO          282    i.adc_gpio_init     motor_hardware.o
    0x08005168   0x08005168   0x00000074   Code   RO         1095    i.adc_inserted_channel_config  gd32f30x_adc.o
    0x080051dc   0x080051dc   0x0000002e   Code   RO         1097    i.adc_inserted_data_read  gd32f30x_adc.o
    0x0800520a   0x0800520a   0x0000002c   Code   RO         1099    i.adc_interrupt_enable  gd32f30x_adc.o
    0x08005236   0x08005236   0x00000006   Code   RO         1100    i.adc_interrupt_flag_clear  gd32f30x_adc.o
    0x0800523c   0x0800523c   0x0000001c   Code   RO         1102    i.adc_mode_config   gd32f30x_adc.o
    0x08005258   0x08005258   0x0000005a   Code   RO         1110    i.adc_special_function_config  gd32f30x_adc.o
    0x080052b2   0x080052b2   0x0000007a   Code   RO         5130    i.calc_pi           foc.o
    0x0800532c   0x0800532c   0x00000090   Code   RO         5189    i.calculate_park_angle  pmsm.o
    0x080053bc   0x080053bc   0x00000034   Code   RO         5131    i.clark             foc.o
    0x080053f0   0x080053f0   0x00000040   Code   RO          990    i.crc6              mt6701.o
    0x08005430   0x08005430   0x00000032   Code   RO         2039    i.dma_channel_enable  gd32f30x_dma.o
    0x08005462   0x08005462   0x00000032   Code   RO         2040    i.dma_circulation_disable  gd32f30x_dma.o
    0x08005494   0x08005494   0x00000070   Code   RO         2042    i.dma_deinit        gd32f30x_dma.o
    0x08005504   0x08005504   0x00000018   Code   RO         2044    i.dma_flag_get      gd32f30x_dma.o
    0x0800551c   0x0800551c   0x0000012e   Code   RO         2045    i.dma_init          gd32f30x_dma.o
    0x0800564a   0x0800564a   0x00000032   Code   RO         2053    i.dma_memory_to_memory_disable  gd32f30x_dma.o
    0x0800567c   0x0800567c   0x00000018   Code   RO         2057    i.dma_periph_and_channel_check  gd32f30x_dma.o
    0x08005694   0x08005694   0x0000001c   Code   RO         2062    i.dma_struct_para_init  gd32f30x_dma.o
    0x080056b0   0x080056b0   0x0000000a   Code   RO         2766    i.gpio_bit_write    gd32f30x_gpio.o
    0x080056ba   0x080056ba   0x000000bc   Code   RO         2774    i.gpio_init         gd32f30x_gpio.o
    0x08005776   0x08005776   0x00000010   Code   RO         2777    i.gpio_output_bit_get  gd32f30x_gpio.o
    0x08005786   0x08005786   0x00000002   PAD
    0x08005788   0x08005788   0x00000090   Code   RO         2780    i.gpio_pin_remap_config  gd32f30x_gpio.o
    0x08005818   0x08005818   0x00000060   Code   RO          285    i.hall_init         motor_hardware.o
    0x08005878   0x08005878   0x000000d8   Code   RO          286    i.hall_timer_config  motor_hardware.o
    0x08005950   0x08005950   0x00000018   Code   RO         5132    i.init_pi           foc.o
    0x08005968   0x08005968   0x00000022   Code   RO          287    i.interrupt_init    motor_hardware.o
    0x0800598a   0x0800598a   0x0000003a   Code   RO         5133    i.inv_park          foc.o
    0x080059c4   0x080059c4   0x00000094   Code   RO          618    i.led_init          led.o
    0x08005a58   0x08005a58   0x00000018   Code   RO          620    i.led_on            led.o
    0x08005a70   0x08005a70   0x00000038   Code   RO          621    i.led_toggle        led.o
    0x08005aa8   0x08005aa8   0x000000e0   Code   RO          175    i.main              main.o
    0x08005b88   0x08005b88   0x00000018   Code   RO          288    i.motor_hardware_init  motor_hardware.o
    0x08005ba0   0x08005ba0   0x00000088   Code   RO          289    i.motor_pwm_channel_enable  motor_hardware.o
    0x08005c28   0x08005c28   0x0000002c   Code   RO          290    i.motor_pwm_set_duty  motor_hardware.o
    0x08005c54   0x08005c54   0x0000002c   Code   RO          991    i.mt6701_init       mt6701.o
    0x08005c80   0x08005c80   0x00000068   Code   RO          992    i.mt6701_read_angle0  mt6701.o
    0x08005ce8   0x08005ce8   0x000000c4   Code   RO         3092    i.nvic_irq_enable   gd32f30x_misc.o
    0x08005dac   0x08005dac   0x00000014   Code   RO         3093    i.nvic_priority_group_set  gd32f30x_misc.o
    0x08005dc0   0x08005dc0   0x0000003a   Code   RO         5134    i.park              foc.o
    0x08005dfa   0x08005dfa   0x00000002   PAD
    0x08005dfc   0x08005dfc   0x00000228   Code   RO         5190    i.pid_control       pmsm.o
    0x08006024   0x08006024   0x00000034   Code   RO         5191    i.pmsm_foc_init     pmsm.o
    0x08006058   0x08006058   0x000000b8   Code   RO         5192    i.pmsm_foc_init_control_parameters  pmsm.o
    0x08006110   0x08006110   0x00000030   Code   RO         5193    i.pmsm_foc_run      pmsm.o
    0x08006140   0x08006140   0x00000088   Code   RO          291    i.pwm_gpio_init     motor_hardware.o
    0x080061c8   0x080061c8   0x000001a0   Code   RO          292    i.pwm_timer_config  motor_hardware.o
    0x08006368   0x08006368   0x0000006c   Code   RO         3282    i.rcu_adc_clock_config  gd32f30x_rcu.o
    0x080063d4   0x080063d4   0x00000158   Code   RO         3291    i.rcu_clock_freq_get  gd32f30x_rcu.o
    0x0800652c   0x0800652c   0x00000020   Code   RO         3309    i.rcu_periph_clock_enable  gd32f30x_rcu.o
    0x0800654c   0x0800654c   0x00000020   Code   RO         3312    i.rcu_periph_reset_disable  gd32f30x_rcu.o
    0x0800656c   0x0800656c   0x00000020   Code   RO         3313    i.rcu_periph_reset_enable  gd32f30x_rcu.o
    0x0800658c   0x0800658c   0x00000026   Code   RO         5135    i.sin_cos           foc.o
    0x080065b2   0x080065b2   0x00000002   PAD
    0x080065b4   0x080065b4   0x00000068   Code   RO          684    i.spi0_init         spi.o
    0x0800661c   0x0800661c   0x00000034   Code   RO          685    i.spi0_transmit_receive_data  spi.o
    0x08006650   0x08006650   0x00000064   Code   RO          686    i.spi2_init         spi.o
    0x080066b4   0x080066b4   0x00000038   Code   RO          687    i.spi2_transmit_receive_data  spi.o
    0x080066ec   0x080066ec   0x0000000a   Code   RO         3927    i.spi_enable        gd32f30x_spi.o
    0x080066f6   0x080066f6   0x00000008   Code   RO         3929    i.spi_i2s_data_receive  gd32f30x_spi.o
    0x080066fe   0x080066fe   0x00000004   Code   RO         3930    i.spi_i2s_data_transmit  gd32f30x_spi.o
    0x08006702   0x08006702   0x00000010   Code   RO         3932    i.spi_i2s_flag_get  gd32f30x_spi.o
    0x08006712   0x08006712   0x00000032   Code   RO         3937    i.spi_init          gd32f30x_spi.o
    0x08006744   0x08006744   0x000002d8   Code   RO         5136    i.svpwm             foc.o
    0x08006a1c   0x08006a1c   0x00000114   Code   RO         1035    i.system_clock_120m_hxtal  system_gd32f30x.o
    0x08006b30   0x08006b30   0x00000008   Code   RO         1036    i.system_clock_config  system_gd32f30x.o
    0x08006b38   0x08006b38   0x00000030   Code   RO          728    i.systick_delay     systick.o
    0x08006b68   0x08006b68   0x0000000c   Code   RO          729    i.systick_get_current_tick  systick.o
    0x08006b74   0x08006b74   0x00000050   Code   RO          730    i.systick_init      systick.o
    0x08006bc4   0x08006bc4   0x0000000a   Code   RO         4173    i.timer_auto_reload_shadow_enable  gd32f30x_timer.o
    0x08006bce   0x08006bce   0x0000001e   Code   RO         4177    i.timer_break_config  gd32f30x_timer.o
    0x08006bec   0x08006bec   0x00000046   Code   RO         4183    i.timer_channel_complementary_output_state_config  gd32f30x_timer.o
    0x08006c32   0x08006c32   0x0000005a   Code   RO         4187    i.timer_channel_input_capture_prescaler_config  gd32f30x_timer.o
    0x08006c8c   0x08006c8c   0x000001ec   Code   RO         4190    i.timer_channel_output_config  gd32f30x_timer.o
    0x08006e78   0x08006e78   0x0000005a   Code   RO         4192    i.timer_channel_output_mode_config  gd32f30x_timer.o
    0x08006ed2   0x08006ed2   0x00000026   Code   RO         4194    i.timer_channel_output_pulse_value_config  gd32f30x_timer.o
    0x08006ef8   0x08006ef8   0x0000005a   Code   RO         4195    i.timer_channel_output_shadow_config  gd32f30x_timer.o
    0x08006f52   0x08006f52   0x0000005c   Code   RO         4196    i.timer_channel_output_state_config  gd32f30x_timer.o
    0x08006fae   0x08006fae   0x00000002   PAD
    0x08006fb0   0x08006fb0   0x000000dc   Code   RO         4203    i.timer_deinit      gd32f30x_timer.o
    0x0800708c   0x0800708c   0x0000000a   Code   RO         4208    i.timer_enable      gd32f30x_timer.o
    0x08007096   0x08007096   0x0000001a   Code   RO         4217    i.timer_hall_mode_config  gd32f30x_timer.o
    0x080070b0   0x080070b0   0x00000098   Code   RO         4218    i.timer_init        gd32f30x_timer.o
    0x08007148   0x08007148   0x00000146   Code   RO         4219    i.timer_input_capture_config  gd32f30x_timer.o
    0x0800728e   0x0800728e   0x00000010   Code   RO         4221    i.timer_input_trigger_source_select  gd32f30x_timer.o
    0x0800729e   0x0800729e   0x00000008   Code   RO         4225    i.timer_interrupt_enable  gd32f30x_timer.o
    0x080072a6   0x080072a6   0x00000006   Code   RO         4226    i.timer_interrupt_flag_clear  gd32f30x_timer.o
    0x080072ac   0x080072ac   0x00000018   Code   RO         4227    i.timer_interrupt_flag_get  gd32f30x_timer.o
    0x080072c4   0x080072c4   0x00000018   Code   RO         4233    i.timer_primary_output_config  gd32f30x_timer.o
    0x080072dc   0x080072dc   0x00000010   Code   RO         4237    i.timer_slave_mode_select  gd32f30x_timer.o
    0x080072ec   0x080072ec   0x00000090   Code   RO         4613    i.usart_baudrate_set  gd32f30x_usart.o
    0x0800737c   0x0800737c   0x00000090   Code   RO         4618    i.usart_deinit      gd32f30x_usart.o
    0x0800740c   0x0800740c   0x00000014   Code   RO         4620    i.usart_dma_receive_config  gd32f30x_usart.o
    0x08007420   0x08007420   0x00000014   Code   RO         4621    i.usart_dma_transmit_config  gd32f30x_usart.o
    0x08007434   0x08007434   0x0000000a   Code   RO         4622    i.usart_enable      gd32f30x_usart.o
    0x0800743e   0x0800743e   0x00000002   PAD
    0x08007440   0x08007440   0x00000154   Code   RO          786    i.usart_init        uart.o
    0x08007594   0x08007594   0x00000014   Code   RO         4646    i.usart_receive_config  gd32f30x_usart.o
    0x080075a8   0x080075a8   0x00000088   Code   RO          787    i.usart_send_data   uart.o
    0x08007630   0x08007630   0x00000014   Code   RO         4660    i.usart_transmit_config  gd32f30x_usart.o
    0x08007644   0x08007644   0x000033f4   Data   RO         4993    .constdata          lcd.o
    0x0800aa38   0x0800aa38   0x00000804   Data   RO         5376    .constdata          arm_cortexM4lf_math.lib(arm_common_tables.o)
    0x0800b23c   0x0800b23c   0x00000020   Data   RO         5439    Region$$Table       anon$$obj.o


    Execution Region RW_IRAM1 (Exec base: 0x20000000, Load base: 0x0800b25c, Size: 0x000005c0, Max: 0x0000c000, ABSOLUTE)

    Exec Addr    Load Addr    Size         Type   Attr      Idx    E Section Name        Object

    0x20000000   0x0800b25c   0x0000003e   Data   RW          177    .data               main.o
    0x2000003e   0x0800b29a   0x00000002   PAD
    0x20000040   0x0800b29c   0x00000018   Data   RW          622    .data               led.o
    0x20000058   0x0800b2b4   0x00000004   Data   RW          732    .data               systick.o
    0x2000005c   0x0800b2b8   0x00000004   Data   RW         1037    .data               system_gd32f30x.o
    0x20000060        -       0x00000028   Zero   RW          176    .bss                main.o
    0x20000088        -       0x00000040   Zero   RW          788    .bss                uart.o
    0x200000c8        -       0x000000f8   Zero   RW         5194    .bss                pmsm.o
    0x200001c0        -       0x00000400   Zero   RW         1073    STACK               startup_gd32f30x_hd.o


==============================================================================

Image component sizes


      Code (inc. data)   RO Data    RW Data    ZI Data      Debug   Object Name

       454         30          0          0          0      19186   drv8323rs.o
      1080         22          0          0          0       4464   foc.o
       592          6          0          0          0       8762   gd32f30x_adc.o
       640          6          0          0          0       6360   gd32f30x_dma.o
       358          6          0          0          0       3327   gd32f30x_gpio.o
        24          0          0          0          0      67592   gd32f30x_it.o
       216         20          0          0          0       1572   gd32f30x_misc.o
       548         68          0          0          0       3971   gd32f30x_rcu.o
        88          0          0          0          0       4110   gd32f30x_spi.o
      1830         48          0          0          0      15354   gd32f30x_timer.o
       378         16          0          0          0       4865   gd32f30x_usart.o
       512         16      13300          0          0       4513   lcd.o
       732         20          0          0          0       4230   lcd_init.o
       228         32          0         24          0       2757   led.o
      1458        180          0         62         40       5366   main.o
      1390         58          0          0          0       6479   motor_hardware.o
       212         10          0          0          0       2219   mt6701.o
       980         96          0          0        248      17234   pmsm.o
       312         32          0          0          0       2434   spi.o
        36          8        304          0       1024        920   startup_gd32f30x_hd.o
       452         30          0          4          0       2967   system_gd32f30x.o
       196         24          0          4          0      29835   systick.o
       476         40          0          0         64       2035   uart.o

    ----------------------------------------------------------------------
     13212        768      13636         96       1376     220552   Object Totals
         0          0         32          0          0          0   (incl. Generated)
        20          0          0          2          0          0   (incl. Padding)

    ----------------------------------------------------------------------

      Code (inc. data)   RO Data    RW Data    ZI Data      Debug   Library Member Name

         0          0       2052          0          0       4636   arm_common_tables.o
       120         12          0          0          0      17018   arm_cos_f32.o
       132         14          0          0          0        750   arm_sin_f32.o
         0          0          0          0          0          0   entry.o
         0          0          0          0          0          0   entry10a.o
         0          0          0          0          0          0   entry11a.o
         8          4          0          0          0          0   entry2.o
         4          0          0          0          0          0   entry5.o
         0          0          0          0          0          0   entry7b.o
         0          0          0          0          0          0   entry8b.o
         8          4          0          0          0          0   entry9a.o
        30          0          0          0          0          0   handlers.o
        36          8          0          0          0         68   init.o
        36          0          0          0          0         68   memcpya.o

    ----------------------------------------------------------------------
       376         42       2052          0          0      22540   Library Totals
         2          0          0          0          0          0   (incl. Padding)

    ----------------------------------------------------------------------

      Code (inc. data)   RO Data    RW Data    ZI Data      Debug   Library Name

       252         26       2052          0          0      22404   arm_cortexM4lf_math.lib
       122         16          0          0          0        136   mc_w.l

    ----------------------------------------------------------------------
       376         42       2052          0          0      22540   Library Totals

    ----------------------------------------------------------------------

==============================================================================


      Code (inc. data)   RO Data    RW Data    ZI Data      Debug   

     13588        810      15688         96       1376     230296   Grand Totals
     13588        810      15688         96       1376     230296   ELF Image Totals
     13588        810      15688         96          0          0   ROM Totals

==============================================================================

    Total RO  Size (Code + RO Data)                29276 (  28.59kB)
    Total RW  Size (RW Data + ZI Data)              1472 (   1.44kB)
    Total ROM Size (Code + RO Data + RW Data)      29372 (  28.68kB)

==============================================================================

