Component: ARM Compiler 5.06 update 6 (build 750) Tool: armlink [4d35ed]

==============================================================================

Section Cross References

    main.o(i.ADC0_1_IRQHandler) refers to gd32f30x_adc.o(i.adc_interrupt_flag_clear) for adc_interrupt_flag_clear
    main.o(i.ADC0_1_IRQHandler) refers to motor_app.o(i.motor_app_isr) for motor_app_isr
    main.o(i.TIMER0_BRK_IRQHandler) refers to gd32f30x_timer.o(i.timer_channel_output_mode_config) for timer_channel_output_mode_config
    main.o(i.TIMER0_BRK_IRQHandler) refers to gd32f30x_timer.o(i.timer_interrupt_flag_clear) for timer_interrupt_flag_clear
    main.o(i.TIMER0_BRK_IRQHandler) refers to led.o(i.led_on) for led_on
    main.o(i.USBD_LP_CAN0_RX0_IRQHandler) refers to gd32f30x_can.o(i.can_message_receive) for can_message_receive
    main.o(i.main) refers to systick.o(i.systick_init) for systick_init
    main.o(i.main) refers to led.o(i.led_init) for led_init
    main.o(i.main) refers to uart.o(i.usart_init) for usart_init
    main.o(i.main) refers to adc_simple.o(i.adc1_init) for adc1_init
    main.o(i.main) refers to can.o(i.can_bus_init) for can_bus_init
    main.o(i.main) refers to encoder.o(i.encoder_init) for encoder_init
    main.o(i.main) refers to lcd_init.o(i.LCD_Init) for LCD_Init
    main.o(i.main) refers to lcd.o(i.LCD_Fill) for LCD_Fill
    main.o(i.main) refers to drv8323rs.o(i.DRV8323RS_init) for DRV8323RS_init
    main.o(i.main) refers to task.o(i.task_init) for task_init
    main.o(i.main) refers to motor_hardware.o(i.motor_hardware_init) for motor_hardware_init
    main.o(i.main) refers to pmsm.o(i.pmsm_foc_init) for pmsm_foc_init
==============================================================================

Removing Unused input sections from the image.

    Removing gd32f30x_it.o(.rev16_text), (4 bytes).
    Removing gd32f30x_it.o(.revsh_text), (4 bytes).
    Removing main.o(.rev16_text), (4 bytes).
    Removing main.o(.revsh_text), (4 bytes).
    Removing main.o(.data), (32 bytes).
    Removing motor_hardware.o(.rev16_text), (4 bytes).
    Removing motor_hardware.o(.revsh_text), (4 bytes).
    Removing motor_hardware.o(i.comp_protect_init), (76 bytes).
    Removing motor_hardware.o(i.hall_get), (52 bytes).
    Removing motor_hardware.o(i.motor_pwm_pin_disable), (168 bytes).
    Removing motor_hardware.o(i.motor_pwm_pin_enable), (96 bytes).
    Removing motor_hardware.o(i.motor_set_voltage_vector), (592 bytes).
    Removing adc_simple.o(.rev16_text), (4 bytes).
    Removing adc_simple.o(.revsh_text), (4 bytes).
    Removing can.o(.rev16_text), (4 bytes).
    Removing can.o(.revsh_text), (4 bytes).
    Removing delay.o(.rev16_text), (4 bytes).
    Removing delay.o(.revsh_text), (4 bytes).
==============================================================================

Image Symbol Table

    Local Symbols

    Symbol Name                              Value     Ov Type        Size  Object(Section)

    ../clib/../cmprslib/zerorunl2.c          0x00000000   Number         0  __dczerorl2.o ABSOLUTE
    ../clib/microlib/init/entry.s            0x00000000   Number         0  entry11b.o ABSOLUTE
    ../clib/microlib/init/entry.s            0x00000000   Number         0  entry10b.o ABSOLUTE
    ../clib/microlib/init/entry.s            0x00000000   Number         0  entry7a.o ABSOLUTE
    ../clib/microlib/init/entry.s            0x00000000   Number         0  entry10a.o ABSOLUTE
    ../clib/microlib/init/entry.s            0x00000000   Number         0  entry5.o ABSOLUTE
    ../clib/microlib/init/entry.s            0x00000000   Number         0  entry9b.o ABSOLUTE
    ../clib/microlib/init/entry.s            0x00000000   Number         0  entry9a.o ABSOLUTE
    ../clib/microlib/init/entry.s            0x00000000   Number         0  entry8b.o ABSOLUTE
    ../clib/microlib/init/entry.s            0x00000000   Number         0  entry2.o ABSOLUTE
    ../clib/microlib/init/entry.s            0x00000000   Number         0  entry11a.o ABSOLUTE
    ../clib/microlib/init/entry.s            0x00000000   Number         0  entry8a.o ABSOLUTE
    ../clib/microlib/init/entry.s            0x00000000   Number         0  entry.o ABSOLUTE
    ../clib/microlib/init/entry.s            0x00000000   Number         0  entry7b.o ABSOLUTE
    ../clib/microlib/string/memcpy.c         0x00000000   Number         0  memcpyb.o ABSOLUTE
    ../clib/microlib/string/memcpy.c         0x00000000   Number         0  memcpya.o ABSOLUTE
    ..\CommonTables\arm_common_tables.c      0x00000000   Number         0  arm_common_tables.o ABSOLUTE
    ..\FOC\foc.c                             0x00000000   Number         0  foc.o ABSOLUTE
    ..\FOC\pmsm.c                            0x00000000   Number         0  pmsm.o ABSOLUTE
    ..\FOC\smcpos.c                          0x00000000   Number         0  smcpos.o ABSOLUTE
    ..\FastMathFunctions\arm_cos_f32.c       0x00000000   Number         0  arm_cos_f32.o ABSOLUTE
    ..\FastMathFunctions\arm_sin_f32.c       0x00000000   Number         0  arm_sin_f32.o ABSOLUTE
    ..\LCD\lcd.c                             0x00000000   Number         0  lcd.o ABSOLUTE
    ..\LCD\lcd_init.c                        0x00000000   Number         0  lcd_init.o ABSOLUTE
    ..\Libraries\CMSIS\GD\GD32F30x\Source\ARM\startup_gd32f30x_hd.s 0x00000000   Number         0  startup_gd32f30x_hd.o ABSOLUTE
    ..\Libraries\CMSIS\GD\GD32F30x\Source\system_gd32f30x.c 0x00000000   Number         0  system_gd32f30x.o ABSOLUTE
    ..\Libraries\GD32F30x_standard_peripheral\Source\gd32f30x_adc.c 0x00000000   Number         0  gd32f30x_adc.o ABSOLUTE
    ..\Libraries\GD32F30x_standard_peripheral\Source\gd32f30x_bkp.c 0x00000000   Number         0  gd32f30x_bkp.o ABSOLUTE
    ..\Libraries\GD32F30x_standard_peripheral\Source\gd32f30x_can.c 0x00000000   Number         0  gd32f30x_can.o ABSOLUTE
    ..\Libraries\GD32F30x_standard_peripheral\Source\gd32f30x_crc.c 0x00000000   Number         0  gd32f30x_crc.o ABSOLUTE
    ..\Libraries\GD32F30x_standard_peripheral\Source\gd32f30x_ctc.c 0x00000000   Number         0  gd32f30x_ctc.o ABSOLUTE
    ..\Libraries\GD32F30x_standard_peripheral\Source\gd32f30x_dac.c 0x00000000   Number         0  gd32f30x_dac.o ABSOLUTE
    ..\Libraries\GD32F30x_standard_peripheral\Source\gd32f30x_dbg.c 0x00000000   Number         0  gd32f30x_dbg.o ABSOLUTE
    ..\Libraries\GD32F30x_standard_peripheral\Source\gd32f30x_dma.c 0x00000000   Number         0  gd32f30x_dma.o ABSOLUTE
    ..\Libraries\GD32F30x_standard_peripheral\Source\gd32f30x_enet.c 0x00000000   Number         0  gd32f30x_enet.o ABSOLUTE
    ..\Libraries\GD32F30x_standard_peripheral\Source\gd32f30x_exmc.c 0x00000000   Number         0  gd32f30x_exmc.o ABSOLUTE
    ..\Libraries\GD32F30x_standard_peripheral\Source\gd32f30x_exti.c 0x00000000   Number         0  gd32f30x_exti.o ABSOLUTE
    ..\Libraries\GD32F30x_standard_peripheral\Source\gd32f30x_fmc.c 0x00000000   Number         0  gd32f30x_fmc.o ABSOLUTE
    ..\Libraries\GD32F30x_standard_peripheral\Source\gd32f30x_fwdgt.c 0x00000000   Number         0  gd32f30x_fwdgt.o ABSOLUTE
    ..\Libraries\GD32F30x_standard_peripheral\Source\gd32f30x_gpio.c 0x00000000   Number         0  gd32f30x_gpio.o ABSOLUTE
    ..\Libraries\GD32F30x_standard_peripheral\Source\gd32f30x_i2c.c 0x00000000   Number         0  gd32f30x_i2c.o ABSOLUTE
    ..\Libraries\GD32F30x_standard_peripheral\Source\gd32f30x_misc.c 0x00000000   Number         0  gd32f30x_misc.o ABSOLUTE
    ..\Libraries\GD32F30x_standard_peripheral\Source\gd32f30x_pmu.c 0x00000000   Number         0  gd32f30x_pmu.o ABSOLUTE
    ..\Libraries\GD32F30x_standard_peripheral\Source\gd32f30x_rcu.c 0x00000000   Number         0  gd32f30x_rcu.o ABSOLUTE
    ..\Libraries\GD32F30x_standard_peripheral\Source\gd32f30x_rtc.c 0x00000000   Number         0  gd32f30x_rtc.o ABSOLUTE
    ..\Libraries\GD32F30x_standard_peripheral\Source\gd32f30x_sdio.c 0x00000000   Number         0  gd32f30x_sdio.o ABSOLUTE
    ..\Libraries\GD32F30x_standard_peripheral\Source\gd32f30x_spi.c 0x00000000   Number         0  gd32f30x_spi.o ABSOLUTE
    ..\Libraries\GD32F30x_standard_peripheral\Source\gd32f30x_timer.c 0x00000000   Number         0  gd32f30x_timer.o ABSOLUTE
    ..\Libraries\GD32F30x_standard_peripheral\Source\gd32f30x_usart.c 0x00000000   Number         0  gd32f30x_usart.o ABSOLUTE
    ..\Libraries\GD32F30x_standard_peripheral\Source\gd32f30x_wwdgt.c 0x00000000   Number         0  gd32f30x_wwdgt.o ABSOLUTE
    ..\User\BSP\adc_simple.c                 0x00000000   Number         0  adc_simple.o ABSOLUTE
    ..\User\BSP\can.c                        0x00000000   Number         0  can.o ABSOLUTE
    ..\User\BSP\delay.c                      0x00000000   Number         0  delay.o ABSOLUTE
    ..\User\BSP\drv8323rs.c                  0x00000000   Number         0  drv8323rs.o ABSOLUTE
    ..\User\BSP\eeprom.c                     0x00000000   Number         0  eeprom.o ABSOLUTE
    ..\User\BSP\encoder.c                    0x00000000   Number         0  encoder.o ABSOLUTE
    ..\User\BSP\i2c.c                        0x00000000   Number         0  i2c.o ABSOLUTE
    ..\User\BSP\led.c                        0x00000000   Number         0  led.o ABSOLUTE
    ..\User\BSP\ntc.c                        0x00000000   Number         0  ntc.o ABSOLUTE
    ..\User\BSP\spi.c                        0x00000000   Number         0  spi.o ABSOLUTE
    ..\User\BSP\systick.c                    0x00000000   Number         0  systick.o ABSOLUTE
    ..\User\BSP\uart.c                       0x00000000   Number         0  uart.o ABSOLUTE
    ..\User\Task\motor_app.c                 0x00000000   Number         0  motor_app.o ABSOLUTE
    ..\User\Task\task.c                      0x00000000   Number         0  task.o ABSOLUTE
    ..\User\gd32f30x_it.c                    0x00000000   Number         0  gd32f30x_it.o ABSOLUTE
    ..\User\main.c                           0x00000000   Number         0  main.o ABSOLUTE
    ..\User\motor_hardware.c                 0x00000000   Number         0  motor_hardware.o ABSOLUTE
    ..\\CommonTables\\arm_common_tables.c    0x00000000   Number         0  arm_common_tables.o ABSOLUTE
    ..\\FOC\\foc.c                           0x00000000   Number         0  foc.o ABSOLUTE
    ..\\FOC\\pmsm.c                          0x00000000   Number         0  pmsm.o ABSOLUTE
    ..\\FOC\\smcpos.c                        0x00000000   Number         0  smcpos.o ABSOLUTE
    ..\\FastMathFunctions\\arm_cos_f32.c     0x00000000   Number         0  arm_cos_f32.o ABSOLUTE
    ..\\FastMathFunctions\\arm_sin_f32.c     0x00000000   Number         0  arm_sin_f32.o ABSOLUTE
    ..\\LCD\\lcd.c                           0x00000000   Number         0  lcd.o ABSOLUTE
    ..\\LCD\\lcd_init.c                      0x00000000   Number         0  lcd_init.o ABSOLUTE
    ..\\Libraries\\CMSIS\\GD\\GD32F30x\\Source\\system_gd32f30x.c 0x00000000   Number         0  system_gd32f30x.o ABSOLUTE
    ..\\Libraries\\GD32F30x_standard_peripheral\\Source\\gd32f30x_adc.c 0x00000000   Number         0  gd32f30x_adc.o ABSOLUTE
    ..\\Libraries\\GD32F30x_standard_peripheral\\Source\\gd32f30x_bkp.c 0x00000000   Number         0  gd32f30x_bkp.o ABSOLUTE
    ..\\Libraries\\GD32F30x_standard_peripheral\\Source\\gd32f30x_can.c 0x00000000   Number         0  gd32f30x_can.o ABSOLUTE
    ..\\Libraries\\GD32F30x_standard_peripheral\\Source\\gd32f30x_crc.c 0x00000000   Number         0  gd32f30x_crc.o ABSOLUTE
    ..\\Libraries\\GD32F30x_standard_peripheral\\Source\\gd32f30x_ctc.c 0x00000000   Number         0  gd32f30x_ctc.o ABSOLUTE
    ..\\Libraries\\GD32F30x_standard_peripheral\\Source\\gd32f30x_dac.c 0x00000000   Number         0  gd32f30x_dac.o ABSOLUTE
    ..\\Libraries\\GD32F30x_standard_peripheral\\Source\\gd32f30x_dbg.c 0x00000000   Number         0  gd32f30x_dbg.o ABSOLUTE
    ..\\Libraries\\GD32F30x_standard_peripheral\\Source\\gd32f30x_dma.c 0x00000000   Number         0  gd32f30x_dma.o ABSOLUTE
    ..\\Libraries\\GD32F30x_standard_peripheral\\Source\\gd32f30x_enet.c 0x00000000   Number         0  gd32f30x_enet.o ABSOLUTE
    ..\\Libraries\\GD32F30x_standard_peripheral\\Source\\gd32f30x_exmc.c 0x00000000   Number         0  gd32f30x_exmc.o ABSOLUTE
    ..\\Libraries\\GD32F30x_standard_peripheral\\Source\\gd32f30x_exti.c 0x00000000   Number         0  gd32f30x_exti.o ABSOLUTE
    ..\\Libraries\\GD32F30x_standard_peripheral\\Source\\gd32f30x_fmc.c 0x00000000   Number         0  gd32f30x_fmc.o ABSOLUTE
    ..\\Libraries\\GD32F30x_standard_peripheral\\Source\\gd32f30x_fwdgt.c 0x00000000   Number         0  gd32f30x_fwdgt.o ABSOLUTE
    ..\\Libraries\\GD32F30x_standard_peripheral\\Source\\gd32f30x_gpio.c 0x00000000   Number         0  gd32f30x_gpio.o ABSOLUTE
    ..\\Libraries\\GD32F30x_standard_peripheral\\Source\\gd32f30x_i2c.c 0x00000000   Number         0  gd32f30x_i2c.o ABSOLUTE
    ..\\Libraries\\GD32F30x_standard_peripheral\\Source\\gd32f30x_misc.c 0x00000000   Number         0  gd32f30x_misc.o ABSOLUTE
    ..\\Libraries\\GD32F30x_standard_peripheral\\Source\\gd32f30x_pmu.c 0x00000000   Number         0  gd32f30x_pmu.o ABSOLUTE
    ..\\Libraries\\GD32F30x_standard_peripheral\\Source\\gd32f30x_rcu.c 0x00000000   Number         0  gd32f30x_rcu.o ABSOLUTE
    ..\\Libraries\\GD32F30x_standard_peripheral\\Source\\gd32f30x_rtc.c 0x00000000   Number         0  gd32f30x_rtc.o ABSOLUTE
    ..\\Libraries\\GD32F30x_standard_peripheral\\Source\\gd32f30x_sdio.c 0x00000000   Number         0  gd32f30x_sdio.o ABSOLUTE
    ..\\Libraries\\GD32F30x_standard_peripheral\\Source\\gd32f30x_spi.c 0x00000000   Number         0  gd32f30x_spi.o ABSOLUTE
    ..\\Libraries\\GD32F30x_standard_peripheral\\Source\\gd32f30x_timer.c 0x00000000   Number         0  gd32f30x_timer.o ABSOLUTE
    ..\\Libraries\\GD32F30x_standard_peripheral\\Source\\gd32f30x_usart.c 0x00000000   Number         0  gd32f30x_usart.o ABSOLUTE
    ..\\Libraries\\GD32F30x_standard_peripheral\\Source\\gd32f30x_wwdgt.c 0x00000000   Number         0  gd32f30x_wwdgt.o ABSOLUTE
    ..\\User\\BSP\\adc_simple.c              0x00000000   Number         0  adc_simple.o ABSOLUTE
    ..\\User\\BSP\\can.c                     0x00000000   Number         0  can.o ABSOLUTE
    ..\\User\\BSP\\delay.c                   0x00000000   Number         0  delay.o ABSOLUTE
    ..\\User\\BSP\\drv8323rs.c               0x00000000   Number         0  drv8323rs.o ABSOLUTE
    ..\\User\\BSP\\eeprom.c                  0x00000000   Number         0  eeprom.o ABSOLUTE
    ..\\User\\BSP\\encoder.c                 0x00000000   Number         0  encoder.o ABSOLUTE
    ..\\User\\BSP\\i2c.c                     0x00000000   Number         0  i2c.o ABSOLUTE
    ..\\User\\BSP\\led.c                     0x00000000   Number         0  led.o ABSOLUTE
    ..\\User\\BSP\\ntc.c                     0x00000000   Number         0  ntc.o ABSOLUTE
    ..\\User\\BSP\\spi.c                     0x00000000   Number         0  spi.o ABSOLUTE
    ..\\User\\BSP\\systick.c                 0x00000000   Number         0  systick.o ABSOLUTE
    ..\\User\\BSP\\uart.c                    0x00000000   Number         0  uart.o ABSOLUTE
    ..\\User\\Task\\motor_app.c              0x00000000   Number         0  motor_app.o ABSOLUTE
    ..\\User\\Task\\task.c                   0x00000000   Number         0  task.o ABSOLUTE
    ..\\User\\gd32f30x_it.c                  0x00000000   Number         0  gd32f30x_it.o ABSOLUTE
    ..\\User\\main.c                         0x00000000   Number         0  main.o ABSOLUTE
    ..\\User\\motor_hardware.c               0x00000000   Number         0  motor_hardware.o ABSOLUTE
    dc.s                                     0x00000000   Number         0  dc.o ABSOLUTE
    handlers.s                               0x00000000   Number         0  handlers.o ABSOLUTE
    init.s                                   0x00000000   Number         0  init.o ABSOLUTE
    RESET                                    0x08004000   Section      304  startup_gd32f30x_hd.o(RESET)
    .ARM.Collect$$$$00000000                 0x08004130   Section        0  entry.o(.ARM.Collect$$$$00000000)
    .ARM.Collect$$$$00000001                 0x08004130   Section        4  entry2.o(.ARM.Collect$$$$00000001)
    .ARM.Collect$$$$00000004                 0x08004134   Section        4  entry5.o(.ARM.Collect$$$$00000004)
    .ARM.Collect$$$$00000008                 0x08004138   Section        0  entry7b.o(.ARM.Collect$$$$00000008)
    .ARM.Collect$$$$0000000A                 0x08004138   Section        0  entry8b.o(.ARM.Collect$$$$0000000A)
    .ARM.Collect$$$$0000000B                 0x08004138   Section        8  entry9a.o(.ARM.Collect$$$$0000000B)
    .ARM.Collect$$$$0000000D                 0x08004140   Section        0  entry10a.o(.ARM.Collect$$$$0000000D)
    .ARM.Collect$$$$0000000F                 0x08004140   Section        0  entry11a.o(.ARM.Collect$$$$0000000F)
    .ARM.Collect$$$$00002712                 0x08004140   Section        4  entry2.o(.ARM.Collect$$$$00002712)
    __lit__00000000                          0x08004140   Data           4  entry2.o(.ARM.Collect$$$$00002712)
    .text                                    0x08004144   Section       36  startup_gd32f30x_hd.o(.text)
    $v0                                      0x08004144   Number         0  startup_gd32f30x_hd.o(.text)
    .text                                    0x08004168   Section        0  arm_cos_f32.o(.text)
    .text                                    0x080041e0   Section        0  arm_sin_f32.o(.text)
    .text                                    0x08004264   Section        0  memcpya.o(.text)
    .text                                    0x08004288   Section       36  init.o(.text)
    .text                                    0x080042ac   Section        0  __dczerorl2.o(.text)
    i.ADC0_1_IRQHandler                      0x08004304   Section        0  main.o(i.ADC0_1_IRQHandler)
    i.BusFault_Handler                       0x08004318   Section        0  gd32f30x_it.o(i.BusFault_Handler)
    i.DRV8323RS_clearFaults                  0x0800431c   Section        0  drv8323rs.o(i.DRV8323RS_clearFaults)
    i.DRV8323RS_createSPIDataWord            0x0800432a   Section        0  drv8323rs.o(i.DRV8323RS_createSPIDataWord)
    i.DRV8323RS_disable                      0x08004348   Section        0  drv8323rs.o(i.DRV8323RS_disable)
    i.DRV8323RS_enable                       0x08004364   Section        0  drv8323rs.o(i.DRV8323RS_enable)
    i.DRV8323RS_init                         0x0800437c   Section        0  drv8323rs.o(i.DRV8323RS_init)
    i.DRV8323RS_setCsaGain                   0x08004428   Section        0  drv8323rs.o(i.DRV8323RS_setCsaGain)
    i.DRV8323RS_setVdsLvl                    0x08004438   Section        0  drv8323rs.o(i.DRV8323RS_setVdsLvl)
    i.DRV8323RS_spiRead                      0x08004448   Section        0  drv8323rs.o(i.DRV8323RS_spiRead)
    i.DRV8323RS_spiUpdateRegister            0x08004480   Section        0  drv8323rs.o(i.DRV8323RS_spiUpdateRegister)
    i.DRV8323RS_spiWrite                     0x080044a4   Section        0  drv8323rs.o(i.DRV8323RS_spiWrite)
    i.DebugMon_Handler                       0x080044d8   Section        0  gd32f30x_it.o(i.DebugMon_Handler)
    i.HardFault_Handler                      0x080044da   Section        0  gd32f30x_it.o(i.HardFault_Handler)
    i.IsKey0Down                             0x080044e0   Section        0  encoder.o(i.IsKey0Down)
    IsKey0Down                               0x080044e1   Thumb Code    20  encoder.o(i.IsKey0Down)
    i.LCD_Address_Set                        0x080044f8   Section        0  lcd_init.o(i.LCD_Address_Set)
    i.LCD_DrawPoint                          0x08004542   Section        0  lcd.o(i.LCD_DrawPoint)
    i.LCD_Fill                               0x0800455e   Section        0  lcd.o(i.LCD_Fill)
    i.LCD_GPIO_Init                          0x080045a8   Section        0  lcd_init.o(i.LCD_GPIO_Init)
    i.LCD_Init                               0x08004620   Section        0  lcd_init.o(i.LCD_Init)
    i.LCD_ShowChar                           0x080047d0   Section        0  lcd.o(i.LCD_ShowChar)
    i.LCD_ShowFloatNum2                      0x08004928   Section        0  lcd.o(i.LCD_ShowFloatNum2)
    i.LCD_ShowIntNum                         0x08004a62   Section        0  lcd.o(i.LCD_ShowIntNum)
    i.LCD_ShowString                         0x08004b1c   Section        0  lcd.o(i.LCD_ShowString)
    i.LCD_WR_DATA                            0x08004b5e   Section        0  lcd_init.o(i.LCD_WR_DATA)
    i.LCD_WR_DATA8                           0x08004b70   Section        0  lcd_init.o(i.LCD_WR_DATA8)
    i.LCD_WR_REG                             0x08004b7c   Section        0  lcd_init.o(i.LCD_WR_REG)
    i.LCD_Writ_Bus                           0x08004ba4   Section        0  lcd_init.o(i.LCD_Writ_Bus)
    i.MemManage_Handler                      0x08004bc8   Section        0  gd32f30x_it.o(i.MemManage_Handler)
    i.NMI_Handler                            0x08004bcc   Section        0  gd32f30x_it.o(i.NMI_Handler)
    i.NVIC_SetPriority                       0x08004bd0   Section        0  systick.o(i.NVIC_SetPriority)
    NVIC_SetPriority                         0x08004bd1   Thumb Code    32  systick.o(i.NVIC_SetPriority)
    i.PendSV_Handler                         0x08004bf8   Section        0  gd32f30x_it.o(i.PendSV_Handler)
    i.SVC_Handler                            0x08004bfa   Section        0  gd32f30x_it.o(i.SVC_Handler)
    i.SysTick_Handler                        0x08004bfc   Section        0  systick.o(i.SysTick_Handler)
    i.SystemInit                             0x08004c0c   Section        0  system_gd32f30x.o(i.SystemInit)
    i.TIMER0_BRK_IRQHandler                  0x08004cb4   Section        0  main.o(i.TIMER0_BRK_IRQHandler)
    i.TIMER3_IRQHandler                      0x08004ce8   Section        0  encoder.o(i.TIMER3_IRQHandler)
    i.USBD_LP_CAN0_RX0_IRQHandler            0x08004d2c   Section        0  main.o(i.USBD_LP_CAN0_RX0_IRQHandler)
    i.UsageFault_Handler                     0x08004d44   Section        0  gd32f30x_it.o(i.UsageFault_Handler)
    i.__scatterload_copy                     0x08004d48   Section       14  handlers.o(i.__scatterload_copy)
    i.__scatterload_null                     0x08004d56   Section        2  handlers.o(i.__scatterload_null)
    i.__scatterload_zeroinit                 0x08004d58   Section       14  handlers.o(i.__scatterload_zeroinit)
    i.adc0_config                            0x08004d68   Section        0  motor_hardware.o(i.adc0_config)
    adc0_config                              0x08004d69   Thumb Code   162  motor_hardware.o(i.adc0_config)
    i.adc0_init                              0x08004e10   Section        0  motor_hardware.o(i.adc0_init)
    i.adc1_init                              0x08004e1c   Section        0  adc_simple.o(i.adc1_init)
    i.adc_calibration_enable                 0x08004ee0   Section        0  gd32f30x_adc.o(i.adc_calibration_enable)
    i.adc_channel_length_config              0x08004f0a   Section        0  gd32f30x_adc.o(i.adc_channel_length_config)
    i.adc_data_alignment_config              0x08004f50   Section        0  gd32f30x_adc.o(i.adc_data_alignment_config)
    i.adc_enable                             0x08004f66   Section        0  gd32f30x_adc.o(i.adc_enable)
    i.adc_external_trigger_config            0x08004f78   Section        0  gd32f30x_adc.o(i.adc_external_trigger_config)
    i.adc_external_trigger_source_config     0x08004fb6   Section        0  gd32f30x_adc.o(i.adc_external_trigger_source_config)
    i.adc_flag_clear                         0x08004fe6   Section        0  gd32f30x_adc.o(i.adc_flag_clear)
    i.adc_flag_get                           0x08004fec   Section        0  gd32f30x_adc.o(i.adc_flag_get)
    i.adc_gpio_init                          0x08004ffc   Section        0  motor_hardware.o(i.adc_gpio_init)
    adc_gpio_init                            0x08004ffd   Thumb Code    84  motor_hardware.o(i.adc_gpio_init)
    i.adc_inserted_channel_config            0x0800505c   Section        0  gd32f30x_adc.o(i.adc_inserted_channel_config)
    i.adc_inserted_data_read                 0x080050d0   Section        0  gd32f30x_adc.o(i.adc_inserted_data_read)
    i.adc_interrupt_enable                   0x080050fe   Section        0  gd32f30x_adc.o(i.adc_interrupt_enable)
    i.adc_interrupt_flag_clear               0x0800512a   Section        0  gd32f30x_adc.o(i.adc_interrupt_flag_clear)
    i.adc_mode_config                        0x08005130   Section        0  gd32f30x_adc.o(i.adc_mode_config)
    i.adc_read_data                          0x0800514c   Section        0  adc_simple.o(i.adc_read_data)
    i.adc_regular_channel_config             0x08005184   Section        0  gd32f30x_adc.o(i.adc_regular_channel_config)
    i.adc_regular_data_read                  0x08005230   Section        0  gd32f30x_adc.o(i.adc_regular_data_read)
    i.adc_software_trigger_enable            0x08005238   Section        0  gd32f30x_adc.o(i.adc_software_trigger_enable)
    i.adc_special_function_config            0x08005256   Section        0  gd32f30x_adc.o(i.adc_special_function_config)
    i.adc_task                               0x080052b0   Section        0  adc_simple.o(i.adc_task)
    i.calc_pi                                0x08005370   Section        0  foc.o(i.calc_pi)
    i.calc_pll                               0x080053ec   Section        0  smcpos.o(i.calc_pll)
    calc_pll                                 0x080053ed   Thumb Code   306  smcpos.o(i.calc_pll)
    i.calculate_park_angle                   0x08005534   Section        0  pmsm.o(i.calculate_park_angle)
    calculate_park_angle                     0x08005535   Thumb Code   310  pmsm.o(i.calculate_park_angle)
    i.calculate_temperature_float            0x08005694   Section        0  ntc.o(i.calculate_temperature_float)
    i.can_bus_init                           0x08005780   Section        0  can.o(i.can_bus_init)
    i.can_config                             0x0800579c   Section        0  can.o(i.can_config)
    can_config                               0x0800579d   Thumb Code   156  can.o(i.can_config)
    i.can_deinit                             0x0800583c   Section        0  gd32f30x_can.o(i.can_deinit)
    i.can_filter_init                        0x0800585c   Section        0  gd32f30x_can.o(i.can_filter_init)
    i.can_gpio_config                        0x0800596c   Section        0  can.o(i.can_gpio_config)
    can_gpio_config                          0x0800596d   Thumb Code    40  can.o(i.can_gpio_config)
    i.can_init                               0x08005998   Section        0  gd32f30x_can.o(i.can_init)
    i.can_interrupt_enable                   0x08005aba   Section        0  gd32f30x_can.o(i.can_interrupt_enable)
    i.can_message_receive                    0x08005ac2   Section        0  gd32f30x_can.o(i.can_message_receive)
    i.can_message_transmit                   0x08005ba8   Section        0  gd32f30x_can.o(i.can_message_transmit)
    i.can_nvic_config                        0x08005cf8   Section        0  can.o(i.can_nvic_config)
    can_nvic_config                          0x08005cf9   Thumb Code    14  can.o(i.can_nvic_config)
    i.can_struct_para_init                   0x08005d06   Section        0  gd32f30x_can.o(i.can_struct_para_init)
    i.clark                                  0x08005dac   Section        0  foc.o(i.clark)
    i.dma_channel_enable                     0x08005de0   Section        0  gd32f30x_dma.o(i.dma_channel_enable)
    i.dma_circulation_disable                0x08005e12   Section        0  gd32f30x_dma.o(i.dma_circulation_disable)
    i.dma_deinit                             0x08005e44   Section        0  gd32f30x_dma.o(i.dma_deinit)
    i.dma_flag_get                           0x08005eb4   Section        0  gd32f30x_dma.o(i.dma_flag_get)
    i.dma_init                               0x08005ecc   Section        0  gd32f30x_dma.o(i.dma_init)
    i.dma_memory_to_memory_disable           0x08005ffa   Section        0  gd32f30x_dma.o(i.dma_memory_to_memory_disable)
    i.dma_periph_and_channel_check           0x0800602c   Section        0  gd32f30x_dma.o(i.dma_periph_and_channel_check)
    dma_periph_and_channel_check             0x0800602d   Thumb Code    18  gd32f30x_dma.o(i.dma_periph_and_channel_check)
    i.dma_struct_para_init                   0x08006044   Section        0  gd32f30x_dma.o(i.dma_struct_para_init)
    i.encoder_get                            0x08006060   Section        0  encoder.o(i.encoder_get)
    i.encoder_gpio_init                      0x08006070   Section        0  encoder.o(i.encoder_gpio_init)
    encoder_gpio_init                        0x08006071   Thumb Code    64  encoder.o(i.encoder_gpio_init)
    i.encoder_init                           0x080060b8   Section        0  encoder.o(i.encoder_init)
    i.encoder_timer_init                     0x080060d4   Section        0  encoder.o(i.encoder_timer_init)
    encoder_timer_init                       0x080060d5   Thumb Code   138  encoder.o(i.encoder_timer_init)
    i.gpio_bit_write                         0x08006164   Section        0  gd32f30x_gpio.o(i.gpio_bit_write)
    i.gpio_init                              0x0800616e   Section        0  gd32f30x_gpio.o(i.gpio_init)
    i.gpio_input_bit_get                     0x0800622a   Section        0  gd32f30x_gpio.o(i.gpio_input_bit_get)
    i.gpio_output_bit_get                    0x0800623a   Section        0  gd32f30x_gpio.o(i.gpio_output_bit_get)
    i.gpio_pin_remap_config                  0x0800624c   Section        0  gd32f30x_gpio.o(i.gpio_pin_remap_config)
    i.hall_init                              0x080062dc   Section        0  motor_hardware.o(i.hall_init)
    i.hall_timer_config                      0x0800633c   Section        0  motor_hardware.o(i.hall_timer_config)
    hall_timer_config                        0x0800633d   Thumb Code   210  motor_hardware.o(i.hall_timer_config)
    i.init_pi                                0x08006414   Section        0  foc.o(i.init_pi)
    i.interrupt_init                         0x0800642c   Section        0  motor_hardware.o(i.interrupt_init)
    i.inv_park                               0x08006444   Section        0  foc.o(i.inv_park)
    i.key_detect                             0x08006480   Section        0  encoder.o(i.key_detect)
    key_detect                               0x08006481   Thumb Code   214  encoder.o(i.key_detect)
    i.key_get                                0x0800655c   Section        0  encoder.o(i.key_get)
    i.key_put                                0x08006590   Section        0  encoder.o(i.key_put)
    key_put                                  0x08006591   Thumb Code    30  encoder.o(i.key_put)
    i.key_scan                               0x080065b4   Section        0  encoder.o(i.key_scan)
    i.key_var_init                           0x080065cc   Section        0  encoder.o(i.key_var_init)
    key_var_init                             0x080065cd   Thumb Code    84  encoder.o(i.key_var_init)
    i.led_init                               0x0800662c   Section        0  led.o(i.led_init)
    i.led_on                                 0x080066c0   Section        0  led.o(i.led_on)
    i.led_toggle                             0x080066d8   Section        0  led.o(i.led_toggle)
    i.main                                   0x08006710   Section        0  main.o(i.main)
    i.motor_app_idle                         0x0800677c   Section        0  motor_app.o(i.motor_app_idle)
    i.motor_app_init                         0x08006784   Section        0  motor_app.o(i.motor_app_init)
    i.motor_app_isr                          0x080067d4   Section        0  motor_app.o(i.motor_app_isr)
    i.motor_app_task100ms                    0x08006a48   Section        0  motor_app.o(i.motor_app_task100ms)
    i.motor_app_task10ms                     0x08006a4c   Section        0  motor_app.o(i.motor_app_task10ms)
    i.motor_app_task1s                       0x08006bac   Section        0  motor_app.o(i.motor_app_task1s)
    i.motor_app_task500ms                    0x08006bb4   Section        0  motor_app.o(i.motor_app_task500ms)
    i.motor_can_transmit                     0x08006bb8   Section        0  motor_app.o(i.motor_can_transmit)
    motor_can_transmit                       0x08006bb9   Thumb Code   174  motor_app.o(i.motor_can_transmit)
    i.motor_hardware_init                    0x08006c80   Section        0  motor_hardware.o(i.motor_hardware_init)
    i.motor_pwm_disable                      0x08006c9c   Section        0  motor_hardware.o(i.motor_pwm_disable)
    i.motor_pwm_enable                       0x08006ce0   Section        0  motor_hardware.o(i.motor_pwm_enable)
    i.motor_pwm_set_duty                     0x08006d24   Section        0  motor_hardware.o(i.motor_pwm_set_duty)
    i.motor_ui_init                          0x08006d50   Section        0  motor_app.o(i.motor_ui_init)
    motor_ui_init                            0x08006d51   Thumb Code   580  motor_app.o(i.motor_ui_init)
    i.motor_ui_updata                        0x08006fec   Section        0  motor_app.o(i.motor_ui_updata)
    motor_ui_updata                          0x08006fed   Thumb Code   444  motor_app.o(i.motor_ui_updata)
    i.mypow                                  0x080071d8   Section        0  lcd.o(i.mypow)
    i.nvic_irq_enable                        0x080071f0   Section        0  gd32f30x_misc.o(i.nvic_irq_enable)
    i.nvic_priority_group_set                0x080072b4   Section        0  gd32f30x_misc.o(i.nvic_priority_group_set)
    i.park                                   0x080072c8   Section        0  foc.o(i.park)
    i.pid_control                            0x08007304   Section        0  pmsm.o(i.pid_control)
    pid_control                              0x08007305   Thumb Code   534  pmsm.o(i.pid_control)
    i.pmsm_foc_init                          0x08007544   Section        0  pmsm.o(i.pmsm_foc_init)
    i.pmsm_foc_init_control_parameters       0x08007584   Section        0  pmsm.o(i.pmsm_foc_init_control_parameters)
    pmsm_foc_init_control_parameters         0x08007585   Thumb Code   160  pmsm.o(i.pmsm_foc_init_control_parameters)
    i.pmsm_foc_run                           0x08007640   Section        0  pmsm.o(i.pmsm_foc_run)
    i.pwm_gpio_init                          0x08007714   Section        0  motor_hardware.o(i.pwm_gpio_init)
    pwm_gpio_init                            0x08007715   Thumb Code   126  motor_hardware.o(i.pwm_gpio_init)
    i.pwm_timer_config                       0x0800779c   Section        0  motor_hardware.o(i.pwm_timer_config)
    pwm_timer_config                         0x0800779d   Thumb Code   356  motor_hardware.o(i.pwm_timer_config)
    i.rcu_adc_clock_config                   0x08007904   Section        0  gd32f30x_rcu.o(i.rcu_adc_clock_config)
    i.rcu_clock_freq_get                     0x08007970   Section        0  gd32f30x_rcu.o(i.rcu_clock_freq_get)
    i.rcu_periph_clock_enable                0x08007ac8   Section        0  gd32f30x_rcu.o(i.rcu_periph_clock_enable)
    i.rcu_periph_reset_disable               0x08007ae8   Section        0  gd32f30x_rcu.o(i.rcu_periph_reset_disable)
    i.rcu_periph_reset_enable                0x08007b08   Section        0  gd32f30x_rcu.o(i.rcu_periph_reset_enable)
    i.sch_idle                               0x08007b28   Section        0  task.o(i.sch_idle)
    sch_idle                                 0x08007b29   Thumb Code     8  task.o(i.sch_idle)
    i.sch_task100ms                          0x08007b30   Section        0  task.o(i.sch_task100ms)
    sch_task100ms                            0x08007b31   Thumb Code     8  task.o(i.sch_task100ms)
    i.sch_task10ms                           0x08007b38   Section        0  task.o(i.sch_task10ms)
    sch_task10ms                             0x08007b39   Thumb Code     8  task.o(i.sch_task10ms)
    i.sch_task1ms                            0x08007b40   Section        0  task.o(i.sch_task1ms)
    sch_task1ms                              0x08007b41   Thumb Code     2  task.o(i.sch_task1ms)
    i.sch_task1s                             0x08007b42   Section        0  task.o(i.sch_task1s)
    sch_task1s                               0x08007b43   Thumb Code     8  task.o(i.sch_task1s)
    i.sch_task500ms                          0x08007b4a   Section        0  task.o(i.sch_task500ms)
    sch_task500ms                            0x08007b4b   Thumb Code    14  task.o(i.sch_task500ms)
    i.sch_task5ms                            0x08007b58   Section        0  task.o(i.sch_task5ms)
    sch_task5ms                              0x08007b59   Thumb Code     2  task.o(i.sch_task5ms)
    i.sin_cos                                0x08007b5a   Section        0  foc.o(i.sin_cos)
    i.smc_init_parameters                    0x08007b80   Section        0  smcpos.o(i.smc_init_parameters)
    i.smc_position_estimation                0x08007cb4   Section        0  smcpos.o(i.smc_position_estimation)
    i.spi0_init                              0x08007e38   Section        0  spi.o(i.spi0_init)
    i.spi0_transmit_receive_data             0x08007ea0   Section        0  spi.o(i.spi0_transmit_receive_data)
    i.spi2_init                              0x08007ed4   Section        0  spi.o(i.spi2_init)
    i.spi2_transmit_receive_data             0x08007f38   Section        0  spi.o(i.spi2_transmit_receive_data)
    i.spi_enable                             0x08007f70   Section        0  gd32f30x_spi.o(i.spi_enable)
    i.spi_i2s_data_receive                   0x08007f7a   Section        0  gd32f30x_spi.o(i.spi_i2s_data_receive)
    i.spi_i2s_data_transmit                  0x08007f82   Section        0  gd32f30x_spi.o(i.spi_i2s_data_transmit)
    i.spi_i2s_flag_get                       0x08007f86   Section        0  gd32f30x_spi.o(i.spi_i2s_flag_get)
    i.spi_init                               0x08007f96   Section        0  gd32f30x_spi.o(i.spi_init)
    i.svpwm                                  0x08007fc8   Section        0  foc.o(i.svpwm)
    i.system_clock_120m_hxtal                0x080082a0   Section        0  system_gd32f30x.o(i.system_clock_120m_hxtal)
    system_clock_120m_hxtal                  0x080082a1   Thumb Code   258  system_gd32f30x.o(i.system_clock_120m_hxtal)
    i.system_clock_config                    0x080083b4   Section        0  system_gd32f30x.o(i.system_clock_config)
    system_clock_config                      0x080083b5   Thumb Code     8  system_gd32f30x.o(i.system_clock_config)
    i.systick_delay                          0x080083bc   Section        0  systick.o(i.systick_delay)
    i.systick_get_current_tick               0x080083ec   Section        0  systick.o(i.systick_get_current_tick)
    i.systick_init                           0x080083f8   Section        0  systick.o(i.systick_init)
    i.task_init                              0x08008448   Section        0  task.o(i.task_init)
    i.task_scheduler                         0x08008450   Section        0  task.o(i.task_scheduler)
    i.timer_auto_reload_shadow_enable        0x08008578   Section        0  gd32f30x_timer.o(i.timer_auto_reload_shadow_enable)
    i.timer_break_config                     0x08008582   Section        0  gd32f30x_timer.o(i.timer_break_config)
    i.timer_channel_complementary_output_state_config 0x080085a0   Section        0  gd32f30x_timer.o(i.timer_channel_complementary_output_state_config)
    i.timer_channel_input_capture_prescaler_config 0x080085e6   Section        0  gd32f30x_timer.o(i.timer_channel_input_capture_prescaler_config)
    i.timer_channel_output_config            0x08008640   Section        0  gd32f30x_timer.o(i.timer_channel_output_config)
    i.timer_channel_output_mode_config       0x0800882c   Section        0  gd32f30x_timer.o(i.timer_channel_output_mode_config)
    i.timer_channel_output_pulse_value_config 0x08008886   Section        0  gd32f30x_timer.o(i.timer_channel_output_pulse_value_config)
    i.timer_channel_output_shadow_config     0x080088ac   Section        0  gd32f30x_timer.o(i.timer_channel_output_shadow_config)
    i.timer_channel_output_state_config      0x08008906   Section        0  gd32f30x_timer.o(i.timer_channel_output_state_config)
    i.timer_counter_read                     0x08008962   Section        0  gd32f30x_timer.o(i.timer_counter_read)
    i.timer_counter_value_config             0x0800896a   Section        0  gd32f30x_timer.o(i.timer_counter_value_config)
    i.timer_deinit                           0x08008970   Section        0  gd32f30x_timer.o(i.timer_deinit)
    i.timer_enable                           0x08008a4c   Section        0  gd32f30x_timer.o(i.timer_enable)
    i.timer_hall_mode_config                 0x08008a56   Section        0  gd32f30x_timer.o(i.timer_hall_mode_config)
    i.timer_init                             0x08008a70   Section        0  gd32f30x_timer.o(i.timer_init)
    i.timer_input_capture_config             0x08008b08   Section        0  gd32f30x_timer.o(i.timer_input_capture_config)
    i.timer_input_trigger_source_select      0x08008c4e   Section        0  gd32f30x_timer.o(i.timer_input_trigger_source_select)
    i.timer_interrupt_enable                 0x08008c5e   Section        0  gd32f30x_timer.o(i.timer_interrupt_enable)
    i.timer_interrupt_flag_clear             0x08008c66   Section        0  gd32f30x_timer.o(i.timer_interrupt_flag_clear)
    i.timer_interrupt_flag_get               0x08008c6c   Section        0  gd32f30x_timer.o(i.timer_interrupt_flag_get)
    i.timer_primary_output_config            0x08008c84   Section        0  gd32f30x_timer.o(i.timer_primary_output_config)
    i.timer_quadrature_decoder_mode_config   0x08008c9c   Section        0  gd32f30x_timer.o(i.timer_quadrature_decoder_mode_config)
    i.timer_slave_mode_select                0x08008cdc   Section        0  gd32f30x_timer.o(i.timer_slave_mode_select)
    i.usart_baudrate_set                     0x08008cec   Section        0  gd32f30x_usart.o(i.usart_baudrate_set)
    i.usart_deinit                           0x08008d7c   Section        0  gd32f30x_usart.o(i.usart_deinit)
    i.usart_dma_receive_config               0x08008e0c   Section        0  gd32f30x_usart.o(i.usart_dma_receive_config)
    i.usart_dma_transmit_config              0x08008e20   Section        0  gd32f30x_usart.o(i.usart_dma_transmit_config)
    i.usart_enable                           0x08008e34   Section        0  gd32f30x_usart.o(i.usart_enable)
    i.usart_init                             0x08008e40   Section        0  uart.o(i.usart_init)
    i.usart_receive_config                   0x08008f94   Section        0  gd32f30x_usart.o(i.usart_receive_config)
    i.usart_send_data                        0x08008fa8   Section        0  uart.o(i.usart_send_data)
    i.usart_transmit_config                  0x08009030   Section        0  gd32f30x_usart.o(i.usart_transmit_config)
    .constdata                               0x08009044   Section    13300  lcd.o(.constdata)
    .constdata                               0x0800c438   Section     2052  arm_common_tables.o(.constdata)
    .data                                    0x20000000   Section        4  adc_simple.o(.data)
    .data                                    0x20000004   Section       24  led.o(.data)
    GPIO_PORT                                0x20000004   Data          12  led.o(.data)
    GPIO_PIN                                 0x20000010   Data          12  led.o(.data)
    .data                                    0x2000001c   Section      704  ntc.o(.data)
    .data                                    0x200002dc   Section        4  systick.o(.data)
    tick_cnt                                 0x200002dc   Data           4  systick.o(.data)
    .data                                    0x200002e0   Section        5  encoder.o(.data)
    encoder_code                             0x200002e0   Data           1  encoder.o(.data)
    key_f                                    0x200002e1   Data           4  encoder.o(.data)
    .data                                    0x200002e8   Section       24  task.o(.data)
    tick1ms                                  0x200002e8   Data           4  task.o(.data)
    tick5ms                                  0x200002ec   Data           4  task.o(.data)
    tick10ms                                 0x200002f0   Data           4  task.o(.data)
    tick100ms                                0x200002f4   Data           4  task.o(.data)
    tick500ms                                0x200002f8   Data           4  task.o(.data)
    tick1s                                   0x200002fc   Data           4  task.o(.data)
    .data                                    0x20000300   Section       12  motor_app.o(.data)
    ia_sum                                   0x20000300   Data           4  motor_app.o(.data)
    ib_sum                                   0x20000304   Data           4  motor_app.o(.data)
    ic_sum                                   0x20000308   Data           4  motor_app.o(.data)
    .data                                    0x2000030c   Section        4  system_gd32f30x.o(.data)
    .data                                    0x20000310   Section       12  pmsm.o(.data)
    .bss                                     0x2000031c   Section      102  adc_simple.o(.bss)
    .bss                                     0x20000382   Section       64  uart.o(.bss)
    rxbuffer                                 0x20000382   Data          32  uart.o(.bss)
    txbuffer                                 0x200003a2   Data          32  uart.o(.bss)
    .bss                                     0x200003c4   Section       16  encoder.o(.bss)
    key_x                                    0x200003c4   Data          16  encoder.o(.bss)
    .bss                                     0x200003d4   Section       64  motor_app.o(.bss)
    .bss                                     0x20000414   Section      376  pmsm.o(.bss)
    STACK                                    0x20000590   Section     1024  startup_gd32f30x_hd.o(STACK)

    Global Symbols

    Symbol Name                              Value     Ov Type        Size  Object(Section)

    BuildAttributes$$THM_ISAv4$E$P$D$K$B$S$7EM$VFPi3$EXTD16$VFPS$VFMA$PE$A:L22UL41UL21$X:L11$S22US41US21$IEEE1$IW$USESV6$~STKCKD$USESV7$~SHL$OTIME$IEEEX$EBA8$MICROLIB$REQ8$PRES8$EABIv2 0x00000000   Number         0  anon$$obj.o ABSOLUTE
    __ARM_use_no_argv                        0x00000000   Number         0  main.o ABSOLUTE
    __cpp_initialize__aeabi_                  - Undefined Weak Reference
    __cxa_finalize                            - Undefined Weak Reference
    _clock_init                               - Undefined Weak Reference
    _microlib_exit                            - Undefined Weak Reference
    __Vectors_Size                           0x00000130   Number         0  startup_gd32f30x_hd.o ABSOLUTE
    __Vectors                                0x08004000   Data           4  startup_gd32f30x_hd.o(RESET)
    __Vectors_End                            0x08004130   Data           0  startup_gd32f30x_hd.o(RESET)
    __main                                   0x08004131   Thumb Code     0  entry.o(.ARM.Collect$$$$00000000)
    _main_stk                                0x08004131   Thumb Code     0  entry2.o(.ARM.Collect$$$$00000001)
    _main_scatterload                        0x08004135   Thumb Code     0  entry5.o(.ARM.Collect$$$$00000004)
    __main_after_scatterload                 0x08004139   Thumb Code     0  entry5.o(.ARM.Collect$$$$00000004)
    _main_clock                              0x08004139   Thumb Code     0  entry7b.o(.ARM.Collect$$$$00000008)
    _main_cpp_init                           0x08004139   Thumb Code     0  entry8b.o(.ARM.Collect$$$$0000000A)
    _main_init                               0x08004139   Thumb Code     0  entry9a.o(.ARM.Collect$$$$0000000B)
    __rt_final_cpp                           0x08004141   Thumb Code     0  entry10a.o(.ARM.Collect$$$$0000000D)
    __rt_final_exit                          0x08004141   Thumb Code     0  entry11a.o(.ARM.Collect$$$$0000000F)
    Reset_Handler                            0x08004145   Thumb Code     8  startup_gd32f30x_hd.o(.text)
    ADC2_IRQHandler                          0x0800415f   Thumb Code     0  startup_gd32f30x_hd.o(.text)
    CAN0_EWMC_IRQHandler                     0x0800415f   Thumb Code     0  startup_gd32f30x_hd.o(.text)
    CAN0_RX1_IRQHandler                      0x0800415f   Thumb Code     0  startup_gd32f30x_hd.o(.text)
    DMA0_Channel0_IRQHandler                 0x0800415f   Thumb Code     0  startup_gd32f30x_hd.o(.text)
    DMA0_Channel1_IRQHandler                 0x0800415f   Thumb Code     0  startup_gd32f30x_hd.o(.text)
    DMA0_Channel2_IRQHandler                 0x0800415f   Thumb Code     0  startup_gd32f30x_hd.o(.text)
    DMA0_Channel3_IRQHandler                 0x0800415f   Thumb Code     0  startup_gd32f30x_hd.o(.text)
    DMA0_Channel4_IRQHandler                 0x0800415f   Thumb Code     0  startup_gd32f30x_hd.o(.text)
    DMA0_Channel5_IRQHandler                 0x0800415f   Thumb Code     0  startup_gd32f30x_hd.o(.text)
    DMA0_Channel6_IRQHandler                 0x0800415f   Thumb Code     0  startup_gd32f30x_hd.o(.text)
    DMA1_Channel0_IRQHandler                 0x0800415f   Thumb Code     0  startup_gd32f30x_hd.o(.text)
    DMA1_Channel1_IRQHandler                 0x0800415f   Thumb Code     0  startup_gd32f30x_hd.o(.text)
    DMA1_Channel2_IRQHandler                 0x0800415f   Thumb Code     0  startup_gd32f30x_hd.o(.text)
    DMA1_Channel3_4_IRQHandler               0x0800415f   Thumb Code     0  startup_gd32f30x_hd.o(.text)
    EXMC_IRQHandler                          0x0800415f   Thumb Code     0  startup_gd32f30x_hd.o(.text)
    EXTI0_IRQHandler                         0x0800415f   Thumb Code     0  startup_gd32f30x_hd.o(.text)
    EXTI10_15_IRQHandler                     0x0800415f   Thumb Code     0  startup_gd32f30x_hd.o(.text)
    EXTI1_IRQHandler                         0x0800415f   Thumb Code     0  startup_gd32f30x_hd.o(.text)
    EXTI2_IRQHandler                         0x0800415f   Thumb Code     0  startup_gd32f30x_hd.o(.text)
    EXTI3_IRQHandler                         0x0800415f   Thumb Code     0  startup_gd32f30x_hd.o(.text)
    EXTI4_IRQHandler                         0x0800415f   Thumb Code     0  startup_gd32f30x_hd.o(.text)
    EXTI5_9_IRQHandler                       0x0800415f   Thumb Code     0  startup_gd32f30x_hd.o(.text)
    FMC_IRQHandler                           0x0800415f   Thumb Code     0  startup_gd32f30x_hd.o(.text)
    I2C0_ER_IRQHandler                       0x0800415f   Thumb Code     0  startup_gd32f30x_hd.o(.text)
    I2C0_EV_IRQHandler                       0x0800415f   Thumb Code     0  startup_gd32f30x_hd.o(.text)
    I2C1_ER_IRQHandler                       0x0800415f   Thumb Code     0  startup_gd32f30x_hd.o(.text)
    I2C1_EV_IRQHandler                       0x0800415f   Thumb Code     0  startup_gd32f30x_hd.o(.text)
    LVD_IRQHandler                           0x0800415f   Thumb Code     0  startup_gd32f30x_hd.o(.text)
    RCU_CTC_IRQHandler                       0x0800415f   Thumb Code     0  startup_gd32f30x_hd.o(.text)
    RTC_Alarm_IRQHandler                     0x0800415f   Thumb Code     0  startup_gd32f30x_hd.o(.text)
    RTC_IRQHandler                           0x0800415f   Thumb Code     0  startup_gd32f30x_hd.o(.text)
    SDIO_IRQHandler                          0x0800415f   Thumb Code     0  startup_gd32f30x_hd.o(.text)
    SPI0_IRQHandler                          0x0800415f   Thumb Code     0  startup_gd32f30x_hd.o(.text)
    SPI1_IRQHandler                          0x0800415f   Thumb Code     0  startup_gd32f30x_hd.o(.text)
    SPI2_IRQHandler                          0x0800415f   Thumb Code     0  startup_gd32f30x_hd.o(.text)
    TAMPER_IRQHandler                        0x0800415f   Thumb Code     0  startup_gd32f30x_hd.o(.text)
    TIMER0_Channel_IRQHandler                0x0800415f   Thumb Code     0  startup_gd32f30x_hd.o(.text)
    TIMER0_TRG_CMT_IRQHandler                0x0800415f   Thumb Code     0  startup_gd32f30x_hd.o(.text)
    TIMER0_UP_IRQHandler                     0x0800415f   Thumb Code     0  startup_gd32f30x_hd.o(.text)
    TIMER1_IRQHandler                        0x0800415f   Thumb Code     0  startup_gd32f30x_hd.o(.text)
    TIMER2_IRQHandler                        0x0800415f   Thumb Code     0  startup_gd32f30x_hd.o(.text)
    TIMER4_IRQHandler                        0x0800415f   Thumb Code     0  startup_gd32f30x_hd.o(.text)
    TIMER5_IRQHandler                        0x0800415f   Thumb Code     0  startup_gd32f30x_hd.o(.text)
    TIMER6_IRQHandler                        0x0800415f   Thumb Code     0  startup_gd32f30x_hd.o(.text)
    TIMER7_BRK_IRQHandler                    0x0800415f   Thumb Code     0  startup_gd32f30x_hd.o(.text)
    TIMER7_Channel_IRQHandler                0x0800415f   Thumb Code     0  startup_gd32f30x_hd.o(.text)
    TIMER7_TRG_CMT_IRQHandler                0x0800415f   Thumb Code     0  startup_gd32f30x_hd.o(.text)
    TIMER7_UP_IRQHandler                     0x0800415f   Thumb Code     0  startup_gd32f30x_hd.o(.text)
    UART3_IRQHandler                         0x0800415f   Thumb Code     0  startup_gd32f30x_hd.o(.text)
    UART4_IRQHandler                         0x0800415f   Thumb Code     0  startup_gd32f30x_hd.o(.text)
    USART0_IRQHandler                        0x0800415f   Thumb Code     0  startup_gd32f30x_hd.o(.text)
    USART1_IRQHandler                        0x0800415f   Thumb Code     0  startup_gd32f30x_hd.o(.text)
    USART2_IRQHandler                        0x0800415f   Thumb Code     0  startup_gd32f30x_hd.o(.text)
    USBD_HP_CAN0_TX_IRQHandler               0x0800415f   Thumb Code     0  startup_gd32f30x_hd.o(.text)
    USBD_WKUP_IRQHandler                     0x0800415f   Thumb Code     0  startup_gd32f30x_hd.o(.text)
    WWDGT_IRQHandler                         0x0800415f   Thumb Code     0  startup_gd32f30x_hd.o(.text)
    arm_cos_f32                              0x08004169   Thumb Code   108  arm_cos_f32.o(.text)
    arm_sin_f32                              0x080041e1   Thumb Code   118  arm_sin_f32.o(.text)
    __aeabi_memcpy                           0x08004265   Thumb Code    36  memcpya.o(.text)
    __aeabi_memcpy4                          0x08004265   Thumb Code     0  memcpya.o(.text)
    __aeabi_memcpy8                          0x08004265   Thumb Code     0  memcpya.o(.text)
    __scatterload                            0x08004289   Thumb Code    28  init.o(.text)
    __scatterload_rt2                        0x08004289   Thumb Code     0  init.o(.text)
    __decompress                             0x080042ad   Thumb Code     0  __dczerorl2.o(.text)
    __decompress1                            0x080042ad   Thumb Code    86  __dczerorl2.o(.text)
    ADC0_1_IRQHandler                        0x08004305   Thumb Code    16  main.o(i.ADC0_1_IRQHandler)
    BusFault_Handler                         0x08004319   Thumb Code     4  gd32f30x_it.o(i.BusFault_Handler)
    DRV8323RS_clearFaults                    0x0800431d   Thumb Code    14  drv8323rs.o(i.DRV8323RS_clearFaults)
    DRV8323RS_createSPIDataWord              0x0800432b   Thumb Code    30  drv8323rs.o(i.DRV8323RS_createSPIDataWord)
    DRV8323RS_disable                        0x08004349   Thumb Code    22  drv8323rs.o(i.DRV8323RS_disable)
    DRV8323RS_enable                         0x08004365   Thumb Code    20  drv8323rs.o(i.DRV8323RS_enable)
    DRV8323RS_init                           0x0800437d   Thumb Code   164  drv8323rs.o(i.DRV8323RS_init)
    DRV8323RS_setCsaGain                     0x08004429   Thumb Code    16  drv8323rs.o(i.DRV8323RS_setCsaGain)
    DRV8323RS_setVdsLvl                      0x08004439   Thumb Code    16  drv8323rs.o(i.DRV8323RS_setVdsLvl)
    DRV8323RS_spiRead                        0x08004449   Thumb Code    52  drv8323rs.o(i.DRV8323RS_spiRead)
    DRV8323RS_spiUpdateRegister              0x08004481   Thumb Code    34  drv8323rs.o(i.DRV8323RS_spiUpdateRegister)
    DRV8323RS_spiWrite                       0x080044a5   Thumb Code    46  drv8323rs.o(i.DRV8323RS_spiWrite)
    DebugMon_Handler                         0x080044d9   Thumb Code     2  gd32f30x_it.o(i.DebugMon_Handler)
    HardFault_Handler                        0x080044db   Thumb Code     4  gd32f30x_it.o(i.HardFault_Handler)
    LCD_Address_Set                          0x080044f9   Thumb Code    74  lcd_init.o(i.LCD_Address_Set)
    LCD_DrawPoint                            0x08004543   Thumb Code    28  lcd.o(i.LCD_DrawPoint)
    LCD_Fill                                 0x0800455f   Thumb Code    74  lcd.o(i.LCD_Fill)
    LCD_GPIO_Init                            0x080045a9   Thumb Code   114  lcd_init.o(i.LCD_GPIO_Init)
    LCD_Init                                 0x08004621   Thumb Code   428  lcd_init.o(i.LCD_Init)
    LCD_ShowChar                             0x080047d1   Thumb Code   328  lcd.o(i.LCD_ShowChar)
    LCD_ShowFloatNum2                        0x08004929   Thumb Code   314  lcd.o(i.LCD_ShowFloatNum2)
    LCD_ShowIntNum                           0x08004a63   Thumb Code   186  lcd.o(i.LCD_ShowIntNum)
    LCD_ShowString                           0x08004b1d   Thumb Code    66  lcd.o(i.LCD_ShowString)
    LCD_WR_DATA                              0x08004b5f   Thumb Code    18  lcd_init.o(i.LCD_WR_DATA)
    LCD_WR_DATA8                             0x08004b71   Thumb Code    12  lcd_init.o(i.LCD_WR_DATA8)
    LCD_WR_REG                               0x08004b7d   Thumb Code    34  lcd_init.o(i.LCD_WR_REG)
    LCD_Writ_Bus                             0x08004ba5   Thumb Code    32  lcd_init.o(i.LCD_Writ_Bus)
    MemManage_Handler                        0x08004bc9   Thumb Code     4  gd32f30x_it.o(i.MemManage_Handler)
    NMI_Handler                              0x08004bcd   Thumb Code     2  gd32f30x_it.o(i.NMI_Handler)
    PendSV_Handler                           0x08004bf9   Thumb Code     2  gd32f30x_it.o(i.PendSV_Handler)
    SVC_Handler                              0x08004bfb   Thumb Code     2  gd32f30x_it.o(i.SVC_Handler)
    SysTick_Handler                          0x08004bfd   Thumb Code    12  systick.o(i.SysTick_Handler)
    SystemInit                               0x08004c0d   Thumb Code   156  system_gd32f30x.o(i.SystemInit)
    TIMER0_BRK_IRQHandler                    0x08004cb5   Thumb Code    48  main.o(i.TIMER0_BRK_IRQHandler)
    TIMER3_IRQHandler                        0x08004ce9   Thumb Code    60  encoder.o(i.TIMER3_IRQHandler)
    USBD_LP_CAN0_RX0_IRQHandler              0x08004d2d   Thumb Code    18  main.o(i.USBD_LP_CAN0_RX0_IRQHandler)
    UsageFault_Handler                       0x08004d45   Thumb Code     4  gd32f30x_it.o(i.UsageFault_Handler)
    __scatterload_copy                       0x08004d49   Thumb Code    14  handlers.o(i.__scatterload_copy)
    __scatterload_null                       0x08004d57   Thumb Code     2  handlers.o(i.__scatterload_null)
    __scatterload_zeroinit                   0x08004d59   Thumb Code    14  handlers.o(i.__scatterload_zeroinit)
    adc0_init                                0x08004e11   Thumb Code    12  motor_hardware.o(i.adc0_init)
    adc1_init                                0x08004e1d   Thumb Code   174  adc_simple.o(i.adc1_init)
    adc_calibration_enable                   0x08004ee1   Thumb Code    42  gd32f30x_adc.o(i.adc_calibration_enable)
    adc_channel_length_config                0x08004f0b   Thumb Code    70  gd32f30x_adc.o(i.adc_channel_length_config)
    adc_data_alignment_config                0x08004f51   Thumb Code    22  gd32f30x_adc.o(i.adc_data_alignment_config)
    adc_enable                               0x08004f67   Thumb Code    18  gd32f30x_adc.o(i.adc_enable)
    adc_external_trigger_config              0x08004f79   Thumb Code    62  gd32f30x_adc.o(i.adc_external_trigger_config)
    adc_external_trigger_source_config       0x08004fb7   Thumb Code    48  gd32f30x_adc.o(i.adc_external_trigger_source_config)
    adc_flag_clear                           0x08004fe7   Thumb Code     6  gd32f30x_adc.o(i.adc_flag_clear)
    adc_flag_get                             0x08004fed   Thumb Code    14  gd32f30x_adc.o(i.adc_flag_get)
    adc_inserted_channel_config              0x0800505d   Thumb Code   116  gd32f30x_adc.o(i.adc_inserted_channel_config)
    adc_inserted_data_read                   0x080050d1   Thumb Code    46  gd32f30x_adc.o(i.adc_inserted_data_read)
    adc_interrupt_enable                     0x080050ff   Thumb Code    44  gd32f30x_adc.o(i.adc_interrupt_enable)
    adc_interrupt_flag_clear                 0x0800512b   Thumb Code     6  gd32f30x_adc.o(i.adc_interrupt_flag_clear)
    adc_mode_config                          0x08005131   Thumb Code    22  gd32f30x_adc.o(i.adc_mode_config)
    adc_read_data                            0x0800514d   Thumb Code    52  adc_simple.o(i.adc_read_data)
    adc_regular_channel_config               0x08005185   Thumb Code   172  gd32f30x_adc.o(i.adc_regular_channel_config)
    adc_regular_data_read                    0x08005231   Thumb Code     8  gd32f30x_adc.o(i.adc_regular_data_read)
    adc_software_trigger_enable              0x08005239   Thumb Code    30  gd32f30x_adc.o(i.adc_software_trigger_enable)
    adc_special_function_config              0x08005257   Thumb Code    90  gd32f30x_adc.o(i.adc_special_function_config)
    adc_task                                 0x080052b1   Thumb Code   174  adc_simple.o(i.adc_task)
    calc_pi                                  0x08005371   Thumb Code   122  foc.o(i.calc_pi)
    calculate_temperature_float              0x08005695   Thumb Code   230  ntc.o(i.calculate_temperature_float)
    can_bus_init                             0x08005781   Thumb Code    24  can.o(i.can_bus_init)
    can_deinit                               0x0800583d   Thumb Code    28  gd32f30x_can.o(i.can_deinit)
    can_filter_init                          0x0800585d   Thumb Code   262  gd32f30x_can.o(i.can_filter_init)
    can_init                                 0x08005999   Thumb Code   290  gd32f30x_can.o(i.can_init)
    can_interrupt_enable                     0x08005abb   Thumb Code     8  gd32f30x_can.o(i.can_interrupt_enable)
    can_message_receive                      0x08005ac3   Thumb Code   228  gd32f30x_can.o(i.can_message_receive)
    can_message_transmit                     0x08005ba9   Thumb Code   332  gd32f30x_can.o(i.can_message_transmit)
    can_struct_para_init                     0x08005d07   Thumb Code   164  gd32f30x_can.o(i.can_struct_para_init)
    clark                                    0x08005dad   Thumb Code    46  foc.o(i.clark)
    dma_channel_enable                       0x08005de1   Thumb Code    50  gd32f30x_dma.o(i.dma_channel_enable)
    dma_circulation_disable                  0x08005e13   Thumb Code    50  gd32f30x_dma.o(i.dma_circulation_disable)
    dma_deinit                               0x08005e45   Thumb Code   112  gd32f30x_dma.o(i.dma_deinit)
    dma_flag_get                             0x08005eb5   Thumb Code    24  gd32f30x_dma.o(i.dma_flag_get)
    dma_init                                 0x08005ecd   Thumb Code   302  gd32f30x_dma.o(i.dma_init)
    dma_memory_to_memory_disable             0x08005ffb   Thumb Code    50  gd32f30x_dma.o(i.dma_memory_to_memory_disable)
    dma_struct_para_init                     0x08006045   Thumb Code    28  gd32f30x_dma.o(i.dma_struct_para_init)
    encoder_get                              0x08006061   Thumb Code    12  encoder.o(i.encoder_get)
    encoder_init                             0x080060b9   Thumb Code    26  encoder.o(i.encoder_init)
    gpio_bit_write                           0x08006165   Thumb Code    10  gd32f30x_gpio.o(i.gpio_bit_write)
    gpio_init                                0x0800616f   Thumb Code   188  gd32f30x_gpio.o(i.gpio_init)
    gpio_input_bit_get                       0x0800622b   Thumb Code    16  gd32f30x_gpio.o(i.gpio_input_bit_get)
    gpio_output_bit_get                      0x0800623b   Thumb Code    16  gd32f30x_gpio.o(i.gpio_output_bit_get)
    gpio_pin_remap_config                    0x0800624d   Thumb Code   138  gd32f30x_gpio.o(i.gpio_pin_remap_config)
    hall_init                                0x080062dd   Thumb Code    86  motor_hardware.o(i.hall_init)
    init_pi                                  0x08006415   Thumb Code    18  foc.o(i.init_pi)
    interrupt_init                           0x0800642d   Thumb Code    24  motor_hardware.o(i.interrupt_init)
    inv_park                                 0x08006445   Thumb Code    58  foc.o(i.inv_park)
    key_get                                  0x0800655d   Thumb Code    48  encoder.o(i.key_get)
    key_scan                                 0x080065b5   Thumb Code    24  encoder.o(i.key_scan)
    led_init                                 0x0800662d   Thumb Code   134  led.o(i.led_init)
    led_on                                   0x080066c1   Thumb Code    16  led.o(i.led_on)
    led_toggle                               0x080066d9   Thumb Code    46  led.o(i.led_toggle)
    main                                     0x08006711   Thumb Code    90  main.o(i.main)
    motor_app_idle                           0x0800677d   Thumb Code     8  motor_app.o(i.motor_app_idle)
    motor_app_init                           0x08006785   Thumb Code    70  motor_app.o(i.motor_app_init)
    motor_app_isr                            0x080067d5   Thumb Code   584  motor_app.o(i.motor_app_isr)
    motor_app_task100ms                      0x08006a49   Thumb Code     2  motor_app.o(i.motor_app_task100ms)
    motor_app_task10ms                       0x08006a4d   Thumb Code   318  motor_app.o(i.motor_app_task10ms)
    motor_app_task1s                         0x08006bad   Thumb Code     8  motor_app.o(i.motor_app_task1s)
    motor_app_task500ms                      0x08006bb5   Thumb Code     2  motor_app.o(i.motor_app_task500ms)
    motor_hardware_init                      0x08006c81   Thumb Code    28  motor_hardware.o(i.motor_hardware_init)
    motor_pwm_disable                        0x08006c9d   Thumb Code    64  motor_hardware.o(i.motor_pwm_disable)
    motor_pwm_enable                         0x08006ce1   Thumb Code    64  motor_hardware.o(i.motor_pwm_enable)
    motor_pwm_set_duty                       0x08006d25   Thumb Code    40  motor_hardware.o(i.motor_pwm_set_duty)
    mypow                                    0x080071d9   Thumb Code    22  lcd.o(i.mypow)
    nvic_irq_enable                          0x080071f1   Thumb Code   186  gd32f30x_misc.o(i.nvic_irq_enable)
    nvic_priority_group_set                  0x080072b5   Thumb Code    10  gd32f30x_misc.o(i.nvic_priority_group_set)
    park                                     0x080072c9   Thumb Code    58  foc.o(i.park)
    pmsm_foc_init                            0x08007545   Thumb Code    46  pmsm.o(i.pmsm_foc_init)
    pmsm_foc_run                             0x08007641   Thumb Code   196  pmsm.o(i.pmsm_foc_run)
    rcu_adc_clock_config                     0x08007905   Thumb Code    98  gd32f30x_rcu.o(i.rcu_adc_clock_config)
    rcu_clock_freq_get                       0x08007971   Thumb Code   310  gd32f30x_rcu.o(i.rcu_clock_freq_get)
    rcu_periph_clock_enable                  0x08007ac9   Thumb Code    28  gd32f30x_rcu.o(i.rcu_periph_clock_enable)
    rcu_periph_reset_disable                 0x08007ae9   Thumb Code    28  gd32f30x_rcu.o(i.rcu_periph_reset_disable)
    rcu_periph_reset_enable                  0x08007b09   Thumb Code    28  gd32f30x_rcu.o(i.rcu_periph_reset_enable)
    sin_cos                                  0x08007b5b   Thumb Code    38  foc.o(i.sin_cos)
    smc_init_parameters                      0x08007b81   Thumb Code   282  smcpos.o(i.smc_init_parameters)
    smc_position_estimation                  0x08007cb5   Thumb Code   388  smcpos.o(i.smc_position_estimation)
    spi0_init                                0x08007e39   Thumb Code    94  spi.o(i.spi0_init)
    spi0_transmit_receive_data               0x08007ea1   Thumb Code    48  spi.o(i.spi0_transmit_receive_data)
    spi2_init                                0x08007ed5   Thumb Code    86  spi.o(i.spi2_init)
    spi2_transmit_receive_data               0x08007f39   Thumb Code    50  spi.o(i.spi2_transmit_receive_data)
    spi_enable                               0x08007f71   Thumb Code    10  gd32f30x_spi.o(i.spi_enable)
    spi_i2s_data_receive                     0x08007f7b   Thumb Code     8  gd32f30x_spi.o(i.spi_i2s_data_receive)
    spi_i2s_data_transmit                    0x08007f83   Thumb Code     4  gd32f30x_spi.o(i.spi_i2s_data_transmit)
    spi_i2s_flag_get                         0x08007f87   Thumb Code    16  gd32f30x_spi.o(i.spi_i2s_flag_get)
    spi_init                                 0x08007f97   Thumb Code    50  gd32f30x_spi.o(i.spi_init)
    svpwm                                    0x08007fc9   Thumb Code   718  foc.o(i.svpwm)
    systick_delay                            0x080083bd   Thumb Code    48  systick.o(i.systick_delay)
    systick_get_current_tick                 0x080083ed   Thumb Code     6  systick.o(i.systick_get_current_tick)
    systick_init                             0x080083f9   Thumb Code    74  systick.o(i.systick_init)
    task_init                                0x08008449   Thumb Code     8  task.o(i.task_init)
    task_scheduler                           0x08008451   Thumb Code   272  task.o(i.task_scheduler)
    timer_auto_reload_shadow_enable          0x08008579   Thumb Code    10  gd32f30x_timer.o(i.timer_auto_reload_shadow_enable)
    timer_break_config                       0x08008583   Thumb Code    30  gd32f30x_timer.o(i.timer_break_config)
    timer_channel_complementary_output_state_config 0x080085a1   Thumb Code    70  gd32f30x_timer.o(i.timer_channel_complementary_output_state_config)
    timer_channel_input_capture_prescaler_config 0x080085e7   Thumb Code    90  gd32f30x_timer.o(i.timer_channel_input_capture_prescaler_config)
    timer_channel_output_config              0x08008641   Thumb Code   484  gd32f30x_timer.o(i.timer_channel_output_config)
    timer_channel_output_mode_config         0x0800882d   Thumb Code    90  gd32f30x_timer.o(i.timer_channel_output_mode_config)
    timer_channel_output_pulse_value_config  0x08008887   Thumb Code    38  gd32f30x_timer.o(i.timer_channel_output_pulse_value_config)
    timer_channel_output_shadow_config       0x080088ad   Thumb Code    90  gd32f30x_timer.o(i.timer_channel_output_shadow_config)
    timer_channel_output_state_config        0x08008907   Thumb Code    92  gd32f30x_timer.o(i.timer_channel_output_state_config)
    timer_counter_read                       0x08008963   Thumb Code     8  gd32f30x_timer.o(i.timer_counter_read)
    timer_counter_value_config               0x0800896b   Thumb Code     4  gd32f30x_timer.o(i.timer_counter_value_config)
    timer_deinit                             0x08008971   Thumb Code   210  gd32f30x_timer.o(i.timer_deinit)
    timer_enable                             0x08008a4d   Thumb Code    10  gd32f30x_timer.o(i.timer_enable)
    timer_hall_mode_config                   0x08008a57   Thumb Code    26  gd32f30x_timer.o(i.timer_hall_mode_config)
    timer_init                               0x08008a71   Thumb Code   122  gd32f30x_timer.o(i.timer_init)
    timer_input_capture_config               0x08008b09   Thumb Code   326  gd32f30x_timer.o(i.timer_input_capture_config)
    timer_input_trigger_source_select        0x08008c4f   Thumb Code    16  gd32f30x_timer.o(i.timer_input_trigger_source_select)
    timer_interrupt_enable                   0x08008c5f   Thumb Code     8  gd32f30x_timer.o(i.timer_interrupt_enable)
    timer_interrupt_flag_clear               0x08008c67   Thumb Code     6  gd32f30x_timer.o(i.timer_interrupt_flag_clear)
    timer_interrupt_flag_get                 0x08008c6d   Thumb Code    24  gd32f30x_timer.o(i.timer_interrupt_flag_get)
    timer_primary_output_config              0x08008c85   Thumb Code    24  gd32f30x_timer.o(i.timer_primary_output_config)
    timer_quadrature_decoder_mode_config     0x08008c9d   Thumb Code    64  gd32f30x_timer.o(i.timer_quadrature_decoder_mode_config)
    timer_slave_mode_select                  0x08008cdd   Thumb Code    16  gd32f30x_timer.o(i.timer_slave_mode_select)
    usart_baudrate_set                       0x08008ced   Thumb Code   136  gd32f30x_usart.o(i.usart_baudrate_set)
    usart_deinit                             0x08008d7d   Thumb Code   136  gd32f30x_usart.o(i.usart_deinit)
    usart_dma_receive_config                 0x08008e0d   Thumb Code    20  gd32f30x_usart.o(i.usart_dma_receive_config)
    usart_dma_transmit_config                0x08008e21   Thumb Code    20  gd32f30x_usart.o(i.usart_dma_transmit_config)
    usart_enable                             0x08008e35   Thumb Code    10  gd32f30x_usart.o(i.usart_enable)
    usart_init                               0x08008e41   Thumb Code   314  uart.o(i.usart_init)
    usart_receive_config                     0x08008f95   Thumb Code    20  gd32f30x_usart.o(i.usart_receive_config)
    usart_send_data                          0x08008fa9   Thumb Code   122  uart.o(i.usart_send_data)
    usart_transmit_config                    0x08009031   Thumb Code    20  gd32f30x_usart.o(i.usart_transmit_config)
    ascii_1206                               0x08009044   Data        1140  lcd.o(.constdata)
    ascii_1608                               0x080094b8   Data        1520  lcd.o(.constdata)
    ascii_2412                               0x08009aa8   Data        4560  lcd.o(.constdata)
    ascii_3216                               0x0800ac78   Data        6080  lcd.o(.constdata)
    sinTable_f32                             0x0800c438   Data        2052  arm_common_tables.o(.constdata)
    Region$$Table$$Base                      0x0800cc3c   Number         0  anon$$obj.o(Region$$Table)
    Region$$Table$$Limit                     0x0800cc5c   Number         0  anon$$obj.o(Region$$Table)
    channel_index                            0x20000000   Data           1  adc_simple.o(.data)
    adc_channel_buffer                       0x20000001   Data           3  adc_simple.o(.data)
    ntc_table                                0x2000001c   Data         704  ntc.o(.data)
    SystemCoreClock                          0x2000030c   Data           4  system_gd32f30x.o(.data)
    theta_error                              0x20000310   Data           4  pmsm.o(.data)
    iq_error                                 0x20000314   Data           4  pmsm.o(.data)
    iq_error_count                           0x20000318   Data           4  pmsm.o(.data)
    adc_filter_handler                       0x2000031c   Data         102  adc_simple.o(.bss)
    motor1                                   0x200003d4   Data          44  motor_app.o(.bss)
    transmit_message                         0x20000400   Data          20  motor_app.o(.bss)
    pmsm_foc_param                           0x20000414   Data         204  pmsm.o(.bss)
    pmsm_mc_param                            0x200004e0   Data          52  pmsm.o(.bss)
    smc1                                     0x20000514   Data         120  pmsm.o(.bss)
    __initial_sp                             0x20000990   Data           0  startup_gd32f30x_hd.o(STACK)



==============================================================================

Memory Map of the image

  Image Entry point : 0x08004131

  Load Region LR_IROM1 (Base: 0x08004000, Size: 0x00008f78, Max: 0x00040000, ABSOLUTE, COMPRESSED[0x00008f34])

    Execution Region ER_IROM1 (Exec base: 0x08004000, Load base: 0x08004000, Size: 0x00008c5c, Max: 0x00040000, ABSOLUTE)

    Exec Addr    Load Addr    Size         Type   Attr      Idx    E Section Name        Object

    0x08004000   0x08004000   0x00000130   Data   RO         1279    RESET               startup_gd32f30x_hd.o
    0x08004130   0x08004130   0x00000000   Code   RO         5665  * .ARM.Collect$$$$00000000  mc_w.l(entry.o)
    0x08004130   0x08004130   0x00000004   Code   RO         5672    .ARM.Collect$$$$00000001  mc_w.l(entry2.o)
    0x08004134   0x08004134   0x00000004   Code   RO         5675    .ARM.Collect$$$$00000004  mc_w.l(entry5.o)
    0x08004138   0x08004138   0x00000000   Code   RO         5677    .ARM.Collect$$$$00000008  mc_w.l(entry7b.o)
    0x08004138   0x08004138   0x00000000   Code   RO         5679    .ARM.Collect$$$$0000000A  mc_w.l(entry8b.o)
    0x08004138   0x08004138   0x00000008   Code   RO         5680    .ARM.Collect$$$$0000000B  mc_w.l(entry9a.o)
    0x08004140   0x08004140   0x00000000   Code   RO         5682    .ARM.Collect$$$$0000000D  mc_w.l(entry10a.o)
    0x08004140   0x08004140   0x00000000   Code   RO         5684    .ARM.Collect$$$$0000000F  mc_w.l(entry11a.o)
    0x08004140   0x08004140   0x00000004   Code   RO         5673    .ARM.Collect$$$$00002712  mc_w.l(entry2.o)
    0x08004144   0x08004144   0x00000024   Code   RO         1280    .text               startup_gd32f30x_hd.o
    0x08004168   0x08004168   0x00000078   Code   RO         5506    .text               arm_cortexM4lf_math.lib(arm_cos_f32.o)
    0x080041e0   0x080041e0   0x00000084   Code   RO         5562    .text               arm_cortexM4lf_math.lib(arm_sin_f32.o)
    0x08004264   0x08004264   0x00000024   Code   RO         5668    .text               mc_w.l(memcpya.o)
    0x08004288   0x08004288   0x00000024   Code   RO         5686    .text               mc_w.l(init.o)
    0x080042ac   0x080042ac   0x00000056   Code   RO         5696    .text               mc_w.l(__dczerorl2.o)
    0x08004302   0x08004302   0x00000002   PAD
    0x08004304   0x08004304   0x00000014   Code   RO          172    i.ADC0_1_IRQHandler  main.o
    0x08004318   0x08004318   0x00000004   Code   RO            3    i.BusFault_Handler  gd32f30x_it.o
    0x0800431c   0x0800431c   0x0000000e   Code   RO          831    i.DRV8323RS_clearFaults  drv8323rs.o
    0x0800432a   0x0800432a   0x0000001e   Code   RO          832    i.DRV8323RS_createSPIDataWord  drv8323rs.o
    0x08004348   0x08004348   0x0000001c   Code   RO          833    i.DRV8323RS_disable  drv8323rs.o
    0x08004364   0x08004364   0x00000018   Code   RO          834    i.DRV8323RS_enable  drv8323rs.o
    0x0800437c   0x0800437c   0x000000ac   Code   RO          835    i.DRV8323RS_init    drv8323rs.o
    0x08004428   0x08004428   0x00000010   Code   RO          838    i.DRV8323RS_setCsaGain  drv8323rs.o
    0x08004438   0x08004438   0x00000010   Code   RO          851    i.DRV8323RS_setVdsLvl  drv8323rs.o
    0x08004448   0x08004448   0x00000038   Code   RO          853    i.DRV8323RS_spiRead  drv8323rs.o
    0x08004480   0x08004480   0x00000022   Code   RO          854    i.DRV8323RS_spiUpdateRegister  drv8323rs.o
    0x080044a2   0x080044a2   0x00000002   PAD
    0x080044a4   0x080044a4   0x00000034   Code   RO          855    i.DRV8323RS_spiWrite  drv8323rs.o
    0x080044d8   0x080044d8   0x00000002   Code   RO            4    i.DebugMon_Handler  gd32f30x_it.o
    0x080044da   0x080044da   0x00000004   Code   RO            5    i.HardFault_Handler  gd32f30x_it.o
    0x080044de   0x080044de   0x00000002   PAD
    0x080044e0   0x080044e0   0x00000018   Code   RO         1007    i.IsKey0Down        encoder.o
    0x080044f8   0x080044f8   0x0000004a   Code   RO         5278    i.LCD_Address_Set   lcd_init.o
    0x08004542   0x08004542   0x0000001c   Code   RO         5188    i.LCD_DrawPoint     lcd.o
    0x0800455e   0x0800455e   0x0000004a   Code   RO         5190    i.LCD_Fill          lcd.o
    0x080045a8   0x080045a8   0x00000078   Code   RO         5279    i.LCD_GPIO_Init     lcd_init.o
    0x08004620   0x08004620   0x000001b0   Code   RO         5280    i.LCD_Init          lcd_init.o
    0x080047d0   0x080047d0   0x00000158   Code   RO         5191    i.LCD_ShowChar      lcd.o
    0x08004928   0x08004928   0x0000013a   Code   RO         5193    i.LCD_ShowFloatNum2  lcd.o
    0x08004a62   0x08004a62   0x000000ba   Code   RO         5194    i.LCD_ShowIntNum    lcd.o
    0x08004b1c   0x08004b1c   0x00000042   Code   RO         5196    i.LCD_ShowString    lcd.o
    0x08004b5e   0x08004b5e   0x00000012   Code   RO         5281    i.LCD_WR_DATA       lcd_init.o
    0x08004b70   0x08004b70   0x0000000c   Code   RO         5282    i.LCD_WR_DATA8      lcd_init.o
    0x08004b7c   0x08004b7c   0x00000028   Code   RO         5283    i.LCD_WR_REG        lcd_init.o
    0x08004ba4   0x08004ba4   0x00000024   Code   RO         5284    i.LCD_Writ_Bus      lcd_init.o
    0x08004bc8   0x08004bc8   0x00000004   Code   RO            6    i.MemManage_Handler  gd32f30x_it.o
    0x08004bcc   0x08004bcc   0x00000002   Code   RO            7    i.NMI_Handler       gd32f30x_it.o
    0x08004bce   0x08004bce   0x00000002   PAD
    0x08004bd0   0x08004bd0   0x00000028   Code   RO          742    i.NVIC_SetPriority  systick.o
    0x08004bf8   0x08004bf8   0x00000002   Code   RO            8    i.PendSV_Handler    gd32f30x_it.o
    0x08004bfa   0x08004bfa   0x00000002   Code   RO            9    i.SVC_Handler       gd32f30x_it.o
    0x08004bfc   0x08004bfc   0x00000010   Code   RO          743    i.SysTick_Handler   systick.o
    0x08004c0c   0x08004c0c   0x000000a8   Code   RO         1238    i.SystemInit        system_gd32f30x.o
    0x08004cb4   0x08004cb4   0x00000034   Code   RO          173    i.TIMER0_BRK_IRQHandler  main.o
    0x08004ce8   0x08004ce8   0x00000044   Code   RO         1008    i.TIMER3_IRQHandler  encoder.o
    0x08004d2c   0x08004d2c   0x00000018   Code   RO          174    i.USBD_LP_CAN0_RX0_IRQHandler  main.o
    0x08004d44   0x08004d44   0x00000004   Code   RO           10    i.UsageFault_Handler  gd32f30x_it.o
    0x08004d48   0x08004d48   0x0000000e   Code   RO         5690    i.__scatterload_copy  mc_w.l(handlers.o)
    0x08004d56   0x08004d56   0x00000002   Code   RO         5691    i.__scatterload_null  mc_w.l(handlers.o)
    0x08004d58   0x08004d58   0x0000000e   Code   RO         5692    i.__scatterload_zeroinit  mc_w.l(handlers.o)
    0x08004d66   0x08004d66   0x00000002   PAD
    0x08004d68   0x08004d68   0x000000a8   Code   RO          289    i.adc0_config       motor_hardware.o
    0x08004e10   0x08004e10   0x0000000c   Code   RO          290    i.adc0_init         motor_hardware.o
    0x08004e1c   0x08004e1c   0x000000c4   Code   RO          400    i.adc1_init         adc_simple.o
    0x08004ee0   0x08004ee0   0x0000002a   Code   RO         1286    i.adc_calibration_enable  gd32f30x_adc.o
    0x08004f0a   0x08004f0a   0x00000046   Code   RO         1287    i.adc_channel_length_config  gd32f30x_adc.o
    0x08004f50   0x08004f50   0x00000016   Code   RO         1288    i.adc_data_alignment_config  gd32f30x_adc.o
    0x08004f66   0x08004f66   0x00000012   Code   RO         1294    i.adc_enable        gd32f30x_adc.o
    0x08004f78   0x08004f78   0x0000003e   Code   RO         1295    i.adc_external_trigger_config  gd32f30x_adc.o
    0x08004fb6   0x08004fb6   0x00000030   Code   RO         1296    i.adc_external_trigger_source_config  gd32f30x_adc.o
    0x08004fe6   0x08004fe6   0x00000006   Code   RO         1297    i.adc_flag_clear    gd32f30x_adc.o
    0x08004fec   0x08004fec   0x0000000e   Code   RO         1298    i.adc_flag_get      gd32f30x_adc.o
    0x08004ffa   0x08004ffa   0x00000002   PAD
    0x08004ffc   0x08004ffc   0x00000060   Code   RO          291    i.adc_gpio_init     motor_hardware.o
    0x0800505c   0x0800505c   0x00000074   Code   RO         1299    i.adc_inserted_channel_config  gd32f30x_adc.o
    0x080050d0   0x080050d0   0x0000002e   Code   RO         1301    i.adc_inserted_data_read  gd32f30x_adc.o
    0x080050fe   0x080050fe   0x0000002c   Code   RO         1303    i.adc_interrupt_enable  gd32f30x_adc.o
    0x0800512a   0x0800512a   0x00000006   Code   RO         1304    i.adc_interrupt_flag_clear  gd32f30x_adc.o
    0x08005130   0x08005130   0x0000001c   Code   RO         1306    i.adc_mode_config   gd32f30x_adc.o
    0x0800514c   0x0800514c   0x00000038   Code   RO          401    i.adc_read_data     adc_simple.o
    0x08005184   0x08005184   0x000000ac   Code   RO         1310    i.adc_regular_channel_config  gd32f30x_adc.o
    0x08005230   0x08005230   0x00000008   Code   RO         1311    i.adc_regular_data_read  gd32f30x_adc.o
    0x08005238   0x08005238   0x0000001e   Code   RO         1313    i.adc_software_trigger_enable  gd32f30x_adc.o
    0x08005256   0x08005256   0x0000005a   Code   RO         1314    i.adc_special_function_config  gd32f30x_adc.o
    0x080052b0   0x080052b0   0x000000c0   Code   RO          402    i.adc_task          adc_simple.o
    0x08005370   0x08005370   0x0000007a   Code   RO         5340    i.calc_pi           foc.o
    0x080053ea   0x080053ea   0x00000002   PAD
    0x080053ec   0x080053ec   0x00000148   Code   RO         5474    i.calc_pll          smcpos.o
    0x08005534   0x08005534   0x00000160   Code   RO         5399    i.calculate_park_angle  pmsm.o
    0x08005694   0x08005694   0x000000ec   Code   RO          678    i.calculate_temperature_float  ntc.o
    0x08005780   0x08005780   0x0000001c   Code   RO          442    i.can_bus_init      can.o
    0x0800579c   0x0800579c   0x000000a0   Code   RO          443    i.can_config        can.o
    0x0800583c   0x0800583c   0x00000020   Code   RO         1653    i.can_deinit        gd32f30x_can.o
    0x0800585c   0x0800585c   0x00000110   Code   RO         1656    i.can_filter_init   gd32f30x_can.o
    0x0800596c   0x0800596c   0x0000002c   Code   RO          444    i.can_gpio_config   can.o
    0x08005998   0x08005998   0x00000122   Code   RO         1659    i.can_init          gd32f30x_can.o
    0x08005aba   0x08005aba   0x00000008   Code   RO         1661    i.can_interrupt_enable  gd32f30x_can.o
    0x08005ac2   0x08005ac2   0x000000e4   Code   RO         1664    i.can_message_receive  gd32f30x_can.o
    0x08005ba6   0x08005ba6   0x00000002   PAD
    0x08005ba8   0x08005ba8   0x00000150   Code   RO         1665    i.can_message_transmit  gd32f30x_can.o
    0x08005cf8   0x08005cf8   0x0000000e   Code   RO          445    i.can_nvic_config   can.o
    0x08005d06   0x08005d06   0x000000a4   Code   RO         1668    i.can_struct_para_init  gd32f30x_can.o
    0x08005daa   0x08005daa   0x00000002   PAD
    0x08005dac   0x08005dac   0x00000034   Code   RO         5341    i.clark             foc.o
    0x08005de0   0x08005de0   0x00000032   Code   RO         2243    i.dma_channel_enable  gd32f30x_dma.o
    0x08005e12   0x08005e12   0x00000032   Code   RO         2244    i.dma_circulation_disable  gd32f30x_dma.o
    0x08005e44   0x08005e44   0x00000070   Code   RO         2246    i.dma_deinit        gd32f30x_dma.o
    0x08005eb4   0x08005eb4   0x00000018   Code   RO         2248    i.dma_flag_get      gd32f30x_dma.o
    0x08005ecc   0x08005ecc   0x0000012e   Code   RO         2249    i.dma_init          gd32f30x_dma.o
    0x08005ffa   0x08005ffa   0x00000032   Code   RO         2257    i.dma_memory_to_memory_disable  gd32f30x_dma.o
    0x0800602c   0x0800602c   0x00000018   Code   RO         2261    i.dma_periph_and_channel_check  gd32f30x_dma.o
    0x08006044   0x08006044   0x0000001c   Code   RO         2266    i.dma_struct_para_init  gd32f30x_dma.o
    0x08006060   0x08006060   0x00000010   Code   RO         1009    i.encoder_get       encoder.o
    0x08006070   0x08006070   0x00000048   Code   RO         1010    i.encoder_gpio_init  encoder.o
    0x080060b8   0x080060b8   0x0000001a   Code   RO         1011    i.encoder_init      encoder.o
    0x080060d2   0x080060d2   0x00000002   PAD
    0x080060d4   0x080060d4   0x00000090   Code   RO         1012    i.encoder_timer_init  encoder.o
    0x08006164   0x08006164   0x0000000a   Code   RO         2970    i.gpio_bit_write    gd32f30x_gpio.o
    0x0800616e   0x0800616e   0x000000bc   Code   RO         2978    i.gpio_init         gd32f30x_gpio.o
    0x0800622a   0x0800622a   0x00000010   Code   RO         2979    i.gpio_input_bit_get  gd32f30x_gpio.o
    0x0800623a   0x0800623a   0x00000010   Code   RO         2981    i.gpio_output_bit_get  gd32f30x_gpio.o
    0x0800624a   0x0800624a   0x00000002   PAD
    0x0800624c   0x0800624c   0x00000090   Code   RO         2984    i.gpio_pin_remap_config  gd32f30x_gpio.o
    0x080062dc   0x080062dc   0x00000060   Code   RO          294    i.hall_init         motor_hardware.o
    0x0800633c   0x0800633c   0x000000d8   Code   RO          295    i.hall_timer_config  motor_hardware.o
    0x08006414   0x08006414   0x00000018   Code   RO         5342    i.init_pi           foc.o
    0x0800642c   0x0800642c   0x00000018   Code   RO          296    i.interrupt_init    motor_hardware.o
    0x08006444   0x08006444   0x0000003a   Code   RO         5343    i.inv_park          foc.o
    0x0800647e   0x0800647e   0x00000002   PAD
    0x08006480   0x08006480   0x000000dc   Code   RO         1014    i.key_detect        encoder.o
    0x0800655c   0x0800655c   0x00000034   Code   RO         1015    i.key_get           encoder.o
    0x08006590   0x08006590   0x00000024   Code   RO         1016    i.key_put           encoder.o
    0x080065b4   0x080065b4   0x00000018   Code   RO         1017    i.key_scan          encoder.o
    0x080065cc   0x080065cc   0x00000060   Code   RO         1018    i.key_var_init      encoder.o
    0x0800662c   0x0800662c   0x00000094   Code   RO          635    i.led_init          led.o
    0x080066c0   0x080066c0   0x00000018   Code   RO          637    i.led_on            led.o
    0x080066d8   0x080066d8   0x00000038   Code   RO          638    i.led_toggle        led.o
    0x08006710   0x08006710   0x0000006c   Code   RO          175    i.main              main.o
    0x0800677c   0x0800677c   0x00000008   Code   RO         1159    i.motor_app_idle    motor_app.o
    0x08006784   0x08006784   0x00000050   Code   RO         1160    i.motor_app_init    motor_app.o
    0x080067d4   0x080067d4   0x00000274   Code   RO         1161    i.motor_app_isr     motor_app.o
    0x08006a48   0x08006a48   0x00000002   Code   RO         1162    i.motor_app_task100ms  motor_app.o
    0x08006a4a   0x08006a4a   0x00000002   PAD
    0x08006a4c   0x08006a4c   0x00000160   Code   RO         1163    i.motor_app_task10ms  motor_app.o
    0x08006bac   0x08006bac   0x00000008   Code   RO         1164    i.motor_app_task1s  motor_app.o
    0x08006bb4   0x08006bb4   0x00000002   Code   RO         1165    i.motor_app_task500ms  motor_app.o
    0x08006bb6   0x08006bb6   0x00000002   PAD
    0x08006bb8   0x08006bb8   0x000000c8   Code   RO         1166    i.motor_can_transmit  motor_app.o
    0x08006c80   0x08006c80   0x0000001c   Code   RO          297    i.motor_hardware_init  motor_hardware.o
    0x08006c9c   0x08006c9c   0x00000044   Code   RO          298    i.motor_pwm_disable  motor_hardware.o
    0x08006ce0   0x08006ce0   0x00000044   Code   RO          299    i.motor_pwm_enable  motor_hardware.o
    0x08006d24   0x08006d24   0x0000002c   Code   RO          302    i.motor_pwm_set_duty  motor_hardware.o
    0x08006d50   0x08006d50   0x0000029c   Code   RO         1167    i.motor_ui_init     motor_app.o
    0x08006fec   0x08006fec   0x000001ec   Code   RO         1168    i.motor_ui_updata   motor_app.o
    0x080071d8   0x080071d8   0x00000016   Code   RO         5197    i.mypow             lcd.o
    0x080071ee   0x080071ee   0x00000002   PAD
    0x080071f0   0x080071f0   0x000000c4   Code   RO         3296    i.nvic_irq_enable   gd32f30x_misc.o
    0x080072b4   0x080072b4   0x00000014   Code   RO         3297    i.nvic_priority_group_set  gd32f30x_misc.o
    0x080072c8   0x080072c8   0x0000003a   Code   RO         5344    i.park              foc.o
    0x08007302   0x08007302   0x00000002   PAD
    0x08007304   0x08007304   0x00000240   Code   RO         5400    i.pid_control       pmsm.o
    0x08007544   0x08007544   0x00000040   Code   RO         5401    i.pmsm_foc_init     pmsm.o
    0x08007584   0x08007584   0x000000bc   Code   RO         5402    i.pmsm_foc_init_control_parameters  pmsm.o
    0x08007640   0x08007640   0x000000d4   Code   RO         5403    i.pmsm_foc_run      pmsm.o
    0x08007714   0x08007714   0x00000088   Code   RO          304    i.pwm_gpio_init     motor_hardware.o
    0x0800779c   0x0800779c   0x00000168   Code   RO          305    i.pwm_timer_config  motor_hardware.o
    0x08007904   0x08007904   0x0000006c   Code   RO         3486    i.rcu_adc_clock_config  gd32f30x_rcu.o
    0x08007970   0x08007970   0x00000158   Code   RO         3495    i.rcu_clock_freq_get  gd32f30x_rcu.o
    0x08007ac8   0x08007ac8   0x00000020   Code   RO         3513    i.rcu_periph_clock_enable  gd32f30x_rcu.o
    0x08007ae8   0x08007ae8   0x00000020   Code   RO         3516    i.rcu_periph_reset_disable  gd32f30x_rcu.o
    0x08007b08   0x08007b08   0x00000020   Code   RO         3517    i.rcu_periph_reset_enable  gd32f30x_rcu.o
    0x08007b28   0x08007b28   0x00000008   Code   RO         1093    i.sch_idle          task.o
    0x08007b30   0x08007b30   0x00000008   Code   RO         1094    i.sch_task100ms     task.o
    0x08007b38   0x08007b38   0x00000008   Code   RO         1095    i.sch_task10ms      task.o
    0x08007b40   0x08007b40   0x00000002   Code   RO         1096    i.sch_task1ms       task.o
    0x08007b42   0x08007b42   0x00000008   Code   RO         1097    i.sch_task1s        task.o
    0x08007b4a   0x08007b4a   0x0000000e   Code   RO         1098    i.sch_task500ms     task.o
    0x08007b58   0x08007b58   0x00000002   Code   RO         1099    i.sch_task5ms       task.o
    0x08007b5a   0x08007b5a   0x00000026   Code   RO         5345    i.sin_cos           foc.o
    0x08007b80   0x08007b80   0x00000134   Code   RO         5475    i.smc_init_parameters  smcpos.o
    0x08007cb4   0x08007cb4   0x00000184   Code   RO         5476    i.smc_position_estimation  smcpos.o
    0x08007e38   0x08007e38   0x00000068   Code   RO          701    i.spi0_init         spi.o
    0x08007ea0   0x08007ea0   0x00000034   Code   RO          702    i.spi0_transmit_receive_data  spi.o
    0x08007ed4   0x08007ed4   0x00000064   Code   RO          703    i.spi2_init         spi.o
    0x08007f38   0x08007f38   0x00000038   Code   RO          704    i.spi2_transmit_receive_data  spi.o
    0x08007f70   0x08007f70   0x0000000a   Code   RO         4131    i.spi_enable        gd32f30x_spi.o
    0x08007f7a   0x08007f7a   0x00000008   Code   RO         4133    i.spi_i2s_data_receive  gd32f30x_spi.o
    0x08007f82   0x08007f82   0x00000004   Code   RO         4134    i.spi_i2s_data_transmit  gd32f30x_spi.o
    0x08007f86   0x08007f86   0x00000010   Code   RO         4136    i.spi_i2s_flag_get  gd32f30x_spi.o
    0x08007f96   0x08007f96   0x00000032   Code   RO         4141    i.spi_init          gd32f30x_spi.o
    0x08007fc8   0x08007fc8   0x000002d8   Code   RO         5346    i.svpwm             foc.o
    0x080082a0   0x080082a0   0x00000114   Code   RO         1239    i.system_clock_120m_hxtal  system_gd32f30x.o
    0x080083b4   0x080083b4   0x00000008   Code   RO         1240    i.system_clock_config  system_gd32f30x.o
    0x080083bc   0x080083bc   0x00000030   Code   RO          745    i.systick_delay     systick.o
    0x080083ec   0x080083ec   0x0000000c   Code   RO          746    i.systick_get_current_tick  systick.o
    0x080083f8   0x080083f8   0x00000050   Code   RO          747    i.systick_init      systick.o
    0x08008448   0x08008448   0x00000008   Code   RO         1100    i.task_init         task.o
    0x08008450   0x08008450   0x00000128   Code   RO         1101    i.task_scheduler    task.o
    0x08008578   0x08008578   0x0000000a   Code   RO         4377    i.timer_auto_reload_shadow_enable  gd32f30x_timer.o
    0x08008582   0x08008582   0x0000001e   Code   RO         4381    i.timer_break_config  gd32f30x_timer.o
    0x080085a0   0x080085a0   0x00000046   Code   RO         4387    i.timer_channel_complementary_output_state_config  gd32f30x_timer.o
    0x080085e6   0x080085e6   0x0000005a   Code   RO         4391    i.timer_channel_input_capture_prescaler_config  gd32f30x_timer.o
    0x08008640   0x08008640   0x000001ec   Code   RO         4394    i.timer_channel_output_config  gd32f30x_timer.o
    0x0800882c   0x0800882c   0x0000005a   Code   RO         4396    i.timer_channel_output_mode_config  gd32f30x_timer.o
    0x08008886   0x08008886   0x00000026   Code   RO         4398    i.timer_channel_output_pulse_value_config  gd32f30x_timer.o
    0x080088ac   0x080088ac   0x0000005a   Code   RO         4399    i.timer_channel_output_shadow_config  gd32f30x_timer.o
    0x08008906   0x08008906   0x0000005c   Code   RO         4400    i.timer_channel_output_state_config  gd32f30x_timer.o
    0x08008962   0x08008962   0x00000008   Code   RO         4404    i.timer_counter_read  gd32f30x_timer.o
    0x0800896a   0x0800896a   0x00000004   Code   RO         4406    i.timer_counter_value_config  gd32f30x_timer.o
    0x0800896e   0x0800896e   0x00000002   PAD
    0x08008970   0x08008970   0x000000dc   Code   RO         4407    i.timer_deinit      gd32f30x_timer.o
    0x08008a4c   0x08008a4c   0x0000000a   Code   RO         4412    i.timer_enable      gd32f30x_timer.o
    0x08008a56   0x08008a56   0x0000001a   Code   RO         4421    i.timer_hall_mode_config  gd32f30x_timer.o
    0x08008a70   0x08008a70   0x00000098   Code   RO         4422    i.timer_init        gd32f30x_timer.o
    0x08008b08   0x08008b08   0x00000146   Code   RO         4423    i.timer_input_capture_config  gd32f30x_timer.o
    0x08008c4e   0x08008c4e   0x00000010   Code   RO         4425    i.timer_input_trigger_source_select  gd32f30x_timer.o
    0x08008c5e   0x08008c5e   0x00000008   Code   RO         4429    i.timer_interrupt_enable  gd32f30x_timer.o
    0x08008c66   0x08008c66   0x00000006   Code   RO         4430    i.timer_interrupt_flag_clear  gd32f30x_timer.o
    0x08008c6c   0x08008c6c   0x00000018   Code   RO         4431    i.timer_interrupt_flag_get  gd32f30x_timer.o
    0x08008c84   0x08008c84   0x00000018   Code   RO         4437    i.timer_primary_output_config  gd32f30x_timer.o
    0x08008c9c   0x08008c9c   0x00000040   Code   RO         4438    i.timer_quadrature_decoder_mode_config  gd32f30x_timer.o
    0x08008cdc   0x08008cdc   0x00000010   Code   RO         4441    i.timer_slave_mode_select  gd32f30x_timer.o
    0x08008cec   0x08008cec   0x00000090   Code   RO         4817    i.usart_baudrate_set  gd32f30x_usart.o
    0x08008d7c   0x08008d7c   0x00000090   Code   RO         4822    i.usart_deinit      gd32f30x_usart.o
    0x08008e0c   0x08008e0c   0x00000014   Code   RO         4824    i.usart_dma_receive_config  gd32f30x_usart.o
    0x08008e20   0x08008e20   0x00000014   Code   RO         4825    i.usart_dma_transmit_config  gd32f30x_usart.o
    0x08008e34   0x08008e34   0x0000000a   Code   RO         4826    i.usart_enable      gd32f30x_usart.o
    0x08008e3e   0x08008e3e   0x00000002   PAD
    0x08008e40   0x08008e40   0x00000154   Code   RO          803    i.usart_init        uart.o
    0x08008f94   0x08008f94   0x00000014   Code   RO         4850    i.usart_receive_config  gd32f30x_usart.o
    0x08008fa8   0x08008fa8   0x00000088   Code   RO          804    i.usart_send_data   uart.o
    0x08009030   0x08009030   0x00000014   Code   RO         4864    i.usart_transmit_config  gd32f30x_usart.o
    0x08009044   0x08009044   0x000033f4   Data   RO         5198    .constdata          lcd.o
    0x0800c438   0x0800c438   0x00000804   Data   RO         5642    .constdata          arm_cortexM4lf_math.lib(arm_common_tables.o)
    0x0800cc3c   0x0800cc3c   0x00000020   Data   RO         5688    Region$$Table       anon$$obj.o


    Execution Region RW_IRAM1 (Exec base: 0x20000000, Load base: 0x0800cc5c, Size: 0x00000990, Max: 0x0000c000, ABSOLUTE, COMPRESSED[0x000002d8])

    Exec Addr    Load Addr    Size         Type   Attr      Idx    E Section Name        Object

    0x20000000   COMPRESSED   0x00000004   Data   RW          404    .data               adc_simple.o
    0x20000004   COMPRESSED   0x00000018   Data   RW          639    .data               led.o
    0x2000001c   COMPRESSED   0x000002c0   Data   RW          679    .data               ntc.o
    0x200002dc   COMPRESSED   0x00000004   Data   RW          749    .data               systick.o
    0x200002e0   COMPRESSED   0x00000005   Data   RW         1020    .data               encoder.o
    0x200002e5   COMPRESSED   0x00000003   PAD
    0x200002e8   COMPRESSED   0x00000018   Data   RW         1102    .data               task.o
    0x20000300   COMPRESSED   0x0000000c   Data   RW         1170    .data               motor_app.o
    0x2000030c   COMPRESSED   0x00000004   Data   RW         1241    .data               system_gd32f30x.o
    0x20000310   COMPRESSED   0x0000000c   Data   RW         5405    .data               pmsm.o
    0x2000031c        -       0x00000066   Zero   RW          403    .bss                adc_simple.o
    0x20000382        -       0x00000040   Zero   RW          805    .bss                uart.o
    0x200003c2   COMPRESSED   0x00000002   PAD
    0x200003c4        -       0x00000010   Zero   RW         1019    .bss                encoder.o
    0x200003d4        -       0x00000040   Zero   RW         1169    .bss                motor_app.o
    0x20000414        -       0x00000178   Zero   RW         5404    .bss                pmsm.o
    0x2000058c   COMPRESSED   0x00000004   PAD
    0x20000590        -       0x00000400   Zero   RW         1277    STACK               startup_gd32f30x_hd.o


==============================================================================

Image component sizes


      Code (inc. data)   RO Data    RW Data    ZI Data      Debug   Object Name

       444         44          0          4        102       3373   adc_simple.o
       246         12          0          0          0       2083   can.o
       442         28          0          0          0      19030   drv8323rs.o
       778         58          0          5         16       7794   encoder.o
      1080         22          0          0          0       4452   foc.o
       822          6          0          0          0      12429   gd32f30x_adc.o
      1330         18          0          0          0       6085   gd32f30x_can.o
       640          6          0          0          0       6348   gd32f30x_dma.o
       374          6          0          0          0       4044   gd32f30x_gpio.o
        24          0          0          0          0      84096   gd32f30x_it.o
       216         20          0          0          0       1568   gd32f30x_misc.o
       548         68          0          0          0       3971   gd32f30x_rcu.o
        88          0          0          0          0       4098   gd32f30x_spi.o
      1906         48          0          0          0      17535   gd32f30x_timer.o
       378         16          0          0          0       4857   gd32f30x_usart.o
      1034         16      13300          0          0       7278   lcd.o
       732         20          0          0          0       4226   lcd_init.o
       228         32          0         24          0       2749   led.o
       204         32          0          0          0       5089   main.o
      2440        256          0         12         64       7012   motor_app.o
      1316         60          0          0          0       6887   motor_hardware.o
       236          6          0        704          0       1494   ntc.o
      1392        146          0         12        376      17551   pmsm.o
      1024         48          0          0          0       2340   smcpos.o
       312         34          0          0          0       2426   spi.o
        36          8        304          0       1024        920   startup_gd32f30x_hd.o
       452         30          0          4          0       2967   system_gd32f30x.o
       196         24          0          4          0      29823   systick.o
       354         24          0         24          0       4841   task.o
       476         40          0          0         64       2027   uart.o

    ----------------------------------------------------------------------
     19780       1128      13636        796       1652     279393   Object Totals
         0          0         32          0          0          0   (incl. Generated)
        32          0          0          3          6          0   (incl. Padding)

    ----------------------------------------------------------------------

      Code (inc. data)   RO Data    RW Data    ZI Data      Debug   Library Member Name

         0          0       2052          0          0       4636   arm_common_tables.o
       120         12          0          0          0      17018   arm_cos_f32.o
       132         14          0          0          0        750   arm_sin_f32.o
        86          0          0          0          0          0   __dczerorl2.o
         0          0          0          0          0          0   entry.o
         0          0          0          0          0          0   entry10a.o
         0          0          0          0          0          0   entry11a.o
         8          4          0          0          0          0   entry2.o
         4          0          0          0          0          0   entry5.o
         0          0          0          0          0          0   entry7b.o
         0          0          0          0          0          0   entry8b.o
         8          4          0          0          0          0   entry9a.o
        30          0          0          0          0          0   handlers.o
        36          8          0          0          0         68   init.o
        36          0          0          0          0         68   memcpya.o

    ----------------------------------------------------------------------
       464         42       2052          0          0      22540   Library Totals
         4          0          0          0          0          0   (incl. Padding)

    ----------------------------------------------------------------------

      Code (inc. data)   RO Data    RW Data    ZI Data      Debug   Library Name

       252         26       2052          0          0      22404   arm_cortexM4lf_math.lib
       208         16          0          0          0        136   mc_w.l

    ----------------------------------------------------------------------
       464         42       2052          0          0      22540   Library Totals

    ----------------------------------------------------------------------

==============================================================================


      Code (inc. data)   RO Data    RW Data    ZI Data      Debug   

     20244       1170      15688        796       1652     283517   Grand Totals
     20244       1170      15688        728       1652     283517   ELF Image Totals (compressed)
     20244       1170      15688        728          0          0   ROM Totals

==============================================================================

    Total RO  Size (Code + RO Data)                35932 (  35.09kB)
    Total RW  Size (RW Data + ZI Data)              2448 (   2.39kB)
    Total ROM Size (Code + RO Data + RW Data)      36660 (  35.80kB)

==============================================================================

