:020000040800F2
:10400000A00B0020F1410008A54300089D430008D3
:10401000A1430008974300088D44000800000000F9
:10402000000000000000000000000000D343000872
:104030009B43000800000000D1430008D54300085E
:104040000B4200080B4200080B4200080B4200081C
:104050000B4200080B4200080B4200080B4200080C
:104060000B4200080B4200080B4200080B420008FC
:104070000B4200080B4200080B4200080B420008EC
:104080000B4200080B4200080B4200080B420008DC
:104090000B4200080B4200080B4200080B420008CC
:1040A0000B4200080B4200080B4200080B420008BC
:1040B0000B4200080B4200080B4200080B420008AC
:1040C0000B4200080B4200080B4200080B4200089C
:1040D0000B4200080B4200080B4200080B4200088C
:1040E0000B4200080B4200080B4200080B4200087C
:1040F0000B4200080B4200080B4200080B4200086C
:104100000B4200080B4200080B4200080B4200085B
:104110000B4200080B4200080B4200080B4200084B
:104120000B4200080B4200080B4200080B4200083B
:1041300000F002F800F04CF80AA090E8000C82446D
:104140008344AAF10107DA4501D100F041F8AFF24A
:10415000090EBAE80F0013F0010F18BFFB1A43F065
:1041600001031847B4130000D41300000A4410F8E8
:10417000014B14F00F0508BF10F8015B240908BFBC
:1041800010F8014B6D1E05D010F8013B6D1E01F8B3
:10419000013BF9D1641E03D0641E01F8015BFBD121
:1041A0009142E4D37047000000230024002500263C
:1041B000103A28BF78C1FBD8520728BF30C148BF8A
:1041C0000B6070471FB501F0A1F91FBD10B510BD00
:1041D00000F0A8F81146FFF7F5FF00F0A5FD00F08C
:1041E000C6F803B4FFF7F2FF03BC00F0CDF80000FF
:1041F0000948804709480047FEE7FEE7FEE7FEE77B
:10420000FEE7FEE7FEE7FEE7FEE7FEE704480549B6
:10421000054A064B70470000E5430008314100089D
:10422000A0030020A00B0020A0070020A007002072
:10423000032A40F2308010F0030C00F0158011F8D2
:10424000013BBCF1020F624498BF11F801CB00F8AA
:10425000013B38BF11F8013BA2F1040298BF00F8FE
:1042600001CB38BF00F8013B11F0030300F02880B8
:10427000083AC0F0088051F8043B083A51F804CBE2
:10428000A0E80810F5E7121D5CBF51F8043B40F8A8
:10429000043BAFF30080D20724BF11F8013B11F8B3
:1042A00001CB48BF11F8012B24BF00F8013B00F8F7
:1042B00001CB48BF00F8012B70477047704770472B
:1042C00010B5203AC0F00B80B1E81850203AA0E8B1
:1042D0001850B1E81850A0E81850BFF4F5AF5FEAE5
:1042E000027C24BFB1E81850A0E8185044BF18C998
:1042F00018C0BDE810405FEA827C24BF51F8043B3F
:1043000040F8043B08BF7047D20728BF31F8023B92
:1043100048BF11F8012B28BF20F8023B48BF00F826
:10432000012B7047754600F02BF8AE460500694634
:10433000534620F00700854618B020B5FFF766FF0A
:10434000BDE820404FF000064FF000074FF0000896
:104350004FF0000B21F00701AC46ACE8C009ACE817
:10436000C009ACE8C009ACE8C0098D46704710B57B
:104370000446AFF300802046BDE81040FFF731BF90
:10438000004870473C03002001491820ABBEFEE7FF
:1043900026000200704700BFFEE7704700BFFEE73F
:1043A00000BFFEE77047000010B5002807DA0A07D3
:1043B000140E054A00F00F031B1FD45403E00A0734
:1043C000130E024A135410BD18ED00E000E400E0A3
:1043D0007047704702480068401C014908607047F8
:1043E0000C00002008B52648006840F470002449FD
:1043F00008602448006840F001002249086000BFBE
:104400002048006800F002000028F9D000BF1D48D5
:10441000406840F080001B4948600020009002E0A6
:104420000098401C009000985028F9D31548406827
:1044300040F09000134948600020009002E000988E
:10444000401C009000985028F9D300BF0D484068E8
:1044500020F003000B494860084600680A490840FC
:10446000084908604FF41F0088600846006820F47F
:104470008020086000204860C86200F051FE08BD3E
:1044800088ED00E000100240FFFFF6FE00BFFEE7EF
:1044900010B540F2046000F089FD04231A460021A3
:1044A000184800F02CFB082304220021154800F0D6
:1044B00026FB40F20A6000F079FD002000F094FC39
:1044C000002000F0E9F800210F4800F057F8012221
:1044D00011460D4800F02FF84FF4602201210A48E0
:1044E00000F07FF801221146074800F05BF806480B
:1044F00000F04FF8012000F017FE034800F006F826
:1045000010BD00000010014000280140816841F00A
:104510000801816000BF816801F008010029FAD11B
:10452000816841F00401816000BF816801F00401ED
:104530000029FAD1704730B5012902D002291AD1D9
:104540000CE0C36A23F47003C362C36A541E4FF4C1
:10455000700505EA04542343C3620DE0836B23F422
:1045600040138363836B541E4FF4401505EA0454D3
:104570002343836300E000BF00BF30BD21B18268E8
:1045800042F40062826003E0826822F4006282608A
:104590007047816801F0010119B9816841F001019A
:1045A0008160704772B101F001031BB1836843F46D
:1045B0008013836001F0020393B1836843F40043E6
:1045C00083600DE001F001031BB1836823F48013C5
:1045D000836001F002031BB1836823F4004383600E
:1045E0007047012902D0022910D107E0836823F423
:1045F0006023836083681343836008E0836823F447
:10460000E043836083681343836000E000BF00BF22
:104610007047CA43026070470246002013680B408F
:1046200003B101207047000010B501230C220021C6
:104630000A4800F03FF80121084800F095F800BF53
:1046400002210648FFF7E8FF0028F9D002210348BD
:10465000FFF7DFFF014800F083F810BD002801409C
:1046600010B501230D2200210A4800F023F8012192
:10467000084800F079F800BF02210648FFF7CCFF98
:104680000028F9D002210348FFF7C3FF014800F0DA
:1046900067F810BD002801400549096821F4702120
:1046A000034A116011460968014311607047000018
:1046B00004240140F0B51D4606290CD2436B01EBE2
:1046C00081071F26BE40B34301EB810602FA06F6BE
:1046D0003343436322E00C290ED2036B8E1F06EB9B
:1046E00086071F26BE40B3438E1F06EB860602FADE
:1046F00006F63343036311E010290FD2C36AA1F118
:104700000C0606EB86071F26BE40B343A1F10C063C
:1047100006EB860602FA06F63343C3620A2A0CD277
:10472000046902EB42070726BE40B44302EB42068F
:1047300005FA06F63443046111E0122A0FD2C46868
:10474000A2F10A0606EB46070726BE40B443A2F1D3
:104750000A0606EB460605FA06F63443C460F0BDC9
:104760000146C86C80B2704701F001021AB182683C
:1047700042F48002826001F002021AB1826842F4BF
:10478000001282607047000030B501460020AF2360
:104790001EE0C41804EBD4756A10354C04EB820497
:1047A000B4F902408C4201DA531E10E0304C04EBA5
:1047B0008204B4F902408C4201DD501C07E02C4C0D
:1047C00034F9224000EE104AB8EEC00A30BD00BFF6
:1047D0009842DEDD38B9264AB2F9002000EE102AF0
:1047E000B8EEC00AF2E7AF2B07D1214AB2F9BC22DA
:1047F00000EE102AB8EEC00AE8E7421E1C4C34F95D
:10480000222000EE102AB8EEC00AF0EE400A421E46
:1048100004EB8202B2F9022000EE102AB8EEC00AC0
:10482000B0EE401A224632F9202000EE102AB8EEEF
:10483000C00AF0EE401A224602EB8002B2F90220D2
:1048400000EE102AB8EEC00AB0EE402A71EEE02A5F
:1048500000EE101AB8EE400A30EE410A22EE800A4D
:1048600032EE413AC0EE032A32EEA00AAEE7000073
:104870002800002070B505460C462146284600F069
:104880001FF908B900BFFEE704EB8400810005F1C1
:104890000800405840F0010104EB8400820005F15B
:1048A0000800815070BD70B505460C46214628466B
:1048B00000F006F908B900BFFEE704EB84008100B0
:1048C00005F10800405820F0200104EB840082002C
:1048D00005F10800815070BD70B504460D462946AB
:1048E000204600F0EDF808B900BFFEE705EB8500B3
:1048F000810004F10800405820F0010105EB85001B
:10490000820004F108008150002105EB850082003F
:1049100004F10800815005EB8500820004F10C00D1
:10492000815005EB8500820004F11000815005EBF9
:104930008500820004F1140081506068AA000F21F4
:1049400091400843606070BD30B503461C688D001F
:1049500002FA05F52C400CB1012000E0002030BD2A
:104960002DE9F04104460D4616462946204600F042
:10497000A7F808B900BFFEE705EB8500820004F147
:1049800010003168815005EB8500820004F11400AD
:10499000B1688150308A81B205EB8500820004F154
:1049A0000C00815005EB8500810004F10800475898
:1049B00027F47C57F168706808437169084307431E
:1049C00005EB8500810004F108004750307E012886
:1049D0000ED105EB8500810004F10800405840F03D
:1049E000400105EB8500820004F1080081500DE0D4
:1049F00005EB8500810004F10800405820F04001DB
:104A000005EB8500820004F108008150707E0128CA
:104A10000ED105EB8500810004F10800405840F0FC
:104A2000800105EB8500820004F1080081500DE053
:104A300005EB8500810004F10800405820F080015A
:104A400005EB8500820004F108008150B07E70B94A
:104A500005EB8500810004F10800405820F01001AA
:104A600005EB8500820004F1080081500DE005EBA4
:104A70008500810004F10800405840F0100105EB6A
:104A80008500820004F108008150BDE8F08170B516
:104A900005460C462146284600F012F808B900BF2A
:104AA000FEE704EB8400810005F10800405820F483
:104AB000804104EB8400820005F10800815070BD44
:104AC00002460120034B9A4202D1042900DD002056
:104AD000704700000004024008B900BFFEE7002153
:104AE0000160416001768160C1604176016181763B
:104AF000416170470AB1016100E041617047F0B562
:104B0000044616460025002201F00F0501F01007AB
:104B100047B1042E05D145F00305E76B1F43E7635A
:104B200000E0354300201EE0012787401F40C7B149
:104B300022684FEA800C0F2707FA0CF7BA43870068
:104B400005FA07F73A43282904D1012787401F4077
:104B5000676105E0482903D1012787401F4027618D
:104B60002260471CB8B20828DED3082022E00127C3
:104B700087401F40E7B16268A0F108074FEA870C41
:104B80000F2707FA0CF7BA43A0F10807BF0005FA90
:104B900007F73A43282904D1012787401F4067615E
:104BA00005E0482903D1012787401F402761626043
:104BB000471CB8B21028DAD3F0BD0246D0680840CE
:104BC00008B1012070470020FCE70000F0B50A465C
:104BD000002300240021002500F00046B6F1004F1C
:104BE00002D11D4EF16901E01B4E7168C0F303450F
:104BF00083B200F44016B6F5401F08D121F0E06101
:104C0000154E766826F0E066134F7E6012E000F4E1
:104C10008016B6F5801F06D1032606FA05F4A143D7
:104C200041F0E06106E0460D360103FA06F6B143B5
:104C300041F0E06122B1460D360103FA06F6314338
:104C400000F00046B6F1004F02D1034EF16101E0E1
:104C5000014E7160F0BD00000000014010B540F24F
:104C6000056000F0A3F940F2046000F09FF940F203
:104C7000026000F09BF94FF4C06000F097F9012149
:104C80001848FFF7A3FF18490B6818490322086862
:104C90001021FFF734FF14494B6814490322486878
:104CA0001021FFF72CFF10498B68104903228868F8
:104CB0001021FFF724FF0C4A11680C4A10680122EA
:104CC000FFF718FF084A5168084A50680122FFF7A9
:104CD00011FF054A9168054A90680122FFF70AFF13
:104CE00010BD0000000230001C0000201000002059
:104CF00070B504460A4A52F824100A4A52F82400B1
:104D0000FFF75BFFC0F10100C5B2054A52F824105D
:104D1000044A52F824002A46FFF7ECFE70BD00005A
:104D20001C0000201000002025482649086062B6BB
:104D300000F018FAFFF792FF00F0E6FAFFF7A8FB81
:104D40003CE0FFF771FC2049088008460088FFF727
:104D50001BFD1E4880ED000AFFF782FC1C490880FD
:104D60000846008800EE100AB8EE400ADFED190A86
:104D700020EE200ADFED180A20EE200ADFED170AE8
:104D800080EE201A164880ED001A16480F4909686F
:104D90000160134909684160002012490873487393
:104DA000802088737F20C87310210E4800F060FBBC
:104DB0000120FFF79DFF642000F0B6F9C1E7000075
:104DC0000040000808ED00E0020000200400002080
:104DD0000000002033335340CDCCA4410000804577
:104DE00008000020EC020020184B5968184B1940AD
:104DF000164BDA6A22F000520C2820D2DFE800F0CD
:104E0000060708091F0C1F0D1516171800BF00BF55
:104E100000BF41EA803113E000BF20F004004FF0F2
:104E2000805343EA803319430AE000BF00BF00BF4C
:104E300020F00C0041EA803142F0005200E000BF57
:104E400000BF024B5960DA62704700000010024058
:104E5000FF3FFFEF2DE9F04F8CB0074600200A908E
:104E60004AA090E8004CC068CDE905BECDF810A07E
:104E700007900FF21C1ADAE9000ACDE9020A0FF2D4
:104E8000101ADAE9000ACDE9000A44484068C0F384
:104E900081000B900B9820B1012804D002283FD14B
:104EA00003E03F4A3EE03E4A3CE03C48406800F4B4
:104EB000803CBCF5803F12D13848C06A00F0804881
:104EC000B8F1000F01D1364B00E0364B3348406853
:104ED00000F40039B9F5003F02D15B0800E0324B25
:104EE0002E484068C0F383412C48406800F00060C1
:104EF00008B141F010012948406800F0804008B135
:104F000041F020010F2901D2891C06E00F2903D3AB
:104F10003E2901D8491C00E03F2103FB01F201E0DA
:104F20001F4A00BF00BF1D484068C0F3031504A816
:104F3000465D22FA06F419484068C0F3022502A82B
:104F4000465D24FA06F0099014484068C0F3C22573
:104F50001DF8056024FA06F0089037B1012F06D03D
:104F6000022F06D0032F0AD106E00A9208E00A9425
:104F700006E009980A9003E008980A9000E000BF54
:104F800000BF0A980CB0BDE8F08F000000000000E0
:104F90000000000001020304060708090010024097
:104FA00000127A00006CDC0200093D00064A02EBA8
:104FB0009011096800F01F0301229A401143024B2F
:104FC00003EB90121160704700100240064A02EB9A
:104FD0009011096800F01F0301229A409143024B8F
:104FE00003EB90121160704700100240064A02EB7A
:104FF0009011096800F01F0301229A401143024BEF
:1050000003EB901211607047001002400020002155
:105010003F4A126842F480323D4B1A6000BF401C88
:105020003B4A126802F4003119B94FF6FF72904200
:10503000F5D1374A126802F400320AB900BFFEE720
:10504000334AD26942F08052314BDA61314A1268F8
:1050500042F440422F4B1A602D4A52682C4B5A6042
:105060001A4652685A601A46526842F480625A6080
:105070001A46526822F440325A601A46526842F484
:1050800040325A601A465268234B1A40204B5A60ED
:105090001A465268214B1A431D4B5A601A46126831
:1050A00042F080721A6000BF194A126802F0007262
:1050B000002AF9D0174A126842F48032154B1A6060
:1050C00000BF144A526802F48032002AF9D0114A13
:1050D000126842F400320F4B1A6000BF0D4A52684A
:1050E00002F40032002AF9D0094A526822F0030281
:1050F000074B5A601A46526842F002025A6000BFDB
:10510000034A526802F00802002AF9D070470000F2
:105110000010024000700040FFFFC3B700003408D9
:1051200010B5FFF773FF10BD10B5034600F014F87B
:10513000014600F011F80246002400BF00F00CF810
:1051400002468A4201D3501A02E0C1F1FF301044F6
:1051500004469C42F2D310BD01480068704700002D
:105160000C00002010B5124800684FF47A71B0FBB3
:10517000F1F4601EB0F1807F01D301200FE0601ECA
:105180004FF0E02148610F214FF0FF30FFF70CF99D
:1051900000204FF0E021886107200861002008B15D
:1051A00000BFFEE70021481EFFF7FEF810BD00001B
:1051B000E80200202DE9F04704460D460027B846D6
:1051C000B94600261D49601A8C421CD006DC1C48DA
:1051D000204470B1B0F5806F1FD10FE0B0F5806F43
:1051E00016D0B0F56C4F18D10320FFF733FE0746F9
:1051F00014E00220FFF72EFE07460FE00220FFF723
:1052000029FE07460AE00220FFF724FE074605E0D4
:105210000220FFF71FFE074600E000BF00BF07EBBC
:105220005500B0FBF5F64FF6F07006EA000806F000
:105230000F0948EA0900A060BDE8F087004C004073
:1052400000BCFFBF10B504462049601A8C4228D02C
:1052500006DC1F48204490B1B0F5806F33D117E0D1
:10526000B0F5806F26D0B0F56C4F2CD140F20E30E7
:10527000FFF7BCFE40F20E30FFF7A8FE24E040F23C
:105280001140FFF7B3FE40F21140FFF79FFE1BE015
:1052900040F21240FFF7AAFE40F21240FFF796FEDE
:1052A00012E040F21340FFF7A1FE40F21340FFF777
:1052B0008DFE09E040F21440FFF798FE40F21440E2
:1052C000FFF784FE00E000BF00BF10BD004C0040AF
:1052D00000BCFFBF426922F040024261426901F016
:1052E00040031A4342617047426922F080024261E2
:1052F000426901F080031A4342617047C16841F47A
:105300000051C1607047000000B587B040F20460F2
:10531000FFF74CFE4FF4A060FFF748FE40F212701A
:10532000FFF744FE4FF4C060FFF740FE01214548FF
:10533000FFF74CFC4FF48063032218214248FFF72B
:10534000DEFB4FF40063032204213F48FFF7D7FB45
:105350003E48FFF777FF4FF461213C48FFF72AFFF3
:1053600004213A4800F07AF80821384800F0C4F8DF
:105370003648FFF7C3FF01213548FFF7ADFA68460D
:10538000FFF7AAFB01208DF81A0032480290012095
:105390008DF8190000200390202004902B48001D58
:1053A000009000208DF8180001904FF440500590B7
:1053B0006A4601212648FFF7D3FA02212448FFF765
:1053C0008BFA6846FFF788FB00208DF81A00224808
:1053D000029001208DF819000020039020200490F5
:1053E0001A48001D009000208DF8180001904FF41D
:1053F000405005906A4602211548FFF7B1FA012195
:105400001348FFF750FA01211148FFF740FB022132
:105410000F48FFF748FA02210D48FFF738FB4021FB
:105420000A48FFF757FF01210948FFF723FA8021B7
:105430000648FFF759FF02210548FFF71BFA07B09E
:1054400000BD0000100014000010014000480040A2
:10545000000002401C030020FC020020C26822F071
:105460000402C260C26801F004031A43C2607047BC
:1054700030B587B005460C46202C34D202220121DB
:105480001A48FFF761FA01282DD12246294618480B
:10549000FEF7CEFE01211548FFF71EFA6846FFF71A
:1054A0001BFB01208DF81A001148029001208DF895
:1054B00019000020039004940E48009000208DF8FD
:1054C000180001904FF4405005906A4601210748AA
:1054D000FFF746FA01210548FFF7E5F901210348E6
:1054E000FFF7C8F900BF07B030BD00000000024060
:1054F0001C03002004480040C26822F00802C26079
:10550000C26801F008031A43C26070474FF0407050
:10551000E1EE100A70470000385500080000002036
:10552000EC0200006C41000810580008EC0200205A
:10553000B4080000A841000801125D1401400010E9
:10554000014000080140044210328030C9CEFFC63D
:105550000FCFFFC10FD0FFBD0FD1FFB80FD2FFB3E8
:105560000FD3FFAD0FD4FFA70FD5FFA10FD6FF9B21
:105570000FD7FF940FD8FF8C0FD9FF840FDAFF7C71
:105580000FDBFF730FDCFF6A0FDDFF600FDEFF56DE
:105590000FDFFF4B0FE0FF400FE1FF340FE2FF286A
:1055A0000FE3FF1A0FE4FF0D0FE5FFFE0EE6FFEF1E
:1055B0000EE7FFDF0EE8FFCE0EE9FFBD0EEAFFAB00
:1055C0000EEBFF980EECFF840EEDFF700EEEFF5A0F
:1055D0000EEFFF440EF0FF2D0EF1FF150EF2FFFC53
:1055E0000DF3FFE20DF4FFC80DF5FFAC0DF6FF90D3
:1055F0000DF7FF720DF8FF540DF9FF350DFAFF1589
:105600000DFBFFF40CFCFFD20CFDFFAF0CFEFF8C7A
:105610000CFFFF670C2C420C01001C0C0200F50B68
:10562000032CCE0B0400A60B05007D0B062C530BA0
:105630000700290B0800FF0A092CD30A0A00A80A50
:105640000B007C0A0C2C4F0A0D00230A0E00F609F1
:105650000F2CC80910009B0911006D09122C3F097D
:10566000130011091400E408152CB6081600880868
:1056700017005B0818342D08192F081A00D3071BD0
:1056800000A7071C007A071D2C4E071E0023071FCA
:1056900000F806202CCD062100A30622007A06235E
:1056A0002C51062400290625000106262CDA0527A0
:1056B00000B30528008D05292C68052A0044052B18
:1056C0000020052C2CFD042D00DB042E00B9042F36
:1056D0002C98043000780431005804322C3A0433FA
:1056E000001C043400FE03352CE2033600C60337E9
:1056F00000AA03382C9003390076033A005D033B7F
:105700002C44033C002C033D0015033E2CFE023FBD
:1057100000E8024000D302412CBE024200AA02432C
:10572000009602442C83024500700246005E024748
:105730002C4D0248003C0249002B024A2C1B024B14
:10574000000C024C00FD014D2CEE014E00E0014F1B
:1057500000D201502CC5015100B8015200AB0153D9
:105760002C9F015400930155008801562C7D015750
:1057700000720158006801592C5D015A0054015B08
:10578000004A015C2C41015D0038015E002F015F81
:105790002C270160001F016100170162380F0163AF
:1057A000000801642F016500F9006600F30067003E
:1057B000EC00682EE6006900DF006A00D9006B008B
:1057C000D42E6C00CE006D00C8006E00C3006F2E9A
:1057D000BE007000B9007100B4007200AF2E7300FB
:1057E000AB007400A6007500A200762E9E00770024
:1057F0009A00780096007900922E7A008E007B0045
:105800008B007C0087007D3284140E270700000087
:04000005080041317D
:00000001FF
