:020000040800F2
:104000009009002045410008CD4B0008DB44000822
:10401000C94B000819430008454D00080000000086
:10402000000000000000000000000000FB4B000842
:10403000D944000800000000F94B0008FD4B0008BF
:104040005F4100085F4100085F4100085F410008D0
:104050005F4100085F4100085F4100085F410008C0
:104060005F4100085F4100085F4100085F410008B0
:104070005F4100085F4100085F4100085F410008A0
:104080005F4100085F410008054300085F410008E8
:104090002D4D00085F4100085F4100085F410008A6
:1040A000B54C00085F4100085F4100085F4100080F
:1040B0005F4100085F410008E94C00085F410008CB
:1040C0005F4100085F4100085F4100085F41000850
:1040D0005F4100085F4100085F4100085F41000840
:1040E0005F4100085F4100085F4100085F41000830
:1040F0005F4100085F4100085F4100085F41000820
:104100005F4100085F4100085F4100085F4100080F
:104110005F4100085F4100085F4100085F410008FF
:104120005F4100085F4100085F4100085F410008EF
:10413000DFF80CD000F0A8F800480047116700082D
:10414000900900200648804706480047FEE7FEE742
:10415000FEE7FEE7FEE7FEE7FEE7FEE7FEE7FEE737
:104160000D4C0008314100089FED1A1AF5EE000AC7
:1041700040EE010ABDEEE00AF5EEC00A10EE100AAC
:10418000F1EE10FA38BF401E00EE100A1349F7EEA8
:10419000001AB8EEC00A30EEC00ADFED0F0A20EEBA
:1041A000200AFCEEC00A10EE900AC0F3080000EEF0
:1041B000900A01EB8000F8EE600A90ED011A70EEB3
:1041C000600A90ED000A71EEE01A21EE800A00EE1E
:1041D000810A704783F9223E0000004438C4000879
:1041E000DFED1D0AB5EEC00A60EE200ABDEEE01A52
:1041F00011EE100AF1EE10FA38BF401E00EE100A60
:10420000B8EEC00A30EEC00ADFED140A20EE200A34
:10421000B4EEE00AF1EE10FAA8BF30EE600AFCEE50
:10422000C00A0F49F7EE001A10EE900AC0F308001A
:1042300000EE900A01EB8000F8EE600A90ED011AA2
:1042400070EE600A90ED000A71EEE01A21EE800A2D
:1042500000EE810A7047000083F9223E000000440E
:1042600038C4000840EA01039B0703D009E008C9ED
:10427000121F08C0042AFAD203E011F8013B00F82B
:10428000013B521EF9D27047064C074D06E0E0682C
:1042900040F0010394E8070098471034AC42F6D38D
:1042A000FFF74AFF3CCC00085CCC000870B58C18C6
:1042B00010F8015B15F0070301D110F8013B2A113A
:1042C00006D110F8012B03E010F8016B01F8016B27
:1042D0005B1EF9D12B0705D40023521E0DD401F823
:1042E000013BFAE710F8013BCB1A921C03E013F8EC
:1042F000015B01F8015B521EF9D5A142D8D3002021
:1043000070BD000010B50421024800F00EFF02F05D
:1043100061FA10BD0024014000BFFEE710B5012284
:104320001146022000F0ACF810BD10B503464FF660
:10433000FF7404EAC3304FF4F04404EAC12420437C
:10434000C2F30A04204310BD10B500224FF480616F
:10435000034801F007FF012004F030F810BD000011
:10436000000C014010B501229102034801F0FAFE51
:10437000012004F023F810BD000C014010B500240A
:1043800040F2026003F0A0FB40F2036003F09CFBEC
:1043900040F2036003F098FB03F04EFD102303226C
:1043A00019461F4801F0E3FE4FF4806303221021F9
:1043B0001C4801F0DCFE042303221021194801F0FF
:1043C000D6FE00224FF48061164801F0CBFE012298
:1043D0001021134801F0C6FE01220421114801F00A
:1043E000C1FE022003F0EAFF002204210D4801F083
:1043F000B9FEFFF7A9FFFFF7B5FFFFF78FFF032017
:1044000000F022F80446012000F016F8012000F028
:104410000BF840F2FF30844201D000BFFEE710BD30
:1044200000080140000C014010B50446A201C02163
:10443000062000F025F810BD10B5044622460F21D5
:10444000052000F01DF810BD70B5044600250022BF
:1044500021460120FFF769FF064600221021074888
:1044600001F080FE304603F01BFD054601221021BD
:10447000024801F077FEC5F30A0070BD0008014054
:104480002DE9F04107460D4616463846FFF7DCFF9A
:104490000446AC4334432146384600F003F8BDE8F7
:1044A000F081000070B504460D462A4621460020E2
:1044B000FFF73BFF064600221021064801F052FE9E
:1044C000304603F0EDFC01221021024801F04AFEC3
:1044D00070BD000000080140704700BFFEE700000B
:1044E00010B50121034801F0A0FE08B9002010BD5D
:1044F0000120FCE7001001402DE9F04104460D4683
:1045000016461F462A2000F039FB04F1280188B224
:1045100000F025FB06F1280188B200F020FB2B20DB
:1045200000F02CFB05F1350188B200F018FB07F113
:10453000350188B200F013FB2C2000F01FFBBDE812
:10454000F08170B504460D4616462B462246294694
:104550002046FFF7D1FF304600F001FB70BD2DE98A
:10456000F04706460F4614461D46DDF820A0681E9B
:1045700083B2601E82B239463046FFF7BDFFB846AF
:104580000EE0B14606E0504600F0E9FA09F10100FC
:104590001FFA80F9A145F6DB08F101001FFA80F847
:1045A000A845EEDBBDE8F08710B540F2046003F0EB
:1045B0008BFA40F2036003F087FA4FF400530322B2
:1045C0001021164801F0D3FD01225103134801F0D8
:1045D000C9FD4FF4804303221021104801F0C7FDAC
:1045E000012291030D4801F0BDFD4FF40043032269
:1045F00010210A4801F0BBFD0122D103074801F058
:10460000B1FD022303221021044801F0B0FD012274
:104610000221024801F0A6FD10BD0000001001407B
:1046200010B5FFF7C1FF03F055FC00224FF4004125
:10463000664801F097FD642003F0C0FE0122D1031B
:10464000624801F08FFD642003F0B8FE012251039F
:104650005E4801F087FD642003F0B0FE112000F0F9
:104660008DFA782003F0AAFE362000F087FA702039
:1046700000F07EFA3A2000F081FA052000F078FA86
:10468000B22000F07BFA0C2000F072FA0C2000F04F
:104690006FFA002000F06CFA332000F069FA332042
:1046A00000F066FAB72000F069FA352000F060FAF1
:1046B000BB2000F063FA192000F05AFAC02000F085
:1046C0005DFA2C2000F054FAC22000F057FA0120C5
:1046D00000F04EFAC32000F051FA122000F048FA20
:1046E000C42000F04BFA202000F042FAC62000F06F
:1046F00045FA0F2000F03CFAD02000F03FFAA42049
:1047000000F036FAA12000F033FAE02000F036FA8B
:10471000D02000F02DFA042000F02AFA0D2000F03D
:1047200027FA112000F024FA132000F021FA2B20A0
:1047300000F01EFA3F2000F01BFA542000F018FA97
:104740004C2000F015FA182000F012FA0D2000F0AD
:104750000FFA0B2000F00CFA1F2000F009FA2320BA
:1047600000F006FAE12000F009FAD02000F000FA8B
:10477000042000F0FDF90C2000F0FAF9112000F0FF
:10478000F7F9132000F0F4F92C2000F0F1F93F20A4
:1047900000F0EEF9442000F0EBF9512000F0E8F9C8
:1047A0002F2000F0E5F91F2000F0E2F91F2000F0B3
:1047B000DFF9202000F0DCF9232000F0D9F92120D6
:1047C00000F0DCF9292000F0D9F910BD00100140FB
:1047D0002DE9FF5F80468A4617469B460F9D0020C5
:1047E0000290CDF80080284605EBD071C1F3470454
:1047F0002046E21704EB5272D2102146E31704EB75
:104800005373DB10A4EBC3030BB1012300E00023BF
:104810001A446A4392B20192A7F12000C7B20AEB90
:104820000500401E83B208EB0400401E82B25146D0
:104830004046FFF761FE002669E00C2D07D107EB2B
:104840004700354901EB8000805D03901BE0102D8F
:1048500005D1324800EB0710805D039013E0182D5E
:1048600007D107EB47002E4901EB0010805D039054
:1048700009E0202D05D12B4800EB8710805D0390C7
:1048800001E0BDE8FF9F4FF000093AE01098C8B979
:10489000012000FA09F00399084018B1584600F0C9
:1048A0005EF902E00E9800F05AF90298401CC0B27E
:1048B0000290029890FBF4F104FB1100E8B900208B
:1048C000029021E0012000FA09F00399084020B18C
:1048D0005A4651464046FFF734FE08F101001FFAE0
:1048E00080F80098A8EB0000A04206D1DDF8008017
:1048F0000AF101001FFA80FA06E009F1010000F058
:10490000FF09B9F1080FC1DB00BF701C86B2019826
:10491000864292DB00BFB4E744900008B8940008D8
:10492000A89A000878AC00082DE9FF4F2DED020B86
:104930002DED028B83B0B0EE408A1546DDE914768A
:10494000079800F0FF0A304606EBD071C1F3470B21
:10495000B5EEC08AF1EE10FA1AD2B1EE480AF2EEC4
:10496000040A20EE200ABCEEC00A10EE100A1FFA5C
:1049700080F90020CDE9007602902D220A9BDDE926
:104980000701FFF725FF0AEB0B0000F0FF0A09E023
:10499000B2EE040A28EE000ABCEEC00A10EE100ABD
:1049A0001FFA80F9002453E0281B401EC1B20A20E0
:1049B00002F012FCB9FBF0F00A21B0FBF1F201FBAE
:1049C0001208681EA0422BD10020CDE9007602908B
:1049D0002E2250460A9B0899FFF7FAFE0AEB0B00BD
:1049E00000F0FF0A601CC4B2681CC5B2281B401E40
:1049F000C1B20A2002F0F0FBB9FBF0F00A21B0FBD3
:104A0000F1F201FB12080020CDE90076029008F1D6
:104A10003000C2B250460A9B0899FFF7D9FE19E050
:104A2000A81EA04202D0B8F1000F0FD00020CDE99F
:104A30000076029008F13000C2B250460A9B0899F5
:104A4000FFF7C6FE0AEB0B0000F0FF0A601CC4B2C1
:104A5000AC42A9DB00BF03B0BDEC028B06B0BDE8E1
:104A6000F08F2DE9FF4F87B0814692461D46DDE964
:104A700015B600200690304606EBD071C1F3470111
:104A8000059109F0FF080020049000242CE0281B69
:104A9000401EC1B20A2002F09FFBBAFBF0F00A21CF
:104AA000B0FBF1F201FB1207069850B9681EA04254
:104AB00007DD27B90498401CC0B2049012E0012021
:104AC00006900020CDE900B6029007F13000C2B296
:104AD0004046149B0899FFF77BFE0598404400F080
:104AE000FF0800BF601CC4B2AC42D0DB00240FE062
:104AF0000020CDE900B6029020224046149B089980
:104B0000FFF766FE0598404400F0FF08601CC4B241
:104B100004988442ECDB0BB0BDE8F08F2DE9FE4F2A
:104B200006460F4614469846DDE90D5ADDF83090EA
:104B300010E0CDE9015ACDF800902278434639467D
:104B40003046FFF745FE284605EBD07106EB6101C4
:104B50008EB2641C20780028EBD1BDE8FE8F10B522
:104B60000446201200F01EF8E0B200F01BF810BD61
:104B700010B50446204600F015F810BD10B50446E7
:104B800000224FF48041064801F0ECFA204600F084
:104B900009F801229103024801F0E4FA10BD000077
:104BA0000010014010B5044600220221054801F022
:104BB000D9FA204603F0C0F901220221014801F090
:104BC000D1FA10BD0010014000BFFEE770470000A1
:104BD00010B5002807DA0A07140E054A00F00F0383
:104BE0001B1FD45403E00A07130E024A135410BDCE
:104BF00018ED00E000E400E07047704702480068EC
:104C0000401C014908607047DC02002008B52648B6
:104C1000006840F47000244908602448006840F0AF
:104C200001002249086000BF2048006800F002002F
:104C30000028F9D000BF1D48406840F080001B49A3
:104C400048600020009002E00098401C009000980E
:104C50005028F9D31548406840F090001349486047
:104C60000020009002E00098401C0090009850281E
:104C7000F9D300BF0D48406820F003000B4948609D
:104C8000084600680A490840084908604FF41F00B8
:104C900088600846006820F4802008600020486092
:104CA000C86203F087FB08BD88ED00E000100240F9
:104CB000FFFFF6FE10B5202200210A4803F0B6FDE2
:104CC00020220121074803F0B1FD202202210548DE
:104CD00003F0ACFD8021034803F0C5FF022001F082
:104CE000EFFC10BD002C014010B5002440210D4800
:104CF00003F0BCFF012814D140210A4803F0B3FFA0
:104D0000084803F02EFE04B20021064803F02DFEF1
:104D1000002C03DD01200449087002E00220024952
:104D2000087010BD00080040E002002000B585B00A
:104D30006A460021024800F0C4FE05B000BD000034
:104D40000064004000BFFEE702E008C8121F08C16F
:104D5000002AFAD170477047002001E001C1121FFC
:104D6000002AFBD17047000010B540F2096002F044
:104D7000ABFE012002F0C6FD002000F0D9F90122AF
:104D80001102224800F067FA002202211F4800F0B9
:104D900062FA00211D4800F0DBF8032202211B48C3
:104DA00000F0B3F800230E221946184800F056F917
:104DB00000230F220121154800F050F9002308229A
:104DC0000221124800F04AF94FF4805202210F48A4
:104DD00000F0F1F8012202210C4800F0CDF8022188
:104DE0000A4800F0A2F90421084800F09EF90421C5
:104DF000064800F084F9054800F0B5F8012003F0FA
:104E0000DDFA024800F06CF810BD000000240140FB
:104E100010B500F0F3F8FFF7A7FF10BD10B540F292
:104E2000046002F051FE40F2046002F04DFE40F2D8
:104E3000026002F049FE082304220021234801F009
:104E400096F904231A460021204801F090F908231E
:104E5000042200211E4801F08AF940F20A6002F0A3
:104E600033FE002002F04EFD002000F061F9002129
:104E7000184800F06DF801221146164800F045F878
:104E80004FF460220121134800F095F801221146E9
:104E9000104800F071F80F4800F065F8012003F0A9
:104EA0008DFA0C4800F01CF8012003F087FA0A483C
:104EB0000A490978425C01230021064800F062F9A2
:104EC0000121044800F0B8F910BD000000100140B5
:104ED00000080140002801400100002000000020DF
:104EE000816841F00801816000BF816801F008011C
:104EF0000029FAD1816841F00401816000BF816816
:104F000001F004010029FAD1704730B5012902D01F
:104F100002291AD10CE0C36A23F47003C362C36A86
:104F2000541E4FF4700505EA04542343C3620DE098
:104F3000836B23F440138363836B541E4FF440153B
:104F400005EA04542343836300E000BF00BF30BD83
:104F500021B1826842F40062826003E0826822F438
:104F6000006282607047816801F0010119B98168AF
:104F700041F001018160704772B101F001031BB182
:104F8000836843F48013836001F0020393B1836864
:104F900043F4004383600DE001F001031BB183681B
:104FA00023F48013836001F002031BB1836823F4B0
:104FB000004383607047012902D0022910D107E025
:104FC000836823F46023836083681343836008E06D
:104FD000836823F4E043836083681343836000E0C5
:104FE00000BF00BF7047CA430260704702460020FE
:104FF00013680B4003B101207047000010B540F268
:10500000046002F061FD40F2046002F05DFD40F2D8
:10501000036002F059FD40F2026002F055FD1023DA
:10502000042200210A4801F0A2F8202304220021D2
:10503000074801F09CF8012304220021054801F0F3
:1050400096F8082304220021034801F090F810BDCF
:1050500000100140000C014000080140F0B50C4672
:10506000876BC7F30156856BE71CBF1B07EB870CEB
:105070001F2707FA0CF7BD43E71CBF1B07EB870789
:1050800002FA07F73D4385630A2A0DD2016902EB54
:10509000420C072707FA0CF7B94302EB420703FA61
:1050A00007F73943016112E0122A10D2C168A2F158
:1050B0000A0707EB470C072707FA0CF7B943A2F1D9
:1050C0000A0707EB470703FA07F73943C160F0BD4A
:1050D00002460B4633B1012B06D0022B06D0032B20
:1050E00008D105E0D16B07E0116C05E0516C03E0DD
:1050F000916C01E0002100BF00BF88B2704701F051
:1051000001021AB1426842F04002426001F002021C
:105110001AB1426842F02002426001F004021AB162
:10512000426842F0800242607047CA4302607047A2
:105130000549096821F47021034A11601146096884
:1051400001431160704700000424014010B501467E
:1051500000230022032911DA00BF0AE001EB01104D
:10516000074C04EB4000801C30F812000344501C34
:1051700082B2102AF2DBC3F30F1010BD0020FCE74F
:105180001C030020F0B51D4606290CD2436B01EB31
:1051900081071F26BE40B34301EB810602FA06F6E3
:1051A0003343436322E00C290ED2036B8E1F06EBC0
:1051B00086071F26BE40B3438E1F06EB860602FA03
:1051C00006F63343036311E010290FD2C36AA1F13D
:1051D0000C0606EB86071F26BE40B343A1F10C0662
:1051E00006EB860602FA06F63343C3620A2A0CD29D
:1051F000046902EB42070726BE40B44302EB4206B5
:1052000005FA06F63443046111E0122A0FD2C4688D
:10521000A2F10A0606EB46070726BE40B443A2F1F8
:105220000A0606EB460605FA06F63443C460F0BDEE
:105230000146C86C80B2704701F001021AB1826861
:1052400042F48002826001F002021AB1826842F4E4
:10525000001282607047AAB101F480731BB14368E9
:1052600043F48073436001F480631BB1436843F4EB
:105270008063436001F00203CBB1836843F0020313
:10528000836014E001F480731BB1436823F48073DE
:10529000436001F480631BB1436823F4806343607F
:1052A00001F002031BB1836823F00203836070479F
:1052B00010B502212A48FFF799FE01284ED102219C
:1052C0002748FFF790FE2648FFF7B2FF25490978E7
:1052D00001EB0111244A02EB4101891C214A127899
:1052E00002EB0212204B33F8122021F812001D4865
:1052F000007800EB0010194631F81000401C1949E5
:10530000097801EB01111A4622F8110015480078BE
:1053100000EB0010114631F81000102806DB0020C9
:105320001049097801EB011122F811000D480078AD
:10533000401C0C49087008460078032801DB002057
:1053400008700A4807490978425C01230021044893
:10535000FFF718FF01210248FFF76EFF10BD0000A4
:1053600000280140000000201C0300200100002054
:10537000D0ED061A90ED072A71EEC21AF0EE610A1E
:10538000C0ED090AD0ED001A90ED012A42EE201A74
:10539000B0EE610AD0ED041AF4EEC01AF1EE10FA84
:1053A00004D2D0ED041AC0ED081A0DE0D0ED051AB4
:1053B000F4EEC01AF1EE10FA04DDD0ED051AC0EDDE
:1053C000081A01E080ED080AD0ED081A30EE611AE3
:1053D000D0ED001A90ED022A42EE201A90ED032A39
:1053E00042EE411AC0ED001A7047000010B52DEDD5
:1053F000028B04469FED4A0AB0EE408A9FED480AB0
:10540000F0EE408AD4ED160AB0EE600AFEF7ACFE6C
:10541000F0EE408AD4ED160AB0EE600AFEF7E0FE28
:10542000B0EE408A94ED030AB1EE400A20EE280A5D
:10543000D4ED0A0A00EEC80A84ED1A0A94ED1A0A9D
:10544000DFED380AB4EEE00AF1EE10FA02DD9FED6E
:10545000350A01E094ED1A0A84ED1A0A94ED1A0A4D
:10546000DFED310AB4EEE00AF1EE10FA02D29FED60
:105470002E0A01E094ED1A0A84ED1A0A94ED1B0A33
:10548000D4ED1A0A30EE200A84ED1B0A94ED1A0AB4
:10549000D4ED1C0A20EE200AD4ED1B0A94ED1D1A4F
:1054A00000EE810A84ED170A94ED160AD4ED170A6E
:1054B0009FED1E1A00EE810A84ED160A94ED160A7D
:1054C000DFED1B0AB4EEE00AF1EE10FA07DB94ED13
:1054D000160ADFED170A30EE600A84ED160A94ED25
:1054E000160AB5EEC00AF1EE10FA07D894ED160AC6
:1054F000DFED0F0A30EE200A84ED160A94ED170A4C
:10550000D4ED180A70EE600A94ED180A94ED141A9E
:1055100001EE200A84ED180ABDEC028B10BD0000DC
:1055200000000000920A063F920A06BF6F128338FD
:10553000DB0FC9404D48007800285FD04B48808879
:1055400043F67F61884205D248488088401C47491D
:10555000888036E0454890ED020ADFED450AB4EE5A
:10556000E00AF1EE10FA08D290ED020ADFED410AEE
:1055700030EE200A80ED020A23E03F4890ED000A59
:105580003E48D0ED160A30EE600A3D4880ED000A34
:10559000394890ED000ADFED3B0AB4EEE00AF1EE87
:1055A00010FA0ED2354890ED160ADFED360AB4EE49
:1055B000E00AF1EE10FA04D201202C498870002094
:1055C00008702D4890ED000A2848D0ED020A30EE10
:1055D000200A294880ED000A90ED000ADFED2A0A32
:1055E000B4EEE00AF1EE10FA3EDD90ED000ADFEDD8
:1055F000260A30EE600A80ED000A35E01F4890ED83
:10560000160A1F48D0ED000A30EE200A1A4880ED35
:10561000000A1B4890ED000AB0EEC00ADFED1B0A3D
:10562000B4EEE00AF1EE10FA19DD90ED000AB5EEE5
:10563000C00AF1EE10FA08D290ED000ADFED130A6D
:1056400030EE200A80ED000A0EE00D4890ED000AD1
:10565000DFED0E0A30EE600A80ED000A04E09FEDF7
:105660000C0A074880ED000A70470000E0040020A3
:105670005177D63B009DDB34140400201405002034
:1056800010030020DB0F4940DB0FC9400AD7233C41
:105690000000000030B501460020AF231EE0C41812
:1056A00004EBD4756A10354C04EB8204B4F9024063
:1056B0008C4201DA531E10E0304C04EB8204B4F942
:1056C00002408C4201DD501C07E02C4C34F9224092
:1056D00000EE104AB8EEC00A30BD00BF9842DEDDD1
:1056E00038B9264AB2F9002000EE102AB8EEC00AF6
:1056F000F2E7AF2B07D1214AB2F9BC2200EE102A03
:10570000B8EEC00AE8E7421E1C4C34F9222000EE35
:10571000102AB8EEC00AF0EE400A421E04EB8202E4
:10572000B2F9022000EE102AB8EEC00AB0EE401A1C
:10573000224632F9202000EE102AB8EEC00AF0EE20
:10574000401A224602EB8002B2F9022000EE102A33
:10575000B8EEC00AB0EE402A71EEE02A00EE101A50
:10576000B8EE400A30EE410A22EE800A32EE413AAB
:10577000C0EE032A32EEA00AAEE700001C000020B3
:1057800010B500F0F3F800F0B7FA00F007F80221C6
:10579000014800F092F910BD0064004000B589B0E6
:1057A00006A9002000F0AFFA01A9012000F0ABFA31
:1057B00040F2197002F088F91F4800F03FF800200D
:1057C0008DF81C0001208DF81D0000208DF81E00B2
:1057D00001208DF81F0000208DF820008DF8210099
:1057E0008DF818008DF8190006208DF81A00012098
:1057F0008DF81B000C20ADF8220006A90E4800F021
:10580000CBF80020ADF80E00ADF810000120ADF887
:1058100012000020ADF80400ADF80600ADF8080055
:10582000ADF80A00ADF80C0001208DF8140001A8B5
:1058300000F014F809B000BD0064004010B5044643
:105840000548844207D140F2194002F05DF940F268
:10585000194002F049F910BD0064004010B5002164
:10586000837A012202FA03F13E4A126842F00102F1
:105870003C4B1A603B4A1C3212688A43394B1C333A
:105880001A60C289DAB9374A0C3212688A43354B3A
:105890000C331A60C288344B03EA024243881A432D
:1058A0004389304C403444F8332082882E4B03EA3D
:1058B000024203881A43438904EBC3035A60C28936
:1058C000012A1BD1274A0C3212680A43254B0C339C
:1058D0001A600288244B03EA024243881A43438930
:1058E000204C403444F8332082881F4B03EA0242A4
:1058F000C3881A43438904EBC3035A6082893AB9C7
:10590000184A121D12688A43164B1B1D1A6006E0C6
:10591000144A121D12680A43124B1B1D1A60028999
:105920003AB9104A143212688A430E4B14331A6083
:1059300006E00C4A143212680A430A4B14331A6008
:10594000027C012A06D1074A1C3212680A43054B21
:105950001C331A60034A126822F00102014B1A60DC
:1059600010BD0000006600400000FFFF10B540F2CF
:10597000026002F0A9F84FF40063032248210548B1
:1059800000F0F5FB4FF4805303221821014800F08A
:10599000EEFB10BD0008014070B502464FF6FF73E4
:1059A0000020146824F002041460146844F0010418
:1059B000146000E05B1E546804F001040CB9002B75
:1059C000F8D1546804F001040CB9002074E00C789C
:1059D0004FF0404505EA84744D784FF0407606EA72
:1059E00005652C438D784FF4702606EA05452C4357
:1059F000CD784FF4E00606EA05552C434D896D1E1F
:105A0000C5F309052C43D4610C79012C04D1146829
:105A100044F08004146003E0146824F080041460EF
:105A20004C79012C04D1146844F04004146003E064
:105A3000146824F0400414608C79012C04D114689B
:105A400044F02004146003E0146824F0200414607F
:105A5000CC79012C04D1146824F01004146003E004
:105A6000146844F0100414600C7A012C04D11468FA
:105A700024F00804146003E0146844F0080414607F
:105A80004C7A012C04D1146844F00404146003E03F
:105A9000146824F004041460146824F001041460F1
:105AA0004FF6FF7300E05B1E546804F001040CB174
:105AB000002BF8D103B1012070BD42690A43426155
:105AC000704710B500F5D87303EB01131B6803F0A2
:105AD00004031372137A3BB900F5D87303EB011377
:105AE0001B685B0D136006E000F5D87303EB011330
:105AF0001B68DB08536000F5D87303EB01131B68C8
:105B000003F00203537200F5DA7303EB01131B6811
:105B10001B0AD37400F5DA7303EB01131B6803F05F
:105B20000F03937200F5DC7303EB01131B68D37250
:105B300000F5DC7303EB01131B681C0A147300F5FA
:105B4000DC7303EB01131B681C0C547300F5DC734E
:105B500003EB01131B681C0E947300F5DE7303EB5B
:105B600001131B68D37300F5DE7303EB01131B688D
:105B70001C0A147400F5DE7303EB01131B681C0C84
:105B8000547400F5DE7303EB01131B681C0E947450
:105B900021B9C36843F02003C36003E0036943F005
:105BA0002003036110BD000030B502460B46002102
:105BB000906800F08060B0F1806F00D110E09068D4
:105BC00000F00060B0F1006F01D1012108E09068A1
:105BD00000F08050B0F1805F01D1022100E003218C
:105BE000032901D1032030BD02F5C07000EB011084
:105BF000006800F0010402F5C07000EB01100460C1
:105C0000187A88B918883B4C04EA40505C7A2043E3
:105C100002F5C07404EB01142468204302F5C0743B
:105C200004EB0114206013E06FF00704586804EAE5
:105C3000C0001C7A20435C7A204302F5C07404EB58
:105C400001142468204302F5C07404EB01142060A1
:105C500002F5C27000EB0110006820F00F0402F59D
:105C6000C27000EB0110046002F5C27000EB01107D
:105C700000689C7A204302F5C27404EB0114206092
:105C8000987B4FF07F4404EA00605C7B4FF47F0513
:105C900005EA044420431C7B2D1205EA042420431A
:105CA000DC7A204302F5C47404EB01142060987C74
:105CB0002C0404EA00605C7C2D0205EA04442043C5
:105CC0001C7C2D1205EA04242043DC7B204302F5D2
:105CD000C67404EB0114206002F5C07000EB0110E3
:105CE000006840F0010402F5C07000EB0110046090
:105CF000084678E70000E0FF10B5012211461420A5
:105D000001F076FA10BD10B5024609B900BFFEE7F2
:105D100032B1012A16D0022A20D0032A41D12EE026
:105D200000234B71CB718B7140F2FF334B81002309
:105D30000B724B7002238B700023CB700B714B7274
:105D40000B7030E00123CB8100230B740B810B809F
:105D50004B808B80CB808B814B8124E0002005E041
:105D6000002401F10B031C54431CD8B20828F7D3BC
:105D700000238B724B600B724B720B6013E00020A0
:105D800005E0002401F10B031C54431CD8B2082881
:105D9000F7D300238B724B600B72CB744B720B608A
:105DA00001E000BFFEE700BF10BD000090ED030A58
:105DB00080ED060A90ED030ADFED080A20EE200AC6
:105DC000D0ED040AB0EE001A60EE810A9FED031ACE
:105DD00000EE810A80ED070A704700003ACD133FBC
:105DE00070B505460C462146284600F01FF908B953
:105DF00000BFFEE704EB8400810005F10800405875
:105E000040F0010104EB8400820005F1080081509C
:105E100070BD70B505460C462146284600F006F9CF
:105E200008B900BFFEE704EB8400810005F108001B
:105E3000405820F0200104EB8400820005F10800A6
:105E4000815070BD70B504460D462946204600F0CD
:105E5000EDF808B900BFFEE705EB8500810004F10D
:105E60000800405820F0010105EB8500820004F194
:105E700008008150002105EB8500820004F1080034
:105E8000815005EB8500820004F10C00815005EB88
:105E90008500820004F11000815005EB850082002E
:105EA00004F1140081506068AA000F21914008435A
:105EB000606070BD30B503461C688D0002FA05F5C0
:105EC0002C400CB1012000E0002030BD2DE9F04154
:105ED00004460D4616462946204600F0A7F808B9A4
:105EE00000BFFEE705EB8500820004F11000316879
:105EF000815005EB8500820004F11400B1688150E7
:105F0000308A81B205EB8500820004F10C008150DB
:105F100005EB8500810004F10800475827F47C5701
:105F2000F1687068084371690843074305EB850011
:105F3000810004F108004750307E01280ED105EBA6
:105F40008500810004F10800405840F0400105EB55
:105F50008500820004F1080081500DE005EB85000A
:105F6000810004F10800405820F0400105EB850055
:105F7000820004F108008150707E01280ED105EBEB
:105F80008500810004F10800405840F0800105EBD5
:105F90008500820004F1080081500DE005EB8500CA
:105FA000810004F10800405820F0800105EB8500D5
:105FB000820004F108008150B07E70B905EB8500C5
:105FC000810004F10800405820F0100105EB850025
:105FD000820004F1080081500DE005EB850081008E
:105FE00004F10800405840F0100105EB85008200E4
:105FF00004F108008150BDE8F08170B505460C46FB
:106000002146284600F012F808B900BFFEE704EB6D
:106010008400810005F10800405820F4804104EB21
:106020008400820005F10800815070BD0246012005
:10603000034B9A4202D1042900DD00207047000082
:106040000004024008B900BFFEE700210160416082
:1060500001768160C160417601618176416170475E
:10606000024908780021014A11707047E0020020BF
:1060700010B540F2036001F027FD40F2036001F02B
:1060800023FD40F2046001F01FFD402303220421A0
:10609000074800F06CF8802303220421044800F034
:1060A00066F8012303220421024800F060F810BDC5
:1060B000000C01400010014010B5012211461E20C5
:1060C00001F096F8FFF7D4FF00F004F800F07EFA34
:1060D00010BD000000B587B040F2027001F0F4FC82
:1060E0001F4802F045FC0020ADF80400ADF80600A2
:1060F000ADF808004FF6FF7003900020ADF80A00DD
:106100008DF8100001A9164802F0B2FC0020ADF88D
:1061100014000120ADF816000020ADF81800102082
:10612000ADF81A0005AA00210D4802F0EDFC05AA01
:1061300001210B4802F0E8FC5021094802F087FDDC
:1061400000231A460321064802F0A8FD4021044816
:1061500002F085FD024802F079FC07B000BD0000A6
:10616000000800400AB1016100E041617047F0B5EC
:10617000044616460025002201F00F0501F0100725
:1061800047B1042E05D145F00305E76B1F43E763D4
:1061900000E0354300201EE0012787401F40C7B1C3
:1061A00022684FEA800C0F2707FA0CF7BA438700E2
:1061B00005FA07F73A43282904D1012787401F40F1
:1061C000676105E0482903D1012787401F40276107
:1061D0002260471CB8B20828DED3082022E001273D
:1061E00087401F40E7B16268A0F108074FEA870CBB
:1061F0000F2707FA0CF7BA43A0F10807BF0005FA0A
:1062000007F73A43282904D1012787401F406761D7
:1062100005E0482903D1012787401F4027616260BC
:10622000471CB8B21028DAD3F0BD02469068084087
:1062300008B1012070470020FCE70246D068084002
:1062400008B1012070470020FCE70000F0B50A46C5
:10625000002300240021002500F00046B6F1004F85
:1062600002D11D4EF16901E01B4E7168C0F3034578
:1062700083B200F44016B6F5401F08D121F0E0616A
:10628000154E766826F0E066134F7E6012E000F44B
:106290008016B6F5801F06D1032606FA05F4A14341
:1062A00041F0E06106E0460D360103FA06F6B1431F
:1062B00041F0E06122B1460D360103FA06F63143A2
:1062C00000F00046B6F1004F02D1034EF16101E04B
:1062D000014E7160F0BD00000000014010B540F2B9
:1062E000046001F0F1FB40F2046001F0EDFB40F2CC
:1062F000046001F0E9FB4FF4C06001F0E5FB01210F
:106300000C48FFF7A3FF4023032204210A48FFF7AC
:106310002EFF8023032204210748FFF728FF4FF4B4
:106320008073032204210448FFF721FF00F006F8E0
:1063300010BD0000000C1A000010014000B587B02D
:1063400040F2017001F0C0FB314802F011FB7720F0
:10635000ADF804000020ADF80600ADF808004FF6D7
:10636000FF7003900020ADF80A008DF8100001A91D
:10637000274802F07DFB0020ADF814000320ADF8A3
:1063800016000020ADF81800ADF81A0005AA00218B
:106390001F4802F0B9FB0020ADF814000320ADF84F
:1063A00016000020ADF81800ADF81A0005AA01216A
:1063B000174802F0A9FB0020ADF814000320ADF847
:1063C00016000020ADF81800ADF81A0005AA022149
:1063D0000F4802F099FB40210D4802F038FC0421DF
:1063E0000B4802F07BFC0021094802F034FB08480E
:1063F00002F0C2F80221064802F035FC02210448EE
:1064000002F02DFC024802F021FB07B000BD0000A5
:10641000000400409FED040A80ED000A9FED020A8F
:1064200080ED080A704700000000000010B500224F
:106430001146182000F0DCFE02220021122000F09C
:10644000D7FE10BD90ED0A0AD0ED020A20EE200A18
:10645000D0ED0B0A90ED011A00EEC10A80ED0C0A96
:1064600090ED0A0AD0ED010A20EE200AD0ED0B0AC9
:1064700090ED021A00EE810A80ED0D0A70470000CF
:1064800070B50546344800EB0514206880470028A5
:1064900040D12079052802DA052020715AE02079C0
:1064A0000A2803DA2079401C207153E0A07A38B919
:1064B0000120A07205EB4501491CC8B200F068F844
:1064C0002089002846DDE088218988420FDAE088AB
:1064D000401CE080E088218988423BDB05EB4501D8
:1064E000C91CC8B200F054F80120607332E0E07AB1
:1064F00000282FDD207B401C2073207BE17A88421E
:1065000028DB0020207305EB4501491CC8B200F0D0
:106510003FF81FE02079052802DD0520207116E0F4
:106520002079002803DD2079401E20710FE0A07A39
:1065300001280CD10020A072607B10B10020607394
:1065400005E005EB4501891CC8B200F021F80020E8
:10655000E080207370BD0000C40300200B488078E9
:106560000A4AD278904201D10020704707488278C9
:106570008078401C054B98701846815C8078022812
:1065800002DB00201A4690700846EEE7E102002088
:106590000749CA78C978491C054BD97019468854EF
:1065A000C978022902DB00211A46D1707047000029
:1065B000E102002010B5002400BF04E02046FFF7F0
:1065C0005FFF601CC4B2012CF8DB10BD002000216D
:1065D000134A9170D17000BF1CE06421114A02EB94
:1065E0000012118102210F4A02EB001211710021E9
:1065F0000C4A02EB001291720A4A02EB0012D172AD
:10660000084A02EB00121173064A02EB00125173A2
:10661000411CC8B20128E0DB0349024A11607047FF
:10662000E1020020C4030020E144000810B540F25C
:10663000056001F049FA40F2046001F045FA40F2C9
:10664000026001F041FA4FF4C06001F03DFA01210F
:106650001848FFF7FBFD18490B6818490322086822
:106660001021FFF784FD14494B6814490322486840
:106670001021FFF77CFD10498B68104903228868C0
:106680001021FFF774FD0C4A11680C4A10680122B2
:10669000FFF768FD084A5168084A50680122FFF771
:1066A00061FD054A9168054A90680122FFF75AFD8D
:1066B00010BD000000023000100000200400002087
:1066C000034951F82010034A52F8202051617047C5
:1066D000100000200400002070B504460A4A52F859
:1066E00024100A4A52F82400FFF7A7FDC0F1010068
:1066F000C5B2054A52F82410044A52F824002A462A
:10670000FFF730FD70BD00001000002004000020E5
:1067100008B516481649086062B601F06DFEFFF72D
:1067200085FF02F08DFBFEF779FBFFF729F8FFF7F5
:10673000C3FCFDF775FF4FF6FF708723F0220021A1
:1067400000900846FDF70BFFFDF718FE01F07CFEF8
:1067500000F096FA9FED070A074880ED2C0A00F03A
:10676000F1FE01E001F074FEFCE7000000400008CB
:1067700008ED00E0CD985E451404002010B5FEF74A
:1067800097FD10BD10B50020104981F82A0040F295
:10679000AB700F49086000204860487208720820FA
:1067A00088720020C872A12109480173A221417397
:1067B000A3218173A421C173A5210174A621417471
:1067C000A721817400F0C4FA10BD0000D40300209A
:1067D0000004002000B587B09FED900A8DED060AF9
:1067E0009FED8E0A8DED050A9FED8C0A8DED040A52
:1067F00000200090019002900390894890F82A00B0
:1068000006287DD2DFE800F0030856696AFE012001
:10681000834981F82A00FEE08148C068B0F5806FA6
:106820002CD27F48C068401C7D49C86000217D484B
:10683000FEF74EFC7A49088001217A48FEF748FCB1
:106840007749488002217748FEF742FC74498880E6
:10685000084600887449096808447349086070480C
:106860004088724909680844704908606C4880880B
:106870006F49096808446E4908601AE06848C068B2
:1068800069490968B1FBF0F06549C8800846C068ED
:1068900066490968B1FBF0F0614908810846C068A3
:1068A00063490968B1FBF0F05D494881022081F835
:1068B0002A00B0E05A48006947F6FF41884205D2F5
:1068C00057480069401C5649086105E004205449B6
:1068D00081F82A0000F004FA9DE09CE00021514874
:1068E000FEF7F6FB4E49088001214E48FEF7F0FB0B
:1068F0004B49488002214B48FEF7EAFB484900E03B
:1069000088E088800846008800EE100AF8EE400A09
:106910000846C08800EE100AB8EE400A30EEC00A01
:10692000DFED440A20EE200A434880ED030A0846C2
:10693000408800EE100AF8EE400A0846008900EE92
:10694000100AB8EE400A30EEC00ADFED3A0A20EE37
:10695000200A394880ED040A0846808800EE100AB3
:10696000F8EE400A0846408900EE100AB8EE400AE8
:1069700030EEC00ADFED2F0A20EE200A2E4880ED0F
:10698000050A084690ED080ADFED2C0A20EE200AE1
:106990002B4880ED030A00F053FE2A4890ED070AC9
:1069A0008DED060A06980090264890ED060A8DEDBA
:1069B000050A05980190234890ED030A8DED040A1D
:1069C0000498029080208DF80E007F208DF80F0033
:1069D0001021684602F0E8FA174B93ED2F0ABCEE3F
:1069E000C00A10EE103A9AB2134B93ED2E0ABCEE89
:1069F000C00A10EE103A99B20F4B93ED2D0ABCEE7F
:106A0000C00A00E005E010EE103A98B200F08AF9F2
:106A100001E000E000BF00BF07B000BD00000000C3
:106A2000D4030020002401400003002004030020C0
:106A3000080300200000843C140400203ACD133FDA
:106A4000E0040020140500207047000070B5002409
:106A500000250020FEF77AFB4C4988820120FEF7D2
:106A600075FB4A49C8820220FEF770FB474908833C
:106A7000888AFEF70FFE454880ED070AC08A00EEBF
:106A8000100AB8EE400ADFED420A20EE200A3F4825
:106A900080ED080A008BB0F5006F0FDD3B48008BDE
:106AA000A0F5006000EE100AB8EEC00ADFED390A6A
:106AB00020EE200A354880ED090A04E09FED360AF1
:106AC000324880ED090AFFF7CBFA0446FFF772FD62
:106AD000FFF744FD054631484078012835D12F485D
:106AE00090ED070ADFED2E0A20EE200ABCEEC00A68
:106AF00010EE100A25490885012C12D1274890ED87
:106B0000040ADFED280AB4EEE00AF1EE10FA1CD216
:106B100090ED040AF7EE000A30EE200A80ED040A38
:106B200013E0022C11D11D4890ED040ADFED1E0A7E
:106B3000B4EEE00AF1EE10FA07DD90ED040AF7EE8C
:106B4000000A30EE600A80ED040A022D19D10F48C8
:106B500090F82A00042806D100F0A0F803200B4981
:106B600081F82A000EE0094890F82A00032809D18C
:106B700000F0B6F800F0E6FC0420044981F82A0091
:106B800000E000BF00F018F870BD0000D403002042
:106B90000303883C0000843C00000000E004002067
:106BA000EBC9984063141D448470D14210B500F0C5
:106BB0001DFA10BD7047000010B500242A4890ED62
:106BC000070ADFED2A0AB4EEE00AF1EE10FA00D26D
:106BD0000BE0254890ED070ADFED250A30EE200A8C
:106BE000BCEEC00A10EE100AC4B22248C4721E489D
:106BF00090ED090AF2EE040A20EE200ABCEEC00A6B
:106C000010EE100AC1B21B480173174890ED080A34
:106C1000F1EE080A20EE200ABCEEC00A10EE100ABF
:106C2000C1B214484173144890ED090AF2EE040A07
:106C300020EE200ABCEEC00A10EE100AC1B20D48C8
:106C40008173094890F828100A48C1730648008DDE
:106C500001120848017400214174817401460748FB
:106C6000FEF7A2FF10BD0000D4030020000020C2E8
:106C700000002042000400201404002000640040B2
:106C800010B5FFF7D3FB00F045FD00F087FD00F0E5
:106C900005F8FFF723FBFEF7BBF810BD10B5002287
:106CA00002210E4801F02FFE002201210B4801F0C5
:106CB0002AFE00221146094801F025FE0022022189
:106CC000064801F06DFC00220121044801F068FC37
:106CD00000221146014801F063FC10BD002C014068
:106CE00010B5012202210E4801F00DFE01221146CD
:106CF0000B4801F008FE01220021094801F003FEC3
:106D000004220221064801F04BFC04220121044820
:106D100001F046FC04220021014801F041FC10BDB5
:106D2000002C014070B504460D461646224602214D
:106D3000064801F0A8FD2A460121044801F0A3FD00
:106D400032460021014801F09EFD70BD002C01403B
:106D50000EB5002018214FF6FF720346CDE9002141
:106D600002908CA20146FDF7D9FE18204FF6FF7164
:106D70001F22CDE900210290884890ED040ABCEE64
:106D8000C00A10EE100A82B2052300213420FDF75C
:106D900068FE002018214FF6FF720346CDE900215E
:106DA00002907FA201467820FDF7B8FE18204FF62A
:106DB000FF711F22CDE900210290784890ED070A6B
:106DC000BCEEC00A10EE100A82B205230021AF20EB
:106DD000FDF747FE002018214FF6FF720346CDE96C
:106DE0000021029070A2FDF799FE18204FF6FF7166
:106DF000CDE900106948D0ED090AB0EE600A1F2302
:106E0000032218213420FDF78FFD002018214FF6B2
:106E1000FF720346CDE90021029065A27820FDF7BC
:106E20007DFE18204FF6FF71CDE900106248D0EDCD
:106E3000090AB0EE600A1F2303221821AF20FDF7D4
:106E400073FD002018214FF6FF720346CDE90021A3
:106E500002905AA23021FDF761FE18204FF6FF7113
:106E6000CDE900104D48D0ED080AB0EE600A1F23AE
:106E7000032230213420FDF757FD002018214FF662
:106E8000FF720346CDE9002102904EA23021782006
:106E9000FDF744FE18204FF6FF71CDE9001046487B
:106EA000D0ED080AB0EE600A1F2303223021AF2084
:106EB000FDF73AFD002018214FF6FF720346CDE999
:106EC0000021029041A24821FDF728FE18204FF62C
:106ED000FF71CDE900103E48D0ED080AB0EE600A1F
:106EE0001F23032248213420FDF71EFD0020182116
:106EF0004FF6FF720346CDE90021029035A24821EA
:106F00007820FDF70BFE18204FF6FF71CDE9001039
:106F10002F48D0ED090AB0EE600A1F230322482152
:106F2000AF20FDF701FD002018214FF6FF72034648
:106F3000CDE90021029028A26021FDF7EFFD182085
:106F40004FF6FF71CDE900102148D0ED070AB0EEF1
:106F5000600A1F23042260213420FDF7E5FC002095
:106F600018214FF6FF720346CDE9002102901CA2C2
:106F700060217820FDF7D2FD002018214FF6FF7226
:106F80000346CDE90021029016A26021AF20FDF753
:106F9000C5FD0EBD7453706400000000E0040020C5
:106FA00061537064000000007152656600000000CB
:106FB000714D656100000000140400206452656694
:106FC00000000000644D656100000000566463002D
:106FD000D40300204964630054656D700000000014
:106FE00053544100494E4954000000000EB518208A
:106FF0004FF6FF711F22CDE9002102906A4890ED03
:10700000040ADFED6A0A20EE200ABCEEC00A10EE88
:10701000100A82B2052300213420FDF722FD18203A
:107020004FF6FF711F22CDE9002102906048028DCA
:1070300005230021AF20FDF714FD18204FF6FF7146
:10704000CDE900105848D0ED090AB0EE600A1F23C0
:10705000032218213420FDF767FC18204FF6FF713A
:10706000CDE900105348D0ED090AB0EE600A1F23A5
:1070700003221821AF20FDF757FC18204FF6FF71AF
:10708000CDE900104848D0ED080AB0EE600A1F2391
:10709000032230213420FDF747FC18204FF6FF7102
:1070A000CDE900104348D0ED080AB0EE600A1F2376
:1070B00003223021AF20FDF737FC18204FF6FF7177
:1070C000CDE900103A48D0ED080AB0EE600A1F235F
:1070D000032248213420FDF727FC18204FF6FF71CA
:1070E000CDE900103248D0ED090AB0EE600A1F2346
:1070F00003224821AF20FDF717FC18204FF6FF713F
:10710000CDE900102A48D0ED070AB0EE600A1F232F
:10711000042260213420FDF707FC254890F82A005E
:1071200004280DD1002018214FF6FF721F23CDE94E
:107130000021029020A26021AF20FDF7EFFC32E099
:107140001B4890F82A0003280DD1002018214FF683
:10715000FF721F23CDE90021029019A26021AF2008
:10716000FDF7DCFC1FE0124890F82A0005280DD13D
:10717000002018214FF6FF721F23CDE90021029055
:1071800011A26021AF20FDF7C9FC0CE000201821FE
:107190004FF6FF721F23CDE9002102900CA260215F
:1071A000AF20FDF7BBFC0EBDE0040020EBC998400A
:1071B000D40300201404002052554E20200000006B
:1071C00053544F5000000000464C54202000000053
:1071D0004E4F4E450000000010B50246012000E071
:1071E00050430B1EA1F10104E1B2F9D110BD000022
:1071F0002DE9F04103460D46164600240027A0461F
:107200002A48006800F4E060B0F5E06F03D100BFE9
:107210004FF0040830E02548006800F4E060B0F565
:10722000C06F03D101274FF0030825E01F48006815
:1072300000F4E060B0F5A06F02D10227B8461BE071
:107240001A48006800F4E060B0F5806F03D10327AE
:107250004FF0010810E01548006800F4E060B0F558
:10726000407F03D104274FF0000805E04FF4A060F1
:1072700000F020F80227B846C7F1040005FA00F430
:10728000C8F104010F20C8403040044324010848DD
:10729000C45403F01F01012088405911890001F1F5
:1072A000E021C1F80001BDE8F08100000CED00E034
:1072B00000E400E002490143024A11607047000007
:1072C0000000FA050CED00E090ED060AD0ED020A90
:1072D00020EE200AD0ED070A90ED011A00EE810A97
:1072E00080ED080A90ED070AD0ED020A20EE200A90
:1072F000D0ED060A90ED011A00EEC10A80ED090AF0
:107300007047000010B52DED028B84480078A8B3BB
:107310008248807838B10020804988709FED800ACB
:10732000084680ED080AB7EE000A7C4880ED090A9D
:107330007C4890ED090A80ED1F0A784890ED090A13
:10734000784880ED1E0A6030FEF712F8754890ED1F
:10735000200A80ED0B0A90ED080A80ED150A6F48AF
:1073600090ED080A6F4880ED140A3830FEF700F8F7
:107370006C4890ED160A80ED0A0ACBE0FFE79FED1E
:10738000680AF0EE408A9FED660AB0EE408A6348D4
:10739000807890B10020614988709FED630A0846AB
:1073A00080ED050A9FED5E0A80ED080AB7EE000A3F
:1073B0005C4880ED220A0A20C862584890ED040A11
:1073C000D0ED050A30EE600A80ED060A90ED060A5F
:1073D000DFED560AB4EEE00AF1EE10FA08DB90EDAC
:1073E000050ADFED530A30EE200A80ED050A17E0AA
:1073F0004A4890ED060ADFED4F0AB4EEE00AF1EEDE
:1074000010FA08D890ED050ADFED490A30EE600A5F
:1074100080ED050A04E0414890ED040A80ED050A7C
:107420003E48C16AC06A401C3C4AD0620A2926D341
:1074300000201146C862404890ED180A394880ED96
:10744000290A084690ED050A364880ED280A88305A
:10745000FDF78EFF334890ED2A0A304880ED090A87
:10746000354890ED180ADFED350A20EE200A80ED50
:10747000120A90ED120A80ED130A80ED140A2948D1
:1074800090ED080A80ED150A244890ED080A254879
:1074900080ED140A3830FDF76BFF224890ED160A94
:1074A00080ED0A0A90ED0A0A20EE000AF0EE408A0A
:1074B0009FED230A30EE680AB0EE408AB0EE480A2B
:1074C0007030B5EEC00AF1EE10FA04DBF1EEC00A3E
:1074D000C0ED000A04E0DFED120AC0ED000A00BFB3
:1074E000104890ED1C0AB1EE400A80ED1D0A90EDA7
:1074F000090A80ED1F0A094890ED090A094880ED44
:107500001E0A6030FDF734FF064890ED200A80ED3A
:107510000B0A00BFBDEC028B10BD0000E004002090
:1075200000000000140400208470D142930A063D3C
:107530005177D63B930A06BD140500206F1283389D
:10754000A4707D3F10B500F01DF801200949487076
:1075500008708870002088809FED070A084680ED3B
:10756000020A9FED060A80ED040A054800F008FBB8
:1075700010BD0000E00400200000000063141D4462
:107580001405002010B59FED270A274880ED0F0A4B
:107590009FED260A80ED100AB6EE000A80ED110A72
:1075A0009FED230A80ED120A90ED120AB1EE400A17
:1075B00080ED130A3830FEF72DFF9FED1A0A1A48A6
:1075C00080ED190A9FED190A80ED1A0AB6EE000A3D
:1075D00080ED1B0A9FED160A80ED1C0A90ED1C0A37
:1075E000B1EE400A80ED1D0A6030FEF713FF9FEDFB
:1075F000110A0D4880ED230A9FED0F0A80ED240A41
:107600009FED0E0A80ED250AB2EE040A80ED260AEF
:1076100090ED260AB1EE400A80ED270A8830FEF789
:10762000F9FE10BD0AD7A33C1404002017B7513946
:1076300058FF7F3F0AD7233CBD37863577BE7F3F53
:1076400010B530484078E8B32F48FEF7AFFB2E481E
:10765000FFF73AFE2C4890ED060A2C4880ED070A09
:10766000294890ED070A294880ED0E0A264890ED3A
:107670000C0A2448D0ED030A20EE200A234880EDAE
:10768000020A214890ED0D0A1E48D0ED030A20EEB3
:10769000200A1E4880ED090A00F00CFB1B4890ED03
:1076A000180A184880ED070AFDF744FFFFF72AFE85
:1076B000154800F052FA1448FEF7C4FE124800F0D4
:1076C00083FC1EE0FFE700220221114801F01BF9B4
:1076D000002201210E4801F016F9002211460C4843
:1076E00001F011F900220221094800F059FF00229F
:1076F0000121074800F054FF00221146044800F021
:107700004FFF10BDE00400201404002014050020E9
:10771000002C014010B540F2026000F0D5F940F2B3
:10772000036000F0D1F94FF4C06000F0CDF94FF4E0
:107730008063032218211748FEF719FD4FF40073E8
:10774000032218211348FEF712FD4FF48073032221
:1077500018211048FEF70BFD4FF4004303221821B7
:107760000D48FEF704FD4FF48043032218210A4818
:10777000FEF7FDFC4FF40053032218210648FEF7E4
:10778000F6FC4FF48053032204210348FEF7EFFC7C
:1077900010BD000000080140000C014000B58BB096
:1077A00040F20B6000F090F9554801F0E1F800203C
:1077B000ADF810004020ADF812000020ADF8140024
:1077C00040F6A56006900020ADF816008DF81C006C
:1077D00004A94B4801F04CF90120ADF82000042029
:1077E000ADF822000020ADF82400ADF82600ADF879
:1077F0002800ADF82A0008AA0021414800F020FF27
:1078000008AA01213E4800F01BFF08AA02213C48BB
:1078100000F016FF08AA0321394800F011FF4FF4C9
:107820007A720021364801F02EF860220021344897
:1078300000F0FCFF08220021314801F037F84FF436
:107840007A7201212E4801F01EF8602201212C4895
:1078500000F0ECFF08220121294801F027F84FF43D
:107860007A720221264801F00EF860220221244893
:1078700000F0DCFF08220221214801F017F80698E9
:10788000421E03211E4800F0FEFF602203211C4817
:1078900000F0CCFF00220321194801F007F84FF453
:1078A0000060ADF800004010ADF80200B820ADF85F
:1078B00004000020ADF806004FF48040ADF8080049
:1078C0000020ADF80A004FF48050ADF80C00694676
:1078D0000B4800F056FE0121094801F0D3F90121BF
:1078E000074801F0BCF98021054801F0B8F91021E2
:1078F000034801F0B4F9024801F0A8F80BB000BD4C
:10790000002C0140184B5968184B1940164BDA6A85
:1079100022F000520C2820D2DFE800F00607080908
:107920001F0C1F0D1516171800BF00BF00BF41EA3E
:10793000803113E000BF20F004004FF0805343EA91
:10794000803319430AE000BF00BF00BF20F00C00E5
:1079500041EA803142F0005200E000BF00BF024B1C
:107960005960DA627047000000100240FF3FFFEFED
:107970002DE9F04F8CB0074600200A904AA090E80D
:10798000004CC068CDE905BECDF810A007900FF2FD
:107990001C1ADAE9000ACDE9020A0FF2101ADAE934
:1079A000000ACDE9000A44484068C0F381000B900A
:1079B0000B9820B1012804D002283FD103E03F4AB0
:1079C0003EE03E4A3CE03C48406800F4803CBCF568
:1079D000803F12D13848C06A00F08048B8F1000FEB
:1079E00001D1364B00E0364B3348406800F4003993
:1079F000B9F5003F02D15B0800E0324B2E484068E9
:107A0000C0F383412C48406800F0006008B141F0A9
:107A100010012948406800F0804008B141F0200181
:107A20000F2901D2891C06E00F2903D33E2901D872
:107A3000491C00E03F2103FB01F201E01F4A00BFA7
:107A400000BF1D484068C0F3031504A8465D22FA34
:107A500006F419484068C0F3022502A8465D24FADE
:107A600006F0099014484068C0F3C2251DF805606F
:107A700024FA06F0089037B1012F06D0022F06D065
:107A8000032F0AD106E00A9208E00A9406E009985A
:107A90000A9003E008980A9000E000BF00BF0A982F
:107AA0000CB0BDE8F08F00000000000000000000F6
:107AB00001020304060708090010024000127A00C0
:107AC000006CDC0200093D00064A02EB90110968D7
:107AD00000F01F0301229A401143024B03EB901266
:107AE0001160704700100240064A02EB90110968CD
:107AF00000F01F0301229A409143024B03EB9012C6
:107B00001160704700100240064A02EB90110968AC
:107B100000F01F0301229A401143024B03EB901225
:107B2000116070470010024010B5FEF727FE10BD2F
:107B300010B5FEF789FF10BD10B5FEF787FF10BD29
:107B4000704710B5FFF732F810BD10B50020FEF7F2
:107B5000C3FDFFF72FF810BD704710B50446D4EDF4
:107B6000000AB0EE600AFCF73BFB84ED010AD4ED9D
:107B7000000AB0EE600AFCF7F7FA84ED020A10BDC5
:107B80009FED460A80ED020A9FED440A80ED030A4C
:107B90009FED420A80ED040A9FED400A80ED050A40
:107BA0009FED3E0A80ED000A9FED3C0A80ED060A3B
:107BB0009FED3A0A80ED010A9FED380A80ED090A2F
:107BC0009FED360A80ED0A0A9FED340A80ED0B0A1C
:107BD0009FED320A80ED0C0A9FED300A80ED0D0A10
:107BE0009FED2E0A80ED070A9FED2C0A80ED080A12
:107BF0009FED2A0A80ED100A9FED280A80ED110AF8
:107C00009FED260A80ED0E0A9FED240A80ED0F0AF3
:107C10009FED220A80ED120A9FED200A80ED130AE3
:107C20009FED1E0A80ED140A9FED1C0A80ED150AD7
:107C30009FED1A0A80ED160A9FED180A80ED170ACB
:107C40009FED160A80ED180A9FED140A80ED190ABF
:107C50009FED130A80ED010A9FED120A80ED000AE4
:107C6000B2EE080A80ED100A9FED0F0A80ED110AAE
:107C70009FED0E0A80ED140A90ED140A80ED120AB1
:107C80009FED060A80ED1B0AB3EE040A80ED1C0A84
:107C90009FED070A80ED1D0A7047000000000000FC
:107CA000B7276B3FE1663F3C9A99993E2FE3CD3B66
:107CB000CDCCCC3D10B5044694ED010AD4ED060AB6
:107CC00020EE200AD4ED020A94ED031A70EEC10AE8
:107CD00094ED051A70EEC10A94ED001A01EE200A27
:107CE00084ED060A94ED010AD4ED0D0A20EE200A77
:107CF000D4ED090A94ED0A1A70EEC10A94ED0C1A3B
:107D000070EEC10A94ED001A01EE200A84ED0D0A0E
:107D100094ED060AD4ED070A30EE600A84ED080AF5
:107D200094ED0D0AD4ED0E0A30EE600A84ED0F0AD0
:107D300094ED080AB5EEC00AF1EE10FA04D294ED03
:107D4000080AB1EE400A01E094ED080AD4ED110AE8
:107D5000B4EEE00AF1EE10FA0CD294ED100AD4ED74
:107D6000080A20EE200AD4ED110A80EE201A84EDD4
:107D7000051A0FE094ED080AB5EEC00AF1EE10FA0C
:107D800002DD94ED100A03E094ED100AB1EE400A12
:107D900084ED050A94ED0F0AB5EEC00AF1EE10FA73
:107DA00004D294ED0F0AB1EE400A01E094ED0F0AFF
:107DB000D4ED110AB4EEE00AF1EE10FA0CD294ED13
:107DC000100AD4ED0F0A20EE200AD4ED110A80EE3D
:107DD000201A84ED0C1A0FE094ED0F0AB5EEC00ADC
:107DE000F1EE10FA02DD94ED100A03E094ED100AB2
:107DF000B1EE400A84ED0C0A94ED050AD4ED030AB5
:107E000070EE600A94ED030A94ED121A01EE200A56
:107E100084ED030A94ED0C0AD4ED0A0A70EE600AB0
:107E200094ED0A0A94ED121A01EE200A84ED0A0A72
:107E30002046FDF7DBFA10BD00B587B040F20260C6
:107E4000FFF742FE40F20C60FFF73EFEA023032244
:107E500018211148FEF78BF94023032204210E4814
:107E6000FEF785F9002001904FF4827000904FF4E6
:107E700000600290012005904002039028200690A7
:107E8000002004906946054800F085F8034800F09A
:107E90006FF807B000BD000000080140003001404D
:107EA00010B5044600BF0221094800F06CF8002814
:107EB000F9D02146064800F064F800BF01210448CB
:107EC00000F061F80028F9D0014800F056F810BD24
:107ED0000030014000B587B040F20360FFF7F4FDC9
:107EE00040F20F70FFF7F0FD01211048FEF7AEF9E8
:107EF0002823032218210E48FEF739F900200190AB
:107F00004FF4827000900020029005904FF40070B2
:107F100003900020069004906946064800F03BF864
:107F2000044800F025F807B000BD00000002300052
:107F3000000C0140003C004010B5044600BF022187
:107F40000A4800F020F80028F9D02146074800F040
:107F500018F800BF0121054800F015F80028F9D0F5
:107F6000024800F00AF8C0B210BD0000003C00401A
:107F7000016841F04001016070470146C86880B265
:107F80007047C160704702469068084008B1012000
:107F900070470020FCE702460020106800F44150C2
:107FA0000B6818434B6818438B681843CB68184319
:107FB0000B6918434B6918438B6918431060D369E8
:107FC00023F40063D36170479FEDB34AB0EE442AB7
:107FD0009FEDB14AF0EE442A9FEDAF4AF0EE443AED
:107FE0009FEDAD4AB0EE440A9FEDAB4AF0EE440A75
:107FF0009FEDA94AB0EE441A9FEDA74AF0EE441A4D
:108000009FEDA54AB0EE443A90ED0D4AB0EE442AF9
:1080100090ED0D4AF1EE444AB0EE005A84EE854AE6
:10802000D0ED0C4A9FED9D5A05EE244AF0EE442A0D
:1080300090ED0D4AF1EE444AB0EE005A84EE854AC6
:10804000D0ED0C4A9FED955A05EE644AF0EE443AA5
:10805000F5EEC03AF1EE10FA7DDDF5EEC02AF1EE54
:1080600010FA29DD052180F8C01090ED2C4A24EE8D
:10807000224AB0EE440A90ED2C4A24EE234AF0EE58
:10808000440A90ED2C4A34EE404A34EE604AF0EE59
:10809000004A84EE245AB0EE451A31EE004AF0EE62
:1080A000441A31EEA04AB0EE443AC0ED2D1A80EDEC
:1080B0002E1A80ED2F3AEDE0B5EEC02AF1EE10FA5F
:1080C00029DD032180F8C01090ED2C4A24EE234ACC
:1080D000B0EE440A90ED2C4A24EE024AF0EE440A37
:1080E00090ED2C4A34EE404A34EE604AF0EE004AFD
:1080F00084EE245AB0EE451A31EE004AF0EE441AEE
:1081000031EEA04AB0EE443A80ED2D1A80ED2E3AC1
:10811000C0ED2F1ABEE0042180F8C01090ED2C4A6B
:10812000F1EE624A24EE244AB0EE440A90ED2C4A65
:10813000F1EE424A24EE244AF0EE440A90ED2C4A35
:1081400034EE404A34EE604AF0EE004A84EE245A9F
:10815000B0EE451A00E00EE031EE004AF0EE441AAF
:1081600031EEA04AB0EE443A80ED2D1AC0ED2E1A41
:1081700080ED2F3A8EE0F5EEC02AF1EE10FA5CDDCC
:10818000B5EEC02AF1EE10FA29DD012180F8C01009
:1081900090ED2C4A24EE024AB0EE440A90ED2C4AAF
:1081A00024EE224AF0EE440A90ED2C4A34EE404A86
:1081B00034EE604AF0EE004A84EE245AB0EE451ADE
:1081C00031EE004AF0EE441A31EEA04AB0EE443AE5
:1081D00080ED2D3AC0ED2E1A80ED2F1A5AE00621BF
:1081E00080F8C01090ED2C4AF1EE424A24EE244A69
:1081F000B0EE440A90ED2C4AF1EE634A24EE244A94
:10820000F0EE440A90ED2C4A34EE404A34EE604AD7
:10821000F0EE004A84EE245AB0EE451A31EE004AE0
:10822000F0EE441A31EEA04AB0EE443A80ED2D3A19
:1082300080ED2E1AC0ED2F1A2CE0022180F8C0101C
:1082400090ED2C4AF1EE634A24EE244AB0EE440A43
:1082500090ED2C4AF1EE624A24EE244AF0EE440AF4
:1082600090ED2C4A34EE404A34EE604AF0EE004A7B
:1082700084EE245AB0EE451A31EE004AF0EE441A6C
:1082800031EEA04AB0EE443AC0ED2D1A80ED2E3A00
:1082900080ED2F1A7047000000000000D7B35D3F4B
:1082A000002000213F4A126842F480323D4B1A60A0
:1082B00000BF401C3B4A126802F4003119B94FF666
:1082C000FF729042F5D1374A126802F400320AB9BF
:1082D00000BFFEE7334AD26942F08052314BDA6187
:1082E000314A126842F440422F4B1A602D4A5268BC
:1082F0002C4B5A601A4652685A601A46526842F429
:1083000080625A601A46526822F440325A601A4615
:10831000526842F440325A601A465268234B1A405F
:10832000204B5A601A465268214B1A431D4B5A6023
:108330001A46126842F080721A6000BF194A126829
:1083400002F00072002AF9D0174A126842F4803213
:10835000154B1A6000BF144A526802F48032002A9A
:10836000F9D0114A126842F400320F4B1A6000BF74
:108370000D4A526802F40032002AF9D0094A5268C4
:1083800022F00302074B5A601A46526842F002027A
:108390005A6000BF034A526802F00802002AF9D06E
:1083A000704700000010024000700040FFFFC3B79C
:1083B0000000340810B5FFF773FF10BD10B5034679
:1083C00000F014F8014600F011F80246002400BF46
:1083D00000F00CF802468A4201D3501A02E0C1F1C3
:1083E000FF30104404469C42F2D310BD014800689F
:1083F00070470000DC02002010B5124800684FF4FE
:108400007A71B0FBF1F4601EB0F1807F01D30120DE
:108410000FE0601E4FF0E02148610F214FF0FF3068
:10842000FCF7D6FB00204FF0E021886107200861AF
:10843000002008B100BFFEE70021481EFCF7C8FB82
:1084400010BD00000C03002010B5FEF79BF910BD15
:1084500070B50126FFF7CAFF044641480068844210
:1084600003D33F480068201A04E03D480068C0F18B
:10847000FF302044054625B139480460FFF760FB12
:10848000002638480068844203D336480068201A22
:1084900004E034480068C0F1FF3020440546052D53
:1084A00004D330480460FFF757FB00262E480068CD
:1084B000844203D32C480068201A04E02A4800684C
:1084C000C0F1FF30204405460A2D04D3264804603D
:1084D000FFF732FB002625480068844203D3234877
:1084E0000068201A04E021480068C0F1FF302044F1
:1084F0000546642D04D31D480460FFF719FB0026D0
:108500001B480068844203D319480068201A04E01D
:1085100017480068C0F1FF3020440546B5F5FA7FE2
:1085200004D313480460FFF710FB002611480068CD
:10853000844203D30F480068201A04E00D48006805
:10854000C0F1FF3020440546B5F57A7F04D30948D1
:108550000460FFF7F6FA00260EB1FFF7E5FA70BDEA
:10856000E8020020EC020020F0020020F4020020CB
:10857000F8020020FC020020016841F08001016047
:1085800070470A884B881A438B881A43CB881A4352
:108590000B891A434B891A438B891A4342647047EB
:1085A00021B101290AD002291AD110E0036A23F06F
:1085B00004030362036A1343036212E0036A23F0B5
:1085C00040030362036A43EA0213036209E0036A99
:1085D00023F480630362036A43EA0223036200E038
:1085E00000BF00BF704731B101290CD0022913D060
:1085F000032922D118E0836923F00C038361836986
:10860000134383611AE0836923F4406383618369C0
:1086100043EA0223836111E0C36923F00C03C361C1
:10862000C3691343C36109E0C36923F44063C361B1
:10863000C36943EA0223C36100E000BF00BF704783
:1086400010B531B101293FD002297DD003297CD159
:10865000BFE0036A23F001030362836923F003038D
:108660008361036A148823430362036A23F00203CD
:108670000362036A9488234303626A4B984202D0E0
:10868000694B98421FD1036A23F004030362036A13
:10869000548823430362036A23F008030362036AD6
:1086A000D48823430362436823F4807343604368A0
:1086B000148923434360436823F400734360436891
:1086C000548923434360ABE0036A23F01003036241
:1086D000836923F440738361036A148843EA0413B3
:1086E0000362036A23F020030362036A948843EA67
:1086F000041303624B4B984202D04B4B984226D155
:10870000036A23F040030362036A548843EA0413B4
:108710000362036A23F080030362036AD48843EA96
:1087200004130362436823F480634360436814893D
:1087300043EA84034360436823F40063436043686F
:10874000548943EA840301E002E068E0436067E0A3
:10875000036A23F480730362C36923F00303C361D4
:10876000036A148843EA04230362036A23F4007350
:108770000362036A948843EA04230362294B984204
:1087800002D0294B984223D1036A23F48063036209
:10879000036A548843EA04230362036A23F40063F0
:1087A0000362036AD48843EA04230362436823F420
:1087B000805343604368148943EA04134360436869
:1087C00023F4005343604368548943EA041343602D
:1087D00026E0036A23F480530362C36923F44073E1
:1087E000C361036A148843EA04330362036A23F40F
:1087F00000530362036A948843EA04330362094B1B
:10880000984202D0084B984208D1436823F4804331
:1088100043604368148943EA8413436000E000BF67
:1088200000BF10BD002C01400034014031B10129CE
:108830000CD0022913D0032922D118E0836923F038
:10884000700383618369134383611AE0836923F4AE
:10885000E0438361836943EA0223836111E0C369D2
:1088600023F07003C361C3691343C36109E0C369A3
:1088700023F4E043C361C36943EA0223C36100E018
:1088800000BF00BF704731B1012906D0022906D0D0
:10889000032908D105E0426306E0826304E0C26375
:1088A00002E0026400E000BF00BF704731B101295F
:1088B0000CD0022913D0032922D118E0836923F0B8
:1088C000080383618369134383611AE0836923F496
:1088D00000638361836943EA0223836111E0C36912
:1088E00023F00803C361C3691343C36109E0C3698B
:1088F00023F40063C361C36943EA0223C36100E058
:1089000000BF00BF704731B101290CD0022913D03C
:10891000032923D119E0036A23F001030362036AE8
:10892000134303621BE0036A23F010030362036A2C
:1089300043EA0213036212E0036A23F480730362C2
:10894000036A43EA0223036209E0036A23F48053C3
:108950000362036A43EA0233036200E000BF00BF20
:10896000704701460020486A704741627047000026
:1089700010B504463349601A8C4244D00CDCB4F183
:10898000804F1CD03048204410B3B0F5806F28D001
:10899000B0F5006F52D12DE0B0F5806F3CD0B0F54E
:1089A0008E3F03D0B0F5923F48D13EE040F20B300D
:1089B000FFF7AAF840F20B30FFF796F83FE04FF4CC
:1089C0008060FFF7A1F84FF48060FFF78DF836E084
:1089D00040F20140FFF798F840F20140FFF784F8B9
:1089E0002DE040F20240FFF78FF840F20240FFF71F
:1089F0007BF824E040F20340FFF786F840F20340A2
:108A0000FFF772F81BE040F20440FFF77DF840F2F8
:108A10000440FFF769F812E040F20540FFF774F8F0
:108A200040F20540FFF760F809E040F20D30FFF733
:108A30006BF840F20D30FFF757F800E000BF00BFC1
:108A400010BD00000010004000FCFFBF016841F0B5
:108A500001010160704721B9426842F08002426022
:108A600005E0012903D1426822F08002426070478C
:108A70000A8882621D4A90420ED0B0F1804F0BD01E
:108A80001B4A904208D01B4A904205D01A4A904295
:108A900002D01A4A90420BD1026822F070020260A2
:108AA00002684B881A43026002688B881A4302608E
:108AB0008A68C262124A90420AD0124A904207D093
:108AC000026822F4407202600268CB881A43026096
:108AD000064A904202D0094A904201D10A7B0263C1
:108AE000426942F00102426170470000002C0140DF
:108AF0000004004000080040000C00400034014029
:108B0000001000400014004070B504460E461546A3
:108B100036B1012E26D0022E48D0032E7DD168E03A
:108B2000206A20F001002062206A20F00A00206202
:108B3000206A298808432062A06920F00300A06110
:108B4000A06969880843A061A06920F0F000A061D5
:108B5000A069E98840EA0110A061206A40F00100A4
:108B600020626DE0206A20F010002062206A20F070
:108B7000A0002062206A298840EA01102062A069D2
:108B800020F44070A061A069698840EA0120A061DA
:108B9000A06920F47040A061A069E98840EA013032
:108BA000A061206A40F01000206249E0206A20F4B1
:108BB00080702062206A20F420602062206A298868
:108BC00040EA01202062E06920F00300E061E069F2
:108BD00069880843E061E06920F0F000E061E06945
:108BE000E98840EA0110E061206A40F48070206268
:108BF00026E0206A20F480502062206A20F4005091
:108C00002062206A298840EA01302062E06920F46D
:108C10004070E061E069698800E010E040EA01200E
:108C2000E061E06920F47040E061E069E98840EAD1
:108C30000130E061206A40F48050206200E000BF13
:108C400000BFAA8831462046FFF7CDFC70BD826880
:108C500022F07002826082680A4382607047C268B4
:108C60000A43C2607047CA43026170470246D06837
:108C700000EA01031069084010B10BB101207047F0
:108C80000020FCE7012904D1426C42F40042426416
:108C900003E0426C22F400424264704730B58468BD
:108CA00024F00704846084680C438460846940F283
:108CB0000335AC438461846940F201152C4384611F
:108CC000046A24F00A040462046A24F0A004046222
:108CD000046A42EA03152C43046230BD826822F024
:108CE0000702826082680A43826070472DE9F0477C
:108CF00004460D460027B846B94600261D49601AAD
:108D00008C421CD006DC1C48204470B1B0F5806F4A
:108D10001FD10FE0B0F5806F16D0B0F56C4F18D1B1
:108D20000320FEF725FE074614E00220FEF720FE92
:108D300007460FE00220FEF71BFE07460AE002206E
:108D4000FEF716FE074605E00220FEF711FE074675
:108D500000E000BF00BF07EB5500B0FBF5F64FF693
:108D6000F07006EA000806F00F0948EA0900A06062
:108D7000BDE8F087004C004000BCFFBF10B50446C2
:108D80002049601A8C4228D006DC1F48204490B14C
:108D9000B0F5806F33D117E0B0F5806F26D0B0F515
:108DA0006C4F2CD140F20E30FEF7AEFE40F20E308A
:108DB000FEF79AFE24E040F21140FEF7A5FE40F2D5
:108DC0001140FEF791FE1BE040F21240FEF79CFEC0
:108DD00040F21240FEF788FE12E040F21340FEF728
:108DE00093FE40F21340FEF77FFE09E040F214408C
:108DF000FEF78AFE40F21440FEF776FE00E000BF68
:108E000000BF10BD004C004000BCFFBF426922F013
:108E100040024261426901F040031A4342617047D7
:108E2000426922F080024261426901F080031A43E4
:108E300042617047C16841F40051C1607047000051
:108E400000B587B040F20460FEF73EFE4FF4A0602C
:108E5000FEF73AFE40F21270FEF736FE4FF4C060A5
:108E6000FEF732FE01214548FDF7F0F94FF480632B
:108E7000032218214248FDF77AF94FF400630322D8
:108E800004213F48FDF773F93E48FFF777FF4FF4A1
:108E900061213C48FFF72AFF04213A4800F07AF8A4
:108EA0000821384800F0C4F83648FFF7C3FF012115
:108EB0003548FCF7C7FF6846FDF7C4F801208DF878
:108EC0001A003248029001208DF81900002003900A
:108ED000202004902B48001D009000208DF81800E1
:108EE00001904FF4405005906A4601212648FCF756
:108EF000EDFF02212448FCF7A5FF6846FDF7A2F824
:108F000000208DF81A002248029001208DF81900E7
:108F100000200390202004901A48001D009000209B
:108F20008DF8180001904FF4405005906A460221D8
:108F30001548FCF7CBFF01211348FCF76AFF01211C
:108F40001148FDF75AF802210F48FCF762FF022191
:108F50000D48FDF752F840210A48FFF757FF01215D
:108F60000948FCF73DFF80210648FFF759FF022121
:108F70000548FCF735FF07B000BD000010001400E5
:108F8000001001400048004000000240A203002001
:108F900082030020C26822F00402C260C26801F0AD
:108FA00004031A43C260704730B587B005460C46CB
:108FB000202C34D2022201211A48FCF77BFF012821
:108FC0002DD1224629461848FBF74CF901211548B6
:108FD000FCF738FF6846FDF735F801208DF81A00D8
:108FE0001148029001208DF819000020039004948C
:108FF0000E48009000208DF8180001904FF440506A
:1090000005906A4601210748FCF760FF01210548E9
:10901000FCF7FFFE01210348FCF7E2FE00BF07B0AA
:1090200030BD000000000240A203002004480040C0
:10903000C26822F00802C260C26801F008031A4345
:10904000C260704700000000000000000000000047
:1090500000000404040404000004000014140A00C6
:10906000000000000000000000000A0A1F0A0A1F9A
:109070000A0A000000040E1505060C14150E040063
:10908000000012150D152E2C2A1200000000040AF3
:109090000A36151529160000020201000000000022
:1090A000000000001008080404040404080810006C
:1090B0000204040808080808040402000000000470
:1090C000150E0E150400000000000008083E0808F8
:1090D000000000000000000000000000020201008B
:1090E00000000000003F0000000000000000000041
:1090F0000000000000020000002010100808040416
:109100000202010000000E1111111111110E0000D8
:109110000000040604040404040E000000000E1104
:1091200011080402011F000000000E11100C1010A5
:10913000110E00000000080C0C0A091F081C00009A
:1091400000001F01010F1110110E000000000C1291
:10915000010D1311110E000000001E100808040478
:109160000404000000000E11110E1111110E000078
:1091700000000E1111191610090600000000000071
:1091800004000000000400000000000000040000D3
:10919000000404000000100804020204081000008B
:1091A000000000003F003F0000000000000002043B
:1091B000081010080402000000000E111108040439
:1091C0000004000000001C22292D2D1D221C00007F
:1091D000000004040C0A0A1E1233000000000F12E3
:1091E000120E1212120F000000001E1101010101E7
:1091F000110E000000000F1212121212120F0000C6
:1092000000001F120A0E0A02121F000000001F12A7
:109210000A0E0A020207000000001C1201013911A7
:10922000120C000000003312121E12121233000042
:1092300000001F0404040404041F000000003E0892
:109240000808080808080907000037120A060A1269
:10925000123700000000070202020202223F000053
:1092600000003B1B1B1B15151535000000003B12B1
:1092700016161A1A1217000000000E111111111102
:10928000110E000000000F12120E02020207000071
:1092900000000E1111111117190E180000000F1205
:1092A000120E0A121237000000001E1101060810EB
:1092B000110F000000001F1504040404040E000038
:1092C0000000331212121212120C000000003312AE
:1092D000120A0A0C040400000000151515150E0AE8
:1092E0000A0A000000001B0A0A04040A0A1B000004
:1092F00000001B0A0A0A0404040E000000001F09F3
:1093000008040402121F00001C04040404040404E2
:1093100004041C00000202040404080808101000E1
:109320000E0808080808080808080E00040A0000CB
:10933000000000000000000000000000000000002D
:109340000000003F020400000000000000000000D8
:1093500000000000000C121C123C0000000302027E
:10936000020E1212120E000000000000001C120279
:10937000120C000000181010101C1212123C0000F9
:1093800000000000000C121E021C00000018240443
:10939000041E0404041E000000000000003C120C27
:1093A000021C221C00030202020E121212370000DD
:1093B0000004040000060404040E00000008080075
:1093C000000C08080808080700030202021A0A062F
:1093D0000A1300000007040404040404041F00002E
:1093E00000000000000F151515150000000000001A
:1093F000000F12121237000000000000000C1212C1
:10940000120C000000000000000F1212120E0207E2
:1094100000000000001C1212121C10380000000096
:10942000001B06020207000000000000001E020CE4
:10943000101E000000000004041E0404041C0000B0
:1094400000000000001B1212123C0000000000008F
:10945000001B0A0A04040000000000000015150E9D
:109460000A0A000000000000001B0A040A1B00009A
:1094700000000000003312120C080403000000007A
:10948000001E0804041E000018080808080C08083C
:109490000808180008080808080808080808080844
:1094A0000604040404080404040406001609000069
:1094B00000000000000000000000000000000000AC
:1094C0000000000000000000000000080808080874
:1094D000080800001818000000486C241200000062
:1094E00000000000000000000000002424247F127F
:1094F00012127F12121200000000081C2A2A0A0C05
:109500001828282A2A1C08080000002225151515ED
:109510002A585454542200000000000C1212120A5F
:1095200076252911916E0000000606040300000054
:109530000000000000000000004020101008080893
:10954000080808101020400000020408081010103D
:1095500010101008080402000000000008086B1C2E
:109560001C6B080800000000000000000808080844
:109570007F0808080800000000000000000000004C
:1095800000000000060604030000000000000000C8
:10959000FE000000000000000000000000000000CD
:1095A000000000000606000000008040402020105F
:1095B000100808040402020000000018244242427D
:1095C0004242424224180000000000080E08080829
:1095D00008080808083E00000000003C4242422003
:1095E00020100804427E00000000003C4242201887
:1095F00020404042221C000000000020302824248B
:1096000022227E20207800000000007E0202021A42
:1096100026404042221C0000000000382402021AAA
:1096200026424242241800000000007E2222101030
:1096300008080808080800000000003C42424224D4
:1096400018244242423C00000000001824424242DA
:1096500064584040241C000000000000000018185E
:1096600000000000181800000000000000000008C2
:10967000000000000008080400000040201008045A
:1096800002040810204000000000000000007F00DD
:1096900000007F000000000000000002040810200D
:1096A00040201008040200000000003C42424640F6
:1096B00020101000181800000000001C225A5555F8
:1096C00055552D42221C00000000000808181414F3
:1096D000243C224242E700000000001F2222221EFA
:1096E00022424242221F00000000007C424201014F
:1096F00001010142221C00000000001F22424242E0
:1097000042424242221F00000000003F4212121E4D
:1097100012120242423F00000000003F4212121E9D
:1097200012120202020700000000003C2222010186
:1097300001712122221C0000000000E74242424247
:109740007E42424242E700000000003E080808084E
:1097500008080808083E00000000007C10101010E7
:10976000101010101010110F0000007722120A0EB6
:109770000A121222227700000000000702020202F1
:1097800002020202427F00000000007736363636C1
:109790002A2A2A2A2A6B0000000000E346464A4A89
:1097A00052525262624700000000001C22414141B7
:1097B00041414141221C00000000003F4242424220
:1097C0003E020202020700000000001C224141414B
:1097D00041414D53321C60000000003F4242423E76
:1097E0001212222242C700000000007C4242020402
:1097F00018204042423E00000000007F490808084F
:1098000008080808081C0000000000E74242424225
:1098100042424242423C0000000000E74242222411
:1098200024141418080800000000006B4949494935
:109830005555362222220000000000E74224241859
:109840001818242442E70000000000772222141494
:1098500008080808081C00000000007E21201010E5
:1098600008040442423F000000780808080808087D
:109870000808080808087800000002020404080824
:109880000810102020204040001E10101010101052
:109890001010101010101E000038440000000000CE
:1098A00000000000000000000000000000000000B8
:1098B00000000000000000FF00060800000000009B
:1098C0000000000000000000000000000000003C5C
:1098D0004278444242FC0000000000030202021AE7
:1098E00026424242261A0000000000000000003814
:1098F000440202024438000000000060404040780A
:109900004442424264D80000000000000000003CD5
:10991000427E0202423C0000000000F08808087EFF
:1099200008080808083E0000000000000000007C55
:1099300022221C023C42423C000000030202023A86
:109940004642424242E700000000000C0C00000EBC
:1099500008080808083E0000000000303000003809
:10996000202020202020221E00000003020202727C
:10997000120A1612227700000000000E08080808DC
:1099800008080808083E0000000000000000007FF2
:109990009292929292B70000000000000000003BFB
:1099A0004642424242E70000000000000000003C46
:1099B00042424242423C0000000000000000001B06
:1099C00026424242221E02070000000000000078EA
:1099D00044424242447840E000000000000000772A
:1099E0004C040404041F0000000000000000007C80
:1099F00042023C40423E0000000000000008083ED9
:109A0000080808080830000000000000000000639B
:109A10004242424262DC000000000000000000E719
:109A2000422424140808000000000000000000EB9D
:109A30004949555522220000000000000000007630
:109A400024181818246E000000000000000000E731
:109A50004224241418080807000000000000007EBB
:109A600022100808447E000000C020202020201082
:109A7000202020202020C0001010101010101010E6
:109A80001010101010101010000608080808081018
:109A900008080808080806000C32C2000000000090
:109AA00000000000000000000000000000000000B6
:109AB00000000000000000000000000000000000A6
:109AC0000000000000000000000000000000000096
:109AD0000000000000000000000000000000000086
:109AE0006000600060006000600060006000400096
:109AF0002000200020000000000000006000600046
:109B00006000000000000000000000006006600629
:109B100030039801880044000000000000000000AD
:109B20000000000000000000000000000000000035
:109B30000000000000000000000000000000000025
:109B40001002100210021002FE07FE0708020801B0
:109B5000080108010801FE07FE07040104010401D1
:109B600004010000000000000000000000004000B0
:109B70004000F00158034C03CC034C005800700027
:109B8000E000C001C00140034C035C034C034801EA
:109B9000F000400040000000000000000000000055
:109BA0000E010A01910091009100510051003A000C
:109BB000AE03A00250045004480448044804840240
:109BC000840300000000000000000000000000000E
:109BD00038006C006C006C006C006C002C00980766
:109BE0001C011A01330133016301E300C308C609F4
:109BF0003C07000000000000000000000C001C00FA
:109C00001000100008000400000000000000000028
:109C10000000000000000000000000000000000044
:109C2000000000000000000000000000000400022E
:109C30000001800080004000400020002000200043
:109C40002000200020002000400040008000800014
:109C500000010002000400000000000002000400F7
:109C600008001000100020002000400040004000CC
:109C70004000400040004000200020001000100084
:109C800008000400020000000000000000000000C6
:109C9000000000004000C0004000460C4E0FD00104
:109CA000F0015E0F460C4000400040000000000044
:109CB00000000000000000000000000000000000A4
:109CC0000000000000004000400040004000400054
:109CD000FE0F400040004000400040000000000037
:109CE0000000000000000000000000000000000074
:109CF0000000000000000000000000000000000064
:109D00000000000000000000000000000C001C002B
:109D10001000100008000400000000000000000017
:109D20000000000000000000000000000000000033
:109D3000FE0700000000000000000000000000001E
:109D40000000000000000000000000000000000013
:109D50000000000000000000000000000000000003
:109D60000000000000000000000000001C001C00BB
:109D70001C000000000000000000000000040006BD
:109D8000000200030001000180008000400040004C
:109D900060002000200010001000080008000C00E7
:109DA00004000600020000000000000000000000A7
:109DB0000000F00098010C030C03060606060606D8
:109DC000060606060606060606060C030C039801A0
:109DD000F000000000000000000000000000000093
:109DE000000040007C0060006000600060006000D7
:109DF0006000600060006000600060006000600063
:109E0000FC03000000000000000000000000000053
:109E10000000F800840102030603060300030001AA
:109E20008001C00060002000100008020402060249
:109E3000FE03000000000000000000000000000021
:109E400000007800C6008601860180018001C00004
:109E50007000800100010003000306030603860171
:109E6000F8000000000000000000000000000000FA
:109E7000000080018001C001A001A00190018801C3
:109E8000880184018201FE0F800180018001800130
:109E9000E0070000000000000000000000000000DB
:109EA0000000FC0304000400040004000400F400AB
:109EB0008C010403000300030603060382018401EE
:109EC000F80000000000000000000000000000009A
:109ED0000000E00118030C030C0004000600E6017A
:109EE00016030E0606060606060604060C021803EE
:109EF000F000000000000000000000000000000072
:109F00000000F8070C0604020401000100018000B3
:109F10008000400040004000600060006000600081
:109F200060000000000000000000000000000000D1
:109F30000000F8010C030606060606060C021C03C8
:109F4000F000C8010C0306060606060606060C030A
:109F5000F001000000000000000000000000000010
:109F60000000F0000C010C030602060606060606B9
:109F700006078C0678060006000300030C018C011E
:109F80007800000000000000000000000000000059
:109F9000000000000000000000000000E000E00001
:109FA000E00000000000000000000000E000E00011
:109FB000E0000000000000000000000000000000C1
:109FC00000000000000000000000000060006000D1
:109FD0000000000000000000000000000000600021
:109FE0006000400020002000000000000000000091
:109FF0000004000200018000400020001000080062
:10A000000400080010002000400080000001000251
:10A01000000400000000000000000000000000003C
:10A02000000000000000000000000000FE0700002B
:10A0300000000000FE07000000000000000000001B
:10A040000000000000000000000000000000000010
:10A050000400080010002000400080000001000201
:10A0600000040002000180004000200010000800F1
:10A0700004000000000000000000000000000000DC
:10A080000000E0031806040C040C0C0C0C0C000778
:10A09000800140004000400000000000E000E000BF
:10A0A000E0000000000000000000000000000000D0
:10A0B000E00018030C02CC0564056605A605B6048D
:10A0C000B604B604B604B602E4010C040C0218038C
:10A0D000F000000000000000000000000000000090
:10A0E0000000600060005000D000900090008800E8
:10A0F00088010801F80104030403040202020206B5
:10A100000F0F000000000000000000000000000031
:10A110000000FE008C030C030C030C030C038C01E9
:10A12000FC000C030C020C060C060C060C060C03BF
:10A13000FE01000000000000000000000000000020
:10A140000000E00318030C060C04040406000600DB
:10A15000060006000600060006040C040C021803A4
:10A16000F0000000000000000000000000000000FF
:10A1700000007F008C010C030C030C060C060C067F
:10A180000C060C060C060C060C060C030C038C01CA
:10A190007F00000000000000000000000000000040
:10A1A0000000FF030603060406040600860086007E
:10A1B000FE008600860086000600060406040602ED
:10A1C000FF0300000000000000000000000000008D
:10A1D0000000FF030603060406040600860086004E
:10A1E000FE008600860086000600060006000600C7
:10A1F0001F00000000000000000000000000000040
:10A200000000F00018010C020C0204020600060017
:10A2100006000600C60F060306030C030C03180312
:10A22000F00000000000000000000000000000003E
:10A2300000000F0F060606060606060606060606B8
:10A24000FE070606060606060606060606060606B5
:10A250000F0F0000000000000000000000000000E0
:10A260000000FC03600060006000600060006000AF
:10A2700060006000600060006000600060006000DE
:10A28000FC030000000000000000000000000000CF
:10A290000000F807C000C000C000C000C000C0003F
:10A2A000C000C000C000C000C000C000C000C000AE
:10A2B000C000C60066003C00000000000000000076
:10A2C0000000CF038601C6004600260016003600B7
:10A2D0002E006E004600C6008600860106010603B9
:10A2E0008F070000000000000000000000000000D8
:10A2F00000001F000600060006000600060006001B
:10A300000600060006000600060006040604060213
:10A31000FF0300000000000000000000000000003B
:10A3200000000707860386038E038E034E034E0349
:10A330004A035A035A033A03320332033203120325
:10A34000870700000000000000000000000000007F
:10A3500000008E0F0C021C021C0234023402640244
:10A3600064024402C40284028403840304030403D9
:10A370001F020000000000000000000000000000BC
:10A380000000F00098010C030C0206060606060603
:10A39000060606060606060606060C020C039801CB
:10A3A000F0000000000000000000000000000000BD
:10A3B0000000FF0006030606060606060606060659
:10A3C0008603FE00060006000600060006000600E2
:10A3D0001F0000000000000000000000000000005E
:10A3E0000000F00098010C030C02060606060606A3
:10A3F000060606060606060676064C02CC039801FB
:10A40000F0008007000300000000000000000000D2
:10A410000000FF01060306060606060606060603FA
:10A42000FE004600C60086008601060306030606F7
:10A430000F0E0000000000000000000000000000FF
:10A440000000F8020C030602060206000E003C00A3
:10A45000F800E003800300070206020606060C036C
:10A46000F0010000000000000000000000000000FB
:10A470000000FE076204610861086000600060007F
:10A4800060006000600060006000600060006000CC
:10A49000F8010000000000000000000000000000C3
:10A4A00000001E070C020C020C020C020C020C0233
:10A4B0000C020C020C020C020C020C020C02180121
:10A4C000F00000000000000000000000000000009C
:10A4D00000000F070602040104010C010C018800B2
:10A4E0008800980098005000500070003000200054
:10A4F000200000000000000000000000000000003C
:10A500000000F70E6204420446044604640264023A
:10A51000E402E4029C029C019801980188018800F1
:10A5200088000000000000000000000000000000A3
:10A5300000009E070C01080118019000B0006000A7
:10A54000200060006000D000900088010801040332
:10A550008E07000000000000000000000000000066
:10A5600000000F0F060404020C0208011801B800D5
:10A57000B00070006000600060006000600060007B
:10A58000F8010000000000000000000000000000D2
:10A590000000FC070C02060302018001800040005D
:10A5A0004000200020001000180008040C040402E1
:10A5B000FE0300000000000000000000E003200097
:10A5C000200020002000200020002000200020008B
:10A5D000200020002000200020002000200020007B
:10A5E00020002000E0030000000000000000000048
:10A5F00004000400080008001000100010002000F3
:10A60000200040004000C0008000800000010001E8
:10A610000002000200020004000000007C00400074
:10A62000400040004000400040004000400040002A
:10A63000400040004000400040004000400040001A
:10A64000400040007C000000000060009000080115
:10A6500000000000000000000000000000000000FA
:10A6600000000000000000000000000000000000EA
:10A6700000000000000000000000000000000000DA
:10A6800000000000000000000000000000000000CA
:10A6900000000000000000000000000000000000BA
:10A6A000000000000000FF0F000000001800600024
:10A6B000000000000000000000000000000000009A
:10A6C000000000000000000000000000000000008A
:10A6D000000000000000000000000000000000007A
:10A6E000000000000000000000000000F0010C036A
:10A6F0000C030003E0031C030E03060306038E0B8A
:10A700007C0E0000000000000000000000000000BF
:10A7100008000E000C000C000C000C00CC013C03E7
:10A720001C060C060C060C060C060C060C021C0380
:10A73000E401000000000000000000000000000034
:10A74000000000000000000000000000F0008C018C
:10A750008C01860106000600060006020C020C01B0
:10A76000F0000000000000000000000000000000F9
:10A770000002C003000300030003000378038C03FE
:10A780000C030603060306030603060304038C07F3
:10A790007801000000000000000000000000000040
:10A7A000000000000000000000000000E0011803AD
:10A7B00008020C060C06FC070C000C00180418021A
:10A7C000E0010000000000000000000000000000A8
:10A7D0000000C0036006300630003000FE0130008B
:10A7E00030003000300030003000300030003000E9
:10A7F000FC0100000000000000000000000000005C
:10A80000000000000000000000000000F007D80673
:10A810008C018C018C019801F8000C00FC00CC0329
:10A82000060306038E03F80000000000000000008D
:10A8300008000E000C000C000C000C00EC011C03C6
:10A840000C030C030C030C030C030C030C030C0390
:10A850009E07000000000000000000000000000053
:10A860000000600060000000000040007C0060000C
:10A8700060006000600060006000600060006000D8
:10A88000FC030000000000000000000000000000C9
:10A890000000C001C001000000000001F0018001C3
:10A8A00080018001800180018001800180018001A0
:10A8B00080018001CC007C0000000000000000004E
:10A8C00008000E000C000C000C000C008C038C0027
:10A8D0008C004C006C005C008C008C010C010C03A3
:10A8E0009E070000000000000000000000000000C3
:10A8F00040007C006000600060006000600060005C
:10A900006000600060006000600060006000600047
:10A91000FC03000000000000000000000000000038
:10A920000000000000000000000000003707EE06F5
:10A9300066066606660666066606660666066606B7
:10A94000FF0F0000000000000000000000000000F9
:10A95000000000000000000000000000EE011C03E9
:10A960000C030C030C030C030C030C030C030C036F
:10A970009E07000000000000000000000000000032
:10A98000000000000000000000000000F00098013E
:10A990000C03060606060606060606060C030C034E
:10A9A000F0000000000000000000000000000000B7
:10A9B000000000000000000000000000EE011C0389
:10A9C0000C060C060C060C060C060C060C031C03ED
:10A9D000EC010C000C003E00000000000000000034
:10A9E00000000000000000000000000078028C035E
:10A9F0000C030603060306030603060304038C0385
:10AA0000780300030003C0070000000000000000FE
:10AA10000000000000000000000000009F03580636
:10AA20003806180018001800180018001800180040
:10AA3000FF00000000000000000000000000000017
:10AA4000000000000000000000000000F0031C03F4
:10AA50000C020C023800F000C003040304038C0352
:10AA6000FC010000000000000000000000000000E9
:10AA7000000000002000200030003000FE01300007
:10AA80003000300030003000300030003002300242
:10AA9000E0010000000000000000000000000000D5
:10AAA0000000000000000000000008028E030C03FC
:10AAB0000C030C030C030C030C030C030C039C078A
:10AAC000780100000000000000000000000000000D
:10AAD0000000000000000000000000001E070C0243
:10AAE0000801080118019000B000B000600060008B
:10AAF0002000000000000000000000000000000036
:10AB0000000000000000000000000000F70E6204DA
:10AB1000460464026402EC029C01980198019801C9
:10AB2000080000000000000000000000000000001D
:10AB3000000000000000000000000000BC07180139
:10AB40001001B00060006000E00090000801080300
:10AB50009E07000000000000000000000000000050
:10AB60000000000000000000000000009E07080137
:10AB70000801080190009000B000600060006000D3
:10AB80002000200024001C00000000000000000045
:10AB9000000000000000000000000000FC01840133
:10ABA000C4004400600020003000180208020C03BA
:10ABB000FC01000000000000000000000003800015
:10ABC00080008000800080008000800080004000C5
:10ABD0002000400080008000800080008000800015
:10ABE0008000800000030000400040004000400062
:10ABF0004000400040004000400040004000400055
:10AC00004000400040004000400040004000400044
:10AC10004000400040004000000000000C00100018
:10AC20001000100010001000100010001000200094
:10AC30004000200010001000100010001000100054
:10AC4000100010000C00000000001C002204C204D0
:10AC50008003000000000000000000000000000071
:10AC600000000000000000000000000000000000E4
:10AC700000000000000000000000000000000000D4
:10AC800000000000000000000000000000000000C4
:10AC900000000000000000000000000000000000B4
:10ACA00000000000000000000000000000000000A4
:10ACB0000000000000000000000000000000000094
:10ACC0000000C001C001C001C001C001C001C0013D
:10ACD00080008000800080008000800080000000F4
:10ACE0000000000000008001C003C00380010000DC
:10ACF0000000000000000000000000000000E01C58
:10AD0000E01CF01E700E38071803080184000000D4
:10AD10000000000000000000000000000000000033
:10AD20000000000000000000000000000000000023
:10AD30000000000000000000000000000000000013
:10AD40000000000020102010201020102010FE7F96
:10AD5000FE7F1008100810081008100810081008CE
:10AD6000FE7FFE7F080408040804080408040000AD
:10AD700000000000000000000000000000000000D3
:10AD800000010001C0076019103118311839183955
:10AD900038017001E001C0038007000F001D003979
:10ADA00000311C311C310C310C11180DE007000171
:10ADB0000001000100000000000000000000000091
:10ADC000000000001C1036186308630C6304630461
:10ADD000630263026301361D9C37802280634063F7
:10ADE000406320632063306310221836081C000083
:10ADF0000000000000000000000000000000000053
:10AE000000000000F00098018C018C018C018C0185
:10AE10008C00CC007800183E1C0836083208630409
:10AE20006304C304C303834306438E26781C0000D7
:10AE300000000000000000000000000000001C00F6
:10AE40003C003C003000300010000C000600000008
:10AE500000000000000000000000000000000000F2
:10AE600000000000000000000000000000000000E2
:10AE70000000000000000000000000000000004092
:10AE8000002000100008000C00040006000300036E
:10AE90000003800180018001800180018001800128
:10AEA000800100030003000300060006000C0008F8
:10AEB0000010002000400000000000000000020020
:10AEC000040008001000300020006000C000C00036
:10AED000C00080018001800180018001800180012B
:10AEE0008001C000C000C0006000600030001000A1
:10AEF0000800040002000000000000000000000044
:10AF00000000000000000000000180038003000139
:10AF10001C713C79783DC0070001C007783D3C7941
:10AF20001C7100018003800380010000000000000C
:10AF30000000000000000000000000000000000011
:10AF400000000000000000000000000100010001FE
:10AF50000001000100010001FC7F0001000100016F
:10AF600000010001000100010000000000000000DD
:10AF700000000000000000000000000000000000D1
:10AF800000000000000000000000000000000000C1
:10AF900000000000000000000000000000000000B1
:10AFA00000000000000000001C003C003C003000DD
:10AFB000300010000C00060000000000000000003F
:10AFC0000000000000000000000000000000000081
:10AFD0000000000000000000FE7F000000000000F4
:10AFE0000000000000000000000000000000000061
:10AFF0000000000000000000000000000000000051
:10B000000000000000000000000000000000000040
:10B010000000000000000000000000000000000030
:10B0200000000000000018003C003C001800000078
:10B0300000000000000000000000000000000040D0
:10B04000006000200030001000180008000C000410
:10B05000000600020003000180018000C0004000E3
:10B060006000200030001000180008000C000400F0
:10B0700006000200000000000000000000000000C8
:10B0800000000000C007600C30181830183018207D
:10B090000C600C600C600C600C600C600C600C6050
:10B0A0000C601820183018303018600CC0070000F1
:10B0B0000000000000000000000000000000000090
:10B0C0000000000000018001F80180018001800182
:10B0D0008001800180018001800180018001800168
:10B0E00080018001800180018001C003F81F000001
:10B0F0000000000000000000000000000000000050
:10B1000000000000E007101C0818043004300C3068
:10B110000C3000300018000800040002000180001C
:10B1200040002020102008200430FC1FFC1F0000DD
:10B13000000000000000000000000000000000000F
:10B1400000000000E003180E0C0C0C180C180C1872
:10B150000018000C0006C003000E0018001000309C
:10B1600000300C300C300C100C18180CE0030000F0
:10B1700000000000000000000000000000000000CF
:10B1800000000000000C000E000E000F800E800E6C
:10B19000400E600E200E100E100E080E040E040E4F
:10B1A000FE7F000E000E000E000E000E000EC07F8F
:10B1B000000000000000000000000000000000008F
:10B1C00000000000F03FF03F1000100010000800E9
:10B1D0000800C807280C181808100030003000308C
:10B1E00000300C300C3004180418080CF003000078
:10B1F000000000000000000000000000000000004F
:10B2000000000000800FC01020301030180018001F
:10B2100008000C008C0F6C183C301C600C600C603B
:10B220000C600C601860182030306018C0070000F7
:10B23000000000000000000000000000000000000E
:10B2400000000000F83FF83F1C100C08040804043C
:10B2500000040002000200010001000180008000E3
:10B260008000C000C000C000C000C000C0000000DE
:10B2700000000000000000000000000000000000CE
:10B2800000000000E007300C18180C300C300C30B7
:10B290001C3038187008E007B007180E0C1C063870
:10B2A00006300630063006300C18180CE00300009B
:10B2B000000000000000000000000000000000008E
:10B2C00000000000E00318040C080C1806100630FB
:10B2D00006300630063006380C3C1836F0310030A7
:10B2E0000018001800180C0C0C060C03F0010000EC
:10B2F000000000000000000000000000000000004E
:10B30000000000000000000000000000000000003D
:10B3100000008001C003C0038001000000000000A5
:10B320000000000000008001C003C0038001000095
:10B33000000000000000000000000000000000000D
:10B3400000000000000000000000000000000000FD
:10B350000000C000C000000000000000000000006D
:10B3600000000000000000000000C000C0008000DD
:10B3700080004000400000000000000000000000CD
:10B3800000000020001000080004000600038001F7
:10B39000C0006000300018000C0018003000600091
:10B3A000C000800100030006000400080010002017
:10B3B000000000000000000000000000000000008D
:10B3C000000000000000000000000000000000007D
:10B3D0000000FE7F00000000000000000000FE7F73
:10B3E000000000000000000000000000000000005D
:10B3F000000000000000000000000000000000004D
:10B40000000004000800100020006000C00080015F
:10B4100000030006000C001800300018000C0006A5
:10B4200000038001C000600020001000080004003C
:10B43000000000000000000000000000000000000C
:10B440000000C0073018083008600C601C601C60E9
:10B450001C600030001C000600018000800080009D
:10B460008000000000008001C003C00380010000D4
:10B4700000000000000000000000000000000000CC
:10B4800000000000C0076018103018200C2F8C4DF1
:10B49000864CC64CC64C664C664466446626662698
:10B4A0006615CC1C0C40082018303018C00700006E
:10B4B000000000000000000000000000000000008C
:10B4C00000000001C001C001C00140016003200371
:10B4D000200320033006100610061006F80F080C93
:10B4E000080C080C0C0C0418041806181F7C00002B
:10B4F000000000000000000000000000000000004C
:10B5000000000000FE07181C1838183018301830DA
:10B5100018301818180CF807181818301820186068
:10B52000186018601860186018301818FE0F0000B6
:10B53000000000000000000000000000000000000B
:10B5400000000000C0276038103018200C400C406C
:10B5500004000600060006000600060006000600BD
:10B5600006000C400C400C2018303018C0070000BA
:10B5700000000000000000000000000000000000CB
:10B5800000000000FE03180E18181830183018308C
:10B5900018601860186018601860186018601860EB
:10B5A00018601830183018101818180EFE03000014
:10B5B000000000000000000000000000000000008B
:10B5C00000000000FE3F18301820186018401800D6
:10B5D00018081808180CF80F180C18081808180084
:10B5E000180018001840184018201830FE3F0000BE
:10B5F000000000000000000000000000000000004B
:10B6000000000000FE7F1870184018C01880180055
:10B61000181018101818F81F1818181018101800FB
:10B620001800180018001800180018007E0000000C
:10B63000000000000000000000000000000000000A
:10B6400000000000C013701C101018100C200C20FB
:10B6500004000600060006000600060006FC063090
:10B6600006300C300C30183018303008C00700009D
:10B6700000000000000000000000000000000000CA
:10B68000000000003F7E0C180C180C180C180C1849
:10B690000C180C180C180C18FC1F0C180C180C1893
:10B6A0000C180C180C180C180C180C183F7E000005
:10B6B000000000000000000000000000000000008A
:10B6C00000000000F81F80018001800180018001DE
:10B6D0008001800180018001800180018001800162
:10B6E000800180018001800180018001F81F00003D
:10B6F000000000000000000000000000000000004A
:10B7000000000000E07F00060006000600060006BC
:10B7100000060006000600060006000600060006F9
:10B7200000060006000600060006000600060006E9
:10B730000E060E038E01FC00000000000000000059
:10B74000000000007E7C181818081804180618025B
:10B75000180198019801D801B80338031807180692
:10B76000180E180C181C1818183018307EFC000021
:10B7700000000000000000000000000000000000C9
:10B78000000000007E0018001800180018001800C3
:10B7900018001800180018001800180018001800E9
:10B7A000180018001840184018201830FE3F0000FC
:10B7B0000000000000000000000000000000000089
:10B7C000000000001FF81C381C381C381C3C3434A6
:10B7D0003434343434367432643264326432643132
:10B7E000C431C431C431C430C43084309FFC000043
:10B7F0000000000000000000000000000000000049
:10B80000000000001F7C1C103C1034103410741019
:10B810006410E410C410C4118411841304130417B9
:10B820000416041E041C041C041C04181F18000029
:10B830000000000000000000000000000000000008
:10B8400000000000C003300C181808100C300C3039
:10B8500006600660066006600660066006600660B8
:10B8600006600C200C3008101818300CC0030000C3
:10B8700000000000000000000000000000000000C8
:10B8800000000000FE0F18181830186018601860CB
:10B890001860186018301818F80F180018001800F1
:10B8A0001800180018001800180018007E0000008A
:10B8B0000000000000000000000000000000000088
:10B8C00000000000C003300C18180C100C300C20C5
:10B8D0000660066006600660066006600660066038
:10B8E0000660E4612C331C321816300EC007004C81
:10B8F000007C003800000000000000000000000094
:10B9000000000000FE07181C1838183018301830D6
:10B9100018301818180CF807980318031807180699
:10B920001806180E180C180C181C18187E78000031
:10B930000000000000000000000000000000000007
:10B9400000000000E027303818300C200C200C00DC
:10B950000C0018007800E003800F001E0038007013
:10B96000006004600460086018303818C80F0000D8
:10B9700000000000000000000000000000000000C7
:10B9800000000000FC3F8C218461824182418001E3
:10B99000800180018001800180018001800180019F
:10B9A000800180018001800180018001E0070000AA
:10B9B0000000000000000000000000000000000087
:10B9C000000000003F7C0C100C100C100C100C1030
:10B9D0000C100C100C100C100C100C100C100C1087
:10B9E0000C100C100C100C1008083804E0030000B8
:10B9F0000000000000000000000000000000000047
:10BA0000000000003EF818201820182030103010D8
:10BA100030103010600860086008E00CC004C004FA
:10BA2000C004800380038003800300010001000044
:10BA30000000000000000000000000000000000006
:10BA400000000000DFF38661862186218C210C2115
:10BA50008C238C138C138C134C1358125816580EBD
:10BA6000380E380E380E300C10041004100400008C
:10BA700000000000000000000000000000000000C6
:10BA8000000000007E3E18083808300430047002C0
:10BA90006002E001C001C001800180034003400753
:10BAA00020062006100C100C081808183E7C000018
:10BAB0000000000000000000000000000000000086
:10BAC000000000007E7C1C10181018083008300C94
:10BAD000700460046002C002C002C00180018001E5
:10BAE000800180018001800180018001E007000069
:10BAF0000000000000000000000000000000000046
:10BB000000000000F83F18180818040C040E000686
:10BB10000007000380038001C001C000E000600056
:10BB200070003000382018201C100C18FE1F000078
:10BB30000000000000000000000000000000C03F06
:10BB400040004000400040004000400040004000F5
:10BB500040004000400040004000400040004000E5
:10BB600040004000400040004000400040004000D5
:10BB70004000C03F00000000000000000000000086
:10BB800000000800180018001000300020006000BD
:10BB900060004000C00080008001800100010003BF
:10BBA0000002000600060004000C0008001800183F
:10BBB0000010003000200000000000000000FC0326
:10BBC0000002000200020002000200020002000265
:10BBD0000002000200020002000200020002000255
:10BBE0000002000200020002000200020002000245
:10BBF0000002FC03000000000000000000008007BD
:10BC0000C006200810100000000000000000000026
:10BC10000000000000000000000000000000000024
:10BC20000000000000000000000000000000000014
:10BC30000000000000000000000000000000000004
:10BC400000000000000000000000000000000000F4
:10BC500000000000000000000000000000000000E4
:10BC600000000000000000000000000000000000D4
:10BC7000000000000000FFFF00000000000078004E
:10BC8000C0000001000000000000000000000000F3
:10BC900000000000000000000000000000000000A4
:10BCA0000000000000000000000000000000000094
:10BCB0000000000000000000000000000000000084
:10BCC0000000000000000000000000000000000074
:10BCD0000000F00318060C0C0C0C000C800F700C0C
:10BCE0001C0C0C0C060C060C064C0C4FF838000013
:10BCF0000000000000000000000000000000000044
:10BD0000000010001E00180018001800180018008D
:10BD10001800180FD818383038601860186018608C
:10BD2000186018601860182038307818C8070000AC
:10BD30000000000000000000000000000000000003
:10BD400000000000000000000000000000000000F3
:10BD50000000C007700C181818180C180C000C0004
:10BD60000C000C000C20182018103008C007000030
:10BD700000000000000000000000000000000000C3
:10BD800000000010001E001800180018001800180D
:10BD90000018E01B301C181818180C180C180C1878
:10BDA0000C180C180C180818181C307AE009000040
:10BDB0000000000000000000000000000000000083
:10BDC0000000000000000000000000000000000073
:10BDD0000000C007300C181808100C300C30FC3F65
:10BDE0000C000C000C00182018107018C007000080
:10BDF0000000000000000000000000000000000043
:10BE000000000000003E80C380C0C0C0C000C00071
:10BE1000C000FC1FC000C000C000C000C000C000C7
:10BE2000C000C000C000C000C000C000F80F00008B
:10BE30000000000000000000000000000000000002
:10BE400000000000000000000000000000000000F2
:10BE50000000C077306C101818181818181810182F
:10BE6000300CF00718001800F00FF03F08700C605D
:10BE70000C600C603838E00F00000000000000008B
:10BE8000000010001E00180018001800180018000C
:10BE90001800980FD818383018301830183018306B
:10BEA0001830183018301830183018307EFC000068
:10BEB0000000000000000000000000000000000082
:10BEC00000000000800380038003000000000000E9
:10BED0000001F80180018001800180018001800162
:10BEE000800180018001800180018001F81F000035
:10BEF0000000000000000000000000000000000042
:10BF00000000000000380038003800000000000089
:10BF10000010801F001800180018001800180018E2
:10BF20000018001800180018001800180018001851
:10BF30000018180C1806F0030000000000000000B4
:10BF4000000010001E00180018001800180018004B
:10BF50001800183E180C1806180318019801D8018B
:10BF6000380318071806180C181C18187E7C0000D7
:10BF700000000000000000000000000000000000C1
:10BF800000000001F8018001800180018001800132
:10BF90008001800180018001800180018001800199
:10BFA000800180018001800180018001F81F000074
:10BFB0000000000000000000000000000000000081
:10BFC0000000000000000000000000000000000071
:10BFD0000800EE1C9C338C318C318C318C318C31CF
:10BFE0008C318C318C318C318C318C31DE7B00008A
:10BFF0000000000000000000000000000000000041
:10C000000000000000000000000000000000000030
:10C0100010001E0FD818383018301830183018306B
:10C020001830183018301830183018307EFC0000E6
:10C030000000000000000000000000000000000000
:10C0400000000000000000000000000000000000F0
:10C050000000C007701C103018300C600C600C60C1
:10C060000C600C600C60183018303018C0070000ED
:10C0700000000000000000000000000000000000C0
:10C0800000000000000000000000000000000000B0
:10C0900010009E0F5818383018201860186018606B
:10C0A0001860186018601830383078189807180031
:10C0B0001800180018007E000000000000000000BA
:10C0C0000000000000000000000000000000000070
:10C0D0000000C023303C183818300C300C300C30C5
:10C0E0000C300C300C3008301838303CE033003065
:10C0F00000300030003000FC0000000000000000B4
:10C10000000000000000000000000000000000002F
:10C1100060007E3C60666061E000E00060006000FE
:10C12000600060006000600060006000FE070000CA
:10C1300000000000000000000000000000000000FF
:10C1400000000000000000000000000000000000EF
:10C150000000E02730381830182018007000E00385
:10C16000800F001C043004300C301C18EC0F000051
:10C1700000000000000000000000000000000000BF
:10C180000000000000000000800080008000C0006F
:10C19000E000FC1FC000C000C000C000C000C00024
:10C1A000C000C000C000C020C0208011000F0000EF
:10C1B000000000000000000000000000000000007F
:10C1C000000000000000000000000000000000006F
:10C1D00010201E3C18301830183018301830183025
:10C1E0001830183018301830183830F4E0130000C8
:10C1F000000000000000000000000000000000003F
:10C20000000000000000000000000000000000002E
:10C2100000007E3C181818083808300430047002FA
:10C2200060026002E001C001C001C00080000000A7
:10C2300000000000000000000000000000000000FE
:10C2400000000000000000000000000000000000EE
:10C250000000DFF78E630C238C238C239813981334
:10C2600058165816700E700E700E20042004000030
:10C2700000000000000000000000000000000000BE
:10C2800000000000000000000000000000000000AE
:10C290000000FC3E70087004E004C002C00180038E
:10C2A000800340076006200C100C18183E7E00002A
:10C2B000000000000000000000000000000000007E
:10C2C000000000000000000000000000000000006E
:10C2D00000007E7C1818180830083008300460040C
:10C2E0006004C002C002C0028001800180018000A1
:10C2F000800080004C003C000000000000000000B6
:10C30000000000000000000000000000000000002D
:10C310000000FC1F0C0C040E0406000380038001C7
:10C32000C000E0007020302038301C18FC1F0000D6
:10C3300000000000000000000000000000000030CD
:10C3400000080004000400040004000400040004C9
:10C350000004000400040002800100020004000444
:10C3600000040004000400040004000400040004AD
:10C37000000400080030000000010001000100017D
:10C3800000010001000100010001000100010001A5
:10C390000001000100010001000100010001000195
:10C3A0000001000100010001000100010001000185
:10C3B00000010001000100010000000000000C006D
:10C3C000100020002000200020002000200020007D
:10C3D00020002000200040008001400020002000BC
:10C3E000200020002000200020002000200020004D
:10C3F000200010000C00000000003800C40086403F
:10C4000002610022001C000000000000000000008B
:10C41000000000000000000000000000000000001C
:10C42000000000000000000000000000000000000C
:10C43000000000000000000000000000920E493CD7
:10C44000B10AC93C2BC3163D2EFB483D752B7B3DE5
:10C4500004A9963D80B6AF3D36BDC83D2FBCE13D39
:10C4600073B2FA3D87CF093E8340163EB5AB223EFC
:10C47000A2102F3ECF6E3B3EC2C5473E0115543E33
:10C48000135C603E7F9A6C3ECCCF783EC07D823E8E
:10C49000938E883E229A8E3E32A0943E86A09A3E8B
:10C4A000E59AA03E128FA63ED47CAC3EEF63B23E2E
:10C4B0002A44B83E491DBE3E15EFC33E53B9C93E9E
:10C4C000CA7BCF3E4136D53E80E8DA3E4F92E03E11
:10C4D0007533E63EBBCBEB3EEA5AF13ECBE0F63E8F
:10C4E000275DFC3EE4E7003F3D9C033F824B063F57
:10C4F0009BF5083F6B9A0B3FDA390E3FCDD3103FC7
:10C500002A68133FD9F6153FC07F183FC6021B3F6C
:10C51000D17F1D3FCBF61F3F9967223F25D2243F95
:10C520005636273F1594293F4AEB2B3FDE3B2E3FE3
:10C53000BB85303FC9C8323FF304353F233A373F0C
:10C540004268393F3B8F3B3FF9AE3D3F67C73F3FB6
:10C5500070D8413F01E2433F03E4453F65DE473F7A
:10C5600012D1493FF8BB4B3F029F4D3F207A4F3FCE
:10C570003D4D513F4918533F31DB543FE595563F00
:10C580005348583F6AF2593F1A945B3F532D5D3F21
:10C5900005BE5E3F2146603F97C5613F5A3C633F01
:10C5A00059AA643F880F663FD86B673F3CBF683F1E
:10C5B000A7096A3F0C4B6B3F5E836C3F93B26D3FA4
:10C5C0009ED86E3F73F56F3F0809713F5213723F5B
:10C5D0004714733FDD0B743F0BFA743FC6DE753FA3
:10C5E00007BA763FC58B773FF853783F9812793F6B
:10C5F0009DC7793F02737A3FBE147B3FCDAC7B3F32
:10C60000283B7C3FC9BF7C3FAC3A7D3FCCAB7D3FF4
:10C6100023137E3FB0707E3F6DC47E3F580E7F3F38
:10C620006D4E7F3FAB847F3F0FB17F3F97D37F3FFE
:10C6300043EC7F3F11FB7F3F0000803F11FB7F3FBA
:10C6400043EC7F3F97D37F3F0FB17F3FAB847F3F6A
:10C650006D4E7F3F580E7F3F6DC47E3FB0707E3F72
:10C6600023137E3FCCAB7D3FAC3A7D3FC9BF7C3FBF
:10C67000283B7C3FCDAC7B3FBE147B3F02737A3FAF
:10C680009DC7793F9812793FF853783FC58B773F24
:10C6900007BA763FC6DE753F0BFA743FDD0B743F79
:10C6A0004714733F5213723F0809713F73F56F3F90
:10C6B0009ED86E3F93B26D3F5E836C3F0C4B6B3FD9
:10C6C000A7096A3F3CBF683FD86B673F880F663F4A
:10C6D00059AA643F5A3C633F97C5613F2146603F7A
:10C6E00005BE5E3F532D5D3F1A945B3F6AF2593F92
:10C6F0005348583FE595563F31DB543F4918533F67
:10C700003D4D513F207A4F3F029F4D3FF8BB4B3F7D
:10C7100012D1493F65DE473F03E4453F01E2433F15
:10C7200070D8413F67C73F3FF9AE3D3F3B8F3B3F2E
:10C730004268393F233A373FF304353FC9C8323F97
:10C74000BB85303FDE3B2E3F4AEB2B3F1594293F04
:10C750005636273F25D2243F9967223FCBF61F3F0D
:10C76000D17F1D3FC6021B3FC07F183FD9F6153F42
:10C770002A68133FCDD3103FDA390E3F6B9A0B3F37
:10C780009BF5083F824B063F3D9C033FE4E7003F9B
:10C79000275DFC3ECBE0F63EEA5AF13EBBCBEB3EDA
:10C7A0007533E63E4F92E03E80E8DA3E4136D53EB4
:10C7B000CA7BCF3E53B9C93E15EFC33E491DBE3EAD
:10C7C0002A44B83EEF63B23ED47CAC3E128FA63E04
:10C7D000E59AA03E86A09A3E32A0943E229A8E3ED2
:10C7E000938E883EC07D823ECCCF783E7F9A6C3E51
:10C7F000135C603E0115543EC2C5473ECF6E3B3EC2
:10C80000A2102F3EB5AB223E8340163E87CF093E95
:10C8100073B2FA3D2FBCE13D36BDC83D80B6AF3D99
:10C8200004A9963D752B7B3D2EFB483D2BC3163D41
:10C83000B10AC93C920E493C00000000920E49BC6E
:10C84000B10AC9BC2BC316BD2EFB48BD752B7BBDE1
:10C8500004A996BD80B6AFBD36BDC8BD2FBCE1BD35
:10C8600073B2FABD87CF09BE834016BEB5AB22BEF8
:10C87000A2102FBECF6E3BBEC2C547BE011554BE2F
:10C88000135C60BE7F9A6CBECCCF78BEC07D82BE8A
:10C89000938E88BE229A8EBE32A094BE86A09ABE87
:10C8A000E59AA0BE128FA6BED47CACBEEF63B2BE2A
:10C8B0002A44B8BE491DBEBE15EFC3BE53B9C9BE9A
:10C8C000CA7BCFBE4136D5BE80E8DABE4F92E0BE0D
:10C8D0007533E6BEBBCBEBBEEA5AF1BECBE0F6BE8B
:10C8E000275DFCBEE4E700BF3D9C03BF824B06BF53
:10C8F0009BF508BF6B9A0BBFDA390EBFCDD310BFC3
:10C900002A6813BFD9F615BFC07F18BFC6021BBF68
:10C91000D17F1DBFCBF61FBF996722BF25D224BF91
:10C92000563627BF159429BF4AEB2BBFDE3B2EBFDF
:10C93000BB8530BFC9C832BFF30435BF233A37BF08
:10C94000426839BF3B8F3BBFF9AE3DBF67C73FBFB2
:10C9500070D841BF01E243BF03E445BF65DE47BF76
:10C9600012D149BFF8BB4BBF029F4DBF207A4FBFCA
:10C970003D4D51BF491853BF31DB54BFE59556BFFC
:10C98000534858BF6AF259BF1A945BBF532D5DBF1D
:10C9900005BE5EBF214660BF97C561BF5A3C63BFFD
:10C9A00059AA64BF880F66BFD86B67BF3CBF68BF1A
:10C9B000A7096ABF0C4B6BBF5E836CBF93B26DBFA0
:10C9C0009ED86EBF73F56FBF080971BF521372BF57
:10C9D000471473BFDD0B74BF0BFA74BFC6DE75BF9F
:10C9E00007BA76BFC58B77BFF85378BF981279BF67
:10C9F0009DC779BF02737ABFBE147BBFCDAC7BBF2E
:10CA0000283B7CBFC9BF7CBFAC3A7DBFCCAB7DBFF0
:10CA100023137EBFB0707EBF6DC47EBF580E7FBF34
:10CA20006D4E7FBFAB847FBF0FB17FBF97D37FBFFA
:10CA300043EC7FBF11FB7FBF000080BF11FB7FBFB6
:10CA400043EC7FBF97D37FBF0FB17FBFAB847FBF66
:10CA50006D4E7FBF580E7FBF6DC47EBFB0707EBF6E
:10CA600023137EBFCCAB7DBFAC3A7DBFC9BF7CBFBB
:10CA7000283B7CBFCDAC7BBFBE147BBF02737ABFAB
:10CA80009DC779BF981279BFF85378BFC58B77BF20
:10CA900007BA76BFC6DE75BF0BFA74BFDD0B74BF75
:10CAA000471473BF521372BF080971BF73F56FBF8C
:10CAB0009ED86EBF93B26DBF5E836CBF0C4B6BBFD5
:10CAC000A7096ABF3CBF68BFD86B67BF880F66BF46
:10CAD00059AA64BF5A3C63BF97C561BF214660BF76
:10CAE00005BE5EBF532D5DBF1A945BBF6AF259BF8E
:10CAF000534858BFE59556BF31DB54BF491853BF63
:10CB00003D4D51BF207A4FBF029F4DBFF8BB4BBF79
:10CB100012D149BF65DE47BF03E445BF01E243BF11
:10CB200070D841BF67C73FBFF9AE3DBF3B8F3BBF2A
:10CB3000426839BF233A37BFF30435BFC9C832BF93
:10CB4000BB8530BFDE3B2EBF4AEB2BBF159429BF00
:10CB5000563627BF25D224BF996722BFCBF61FBF09
:10CB6000D17F1DBFC6021BBFC07F18BFD9F615BF3E
:10CB70002A6813BFCDD310BFDA390EBF6B9A0BBF33
:10CB80009BF508BF824B06BF3D9C03BFE4E700BF97
:10CB9000275DFCBECBE0F6BEEA5AF1BEBBCBEBBED6
:10CBA0007533E6BE4F92E0BE80E8DABE4136D5BEB0
:10CBB000CA7BCFBE53B9C9BE15EFC3BE491DBEBEA9
:10CBC0002A44B8BEEF63B2BED47CACBE128FA6BE00
:10CBD000E59AA0BE86A09ABE32A094BE229A8EBECE
:10CBE000938E88BEC07D82BECCCF78BE7F9A6CBE4D
:10CBF000135C60BE011554BEC2C547BECF6E3BBEBE
:10CC0000A2102FBEB5AB22BE834016BE87CF09BE91
:10CC100073B2FABD2FBCE1BD36BDC8BD80B6AFBD95
:10CC200004A996BD752B7BBD2EFB48BD2BC316BD3D
:10CC3000B10AC9BC920E49BC000000805CCC00085F
:10CC4000000000201C030000AC42000834CF0008A4
:10CC50001C03002074060000584D000811140C0D30
:10CC600003141401401A1004450801400432102234
:10CC70008020C9CEFFC60FCFFFC10FD0FFBD0FD19F
:10CC8000FFB80FD2FFB30FD3FFAD0FD4FFA70FD55F
:10CC9000FFA10FD6FF9B0FD7FF940FD8FF8C0FD9A2
:10CCA000FF840FDAFF7C0FDBFF730FDCFF6A0FDD01
:10CCB000FF600FDEFF560FDFFF4B0FE0FF400FE17D
:10CCC000FF340FE2FF280FE3FF1A0FE4FF0D0FE51B
:10CCD000FFFE0EE6FFEF0EE7FFDF0EE8FFCE0EE9E8
:10CCE000FFBD0EEAFFAB0EEBFF980EECFF840EEDDE
:10CCF000FF700EEEFF5A0EEFFF440EF0FF2D0EF107
:10CD0000FF150EF2FFFC0DF3FFE20DF4FFC80DF569
:10CD1000FFAC0DF6FF900DF7FF720DF8FF540DF903
:10CD2000FF350DFAFF150DFBFFF40CFCFFD20CFDD7
:10CD3000FFAF0CFEFF8C0CFFFF670C14420C0114BC
:10CD40001C0C0214F50B0314CE0B0414A60B0514D3
:10CD50007D0B0614530B0714290B0814FF0A091442
:10CD6000D30A0A14A80A0B147C0A0C144F0A0D14D7
:10CD7000230A0E14F6090F14C80910149B09111484
:10CD80006D0912143F09131411091414E408151441
:10CD9000B6081614880817145B0818242D081913F0
:10CDA000081A14D3071B14A7071C147A071D144E66
:10CDB000071E1423071F14F8062014CD062114A300
:10CDC0000622147A06231451062414290625140178
:10CDD000062614DA052714B30528148D05291468CE
:10CDE000052A1444052B1420052C14FD042D14DBF6
:10CDF000042E14B9042F14980430147804311458F4
:10CE00000432143A0433141C043414FE033514E2BF
:10CE1000033614C6033714AA033814900339147662
:10CE2000033A145D033B1444033C142C033D1415D6
:10CE3000033E14FE023F14E8024014D3024114BE24
:10CE4000024214AA02431496024414830245147049
:10CE50000246145E0247144D0248143C0249142B4A
:10CE6000024A141B024B140C024C14FD014D14EE2B
:10CE7000014E14E0014F14D2015014C5015114B8F1
:10CE8000015214AB0153149F01541493015514889B
:10CE90000156147D01571472015814680159145D2C
:10CEA000015A1454015B144A015C1441015D1438A9
:10CEB000015E142F015F14270160141F0161141714
:10CEC0000162140F01632408016413016512F91251
:10CED0006612F3126712EC126812E6126912DF1280
:10CEE0006A12D9126B12D4126C12CE126D12C812C1
:10CEF0006E12C3126F12BE127012B9127112B412F6
:10CF00007212AF127312AB127412A6127512A21221
:10CF100076129E1277129A12781296127912921243
:10CF20007A128E127B128B127C1287127D0232844F
:04CF3000C40E2707FD
:04000005080041317D
:00000001FF
