:020000040800F2
:1040000090080020D1410008994200089142000820
:10401000954200088B420008F543000800000000AC
:10402000000000000000000000000000C74200087F
:104030008F42000800000000C5420008C942000885
:10404000EB410008EB410008EB410008EB410008A0
:10405000EB410008EB410008EB410008EB41000890
:10406000EB410008EB410008EB410008EB41000880
:10407000EB410008EB410008EB410008EB41000870
:10408000EB410008EB410008EB410008EB41000860
:1040900081430008EB410008EB410008EB410008B8
:1040A000EB410008EB410008EB410008EB41000840
:1040B000EB410008EB410008EB410008EB41000830
:1040C000EB410008EB410008EB410008EB41000820
:1040D000EB410008EB410008EB410008EB41000810
:1040E000EB410008EB410008EB410008EB41000800
:1040F000EB410008EB410008EB410008EB410008F0
:10410000EB410008EB410008EB410008EB410008DF
:10411000EB410008EB410008EB410008EB410008CF
:10412000EB410008EB410008EB410008EB410008BF
:1041300000F002F800F03CF80AA090E8000C82447D
:104140008344AAF10107DA4501D100F031F8AFF25A
:10415000090EBAE80F0013F0010F18BFFB1A43F065
:1041600001031847D00C0000F00C0000103A24BFE7
:1041700078C878C1FAD8520724BF30C830C144BFCC
:1041800004680C607047000000230024002500260E
:10419000103A28BF78C1FBD8520728BF30C148BFAA
:1041A0000B6070471FB500F03FFE1FBD10B510BD7E
:1041B00000F031F81146FFF7F5FF00F091FC00F038
:1041C0004FF803B4FFF7F2FF03BC00F057F800000C
:1041D0000948804709480047FEE7FEE7FEE7FEE79B
:1041E000FEE7FEE7FEE7FEE7FEE7FEE704480549D7
:1041F000054A064B70470000D942000831410008CB
:1042000090000020900800209004002090040020DE
:10421000704770477047754600F02CF8AE460500B1
:104220006946534620F00700854618B020B5FFF7D1
:10423000DDFFBDE820404FF000064FF000074FF0D3
:1042400000084FF0000B21F00701AC46ACE8C009B4
:10425000ACE8C009ACE8C009ACE8C0098D467047BD
:1042600010B50446AFF300802046BDE81040FFF7CC
:10427000A8BF000000487047300000200149182006
:10428000ABBEFEE726000200704700BFFEE77047A6
:1042900000BFFEE700BFFEE77047000010B5002832
:1042A00007DA0A07140E054A00F00F031B1FD45447
:1042B00003E00A07130E024A135410BD18ED00E084
:1042C00000E400E07047704702480068401C014964
:1042D000086070470000002008B52648006840F4D8
:1042E0007000244908602448006840F00100224919
:1042F000086000BF2048006800F002000028F9D0E4
:1043000000BF1D48406840F080001B494860002005
:10431000009002E00098401C009000985028F9D3CB
:104320001548406840F09000134948600020009014
:1043300002E00098401C009000985028F9D300BF7C
:104340000D48406820F003000B49486008460068AB
:104350000A490840084908604FF41F008860084671
:10436000006820F48020086000204860C86200F0E7
:1043700011FD08BD88ED00E000100240FFFFF6FED1
:1043800010B5194A0021194800F0D7F916480068FD
:10439000B0F5007F26D11448007A18BB1248807A05
:1043A00008281FD11048C07A1149C8720E48017BF5
:1043B0000F4801730C48417B0D4841730A48817BCB
:1043C0000B4881730848C17B0948C1730648017CCA
:1043D000074801740448417C054841740248817CC7
:1043E0000348817410BD00000800002000640040F4
:1043F0001C00002000BFFEE710B500F0F3F800F04D
:10440000B7FA00F007F80221014800F092F910BD58
:104410000064004000B589B006A9002000F0AFFAA2
:1044200001A9012000F0ABFA40F2197000F0F8FB8E
:104430001F4800F03FF800208DF81C0001208DF887
:104440001D0000208DF81E0001208DF81F000020A7
:104450008DF820008DF821008DF818008DF81900D6
:1044600006208DF81A0001208DF81B000C20ADF8F5
:10447000220006A90E4800F0CBF80020ADF80E008F
:10448000ADF810000120ADF812000020ADF80400D6
:10449000ADF80600ADF80800ADF80A00ADF80C0064
:1044A00001208DF8140001A800F014F809B000BD37
:1044B0000064004010B504460548844207D140F22C
:1044C000194000F0CDFB40F2194000F0B9FB10BDDF
:1044D0000064004010B50021837A012202FA03F142
:1044E0003E4A126842F001023C4B1A603B4A1C32C1
:1044F00012688A43394B1C331A60C289DAB9374AC9
:104500000C3212688A43354B0C331A60C288344B24
:1045100003EA024243881A434389304C403444F84A
:10452000332082882E4B03EA024203881A434389D0
:1045300004EBC3035A60C289012A1BD1274A0C32FB
:1045400012680A43254B0C331A600288244B03EA95
:10455000024243881A434389204C403444F83320B4
:1045600082881F4B03EA0242C3881A43438904EB43
:10457000C3035A6082893AB9184A121D12688A43E5
:10458000164B1B1D1A6006E0144A121D12680A43DE
:10459000124B1B1D1A6002893AB9104A1432126874
:1045A0008A430E4B14331A6006E00C4A1432126828
:1045B0000A430A4B14331A60027C012A06D1074AC7
:1045C0001C3212680A43054B1C331A60034A1268F6
:1045D00022F00102014B1A6010BD0000006600408D
:1045E0000000FFFF10B540F2026000F019FB4FF42D
:1045F000006303224821054800F013FA4FF480536A
:1046000003221821014800F00CFA10BD00080140F7
:1046100070B502464FF6FF730020146824F00204C0
:104620001460146844F00104146000E05B1E5468D8
:1046300004F001040CB9002BF8D1546804F0010413
:104640000CB9002074E00C784FF0404505EA847402
:104650004D784FF0407606EA05652C438D784FF48F
:10466000702606EA05452C43CD784FF4E00606EAAD
:1046700005552C434D896D1EC5F309052C43D461A6
:104680000C79012C04D1146844F08004146003E018
:10469000146824F0800414604C79012C04D114684F
:1046A00044F04004146003E0146824F040041460F3
:1046B0008C79012C04D1146844F02004146003E0C8
:1046C000146824F020041460CC79012C04D11468FF
:1046D00024F01004146003E0146844F01004146023
:1046E0000C7A012C04D1146824F00804146003E04F
:1046F000146844F0080414604C7A012C04D1146846
:1047000044F00404146003E0146824F0040414600A
:10471000146824F0010414604FF6FF7300E05B1E80
:10472000546804F001040CB1002BF8D103B101204E
:1047300070BD42690A434261704710B500F5D873F5
:1047400003EB01131B6803F004031372137A3BB9E4
:1047500000F5D87303EB01131B685B0D136006E0D3
:1047600000F5D87303EB01131B68DB08536000F5F9
:10477000D87303EB01131B6803F00203537200F5B7
:10478000DA7303EB01131B681B0AD37400F5DA73A9
:1047900003EB01131B6803F00F03937200F5DC7346
:1047A00003EB01131B68D37200F5DC7303EB0113F9
:1047B0001B681C0A147300F5DC7303EB01131B6800
:1047C0001C0C547300F5DC7303EB01131B681C0E07
:1047D000947300F5DE7303EB01131B68D37300F5CC
:1047E000DE7303EB01131B681C0A147400F5DE73FF
:1047F00003EB01131B681C0C547400F5DE7303EB10
:1048000001131B681C0E947421B9C36843F0200384
:10481000C36003E0036943F02003036110BD00009F
:1048200030B502460B460021906800F08060B0F180
:10483000806F00D110E0906800F00060B0F1006F70
:1048400001D1012108E0906800F08050B0F1805F54
:1048500001D1022100E00321032901D1032030BD51
:1048600002F5C07000EB0110006800F0010402F5D1
:10487000C07000EB01100460187A88B918883B4CAE
:1048800004EA40505C7A204302F5C07404EB011442
:104890002468204302F5C07404EB0114206013E087
:1048A0006FF00704586804EAC0001C7A20435C7A61
:1048B000204302F5C07404EB01142468204302F580
:1048C000C07404EB0114206002F5C27000EB01100B
:1048D000006820F00F0402F5C27000EB01100460C4
:1048E00002F5C27000EB011000689C7A204302F5CB
:1048F000C27404EB01142060987B4FF07F4404EAFB
:1049000000605C7B4FF47F0505EA044420431C7B78
:104910002D1205EA04242043DC7A204302F5C474F6
:1049200004EB01142060987C2C0404EA00605C7C99
:104930002D0205EA044420431C7C2D1205EA0424C0
:104940002043DC7B204302F5C67404EB0114206095
:1049500002F5C07000EB0110006840F0010402F5A0
:10496000C07000EB01100460084678E70000E0FF2B
:1049700010B501221146142000F0E6F810BD10B564
:10498000024609B900BFFEE732B1012A16D0022A59
:1049900020D0032A41D12EE000234B71CB718B71C3
:1049A00040F2FF334B8100230B724B7002238B705C
:1049B0000023CB700B714B720B7030E00123CB8165
:1049C00000230B740B810B804B808B80CB808B8101
:1049D0004B8124E0002005E0002401F10B031C546E
:1049E000431CD8B20828F7D300238B724B600B729C
:1049F0004B720B6013E0002005E0002401F10B0373
:104A00001C54431CD8B20828F7D300238B724B6088
:104A10000B72CB744B720B6001E000BFFEE700BF6E
:104A200010BDF0B5044616460025002201F00F0522
:104A300001F0100747B1042E05D145F00305E76BDF
:104A40001F43E76300E0354300201EE00127874055
:104A50001F40C7B122684FEA800C0F2707FA0CF7F6
:104A6000BA43870005FA07F73A43282904D10127FA
:104A700087401F40676105E0482903D1012787402F
:104A80001F4027612260471CB8B20828DED30820E7
:104A900022E0012787401F40E7B16268A0F10807C4
:104AA0004FEA870C0F2707FA0CF7BA43A0F1080763
:104AB000BF0005FA07F73A43282904D101278740A8
:104AC0001F40676105E0482903D1012787401F4047
:104AD00027616260471CB8B21028DAD3F0BD00002D
:104AE00015481649086062B600F076F9FFF784FCB5
:104AF0004FF4007012490860002048604872087244
:104B0000082088720020C872A1210D480173A221DB
:104B10004173A3218173A421C173A5210174A6212E
:104B20004174A721817406E005490648FFF778FE25
:104B3000642000F033F9F7E70040000808ED00E0DA
:104B40001C000020006400402DE9F04103460D46A2
:104B5000164600240027A0462A48006800F4E060BA
:104B6000B0F5E06F03D100BF4FF0040830E02548F6
:104B7000006800F4E060B0F5C06F03D101274FF08A
:104B8000030825E01F48006800F4E060B0F5A06F5E
:104B900002D10227B8461BE01A48006800F4E06022
:104BA000B0F5806F03D103274FF0010810E01548DE
:104BB000006800F4E060B0F5407F03D104274FF0B7
:104BC000000805E04FF4A06000F020F80227B84686
:104BD000C7F1040005FA00F4C8F104010F20C84031
:104BE0003040044324010848C45403F01F0101204D
:104BF00088405911890001F1E021C1F80001BDE8A8
:104C0000F08100000CED00E000E400E00249014307
:104C1000024A1160704700000000FA050CED00E048
:104C2000064A02EB9011096800F01F0301229A4026
:104C30001143024B03EB90121160704700100240C9
:104C4000064A02EB9011096800F01F0301229A4006
:104C50009143024B03EB9012116070470010024029
:104C6000064A02EB9011096800F01F0301229A40E6
:104C70001143024B03EB9012116070470010024089
:104C8000002000213F4A126842F480323D4B1A60F6
:104C900000BF401C3B4A126802F4003119B94FF6BC
:104CA000FF729042F5D1374A126802F400320AB915
:104CB00000BFFEE7334AD26942F08052314BDA61DD
:104CC000314A126842F440422F4B1A602D4A526812
:104CD0002C4B5A601A4652685A601A46526842F47F
:104CE00080625A601A46526822F440325A601A466C
:104CF000526842F440325A601A465268234B1A40B6
:104D0000204B5A601A465268214B1A431D4B5A6079
:104D10001A46126842F080721A6000BF194A12687F
:104D200002F00072002AF9D0174A126842F4803269
:104D3000154B1A6000BF144A526802F48032002AF0
:104D4000F9D0114A126842F400320F4B1A6000BFCA
:104D50000D4A526802F40032002AF9D0094A52681A
:104D600022F00302074B5A601A46526842F00202D0
:104D70005A6000BF034A526802F00802002AF9D0C4
:104D8000704700000010024000700040FFFFC3B7F2
:104D90000000340810B5FFF773FF10BD10B50346CF
:104DA00000F014F8014600F011F80246002400BF9C
:104DB00000F00CF802468A4201D3501A02E0C1F119
:104DC000FF30104404469C42F2D310BD01480068F5
:104DD000704700000000002010B5124800684FF432
:104DE0007A71B0FBF1F4601EB0F1807F01D3012035
:104DF0000FE0601E4FF0E02148610F214FF0FF30BF
:104E0000FFF74CFA00204FF0E0218861072008618D
:104E1000002008B100BFFEE70021481EFFF73EFA60
:104E200010BD0000040000204FF04070E1EE100AB9
:104E300070470000544E00080000002008000000E9
:104E40006C4100085C4E0008080000208808000043
:0C4E50008841000800000000000E270749
:04000005080041317D
:00000001FF
