:020000040800F2
:1040000070050020454100088F46000887460008DB
:104010008B460008C5440008A947000800000000BE
:10402000000000000000000000000000BB46000887
:104030008546000800000000B9460008BD4600089B
:104040005F4100085F4100085F4100085F410008D0
:104050005F4100085F4100085F4100085F410008C0
:104060005F4100085F4100085F4100085F410008B0
:104070005F4100085F4100085F4100085F410008A0
:104080005F4100085F410008AD4200085F41000841
:104090005F4100085F4100085F4100085F41000880
:1040A000754700085F4100085F4100085F41000854
:1040B0005F4100085F4100085F4100085F41000860
:1040C0005F4100085F4100085F4100085F41000850
:1040D0005F4100085F4100085F4100085F41000840
:1040E0005F4100085F4100085F4100085F41000830
:1040F0005F4100085F4100085F4100085F41000820
:104100005F4100085F4100085F4100085F4100080F
:104110005F4100085F4100085F4100085F410008FF
:104120005F4100085F4100085F4100085F410008EF
:10413000DFF80CD000F0A8F800480047255200082E
:10414000700500200648804706480047FEE7FEE766
:10415000FEE7FEE7FEE7FEE7FEE7FEE7FEE7FEE737
:10416000CD460008314100089FED1A1AF5EE000A0D
:1041700040EE010ABDEEE00AF5EEC00A10EE100AAC
:10418000F1EE10FA38BF401E00EE100A1349F7EEA8
:10419000001AB8EEC00A30EEC00ADFED0F0A20EEBA
:1041A000200AFCEEC00A10EE900AC0F3080000EEF0
:1041B000900A01EB8000F8EE600A90ED011A70EEB3
:1041C000600A90ED000A71EEE01A21EE800A00EE1E
:1041D000810A704783F9223E00000044A468000869
:1041E000DFED1D0AB5EEC00A60EE200ABDEEE01A52
:1041F00011EE100AF1EE10FA38BF401E00EE100A60
:10420000B8EEC00A30EEC00ADFED140A20EE200A34
:10421000B4EEE00AF1EE10FAA8BF30EE600AFCEE50
:10422000C00A0F49F7EE001A10EE900AC0F308001A
:1042300000EE900A01EB8000F8EE600A90ED011AA2
:1042400070EE600A90ED000A71EEE01A21EE800A2D
:1042500000EE810A7047000083F9223E000000440E
:10426000A468000840EA01039B0703D009E008C9DD
:10427000121F08C0042AFAD203E011F8013B00F82B
:10428000013B521EF9D27047064C074D06E0E0682C
:1042900040F0010394E8070098471034AC42F6D38D
:1042A000FFF74AFFA8700008C870000800B587B083
:1042B0009FED780A8DED060A9FED760A8DED050AD1
:1042C0009FED740A8DED040A002000900190029089
:1042D00003900421704800F0EEFB7048007800283D
:1042E00043D16F480088401C6D49088000216A480E
:1042F00000F0B4FB6B4908800121674800F0AEFB79
:10430000694908800221644800F0A8FB67490880D9
:10431000674800686349098808446549086065483A
:104320000068614909880844624908606248006879
:104330005E49098808446049086059480088B0F51A
:10434000805F11DB01205549087059480068000B57
:104350005749086057480068000B5649086056489E
:104360000068000B5449086092E000214A4800F0C0
:1043700075FB4C4908800121474800F06FFB4A4912
:1043800008800221444800F069FB484908804548FC
:10439000008800EE100AF8EE400A454890ED000A49
:1043A000B8EE400A30EEC00ADFED440A20EE200AE3
:1043B0008DED060A3C48008800EE100AF8EE400A2F
:1043C0003C4890ED000AB8EE400A30EEC00ADFED3E
:1043D0003B0A20EE200A8DED050A3348008800EEE6
:1043E000100AF8EE400A344890ED000AB8EE400A90
:1043F00030EEC00ADFED310A20EE200A8DED040A0E
:104400009DED060A2E4880ED030A9DED050A80ED1C
:10441000040A9DED040A80ED050A01F01BF8284806
:1044200090ED2D0A8DED060A06980090244890ED37
:104430002E0A8DED050A05980190214890ED2F0A6E
:104440008DED040A0498029080208DF80E007F20E4
:104450008DF80F001021684602F0D6F9184B93ED45
:104460002F0ABCEEC00A10EE103A9AB2144B93ED2C
:104470002E0ABCEEC00A10EE103A99B2104B93ED22
:104480002D0ABCEEC00A10EE103A98B200F04AFFB6
:1044900007B000BD00000000002401400000002023
:1044A0001600002010000020120000201400002040
:1044B00004000020080000200C0000200000843CC4
:1044C0007800002000BFFEE710B50122114602204F
:1044D00000F0ACF810BD10B503464FF6FF7404EAC7
:1044E000C3304FF4F04404EAC1242043C2F30A0469
:1044F000204310BD10B500224FF48061034800F046
:10450000A1FC012001F054FC10BD0000000C014092
:1045100010B501229102034800F094FC012001F043
:1045200047FC10BD000C014010B5002440F20260B1
:1045300001F086F940F2036001F082F940F2036075
:1045400001F07EF901F0C0F91023032219461F483B
:1045500000F07DFC4FF48063032210211C4800F022
:1045600076FC042303221021194800F070FC00227D
:104570004FF48061164800F065FC012210211348B9
:1045800000F060FC01220421114800F05BFC0220D5
:1045900001F00EFC002204210D4800F053FCFFF74F
:1045A000A9FFFFF7B5FFFFF78FFF032000F022F808
:1045B0000446012000F016F8012000F00BF840F24C
:1045C000FF30844201D000BFFEE710BD000801406B
:1045D000000C014010B50446A201C021062000F0E5
:1045E00025F810BD10B5044622460F21052000F025
:1045F0001DF810BD70B5044600250022214601209B
:10460000FFF769FF064600221021074800F01AFC58
:10461000304601F08DF9054601221021024800F0D4
:1046200011FCC5F30A0070BD000801402DE9F041FE
:1046300007460D4616463846FFF7DCFF0446AC43F6
:1046400034432146384600F003F8BDE8F08100000D
:1046500070B504460D462A4621460020FFF73BFF71
:10466000064600221021064800F0ECFB304601F01F
:104670005FF901221021024800F0E4FB70BD000048
:1046800000080140704700BFFEE700BFFEE770472B
:1046900010B5002807DA0A07140E054A00F00F03C8
:1046A0001B1FD45403E00A07130E024A135410BD13
:1046B00018ED00E000E400E0704770470248006831
:1046C000401C0149086070473000002008B52648AA
:1046D000006840F47000244908602448006840F0F5
:1046E00001002249086000BF2048006800F0020075
:1046F0000028F9D000BF1D48406840F080001B49E9
:1047000048600020009002E00098401C0090009853
:104710005028F9D31548406840F09000134948608C
:104720000020009002E00098401C00900098502863
:10473000F9D300BF0D48406820F003000B494860E2
:10474000084600680A490840084908604FF41F00FD
:1047500088600846006820F48020086000204860D7
:10476000C86201F021FB08BD88ED00E000100240A6
:10477000FFFFF6FE10B5202200210A4801F0B8FC28
:1047800020220121074801F0B3FC20220221054824
:1047900001F0AEFC8021034801F0C1FE022000F0D0
:1047A00019FD10BD002C014000BFFEE702E008C863
:1047B000121F08C1002AFAD170477047002001E09B
:1047C00001C1121F002AFBD17047000010B540F252
:1047D000096001F035F8012000F050FF002000F0E2
:1047E0006DF901221102224800F076F9002202211F
:1047F0001F4800F071F900211D4800F079F80322EC
:1048000002211B4800F051F800230E2219461848D7
:1048100000F0EAF800230F220121154800F0E4F827
:10482000002308220221124800F0DEF84FF48052E3
:1048300002210F4800F08FF8012202210C4800F0FD
:104840006BF802210A4800F036F90421084800F00C
:1048500032F90421064800F018F9054800F053F831
:10486000012001F0A5FA024800F00AF810BD00008E
:104870000024014010B500F087F8FFF7A7FF10BD36
:10488000816841F00801816000BF816801F0080182
:104890000029FAD1816841F00401816000BF81687C
:1048A00001F004010029FAD1704730B5012902D086
:1048B00002291AD10CE0C36A23F47003C362C36AED
:1048C000541E4FF4700505EA04542343C3620DE0FF
:1048D000836B23F440138363836B541E4FF44015A2
:1048E00005EA04542343836300E000BF00BF30BDEA
:1048F00021B1826842F40062826003E0826822F49F
:10490000006282607047816801F0010119B9816815
:1049100041F001018160704772B101F001031BB1E8
:10492000836843F48013836001F0020393B18368CA
:1049300043F4004383600DE001F001031BB1836881
:1049400023F48013836001F002031BB1836823F416
:10495000004383607047012902D0022910D107E08B
:10496000836823F46023836083681343836008E0D3
:10497000836823F4E043836083681343836000E02B
:1049800000BF00BF7047000010B540F2046000F0A7
:1049900057FF40F2046000F053FF40F2036000F064
:1049A0004FFF40F2026000F04BFF10230422002171
:1049B0000A4800F04CFA202304220021074800F0A6
:1049C00046FA012304220021054800F040FA08239A
:1049D00004220021034800F03AFA10BD0010014003
:1049E000000C014000080140F0B50C46876BC7F38E
:1049F0000156856BE71CBF1B07EB870C1F2707FAC7
:104A00000CF7BD43E71CBF1B07EB870702FA07F74C
:104A10003D4385630A2A0DD2016902EB420C072748
:104A200007FA0CF7B94302EB420703FA07F73943D9
:104A3000016112E0122A10D2C168A2F10A0707EB45
:104A4000470C072707FA0CF7B943A2F10A0707EB4F
:104A5000470703FA07F73943C160F0BD02460B462A
:104A600033B1012B06D0022B06D0032B08D105E071
:104A7000D16B07E0116C05E0516C03E0916C01E033
:104A8000002100BF00BF88B2704701F001021AB1D7
:104A9000426842F04002426001F002021AB14268EC
:104AA00042F02002426001F004021AB1426842F072
:104AB000800242607047CA43026070470549096836
:104AC00021F47021034A1160114609680143116005
:104AD0007047000004240140AAB101F480731BB1A7
:104AE000436843F48073436001F480631BB14368FF
:104AF00043F48063436001F00203CBB1836843F069
:104B00000203836014E001F480731BB1436823F453
:104B10008073436001F480631BB1436823F48063B6
:104B2000436001F002031BB1836823F0020383603A
:104B3000704700001E480078C0B31D488088B0F55B
:104B4000C86F05D21A488088401C1949888011E036
:104B5000174890ED020ADFED170AB4EEE00AF1EE15
:104B600010FA07D290ED020ADFED130A30EE200AA8
:104B700080ED020A114890ED000A0D48D0ED020ABE
:104B800030EE200A0D4880ED000A90ED000ADFEDBE
:104B90000C0AB4EEE00AF1EE10FA07DD90ED000A1F
:104BA000DFED070A30EE600A80ED000A7047000072
:104BB000440100205177D63BAB68123478000020C6
:104BC000DB0FC94070B505460C462146284600F06B
:104BD0001FF908B900BFFEE704EB8400810005F16E
:104BE0000800405840F0010104EB8400820005F108
:104BF0000800815070BD70B505460C462146284618
:104C000000F006F908B900BFFEE704EB840081005C
:104C100005F10800405820F0200104EB84008200D8
:104C200005F10800815070BD70B504460D46294657
:104C3000204600F0EDF808B900BFFEE705EB85005F
:104C4000810004F10800405820F0010105EB8500C7
:104C5000820004F108008150002105EB85008200EC
:104C600004F10800815005EB8500820004F10C007E
:104C7000815005EB8500820004F11000815005EBA6
:104C80008500820004F1140081506068AA000F21A1
:104C900091400843606070BD30B503461C688D00CC
:104CA00002FA05F52C400CB1012000E0002030BDD7
:104CB0002DE9F04104460D4616462946204600F0EF
:104CC000A7F808B900BFFEE705EB8500820004F1F4
:104CD00010003168815005EB8500820004F114005A
:104CE000B1688150308A81B205EB8500820004F101
:104CF0000C00815005EB8500810004F10800475845
:104D000027F47C57F16870680843716908430743CA
:104D100005EB8500810004F108004750307E012832
:104D20000ED105EB8500810004F10800405840F0E9
:104D3000400105EB8500820004F1080081500DE080
:104D400005EB8500810004F10800405820F0400187
:104D500005EB8500820004F108008150707E012877
:104D60000ED105EB8500810004F10800405840F0A9
:104D7000800105EB8500820004F1080081500DE000
:104D800005EB8500810004F10800405820F0800107
:104D900005EB8500820004F108008150B07E70B9F7
:104DA00005EB8500810004F10800405820F0100157
:104DB00005EB8500820004F1080081500DE005EB51
:104DC0008500810004F10800405840F0100105EB17
:104DD0008500820004F108008150BDE8F08170B5C3
:104DE00005460C462146284600F012F808B900BFD7
:104DF000FEE704EB8400810005F10800405820F430
:104E0000804104EB8400820005F10800815070BDF0
:104E100002460120034B9A4202D1042900DD002002
:104E2000704700000004024008B900BFFEE70021FF
:104E30000160416001768160C160417601618176E7
:104E4000416170470AB1016100E041617047F0B50E
:104E5000044616460025002201F00F0501F0100758
:104E600047B1042E05D145F00305E76B1F43E76307
:104E700000E0354300201EE0012787401F40C7B1F6
:104E800022684FEA800C0F2707FA0CF7BA43870015
:104E900005FA07F73A43282904D1012787401F4024
:104EA000676105E0482903D1012787401F4027613A
:104EB0002260471CB8B20828DED3082022E0012770
:104EC00087401F40E7B16268A0F108074FEA870CEE
:104ED0000F2707FA0CF7BA43A0F10807BF0005FA3D
:104EE00007F73A43282904D1012787401F4067610B
:104EF00005E0482903D1012787401F4027616260F0
:104F0000471CB8B21028DAD3F0BD0246D06808407A
:104F100008B1012070470020FCE70000F0B50A4608
:104F2000002300240021002500F00046B6F1004FC8
:104F300002D11D4EF16901E01B4E7168C0F30345BB
:104F400083B200F44016B6F5401F08D121F0E061AD
:104F5000154E766826F0E066134F7E6012E000F48E
:104F60008016B6F5801F06D1032606FA05F4A14384
:104F700041F0E06106E0460D360103FA06F6B14362
:104F800041F0E06122B1460D360103FA06F63143E5
:104F900000F00046B6F1004F02D1034EF16101E08E
:104FA000014E7160F0BD00000000014010B540F2FC
:104FB000046000F045FC40F2046000F041FC40F267
:104FC000046000F03DFC4FF4C06000F039FC0121AA
:104FD0000C48FFF7A3FF4023032204210A48FFF7F0
:104FE00036FF8023032204210748FFF730FF4FF4E8
:104FF0008073032204210448FFF729FF00F006F81C
:1050000010BD0000000C1A000010014000B587B070
:1050100040F2017000F014FC314801F005F97720EE
:10502000ADF804000020ADF80600ADF808004FF61A
:10503000FF7003900020ADF80A008DF8100001A960
:10504000274801F071F90020ADF814000320ADF8F5
:1050500016000020ADF81800ADF81A0005AA0021CE
:105060001F4801F0ADF90020ADF814000320ADF8A1
:1050700016000020ADF81800ADF81A0005AA0121AD
:10508000174801F09DF90020ADF814000320ADF899
:1050900016000020ADF81800ADF81A0005AA02218C
:1050A0000F4801F08DF940210D4801F02CFA042140
:1050B0000B4801F043FA0021094801F028F908489B
:1050C00000F0BCFE0221064801F029FA0221044842
:1050D00001F021FA024801F015F907B000BD000007
:1050E0000004004010B500221146182000F030F9ED
:1050F00002220021122000F02BF9012211461D206E
:1051000000F026F910BD90ED0A0AD0ED020A20EE5B
:10511000200AD0ED0B0A90ED011A00EEC10A80EDD5
:105120000C0A90ED0A0AD0ED010A20EE200AD0ED1B
:105130000B0A90ED021A00EE810A80ED0D0A70470D
:1051400010B540F2056000F07BFB40F2046000F017
:1051500077FB40F2026000F073FB4FF4C06000F098
:105160006FFB01211848FFF7D9FE18490B68184951
:10517000032208681021FFF76AFE14494B6814499E
:10518000032248681021FFF762FE10498B6810491E
:10519000032288681021FFF75AFE0C4A11680C4A56
:1051A00010680122FFF74EFE084A5168084A50680D
:1051B0000122FFF747FE054A9168054A90680122DF
:1051C000FFF740FE10BD0000000230002400002068
:1051D00018000020034951F82010034A52F82020FB
:1051E00051617047240000201800002070B504466B
:1051F0000A4A52F824100A4A52F82400FFF785FEA2
:10520000C0F10100C5B2054A52F82410044A52F810
:1052100024002A46FFF716FE70BD0000240000207F
:105220001800002012481349086062B600F0DEFD45
:10523000FFF786FF01F034FAFFF776F900F020F867
:1052400000F04EF89FED0C0A0C4880ED2C0A00F09F
:10525000EBF80BE00020FFF7C9FF642000F0A8FD89
:105260000120FFF7C3FF642000F0A2FDF2E7000079
:105270000040000808ED00E0CD985E457800002071
:1052800010B5FFF72FFF00F001F900F043F900F02F
:1052900005F8FFF78BFEFFF7EDFA10BD10B5002201
:1052A00002210E4800F091FF002201210B4800F07E
:1052B0008CFF00221146094800F087FF00220221DE
:1052C000064800F0CFFD00220121044800F0CAFD8D
:1052D00000221146014800F0C5FD10BD002C014020
:1052E00010B5012202210E4800F06FFF0122114685
:1052F0000B4800F06AFF01220021094800F065FF19
:1053000004220221064800F0ADFD042201210448D8
:1053100000F0A8FD04220021014800F0A3FD10BD0B
:10532000002C014070B504460D4616462246022167
:10533000064800F00AFF2A460121044800F005FF54
:1053400032460021014800F000FF70BD002C0140F2
:105350002DE9F04103460D46164600240027A046DD
:105360002A48006800F4E060B0F5E06F03D100BFA8
:105370004FF0040830E02548006800F4E060B0F524
:10538000C06F03D101274FF0030825E01F480068D4
:1053900000F4E060B0F5A06F02D10227B8461BE030
:1053A0001A48006800F4E060B0F5806F03D103276D
:1053B0004FF0010810E01548006800F4E060B0F517
:1053C000407F03D104274FF0000805E04FF4A060B0
:1053D00000F020F80227B846C7F1040005FA00F4EF
:1053E000C8F104010F20C84030400443240108489C
:1053F000C45403F01F01012088405911890001F1B4
:10540000E021C1F80001BDE8F08100000CED00E0F2
:1054100000E400E002490143024A116070470000C5
:105420000000FA050CED00E010B500F011F80120C5
:105430000549487008708870002088809FED030A35
:10544000084680ED020A10BD440100200000000063
:105450007047000010B59FED0A0A0A4880ED0A0A5D
:105460009FED090A80ED0B0AFFF764FB054800F089
:1054700017FA0448FFF747FE024800F09FFA10BDF4
:1054800000000000780000209A99993E10B540F283
:10549000026000F0D5F940F2036000F0D1F94FF45A
:1054A000C06000F0CDF94FF4806303221821174843
:1054B000FFF7CDFC4FF40073032218211348FFF7C8
:1054C000C6FC4FF48073032218211048FFF7BFFC7D
:1054D0004FF40043032218210D48FFF7B8FC4FF4A6
:1054E0008043032218210A48FFF7B1FC4FF4005310
:1054F000032218210648FFF7AAFC4FF48053032229
:1055000004210348FFF7A3FC10BD00000008014080
:10551000000C014000B58BB040F20B6000F090F938
:10552000554800F081FE0020ADF810004020ADF895
:1055300012000020ADF8140040F6A560069000208F
:10554000ADF816008DF81C0004A94B4800F0ECFEE5
:105550000120ADF820000420ADF822000020ADF8B5
:105560002400ADF82600ADF82800ADF82A0008AAFE
:105570000021414800F0C6FC08AA01213E4800F085
:10558000C1FC08AA02213C4800F0BCFC08AA032187
:10559000394800F0B7FC4FF47A720021364800F029
:1055A000D4FD60220021344800F0A2FD0822002131
:1055B000314800F0DDFD4FF47A7201212E4800F0F1
:1055C000C4FD602201212C4800F092FD0822012137
:1055D000294800F0CDFD4FF47A720221264800F0F0
:1055E000B4FD60220221244800F082FD082202213D
:1055F000214800F0BDFD0698421E03211E4800F020
:10560000A4FD602203211C4800F072FD002203214A
:10561000194800F0ADFD4FF40060ADF800004010F7
:10562000ADF80200B820ADF804000020ADF8060087
:105630004FF48040ADF808000020ADF80A004FF4A8
:105640008050ADF80C0069460B4800F0FCFB0121CE
:10565000094800F067FF0121074800F05CFF802146
:10566000054800F058FF1021034800F054FF02489D
:1056700000F048FE0BB000BD002C0140184B5968EB
:10568000184B1940164BDA6A22F000520C2820D22F
:10569000DFE800F0060708091F0C1F0D1516171884
:1056A00000BF00BF00BF41EA803113E000BF20F01F
:1056B00004004FF0805343EA803319430AE000BFEF
:1056C00000BF00BF20F00C0041EA803142F00052E0
:1056D00000E000BF00BF024B5960DA627047000073
:1056E00000100240FF3FFFEF2DE9F04F8CB007465E
:1056F00000200A904AA090E8004CC068CDE905BEA1
:10570000CDF810A007900FF21C1ADAE9000ACDE9D3
:10571000020A0FF2101ADAE9000ACDE9000A444839
:105720004068C0F381000B900B9820B1012804D091
:1057300002283FD103E03F4A3EE03E4A3CE03C487D
:10574000406800F4803CBCF5803F12D13848C06A04
:1057500000F08048B8F1000F01D1364B00E0364B25
:105760003348406800F40039B9F5003F02D15B08C6
:1057700000E0324B2E484068C0F383412C4840681B
:1057800000F0006008B141F010012948406800F0C5
:10579000804008B141F020010F2901D2891C06E0A8
:1057A0000F2903D33E2901D8491C00E03F2103FB08
:1057B00001F201E01F4A00BF00BF1D484068C0F36E
:1057C000031504A8465D22FA06F419484068C0F3A0
:1057D000022502A8465D24FA06F0099014484068A4
:1057E000C0F3C2251DF8056024FA06F0089037B111
:1057F000012F06D0022F06D0032F0AD106E00A920D
:1058000008E00A9406E009980A9003E008980A90D4
:1058100000E000BF00BF0A980CB0BDE8F08F0000A8
:105820000000000000000000010203040607080950
:105830000010024000127A00006CDC0200093D00FA
:10584000064A02EB9011096800F01F0301229A40FA
:105850001143024B03EB901211607047001002409D
:10586000064A02EB9011096800F01F0301229A40DA
:105870009143024B03EB90121160704700100240FD
:10588000064A02EB9011096800F01F0301229A40BA
:105890001143024B03EB901211607047001002405D
:1058A00010B50446D4ED000AB0EE600AFEF798FC8D
:1058B00084ED010AD4ED000AB0EE600AFEF754FC54
:1058C00084ED020A10BD000000B587B040F202600E
:1058D000FFF7B6FF40F20C60FFF7B2FFA0230322F0
:1058E00018211148FFF7B3FA4023032204210E4880
:1058F000FFF7ADFA002001904FF4827000904FF452
:10590000006002900120059040020390282006903C
:10591000002004906946054800F037F8034800F07D
:1059200021F807B000BD0000000801400030014030
:1059300010B5044600BF0221094800F01EF80028F7
:10594000F9D02146064800F016F800BF01210448AE
:1059500000F013F80028F9D0014800F008F810BD55
:1059600000300140016841F040010160704701468C
:10597000C86880B27047C1607047024690680840AE
:1059800008B1012070470020FCE7024600201068A3
:1059900000F441500B6818434B6818438B68184358
:1059A000CB6818430B6918434B6918438B6918433C
:1059B0001060D36923F40063D36170479FEDB34A4D
:1059C000B0EE442A9FEDB14AF0EE442A9FEDAF4A73
:1059D000F0EE443A9FEDAD4AB0EE440A9FEDAB4A7B
:1059E000F0EE440A9FEDA94AB0EE441A9FEDA74A93
:1059F000F0EE441A9FEDA54AB0EE443A90ED0D4A00
:105A0000B0EE442A90ED0D4AF1EE444AB0EE005A51
:105A100084EE854AD0ED0C4A9FED9D5A05EE244A4E
:105A2000F0EE442A90ED0D4AF1EE444AB0EE005AF1
:105A300084EE854AD0ED0C4A9FED955A05EE644AF6
:105A4000F0EE443AF5EEC03AF1EE10FA7DDDF5EEF7
:105A5000C02AF1EE10FA29DD052180F8C01090ED82
:105A60002C4A24EE224AB0EE440A90ED2C4A24EE51
:105A7000234AF0EE440A90ED2C4A34EE404A34EECC
:105A8000604AF0EE004A84EE245AB0EE451A31EE38
:105A9000004AF0EE441A31EEA04AB0EE443AC0EDAE
:105AA0002D1A80ED2E1A80ED2F3AEDE0B5EEC02ACA
:105AB000F1EE10FA29DD032180F8C01090ED2C4A98
:105AC00024EE234AB0EE440A90ED2C4A24EE024A1A
:105AD000F0EE440A90ED2C4A34EE404A34EE604A2F
:105AE000F0EE004A84EE245AB0EE451A31EE004A38
:105AF000F0EE441A31EEA04AB0EE443A80ED2D1A91
:105B000080ED2E3AC0ED2F1ABEE0042180F8C010BF
:105B100090ED2C4AF1EE624A24EE244AB0EE440A9B
:105B200090ED2C4AF1EE424A24EE244AF0EE440A6B
:105B300090ED2C4A34EE404A34EE604AF0EE004AD2
:105B400084EE245AB0EE451A00E00EE031EE004A31
:105B5000F0EE441A31EEA04AB0EE443A80ED2D1A30
:105B6000C0ED2E1A80ED2F3A8EE0F5EEC02AF1EE50
:105B700010FA5CDDB5EEC02AF1EE10FA29DD012144
:105B800080F8C01090ED2C4A24EE024AB0EE440A90
:105B900090ED2C4A24EE224AF0EE440A90ED2C4A75
:105BA00034EE404A34EE604AF0EE004A84EE245A65
:105BB000B0EE451A31EE004AF0EE441A31EEA04A3A
:105BC000B0EE443A80ED2D3AC0ED2E1A80ED2F1A3A
:105BD0005AE0062180F8C01090ED2C4AF1EE424ABE
:105BE00024EE244AB0EE440A90ED2C4AF1EE634ACA
:105BF00024EE244AF0EE440A90ED2C4A34EE404A5A
:105C000034EE604AF0EE004A84EE245AB0EE451AB3
:105C100031EE004AF0EE441A31EEA04AB0EE443ABA
:105C200080ED2D3A80ED2E1AC0ED2F1A2CE00221C6
:105C300080F8C01090ED2C4AF1EE634A24EE244A1D
:105C4000B0EE440A90ED2C4AF1EE624A24EE244A6A
:105C5000F0EE440A90ED2C4A34EE404A34EE604AAD
:105C6000F0EE004A84EE245AB0EE451A31EE004AB6
:105C7000F0EE441A31EEA04AB0EE443AC0ED2D1ACF
:105C800080ED2E3A80ED2F1A7047000000000000D2
:105C9000D7B35D3F002000213F4A126842F48032B2
:105CA0003D4B1A6000BF401C3B4A126802F40031B1
:105CB00019B94FF6FF729042F5D1374A126802F4D3
:105CC00000320AB900BFFEE7334AD26942F080527F
:105CD000314BDA61314A126842F440422F4B1A606C
:105CE0002D4A52682C4B5A601A4652685A601A461E
:105CF000526842F480625A601A46526822F4403276
:105D00005A601A46526842F440325A601A46526843
:105D1000234B1A40204B5A601A465268214B1A43B3
:105D20001D4B5A601A46126842F080721A6000BF1A
:105D3000194A126802F00072002AF9D0174A126854
:105D400042F48032154B1A6000BF144A526802F4C4
:105D50008032002AF9D0114A126842F400320F4B07
:105D60001A6000BF0D4A526802F40032002AF9D0CE
:105D7000094A526822F00302074B5A601A465268D9
:105D800042F002025A6000BF034A526802F0080261
:105D9000002AF9D070470000001002400070004057
:105DA000FFFFC3B70000340810B5FFF773FF10BD45
:105DB00010B5034600F014F8014600F011F8024651
:105DC000002400BF00F00CF802468A4201D3501AAA
:105DD00002E0C1F1FF30104404469C42F2D310BDF2
:105DE00001480068704700003000002010B51248DC
:105DF00000684FF47A71B0FBF1F4601EB0F1807F5F
:105E000001D301200FE0601E4FF0E02148610F2117
:105E10004FF0FF30FEF73CFC00204FF0E02188619E
:105E200007200861002008B100BFFEE70021481EDE
:105E3000FEF72EFC10BD000034000020016841F088
:105E40008001016070470A884B881A438B881A4387
:105E5000CB881A430B891A434B891A438B891A43FF
:105E60004264704721B101290AD002291AD110E0F9
:105E7000036A23F004030362036A1343036212E01C
:105E8000036A23F040030362036A43EA02130362D6
:105E900009E0036A23F480630362036A43EA02238E
:105EA000036200E000BF00BF704731B101290CD090
:105EB000022913D0032922D118E0836923F00C03AF
:105EC00083618369134383611AE0836923F4406328
:105ED0008361836943EA0223836111E0C36923F08C
:105EE0000C03C361C3691343C36109E0C36923F4AD
:105EF0004063C361C36943EA0223C36100E000BF9A
:105F000000BF704710B531B101293FD002297DD0C3
:105F100003297CD1BFE0036A23F001030362836994
:105F200023F003038361036A148823430362036A33
:105F300023F002030362036A9488234303626A4BDB
:105F4000984202D0694B98421FD1036A23F00403A0
:105F50000362036A548823430362036A23F008033D
:105F60000362036AD48823430362436823F4807383
:105F700043604368148923434360436823F40073F8
:105F800043604368548923434360ABE0036A23F0D2
:105F900010030362836923F440738361036A1488E6
:105FA00043EA04130362036A23F020030362036AD3
:105FB000948843EA041303624B4B984202D04B4B44
:105FC000984226D1036A23F040030362036A54888F
:105FD00043EA04130362036A23F080030362036A43
:105FE000D48843EA04130362436823F48063436064
:105FF0004368148943EA84034360436823F40063DD
:1060000043604368548943EA840301E002E068E0A6
:10601000436067E0036A23F480730362C36923F07B
:106020000303C361036A148843EA04230362036A17
:1060300023F400730362036A948843EA042303622F
:10604000294B984202D0294B984223D1036A23F46A
:1060500080630362036A548843EA04230362036A89
:1060600023F400630362036AD48843EA04230362CF
:10607000436823F4805343604368148943EA04135C
:106080004360436823F4005343604368548943EA00
:106090000413436026E0036A23F480530362C36958
:1060A00023F44073C361036A148843EA0433036230
:1060B000036A23F400530362036A948843EA0433B7
:1060C0000362094B984202D0084B984208D14368BA
:1060D00023F4804343604368148943EA8413436094
:1060E00000E000BF00BF10BD002C014000340140A3
:1060F00031B101290CD0022913D0032922D118E093
:10610000836923F0700383618369134383611AE019
:10611000836923F4E0438361836943EA0223836153
:1061200011E0C36923F07003C361C3691343C36102
:1061300009E0C36923F4E043C361C36943EA02236E
:10614000C36100E000BF00BF704731B1012906D034
:10615000022906D0032908D105E0426306E08263E4
:1061600004E0C26302E0026400E000BF00BF7047C9
:1061700031B101290CD0022913D0032922D118E012
:10618000836923F0080383618369134383611AE001
:10619000836923F400638361836943EA0223836193
:1061A00011E0C36923F00803C361C3691343C361EA
:1061B00009E0C36923F40063C361C36943EA0223AE
:1061C000C36100E000BF00BF704731B101290CD0AE
:1061D000022913D0032923D119E0036A23F0010314
:1061E0000362036A134303621BE0036A23F0100394
:1061F0000362036A43EA0213036212E0036A23F4B0
:1062000080730362036A43EA0223036209E0036ABC
:1062100023F480530362036A43EA0233036200E01B
:1062200000BF00BF7047000010B504463349601A34
:106230008C4244D00CDCB4F1804F1CD03048204458
:1062400010B3B0F5806F28D0B0F5006F52D12DE0BB
:10625000B0F5806F3CD0B0F58E3F03D0B0F5923FE3
:1062600048D13EE040F20B30FFF70AFB40F20B3022
:10627000FFF7F6FA3FE04FF48060FFF701FB4FF4C1
:106280008060FFF7EDFA36E040F20140FFF7F8FAE0
:1062900040F20140FFF7E4FA2DE040F20240FFF740
:1062A000EFFA40F20240FFF7DBFA24E040F203404D
:1062B000FFF7E6FA40F20340FFF7D2FA1BE040F2A4
:1062C0000440FFF7DDFA40F20440FFF7C9FA12E09C
:1062D00040F20540FFF7D4FA40F20540FFF7C0FA5C
:1062E00009E040F20D30FFF7CBFA40F20D30FFF736
:1062F000B7FA00E000BF00BF10BD00000010004072
:1063000000FCFFBF016841F001010160704721B945
:10631000426842F08002426005E0012903D14268F0
:1063200022F08002426070470A8882621D4A9042D1
:106330000ED0B0F1804F0BD01B4A904208D01B4AC0
:10634000904205D01A4A904202D01A4A90420BD18C
:10635000026822F07002026002684B881A430260F1
:1063600002688B881A4302608A68C262124A9042AD
:106370000AD0124A904207D0026822F440720260AA
:106380000268CB881A430260064A904202D0094A4A
:10639000904201D10A7B0263426942F001024261EC
:1063A00070470000002C014000040040000800403D
:1063B000000C004000340140001000400014004078
:1063C00070B504460E46154636B1012E26D0022E73
:1063D00048D0032E7DD168E0206A20F001002062C1
:1063E000206A20F00A002062206A2988084320627F
:1063F000A06920F00300A061A06969880843A0613A
:10640000A06920F0F000A061A069E98840EA0110CD
:10641000A061206A40F0010020626DE0206A20F057
:1064200010002062206A20F0A0002062206A2988E3
:1064300040EA01102062A06920F44070A061A069C8
:10644000698840EA0120A061A06920F47040A06141
:10645000A069E98840EA0130A061206A40F010009C
:10646000206249E0206A20F480702062206A20F4D3
:1064700020602062206A298840EA01202062E069C9
:1064800020F00300E061E06969880843E061E069A9
:1064900020F0F000E061E069E98840EA0110E06185
:1064A000206A40F48070206226E0206A20F4805048
:1064B0002062206A20F400502062206A298840EA85
:1064C00001302062E06920F44070E061E069698891
:1064D00000E010E040EA0120E061E06920F4704053
:1064E000E061E069E98840EA0130E061206A40F457
:1064F0008050206200E000BF00BFAA8831462046DD
:10650000FFF7D3FC70BD826822F07002826082685F
:106510000A4382607047C2680A43C2607047CA4338
:1065200002617047012904D1426C42F40042426486
:1065300003E0426C22F4004242647047826822F019
:106540000702826082680A43826070472DE9F04743
:1065500004460D460027B846B94600261D49601A74
:106560008C421CD006DC1C48204470B1B0F5806F12
:106570001FD10FE0B0F5806F16D0B0F56C4F18D179
:106580000320FFF7B1F8074614E00220FFF7ACF84C
:1065900007460FE00220FFF7A7F807460AE00220AF
:1065A000FFF7A2F8074605E00220FFF79DF807462F
:1065B00000E000BF00BF07EB5500B0FBF5F64FF65B
:1065C000F07006EA000806F00F0948EA0900A0602A
:1065D000BDE8F087004C004000BCFFBF10B504468A
:1065E0002049601A8C4228D006DC1F48204490B114
:1065F000B0F5806F33D117E0B0F5806F26D0B0F5DD
:106600006C4F2CD140F20E30FFF73AF940F20E30C9
:10661000FFF726F924E040F21140FFF731F940F28C
:106620001140FFF71DF91BE040F21240FFF728F977
:1066300040F21240FFF714F912E040F21340FFF766
:106640001FF940F21340FFF70BF909E040F2144044
:10665000FFF716F940F21440FFF702F900E000BF1F
:1066600000BF10BD004C004000BCFFBF426922F0DB
:1066700040024261426901F040031A43426170479F
:10668000426922F080024261426901F080031A43AC
:1066900042617047C16841F40051C1607047000019
:1066A00000B587B040F20460FFF7CAF84FF4A0606D
:1066B000FFF7C6F840F21270FFF7C2F84FF4C0605F
:1066C000FFF7BEF801214548FEF728FC4FF4806330
:1066D000032218214248FEF7BAFB4FF4006303225D
:1066E00004213F48FEF7B3FB3E48FFF777FF4FF426
:1066F00061213C48FFF72AFF04213A4800F07AF86C
:106700000821384800F0C4F83648FFF7C3FF0121DC
:106710003548FEF789FA6846FEF786FB01208DF8BA
:106720001A003248029001208DF8190000200390D1
:10673000202004902B48001D009000208DF81800A8
:1067400001904FF4405005906A4601212648FEF71B
:10675000AFFA02212448FEF767FA6846FEF764FBA9
:1067600000208DF81A002248029001208DF81900AF
:1067700000200390202004901A48001D0090002063
:106780008DF8180001904FF4405005906A460221A0
:106790001548FEF78DFA01211348FEF72CFA012166
:1067A0001148FEF71CFB02210F48FEF724FA0221D4
:1067B0000D48FEF714FB40210A48FFF757FF01215F
:1067C0000948FEF7FFF980210648FFF759FF02212B
:1067D0000548FEF7F7F907B000BD000010001400EF
:1067E0000010014000480040000002405800002016
:1067F00038000020C26822F00402C260C26801F0C2
:1068000004031A43C260704730B587B005460C4692
:10681000202C34D2022201211A48FEF73DFA012829
:106820002DD1224629461848FDF71CFD01211548A7
:10683000FEF7FAF96846FEF7F7FA01208DF81A001C
:106840001148029001208DF8190000200390049453
:106850000E48009000208DF8180001904FF4405031
:1068600005906A4601210748FEF722FA01210548F2
:10687000FEF7C1F901210348FEF7A4F900BF07B0F4
:1068800030BD0000000002405800002004480040D5
:10689000C26822F00802C260C26801F008031A430D
:1068A000C260704700000000920E493CB10AC93C2A
:1068B0002BC3163D2EFB483D752B7B3D04A9963D11
:1068C00080B6AF3D36BDC83D2FBCE13D73B2FA3D49
:1068D00087CF093E8340163EB5AB223EA2102F3E25
:1068E000CF6E3B3EC2C5473E0115543E135C603E31
:1068F0007F9A6C3ECCCF783EC07D823E938E883EA0
:10690000229A8E3E32A0943E86A09A3EE59AA03E00
:10691000128FA63ED47CAC3EEF63B23E2A44B83E12
:10692000491DBE3E15EFC33E53B9C93ECA7BCF3E9B
:106930004136D53E80E8DA3E4F92E03E7533E63E82
:10694000BBCBEB3EEA5AF13ECBE0F63E275DFC3E88
:10695000E4E7003F3D9C033F824B063F9BF5083F29
:106960006B9A0B3FDA390E3FCDD3103F2A68133FA5
:10697000D9F6153FC07F183FC6021B3FD17F1D3F90
:10698000CBF61F3F9967223F25D2243F5636273F3B
:106990001594293F4AEB2B3FDE3B2E3FBB85303F12
:1069A000C9C8323FF304353F233A373F4268393F85
:1069B0003B8F3B3FF9AE3D3F67C73F3F70D8413FFC
:1069C00001E2433F03E4453F65DE473F12D1493FC3
:1069D000F8BB4B3F029F4D3F207A4F3F3D4D513F0B
:1069E0004918533F31DB543FE595563F5348583FD4
:1069F0006AF2593F1A945B3F532D5D3F05BE5E3FDF
:106A00002146603F97C5613F5A3C633F59AA643FA6
:106A1000880F663FD86B673F3CBF683FA7096A3F56
:106A20000C4B6B3F5E836C3F93B26D3F9ED86E3FC5
:106A300073F56F3F0809713F5213723F4714733F5C
:106A4000DD0B743F0BFA743FC6DE753F07BA763F25
:106A5000C58B773FF853783F9812793F9DC7793FB0
:106A600002737A3FBE147B3FCDAC7B3F283B7C3F1B
:106A7000C9BF7C3FAC3A7D3FCCAB7D3F23137E3F0B
:106A8000B0707E3F6DC47E3F580E7F3F6D4E7F3F9E
:106A9000AB847F3F0FB17F3F97D37F3F43EC7F3F76
:106AA00011FB7F3F0000803F11FB7F3F43EC7F3FA6
:106AB00097D37F3F0FB17F3FAB847F3F6D4E7F3FCA
:106AC000580E7F3F6DC47E3FB0707E3F23137E3FE4
:106AD000CCAB7D3FAC3A7D3FC9BF7C3F283B7C3F80
:106AE000CDAC7B3FBE147B3F02737A3F9DC7793F9D
:106AF0009812793FF853783FC58B773F07BA763FB6
:106B0000C6DE753F0BFA743FDD0B743F4714733FCD
:106B10005213723F0809713F73F56F3F9ED86E3F65
:106B200093B26D3F5E836C3F0C4B6B3FA7096A3F8E
:106B30003CBF683FD86B673F880F663F59AA643FE8
:106B40005A3C633F97C5613F2146603F05BE5E3FAB
:106B5000532D5D3F1A945B3F6AF2593F5348583FAB
:106B6000E595563F31DB543F4918533F3D4D513F6A
:106B7000207A4F3F029F4D3FF8BB4B3F12D1493F18
:106B800065DE473F03E4453F01E2433F70D8413FA4
:106B900067C73F3FF9AE3D3F3B8F3B3F4268393FC0
:106BA000233A373FF304353FC9C8323FBB85303FF6
:106BB000DE3B2E3F4AEB2B3F1594293F5636273FAD
:106BC00025D2243F9967223FCBF61F3FD17F1D3F3F
:106BD000C6021B3FC07F183FD9F6153F2A68133FF6
:106BE000CDD3103FDA390E3F6B9A0B3F9BF5083F30
:106BF000824B063F3D9C033FE4E7003F275DFC3EA0
:106C0000CBE0F63EEA5AF13EBBCBEB3E7533E63EB7
:106C10004F92E03E80E8DA3E4136D53ECA7BCF3E19
:106C200053B9C93E15EFC33E491DBE3E2A44B83E86
:106C3000EF63B23ED47CAC3E128FA63EE59AA03EF6
:106C400086A09A3E32A0943E229A8E3E938E883E33
:106C5000C07D823ECCCF783E7F9A6C3E135C603E16
:106C60000115543EC2C5473ECF6E3B3EA2102F3E9B
:106C7000B5AB223E8340163E87CF093E73B2FA3D44
:106C80002FBCE13D36BDC83D80B6AF3D04A9963D61
:106C9000752B7B3D2EFB483D2BC3163DB10AC93CED
:106CA000920E493C00000000920E49BCB10AC9BCDA
:106CB0002BC316BD2EFB48BD752B7BBD04A996BD0D
:106CC00080B6AFBD36BDC8BD2FBCE1BD73B2FABD45
:106CD00087CF09BE834016BEB5AB22BEA2102FBE21
:106CE000CF6E3BBEC2C547BE011554BE135C60BE2D
:106CF0007F9A6CBECCCF78BEC07D82BE938E88BE9C
:106D0000229A8EBE32A094BE86A09ABEE59AA0BEFC
:106D1000128FA6BED47CACBEEF63B2BE2A44B8BE0E
:106D2000491DBEBE15EFC3BE53B9C9BECA7BCFBE97
:106D30004136D5BE80E8DABE4F92E0BE7533E6BE7E
:106D4000BBCBEBBEEA5AF1BECBE0F6BE275DFCBE84
:106D5000E4E700BF3D9C03BF824B06BF9BF508BF25
:106D60006B9A0BBFDA390EBFCDD310BF2A6813BFA1
:106D7000D9F615BFC07F18BFC6021BBFD17F1DBF8C
:106D8000CBF61FBF996722BF25D224BF563627BF37
:106D9000159429BF4AEB2BBFDE3B2EBFBB8530BF0E
:106DA000C9C832BFF30435BF233A37BF426839BF81
:106DB0003B8F3BBFF9AE3DBF67C73FBF70D841BFF8
:106DC00001E243BF03E445BF65DE47BF12D149BFBF
:106DD000F8BB4BBF029F4DBF207A4FBF3D4D51BF07
:106DE000491853BF31DB54BFE59556BF534858BFD0
:106DF0006AF259BF1A945BBF532D5DBF05BE5EBFDB
:106E0000214660BF97C561BF5A3C63BF59AA64BFA2
:106E1000880F66BFD86B67BF3CBF68BFA7096ABF52
:106E20000C4B6BBF5E836CBF93B26DBF9ED86EBFC1
:106E300073F56FBF080971BF521372BF471473BF58
:106E4000DD0B74BF0BFA74BFC6DE75BF07BA76BF21
:106E5000C58B77BFF85378BF981279BF9DC779BFAC
:106E600002737ABFBE147BBFCDAC7BBF283B7CBF17
:106E7000C9BF7CBFAC3A7DBFCCAB7DBF23137EBF07
:106E8000B0707EBF6DC47EBF580E7FBF6D4E7FBF9A
:106E9000AB847FBF0FB17FBF97D37FBF43EC7FBF72
:106EA00011FB7FBF000080BF11FB7FBF43EC7FBFA2
:106EB00097D37FBF0FB17FBFAB847FBF6D4E7FBFC6
:106EC000580E7FBF6DC47EBFB0707EBF23137EBFE0
:106ED000CCAB7DBFAC3A7DBFC9BF7CBF283B7CBF7C
:106EE000CDAC7BBFBE147BBF02737ABF9DC779BF99
:106EF000981279BFF85378BFC58B77BF07BA76BFB2
:106F0000C6DE75BF0BFA74BFDD0B74BF471473BFC9
:106F1000521372BF080971BF73F56FBF9ED86EBF61
:106F200093B26DBF5E836CBF0C4B6BBFA7096ABF8A
:106F30003CBF68BFD86B67BF880F66BF59AA64BFE4
:106F40005A3C63BF97C561BF214660BF05BE5EBFA7
:106F5000532D5DBF1A945BBF6AF259BF534858BFA7
:106F6000E59556BF31DB54BF491853BF3D4D51BF66
:106F7000207A4FBF029F4DBFF8BB4BBF12D149BF14
:106F800065DE47BF03E445BF01E243BF70D841BFA0
:106F900067C73FBFF9AE3DBF3B8F3BBF426839BFBC
:106FA000233A37BFF30435BFC9C832BFBB8530BFF2
:106FB000DE3B2EBF4AEB2BBF159429BF563627BFA9
:106FC00025D224BF996722BFCBF61FBFD17F1DBF3B
:106FD000C6021BBFC07F18BFD9F615BF2A6813BFF2
:106FE000CDD310BFDA390EBF6B9A0BBF9BF508BF2C
:106FF000824B06BF3D9C03BFE4E700BF275DFCBE9C
:10700000CBE0F6BEEA5AF1BEBBCBEBBE7533E6BEB3
:107010004F92E0BE80E8DABE4136D5BECA7BCFBE15
:1070200053B9C9BE15EFC3BE491DBEBE2A44B8BE82
:10703000EF63B2BED47CACBE128FA6BEE59AA0BEF2
:1070400086A09ABE32A094BE229A8EBE938E88BE2F
:10705000C07D82BECCCF78BE7F9A6CBE135C60BE12
:10706000011554BEC2C547BECF6E3BBEA2102FBE97
:10707000B5AB22BE834016BE87CF09BE73B2FABD40
:107080002FBCE1BD36BDC8BD80B6AFBD04A996BD5D
:10709000752B7BBD2EFB48BD2BC316BDB10AC9BCE9
:1070A000920E49BC00000080C8700008000000205B
:1070B00038000000AC4700080071000838000020CC
:1070C00038050000BC470008000000000000000078
:1070D00000000000000000000000000000000000B0
:1070E00000140140001001400008014004000000AD
:1070F000001000000080000000000000000E2707C4
:04000005080041317D
:00000001FF
