Component: ARM Compiler 5.06 update 6 (build 750) Tool: armlink [4d35ed]

==============================================================================

Section Cross References

    main.o(i.ADC0_1_IRQHandler) refers to gd32f30x_adc.o(i.adc_interrupt_flag_clear) for adc_interrupt_flag_clear
    main.o(i.TIMER0_BRK_IRQHandler) refers to gd32f30x_timer.o(i.timer_channel_output_mode_config) for timer_channel_output_mode_config
    main.o(i.TIMER0_BRK_IRQHandler) refers to gd32f30x_timer.o(i.timer_interrupt_flag_clear) for timer_interrupt_flag_clear
    main.o(i.TIMER0_BRK_IRQHandler) refers to led.o(i.led_on) for led_on
    main.o(i.TIMER0_Channel_IRQHandler) refers to gd32f30x_timer.o(i.timer_interrupt_flag_clear) for timer_interrupt_flag_clear
    main.o(i.TIMER0_Channel_IRQHandler) refers to gd32f30x_adc.o(i.adc_inserted_data_read) for adc_inserted_data_read
    main.o(i.TIMER0_Channel_IRQHandler) refers to bldc_hall.o(i.bldc_mainfunction) for bldc_mainfunction
    main.o(i.TIMER0_Channel_IRQHandler) refers to uart.o(i.usart_send_data) for usart_send_data
    main.o(i.TIMER0_Channel_IRQHandler) refers to main.o(.data) for adc1_ia
    main.o(i.TIMER0_Channel_IRQHandler) refers to main.o(.bss) for uart_data
    main.o(i.main) refers to systick.o(i.systick_init) for systick_init
    main.o(i.main) refers to led.o(i.led_init) for led_init
    main.o(i.main) refers to uart.o(i.usart_init) for usart_init
    main.o(i.main) refers to encoder.o(i.encoder_init) for encoder_init
    main.o(i.main) refers to key_fifo.o(i.key_fifo_init) for key_fifo_init
    main.o(i.main) refers to drv8323rs.o(i.DRV8323RS_init) for DRV8323RS_init
    main.o(i.main) refers to motor_hardware.o(i.motor_hardware_init) for motor_hardware_init
    main.o(i.main) refers to gd32f30x_timer.o(i.timer_enable) for timer_enable
==============================================================================

Removing Unused input sections from the image.

    Removing gd32f30x_it.o(.rev16_text), (4 bytes).
    Removing gd32f30x_it.o(.revsh_text), (4 bytes).
    Removing main.o(.rev16_text), (4 bytes).
    Removing main.o(.revsh_text), (4 bytes).
    Removing motor_hardware.o(.rev16_text), (4 bytes).
    Removing motor_hardware.o(.revsh_text), (4 bytes).
    Removing motor_hardware.o(i.comp_protect_init), (76 bytes).
    Removing motor_hardware.o(i.hall_get), (52 bytes).
    Removing adc_simple.o(.rev16_text), (4 bytes).
    Removing adc_simple.o(.revsh_text), (4 bytes).
    Removing adc_simple.o(i.adc1_init), (132 bytes).
    Removing adc_simple.o(i.adc_get_ntc), (56 bytes).
    Removing adc_simple.o(i.adc_get_vdc), (56 bytes).
    Removing can.o(.rev16_text), (4 bytes).
    Removing can.o(.revsh_text), (4 bytes).
    Removing can.o(i.can_bus_init), (28 bytes).
    Removing can.o(i.can_config), (160 bytes).
    Removing can.o(i.can_gpio_config), (44 bytes).
==============================================================================

Image Symbol Table

    Local Symbols

    Symbol Name                              Value     Ov Type        Size  Object(Section)

    ../clib/microlib/init/entry.s            0x00000000   Number         0  entry10a.o ABSOLUTE
    ../clib/microlib/init/entry.s            0x00000000   Number         0  entry7b.o ABSOLUTE
    ../clib/microlib/init/entry.s            0x00000000   Number         0  entry7a.o ABSOLUTE
    ../clib/microlib/init/entry.s            0x00000000   Number         0  entry5.o ABSOLUTE
    ../clib/microlib/init/entry.s            0x00000000   Number         0  entry2.o ABSOLUTE
    ../clib/microlib/init/entry.s            0x00000000   Number         0  entry.o ABSOLUTE
    ../clib/microlib/init/entry.s            0x00000000   Number         0  entry9b.o ABSOLUTE
    ../clib/microlib/init/entry.s            0x00000000   Number         0  entry9a.o ABSOLUTE
    ../clib/microlib/init/entry.s            0x00000000   Number         0  entry8b.o ABSOLUTE
    ../clib/microlib/init/entry.s            0x00000000   Number         0  entry8a.o ABSOLUTE
    ../clib/microlib/init/entry.s            0x00000000   Number         0  entry10b.o ABSOLUTE
    ../clib/microlib/init/entry.s            0x00000000   Number         0  entry11a.o ABSOLUTE
    ../clib/microlib/init/entry.s            0x00000000   Number         0  entry11b.o ABSOLUTE
    ../clib/microlib/string/memcpy.c         0x00000000   Number         0  memcpyb.o ABSOLUTE
    ../clib/microlib/string/memcpy.c         0x00000000   Number         0  memcpya.o ABSOLUTE
    ..\BLDC\bldc_hall.c                      0x00000000   Number         0  bldc_hall.o ABSOLUTE
    ..\BLDC\pid.c                            0x00000000   Number         0  pid.o ABSOLUTE
    ..\LCD\lcd.c                             0x00000000   Number         0  lcd.o ABSOLUTE
    ..\LCD\lcd_init.c                        0x00000000   Number         0  lcd_init.o ABSOLUTE
    ..\Libraries\CMSIS\GD\GD32F30x\Source\ARM\startup_gd32f30x_hd.s 0x00000000   Number         0  startup_gd32f30x_hd.o ABSOLUTE
    ..\Libraries\CMSIS\GD\GD32F30x\Source\system_gd32f30x.c 0x00000000   Number         0  system_gd32f30x.o ABSOLUTE
    ..\Libraries\GD32F30x_standard_peripheral\Source\gd32f30x_adc.c 0x00000000   Number         0  gd32f30x_adc.o ABSOLUTE
    ..\Libraries\GD32F30x_standard_peripheral\Source\gd32f30x_bkp.c 0x00000000   Number         0  gd32f30x_bkp.o ABSOLUTE
    ..\Libraries\GD32F30x_standard_peripheral\Source\gd32f30x_can.c 0x00000000   Number         0  gd32f30x_can.o ABSOLUTE
    ..\Libraries\GD32F30x_standard_peripheral\Source\gd32f30x_crc.c 0x00000000   Number         0  gd32f30x_crc.o ABSOLUTE
    ..\Libraries\GD32F30x_standard_peripheral\Source\gd32f30x_ctc.c 0x00000000   Number         0  gd32f30x_ctc.o ABSOLUTE
    ..\Libraries\GD32F30x_standard_peripheral\Source\gd32f30x_dac.c 0x00000000   Number         0  gd32f30x_dac.o ABSOLUTE
    ..\Libraries\GD32F30x_standard_peripheral\Source\gd32f30x_dbg.c 0x00000000   Number         0  gd32f30x_dbg.o ABSOLUTE
    ..\Libraries\GD32F30x_standard_peripheral\Source\gd32f30x_dma.c 0x00000000   Number         0  gd32f30x_dma.o ABSOLUTE
    ..\Libraries\GD32F30x_standard_peripheral\Source\gd32f30x_enet.c 0x00000000   Number         0  gd32f30x_enet.o ABSOLUTE
    ..\Libraries\GD32F30x_standard_peripheral\Source\gd32f30x_exmc.c 0x00000000   Number         0  gd32f30x_exmc.o ABSOLUTE
    ..\Libraries\GD32F30x_standard_peripheral\Source\gd32f30x_exti.c 0x00000000   Number         0  gd32f30x_exti.o ABSOLUTE
    ..\Libraries\GD32F30x_standard_peripheral\Source\gd32f30x_fmc.c 0x00000000   Number         0  gd32f30x_fmc.o ABSOLUTE
    ..\Libraries\GD32F30x_standard_peripheral\Source\gd32f30x_fwdgt.c 0x00000000   Number         0  gd32f30x_fwdgt.o ABSOLUTE
    ..\Libraries\GD32F30x_standard_peripheral\Source\gd32f30x_gpio.c 0x00000000   Number         0  gd32f30x_gpio.o ABSOLUTE
    ..\Libraries\GD32F30x_standard_peripheral\Source\gd32f30x_i2c.c 0x00000000   Number         0  gd32f30x_i2c.o ABSOLUTE
    ..\Libraries\GD32F30x_standard_peripheral\Source\gd32f30x_misc.c 0x00000000   Number         0  gd32f30x_misc.o ABSOLUTE
    ..\Libraries\GD32F30x_standard_peripheral\Source\gd32f30x_pmu.c 0x00000000   Number         0  gd32f30x_pmu.o ABSOLUTE
    ..\Libraries\GD32F30x_standard_peripheral\Source\gd32f30x_rcu.c 0x00000000   Number         0  gd32f30x_rcu.o ABSOLUTE
    ..\Libraries\GD32F30x_standard_peripheral\Source\gd32f30x_rtc.c 0x00000000   Number         0  gd32f30x_rtc.o ABSOLUTE
    ..\Libraries\GD32F30x_standard_peripheral\Source\gd32f30x_sdio.c 0x00000000   Number         0  gd32f30x_sdio.o ABSOLUTE
    ..\Libraries\GD32F30x_standard_peripheral\Source\gd32f30x_spi.c 0x00000000   Number         0  gd32f30x_spi.o ABSOLUTE
    ..\Libraries\GD32F30x_standard_peripheral\Source\gd32f30x_timer.c 0x00000000   Number         0  gd32f30x_timer.o ABSOLUTE
    ..\Libraries\GD32F30x_standard_peripheral\Source\gd32f30x_usart.c 0x00000000   Number         0  gd32f30x_usart.o ABSOLUTE
    ..\Libraries\GD32F30x_standard_peripheral\Source\gd32f30x_wwdgt.c 0x00000000   Number         0  gd32f30x_wwdgt.o ABSOLUTE
    ..\User\BSP\adc_simple.c                 0x00000000   Number         0  adc_simple.o ABSOLUTE
    ..\User\BSP\can.c                        0x00000000   Number         0  can.o ABSOLUTE
    ..\User\BSP\delay.c                      0x00000000   Number         0  delay.o ABSOLUTE
    ..\User\BSP\drv8323rs.c                  0x00000000   Number         0  drv8323rs.o ABSOLUTE
    ..\User\BSP\eeprom.c                     0x00000000   Number         0  eeprom.o ABSOLUTE
    ..\User\BSP\encoder.c                    0x00000000   Number         0  encoder.o ABSOLUTE
    ..\User\BSP\i2c.c                        0x00000000   Number         0  i2c.o ABSOLUTE
    ..\User\BSP\key_fifo.c                   0x00000000   Number         0  key_fifo.o ABSOLUTE
    ..\User\BSP\led.c                        0x00000000   Number         0  led.o ABSOLUTE
    ..\User\BSP\ntc.c                        0x00000000   Number         0  ntc.o ABSOLUTE
    ..\User\BSP\spi.c                        0x00000000   Number         0  spi.o ABSOLUTE
    ..\User\BSP\systick.c                    0x00000000   Number         0  systick.o ABSOLUTE
    ..\User\BSP\uart.c                       0x00000000   Number         0  uart.o ABSOLUTE
    ..\User\gd32f30x_it.c                    0x00000000   Number         0  gd32f30x_it.o ABSOLUTE
    ..\User\main.c                           0x00000000   Number         0  main.o ABSOLUTE
    ..\User\motor_hardware.c                 0x00000000   Number         0  motor_hardware.o ABSOLUTE
    ..\\BLDC\\bldc_hall.c                    0x00000000   Number         0  bldc_hall.o ABSOLUTE
    ..\\LCD\\lcd.c                           0x00000000   Number         0  lcd.o ABSOLUTE
    ..\\LCD\\lcd_init.c                      0x00000000   Number         0  lcd_init.o ABSOLUTE
    ..\\Libraries\\CMSIS\\GD\\GD32F30x\\Source\\system_gd32f30x.c 0x00000000   Number         0  system_gd32f30x.o ABSOLUTE
    ..\\Libraries\\GD32F30x_standard_peripheral\\Source\\gd32f30x_adc.c 0x00000000   Number         0  gd32f30x_adc.o ABSOLUTE
    ..\\Libraries\\GD32F30x_standard_peripheral\\Source\\gd32f30x_bkp.c 0x00000000   Number         0  gd32f30x_bkp.o ABSOLUTE
    ..\\Libraries\\GD32F30x_standard_peripheral\\Source\\gd32f30x_can.c 0x00000000   Number         0  gd32f30x_can.o ABSOLUTE
    ..\\Libraries\\GD32F30x_standard_peripheral\\Source\\gd32f30x_crc.c 0x00000000   Number         0  gd32f30x_crc.o ABSOLUTE
    ..\\Libraries\\GD32F30x_standard_peripheral\\Source\\gd32f30x_ctc.c 0x00000000   Number         0  gd32f30x_ctc.o ABSOLUTE
    ..\\Libraries\\GD32F30x_standard_peripheral\\Source\\gd32f30x_dac.c 0x00000000   Number         0  gd32f30x_dac.o ABSOLUTE
    ..\\Libraries\\GD32F30x_standard_peripheral\\Source\\gd32f30x_dbg.c 0x00000000   Number         0  gd32f30x_dbg.o ABSOLUTE
    ..\\Libraries\\GD32F30x_standard_peripheral\\Source\\gd32f30x_dma.c 0x00000000   Number         0  gd32f30x_dma.o ABSOLUTE
    ..\\Libraries\\GD32F30x_standard_peripheral\\Source\\gd32f30x_enet.c 0x00000000   Number         0  gd32f30x_enet.o ABSOLUTE
    ..\\Libraries\\GD32F30x_standard_peripheral\\Source\\gd32f30x_exmc.c 0x00000000   Number         0  gd32f30x_exmc.o ABSOLUTE
    ..\\Libraries\\GD32F30x_standard_peripheral\\Source\\gd32f30x_exti.c 0x00000000   Number         0  gd32f30x_exti.o ABSOLUTE
    ..\\Libraries\\GD32F30x_standard_peripheral\\Source\\gd32f30x_fmc.c 0x00000000   Number         0  gd32f30x_fmc.o ABSOLUTE
    ..\\Libraries\\GD32F30x_standard_peripheral\\Source\\gd32f30x_fwdgt.c 0x00000000   Number         0  gd32f30x_fwdgt.o ABSOLUTE
    ..\\Libraries\\GD32F30x_standard_peripheral\\Source\\gd32f30x_gpio.c 0x00000000   Number         0  gd32f30x_gpio.o ABSOLUTE
    ..\\Libraries\\GD32F30x_standard_peripheral\\Source\\gd32f30x_i2c.c 0x00000000   Number         0  gd32f30x_i2c.o ABSOLUTE
    ..\\Libraries\\GD32F30x_standard_peripheral\\Source\\gd32f30x_misc.c 0x00000000   Number         0  gd32f30x_misc.o ABSOLUTE
    ..\\Libraries\\GD32F30x_standard_peripheral\\Source\\gd32f30x_pmu.c 0x00000000   Number         0  gd32f30x_pmu.o ABSOLUTE
    ..\\Libraries\\GD32F30x_standard_peripheral\\Source\\gd32f30x_rcu.c 0x00000000   Number         0  gd32f30x_rcu.o ABSOLUTE
    ..\\Libraries\\GD32F30x_standard_peripheral\\Source\\gd32f30x_rtc.c 0x00000000   Number         0  gd32f30x_rtc.o ABSOLUTE
    ..\\Libraries\\GD32F30x_standard_peripheral\\Source\\gd32f30x_sdio.c 0x00000000   Number         0  gd32f30x_sdio.o ABSOLUTE
    ..\\Libraries\\GD32F30x_standard_peripheral\\Source\\gd32f30x_spi.c 0x00000000   Number         0  gd32f30x_spi.o ABSOLUTE
    ..\\Libraries\\GD32F30x_standard_peripheral\\Source\\gd32f30x_timer.c 0x00000000   Number         0  gd32f30x_timer.o ABSOLUTE
    ..\\Libraries\\GD32F30x_standard_peripheral\\Source\\gd32f30x_usart.c 0x00000000   Number         0  gd32f30x_usart.o ABSOLUTE
    ..\\Libraries\\GD32F30x_standard_peripheral\\Source\\gd32f30x_wwdgt.c 0x00000000   Number         0  gd32f30x_wwdgt.o ABSOLUTE
    ..\\User\\BSP\\adc_simple.c              0x00000000   Number         0  adc_simple.o ABSOLUTE
    ..\\User\\BSP\\can.c                     0x00000000   Number         0  can.o ABSOLUTE
    ..\\User\\BSP\\delay.c                   0x00000000   Number         0  delay.o ABSOLUTE
    ..\\User\\BSP\\drv8323rs.c               0x00000000   Number         0  drv8323rs.o ABSOLUTE
    ..\\User\\BSP\\eeprom.c                  0x00000000   Number         0  eeprom.o ABSOLUTE
    ..\\User\\BSP\\encoder.c                 0x00000000   Number         0  encoder.o ABSOLUTE
    ..\\User\\BSP\\i2c.c                     0x00000000   Number         0  i2c.o ABSOLUTE
    ..\\User\\BSP\\key_fifo.c                0x00000000   Number         0  key_fifo.o ABSOLUTE
    ..\\User\\BSP\\led.c                     0x00000000   Number         0  led.o ABSOLUTE
    ..\\User\\BSP\\ntc.c                     0x00000000   Number         0  ntc.o ABSOLUTE
    ..\\User\\BSP\\spi.c                     0x00000000   Number         0  spi.o ABSOLUTE
    ..\\User\\BSP\\systick.c                 0x00000000   Number         0  systick.o ABSOLUTE
    ..\\User\\BSP\\uart.c                    0x00000000   Number         0  uart.o ABSOLUTE
    ..\\User\\gd32f30x_it.c                  0x00000000   Number         0  gd32f30x_it.o ABSOLUTE
    ..\\User\\main.c                         0x00000000   Number         0  main.o ABSOLUTE
    ..\\User\\motor_hardware.c               0x00000000   Number         0  motor_hardware.o ABSOLUTE
    dc.s                                     0x00000000   Number         0  dc.o ABSOLUTE
    handlers.s                               0x00000000   Number         0  handlers.o ABSOLUTE
    init.s                                   0x00000000   Number         0  init.o ABSOLUTE
    RESET                                    0x08004000   Section      304  startup_gd32f30x_hd.o(RESET)
    .ARM.Collect$$$$00000000                 0x08004130   Section        0  entry.o(.ARM.Collect$$$$00000000)
    .ARM.Collect$$$$00000001                 0x08004130   Section        4  entry2.o(.ARM.Collect$$$$00000001)
    .ARM.Collect$$$$00000004                 0x08004134   Section        4  entry5.o(.ARM.Collect$$$$00000004)
    .ARM.Collect$$$$00000008                 0x08004138   Section        0  entry7b.o(.ARM.Collect$$$$00000008)
    .ARM.Collect$$$$0000000A                 0x08004138   Section        0  entry8b.o(.ARM.Collect$$$$0000000A)
    .ARM.Collect$$$$0000000B                 0x08004138   Section        8  entry9a.o(.ARM.Collect$$$$0000000B)
    .ARM.Collect$$$$0000000D                 0x08004140   Section        0  entry10a.o(.ARM.Collect$$$$0000000D)
    .ARM.Collect$$$$0000000F                 0x08004140   Section        0  entry11a.o(.ARM.Collect$$$$0000000F)
    .ARM.Collect$$$$00002712                 0x08004140   Section        4  entry2.o(.ARM.Collect$$$$00002712)
    __lit__00000000                          0x08004140   Data           4  entry2.o(.ARM.Collect$$$$00002712)
    .text                                    0x08004144   Section       36  startup_gd32f30x_hd.o(.text)
    $v0                                      0x08004144   Number         0  startup_gd32f30x_hd.o(.text)
    .text                                    0x08004168   Section        0  memcpya.o(.text)
    .text                                    0x0800418c   Section       36  init.o(.text)
    i.ADC0_1_IRQHandler                      0x080041b0   Section        0  main.o(i.ADC0_1_IRQHandler)
    i.BusFault_Handler                       0x080041c0   Section        0  gd32f30x_it.o(i.BusFault_Handler)
    i.DRV8323RS_clearFaults                  0x080041c4   Section        0  drv8323rs.o(i.DRV8323RS_clearFaults)
    i.DRV8323RS_createSPIDataWord            0x080041d2   Section        0  drv8323rs.o(i.DRV8323RS_createSPIDataWord)
    i.DRV8323RS_disable                      0x080041f0   Section        0  drv8323rs.o(i.DRV8323RS_disable)
    i.DRV8323RS_enable                       0x0800420c   Section        0  drv8323rs.o(i.DRV8323RS_enable)
    i.DRV8323RS_init                         0x08004224   Section        0  drv8323rs.o(i.DRV8323RS_init)
    i.DRV8323RS_setCsaGain                   0x080042dc   Section        0  drv8323rs.o(i.DRV8323RS_setCsaGain)
    i.DRV8323RS_setVdsLvl                    0x080042ec   Section        0  drv8323rs.o(i.DRV8323RS_setVdsLvl)
    i.DRV8323RS_spiRead                      0x080042fc   Section        0  drv8323rs.o(i.DRV8323RS_spiRead)
    i.DRV8323RS_spiUpdateRegister            0x08004334   Section        0  drv8323rs.o(i.DRV8323RS_spiUpdateRegister)
    i.DRV8323RS_spiWrite                     0x08004358   Section        0  drv8323rs.o(i.DRV8323RS_spiWrite)
    i.DebugMon_Handler                       0x0800438c   Section        0  gd32f30x_it.o(i.DebugMon_Handler)
    i.HardFault_Handler                      0x0800438e   Section        0  gd32f30x_it.o(i.HardFault_Handler)
    i.IsKey0Down                             0x08004394   Section        0  key_fifo.o(i.IsKey0Down)
    IsKey0Down                               0x08004395   Thumb Code    20  key_fifo.o(i.IsKey0Down)
    i.MemManage_Handler                      0x080043ac   Section        0  gd32f30x_it.o(i.MemManage_Handler)
    i.NMI_Handler                            0x080043b0   Section        0  gd32f30x_it.o(i.NMI_Handler)
    i.NVIC_SetPriority                       0x080043b4   Section        0  systick.o(i.NVIC_SetPriority)
    NVIC_SetPriority                         0x080043b5   Thumb Code    32  systick.o(i.NVIC_SetPriority)
    i.PendSV_Handler                         0x080043dc   Section        0  gd32f30x_it.o(i.PendSV_Handler)
    i.SVC_Handler                            0x080043de   Section        0  gd32f30x_it.o(i.SVC_Handler)
    i.SysTick_Handler                        0x080043e0   Section        0  systick.o(i.SysTick_Handler)
    i.SystemInit                             0x080043f0   Section        0  system_gd32f30x.o(i.SystemInit)
    i.TIMER0_BRK_IRQHandler                  0x08004498   Section        0  main.o(i.TIMER0_BRK_IRQHandler)
    i.TIMER0_Channel_IRQHandler              0x080044cc   Section        0  main.o(i.TIMER0_Channel_IRQHandler)
    i.TIMER3_IRQHandler                      0x080045b0   Section        0  encoder.o(i.TIMER3_IRQHandler)
    i.UsageFault_Handler                     0x080045f4   Section        0  gd32f30x_it.o(i.UsageFault_Handler)
    i.__scatterload_copy                     0x080045f8   Section       14  handlers.o(i.__scatterload_copy)
    i.__scatterload_null                     0x08004606   Section        2  handlers.o(i.__scatterload_null)
    i.__scatterload_zeroinit                 0x08004608   Section       14  handlers.o(i.__scatterload_zeroinit)
    i.adc0_config                            0x08004618   Section        0  motor_hardware.o(i.adc0_config)
    adc0_config                              0x08004619   Thumb Code   174  motor_hardware.o(i.adc0_config)
    i.adc0_init                              0x080046cc   Section        0  motor_hardware.o(i.adc0_init)
    i.adc_calibration_enable                 0x080046d8   Section        0  gd32f30x_adc.o(i.adc_calibration_enable)
    i.adc_channel_length_config              0x08004702   Section        0  gd32f30x_adc.o(i.adc_channel_length_config)
    i.adc_data_alignment_config              0x08004748   Section        0  gd32f30x_adc.o(i.adc_data_alignment_config)
    i.adc_enable                             0x0800475e   Section        0  gd32f30x_adc.o(i.adc_enable)
    i.adc_external_trigger_config            0x08004770   Section        0  gd32f30x_adc.o(i.adc_external_trigger_config)
    i.adc_external_trigger_source_config     0x080047ae   Section        0  gd32f30x_adc.o(i.adc_external_trigger_source_config)
    i.adc_gpio_init                          0x080047e0   Section        0  motor_hardware.o(i.adc_gpio_init)
    adc_gpio_init                            0x080047e1   Thumb Code    84  motor_hardware.o(i.adc_gpio_init)
    i.adc_inserted_channel_config            0x08004838   Section        0  gd32f30x_adc.o(i.adc_inserted_channel_config)
    i.adc_inserted_data_read                 0x080048ac   Section        0  gd32f30x_adc.o(i.adc_inserted_data_read)
    i.adc_interrupt_enable                   0x080048da   Section        0  gd32f30x_adc.o(i.adc_interrupt_enable)
    i.adc_interrupt_flag_clear               0x08004906   Section        0  gd32f30x_adc.o(i.adc_interrupt_flag_clear)
    i.adc_mode_config                        0x0800490c   Section        0  gd32f30x_adc.o(i.adc_mode_config)
    i.adc_special_function_config            0x08004928   Section        0  gd32f30x_adc.o(i.adc_special_function_config)
    i.bldc_init                              0x08004984   Section        0  bldc_hall.o(i.bldc_init)
    i.bldc_mainfunction                      0x080049dc   Section        0  bldc_hall.o(i.bldc_mainfunction)
    i.calc_pi                                0x08004b48   Section        0  pid.o(i.calc_pi)
    i.dma_channel_enable                     0x08004bc2   Section        0  gd32f30x_dma.o(i.dma_channel_enable)
    i.dma_circulation_disable                0x08004bf4   Section        0  gd32f30x_dma.o(i.dma_circulation_disable)
    i.dma_deinit                             0x08004c26   Section        0  gd32f30x_dma.o(i.dma_deinit)
    i.dma_flag_get                           0x08004c96   Section        0  gd32f30x_dma.o(i.dma_flag_get)
    i.dma_init                               0x08004cae   Section        0  gd32f30x_dma.o(i.dma_init)
    i.dma_memory_to_memory_disable           0x08004ddc   Section        0  gd32f30x_dma.o(i.dma_memory_to_memory_disable)
    i.dma_periph_and_channel_check           0x08004e10   Section        0  gd32f30x_dma.o(i.dma_periph_and_channel_check)
    dma_periph_and_channel_check             0x08004e11   Thumb Code    18  gd32f30x_dma.o(i.dma_periph_and_channel_check)
    i.dma_struct_para_init                   0x08004e28   Section        0  gd32f30x_dma.o(i.dma_struct_para_init)
    i.encoder_get                            0x08004e44   Section        0  encoder.o(i.encoder_get)
    i.encoder_gpio_init                      0x08004e54   Section        0  encoder.o(i.encoder_gpio_init)
    encoder_gpio_init                        0x08004e55   Thumb Code    44  encoder.o(i.encoder_gpio_init)
    i.encoder_init                           0x08004e84   Section        0  encoder.o(i.encoder_init)
    i.encoder_timer_init                     0x08004e9c   Section        0  encoder.o(i.encoder_timer_init)
    encoder_timer_init                       0x08004e9d   Thumb Code   138  encoder.o(i.encoder_timer_init)
    i.gpio_bit_write                         0x08004f2c   Section        0  gd32f30x_gpio.o(i.gpio_bit_write)
    i.gpio_init                              0x08004f36   Section        0  gd32f30x_gpio.o(i.gpio_init)
    i.gpio_input_bit_get                     0x08004ff2   Section        0  gd32f30x_gpio.o(i.gpio_input_bit_get)
    i.gpio_output_bit_get                    0x08005002   Section        0  gd32f30x_gpio.o(i.gpio_output_bit_get)
    i.gpio_pin_remap_config                  0x08005014   Section        0  gd32f30x_gpio.o(i.gpio_pin_remap_config)
    i.hall_init                              0x080050a4   Section        0  motor_hardware.o(i.hall_init)
    i.hall_timer_config                      0x08005104   Section        0  motor_hardware.o(i.hall_timer_config)
    hall_timer_config                        0x08005105   Thumb Code   210  motor_hardware.o(i.hall_timer_config)
    i.hallsensor_get_state                   0x080051dc   Section        0  bldc_hall.o(i.hallsensor_get_state)
    hallsensor_get_state                     0x080051dd   Thumb Code    82  bldc_hall.o(i.hallsensor_get_state)
    i.init_pi                                0x08005238   Section        0  pid.o(i.init_pi)
    i.interrupt_init                         0x08005250   Section        0  motor_hardware.o(i.interrupt_init)
    i.key_detect                             0x08005268   Section        0  key_fifo.o(i.key_detect)
    key_detect                               0x08005269   Thumb Code   200  key_fifo.o(i.key_detect)
    i.key_fifo_init                          0x08005334   Section        0  key_fifo.o(i.key_fifo_init)
    i.key_get                                0x0800534c   Section        0  key_fifo.o(i.key_get)
    i.key_gpio_config                        0x08005380   Section        0  key_fifo.o(i.key_gpio_config)
    key_gpio_config                          0x08005381   Thumb Code    24  key_fifo.o(i.key_gpio_config)
    i.key_put                                0x0800539c   Section        0  key_fifo.o(i.key_put)
    i.key_scan                               0x080053c0   Section        0  key_fifo.o(i.key_scan)
    i.key_var_init                           0x080053d8   Section        0  key_fifo.o(i.key_var_init)
    key_var_init                             0x080053d9   Thumb Code    76  key_fifo.o(i.key_var_init)
    i.led_init                               0x08005430   Section        0  led.o(i.led_init)
    i.led_off                                0x080054c4   Section        0  led.o(i.led_off)
    i.led_on                                 0x080054dc   Section        0  led.o(i.led_on)
    i.led_toggle                             0x080054f4   Section        0  led.o(i.led_toggle)
    i.m1_uhvl                                0x0800552c   Section        0  bldc_hall.o(i.m1_uhvl)
    m1_uhvl                                  0x0800552d   Thumb Code    50  bldc_hall.o(i.m1_uhvl)
    i.m1_uhwl                                0x08005568   Section        0  bldc_hall.o(i.m1_uhwl)
    m1_uhwl                                  0x08005569   Thumb Code    50  bldc_hall.o(i.m1_uhwl)
    i.m1_vhul                                0x080055a4   Section        0  bldc_hall.o(i.m1_vhul)
    m1_vhul                                  0x080055a5   Thumb Code    50  bldc_hall.o(i.m1_vhul)
    i.m1_vhwl                                0x080055e0   Section        0  bldc_hall.o(i.m1_vhwl)
    m1_vhwl                                  0x080055e1   Thumb Code    50  bldc_hall.o(i.m1_vhwl)
    i.m1_whul                                0x0800561c   Section        0  bldc_hall.o(i.m1_whul)
    m1_whul                                  0x0800561d   Thumb Code    50  bldc_hall.o(i.m1_whul)
    i.m1_whvl                                0x08005658   Section        0  bldc_hall.o(i.m1_whvl)
    m1_whvl                                  0x08005659   Thumb Code    50  bldc_hall.o(i.m1_whvl)
    i.main                                   0x08005694   Section        0  main.o(i.main)
    i.motor_hardware_init                    0x080057d4   Section        0  motor_hardware.o(i.motor_hardware_init)
    i.motor_pwm_set_duty                     0x080057ec   Section        0  motor_hardware.o(i.motor_pwm_set_duty)
    i.nvic_irq_enable                        0x08005818   Section        0  gd32f30x_misc.o(i.nvic_irq_enable)
    i.nvic_priority_group_set                0x080058dc   Section        0  gd32f30x_misc.o(i.nvic_priority_group_set)
    i.pwm_gpio_init                          0x080058f0   Section        0  motor_hardware.o(i.pwm_gpio_init)
    pwm_gpio_init                            0x080058f1   Thumb Code   126  motor_hardware.o(i.pwm_gpio_init)
    i.pwm_timer_config                       0x08005978   Section        0  motor_hardware.o(i.pwm_timer_config)
    pwm_timer_config                         0x08005979   Thumb Code   338  motor_hardware.o(i.pwm_timer_config)
    i.rcu_adc_clock_config                   0x08005ad0   Section        0  gd32f30x_rcu.o(i.rcu_adc_clock_config)
    i.rcu_clock_freq_get                     0x08005b3c   Section        0  gd32f30x_rcu.o(i.rcu_clock_freq_get)
    i.rcu_periph_clock_enable                0x08005c94   Section        0  gd32f30x_rcu.o(i.rcu_periph_clock_enable)
    i.rcu_periph_reset_disable               0x08005cb4   Section        0  gd32f30x_rcu.o(i.rcu_periph_reset_disable)
    i.rcu_periph_reset_enable                0x08005cd4   Section        0  gd32f30x_rcu.o(i.rcu_periph_reset_enable)
    i.spi0_init                              0x08005cf4   Section        0  spi.o(i.spi0_init)
    i.spi0_transmit_receive_data             0x08005d5c   Section        0  spi.o(i.spi0_transmit_receive_data)
    i.spi_enable                             0x08005d90   Section        0  gd32f30x_spi.o(i.spi_enable)
    i.spi_i2s_data_receive                   0x08005d9a   Section        0  gd32f30x_spi.o(i.spi_i2s_data_receive)
    i.spi_i2s_data_transmit                  0x08005da2   Section        0  gd32f30x_spi.o(i.spi_i2s_data_transmit)
    i.spi_i2s_flag_get                       0x08005da6   Section        0  gd32f30x_spi.o(i.spi_i2s_flag_get)
    i.spi_init                               0x08005db6   Section        0  gd32f30x_spi.o(i.spi_init)
    i.start_motor                            0x08005de8   Section        0  bldc_hall.o(i.start_motor)
    i.stop_motor                             0x08005e10   Section        0  bldc_hall.o(i.stop_motor)
    i.system_clock_120m_hxtal                0x08005e40   Section        0  system_gd32f30x.o(i.system_clock_120m_hxtal)
    system_clock_120m_hxtal                  0x08005e41   Thumb Code   258  system_gd32f30x.o(i.system_clock_120m_hxtal)
    i.system_clock_config                    0x08005f54   Section        0  system_gd32f30x.o(i.system_clock_config)
    system_clock_config                      0x08005f55   Thumb Code     8  system_gd32f30x.o(i.system_clock_config)
    i.systick_delay                          0x08005f5c   Section        0  systick.o(i.systick_delay)
    i.systick_get_current_tick               0x08005f8c   Section        0  systick.o(i.systick_get_current_tick)
    i.systick_init                           0x08005f98   Section        0  systick.o(i.systick_init)
    i.timer_auto_reload_shadow_enable        0x08005fe8   Section        0  gd32f30x_timer.o(i.timer_auto_reload_shadow_enable)
    i.timer_break_config                     0x08005ff2   Section        0  gd32f30x_timer.o(i.timer_break_config)
    i.timer_channel_input_capture_prescaler_config 0x08006010   Section        0  gd32f30x_timer.o(i.timer_channel_input_capture_prescaler_config)
    i.timer_channel_output_config            0x0800606c   Section        0  gd32f30x_timer.o(i.timer_channel_output_config)
    i.timer_channel_output_mode_config       0x08006258   Section        0  gd32f30x_timer.o(i.timer_channel_output_mode_config)
    i.timer_channel_output_pulse_value_config 0x080062b2   Section        0  gd32f30x_timer.o(i.timer_channel_output_pulse_value_config)
    i.timer_channel_output_shadow_config     0x080062d8   Section        0  gd32f30x_timer.o(i.timer_channel_output_shadow_config)
    i.timer_counter_read                     0x08006332   Section        0  gd32f30x_timer.o(i.timer_counter_read)
    i.timer_counter_value_config             0x0800633a   Section        0  gd32f30x_timer.o(i.timer_counter_value_config)
    i.timer_deinit                           0x08006340   Section        0  gd32f30x_timer.o(i.timer_deinit)
    i.timer_enable                           0x0800641c   Section        0  gd32f30x_timer.o(i.timer_enable)
    i.timer_hall_mode_config                 0x08006426   Section        0  gd32f30x_timer.o(i.timer_hall_mode_config)
    i.timer_init                             0x08006440   Section        0  gd32f30x_timer.o(i.timer_init)
    i.timer_input_capture_config             0x080064d8   Section        0  gd32f30x_timer.o(i.timer_input_capture_config)
    i.timer_input_trigger_source_select      0x0800661e   Section        0  gd32f30x_timer.o(i.timer_input_trigger_source_select)
    i.timer_interrupt_enable                 0x0800662e   Section        0  gd32f30x_timer.o(i.timer_interrupt_enable)
    i.timer_interrupt_flag_clear             0x08006636   Section        0  gd32f30x_timer.o(i.timer_interrupt_flag_clear)
    i.timer_interrupt_flag_get               0x0800663c   Section        0  gd32f30x_timer.o(i.timer_interrupt_flag_get)
    i.timer_primary_output_config            0x08006654   Section        0  gd32f30x_timer.o(i.timer_primary_output_config)
    i.timer_quadrature_decoder_mode_config   0x0800666c   Section        0  gd32f30x_timer.o(i.timer_quadrature_decoder_mode_config)
    i.timer_slave_mode_select                0x080066ac   Section        0  gd32f30x_timer.o(i.timer_slave_mode_select)
    i.uemf_edge                              0x080066bc   Section        0  bldc_hall.o(i.uemf_edge)
    uemf_edge                                0x080066bd   Thumb Code    28  bldc_hall.o(i.uemf_edge)
    i.usart_baudrate_set                     0x080066dc   Section        0  gd32f30x_usart.o(i.usart_baudrate_set)
    i.usart_deinit                           0x0800676c   Section        0  gd32f30x_usart.o(i.usart_deinit)
    i.usart_dma_receive_config               0x080067fc   Section        0  gd32f30x_usart.o(i.usart_dma_receive_config)
    i.usart_dma_transmit_config              0x08006810   Section        0  gd32f30x_usart.o(i.usart_dma_transmit_config)
    i.usart_enable                           0x08006824   Section        0  gd32f30x_usart.o(i.usart_enable)
    i.usart_init                             0x08006830   Section        0  uart.o(i.usart_init)
    i.usart_receive_config                   0x08006984   Section        0  gd32f30x_usart.o(i.usart_receive_config)
    i.usart_send_data                        0x08006998   Section        0  uart.o(i.usart_send_data)
    i.usart_transmit_config                  0x08006a20   Section        0  gd32f30x_usart.o(i.usart_transmit_config)
    .data                                    0x20000000   Section       26  main.o(.data)
    .data                                    0x2000001c   Section       24  led.o(.data)
    GPIO_PORT                                0x2000001c   Data          12  led.o(.data)
    GPIO_PIN                                 0x20000028   Data          12  led.o(.data)
    .data                                    0x20000034   Section        4  systick.o(.data)
    tick_cnt                                 0x20000034   Data           4  systick.o(.data)
    .data                                    0x20000038   Section        1  encoder.o(.data)
    encoder_code                             0x20000038   Data           1  encoder.o(.data)
    .data                                    0x20000039   Section        7  key_fifo.o(.data)
    key_f                                    0x20000039   Data           6  key_fifo.o(.data)
    is_init                                  0x2000003f   Data           1  key_fifo.o(.data)
    .data                                    0x20000040   Section        4  system_gd32f30x.o(.data)
    .data                                    0x20000044   Section       29  bldc_hall.o(.data)
    State                                    0x2000005c   Data           4  bldc_hall.o(.data)
    oldval                                   0x20000060   Data           1  bldc_hall.o(.data)
    .bss                                     0x20000064   Section       16  main.o(.bss)
    .bss                                     0x20000074   Section       64  uart.o(.bss)
    rxbuffer                                 0x20000074   Data          32  uart.o(.bss)
    txbuffer                                 0x20000094   Data          32  uart.o(.bss)
    .bss                                     0x200000b4   Section       16  key_fifo.o(.bss)
    key_x                                    0x200000b4   Data          16  key_fifo.o(.bss)
    .bss                                     0x200000c4   Section       84  bldc_hall.o(.bss)
    STACK                                    0x20000118   Section     1024  startup_gd32f30x_hd.o(STACK)

    Global Symbols

    Symbol Name                              Value     Ov Type        Size  Object(Section)

    BuildAttributes$$THM_ISAv4$E$P$D$K$B$S$7EM$VFPi3$EXTD16$VFPS$VFMA$PE$A:L22UL41UL21$X:L11$S22US41US21$IEEE1$IW$USESV6$~STKCKD$USESV7$~SHL$OSPACE$EBA8$MICROLIB$REQ8$PRES8$EABIv2 0x00000000   Number         0  anon$$obj.o ABSOLUTE
    __ARM_use_no_argv                        0x00000000   Number         0  main.o ABSOLUTE
    __cpp_initialize__aeabi_                  - Undefined Weak Reference
    __cxa_finalize                            - Undefined Weak Reference
    __decompress                              - Undefined Weak Reference
    _clock_init                               - Undefined Weak Reference
    _microlib_exit                            - Undefined Weak Reference
    __Vectors_Size                           0x00000130   Number         0  startup_gd32f30x_hd.o ABSOLUTE
    __Vectors                                0x08004000   Data           4  startup_gd32f30x_hd.o(RESET)
    __Vectors_End                            0x08004130   Data           0  startup_gd32f30x_hd.o(RESET)
    __main                                   0x08004131   Thumb Code     0  entry.o(.ARM.Collect$$$$00000000)
    _main_stk                                0x08004131   Thumb Code     0  entry2.o(.ARM.Collect$$$$00000001)
    _main_scatterload                        0x08004135   Thumb Code     0  entry5.o(.ARM.Collect$$$$00000004)
    __main_after_scatterload                 0x08004139   Thumb Code     0  entry5.o(.ARM.Collect$$$$00000004)
    _main_clock                              0x08004139   Thumb Code     0  entry7b.o(.ARM.Collect$$$$00000008)
    _main_cpp_init                           0x08004139   Thumb Code     0  entry8b.o(.ARM.Collect$$$$0000000A)
    _main_init                               0x08004139   Thumb Code     0  entry9a.o(.ARM.Collect$$$$0000000B)
    __rt_final_cpp                           0x08004141   Thumb Code     0  entry10a.o(.ARM.Collect$$$$0000000D)
    __rt_final_exit                          0x08004141   Thumb Code     0  entry11a.o(.ARM.Collect$$$$0000000F)
    Reset_Handler                            0x08004145   Thumb Code     8  startup_gd32f30x_hd.o(.text)
    ADC2_IRQHandler                          0x0800415f   Thumb Code     0  startup_gd32f30x_hd.o(.text)
    CAN0_EWMC_IRQHandler                     0x0800415f   Thumb Code     0  startup_gd32f30x_hd.o(.text)
    CAN0_RX1_IRQHandler                      0x0800415f   Thumb Code     0  startup_gd32f30x_hd.o(.text)
    DMA0_Channel0_IRQHandler                 0x0800415f   Thumb Code     0  startup_gd32f30x_hd.o(.text)
    DMA0_Channel1_IRQHandler                 0x0800415f   Thumb Code     0  startup_gd32f30x_hd.o(.text)
    DMA0_Channel2_IRQHandler                 0x0800415f   Thumb Code     0  startup_gd32f30x_hd.o(.text)
    DMA0_Channel3_IRQHandler                 0x0800415f   Thumb Code     0  startup_gd32f30x_hd.o(.text)
    DMA0_Channel4_IRQHandler                 0x0800415f   Thumb Code     0  startup_gd32f30x_hd.o(.text)
    DMA0_Channel5_IRQHandler                 0x0800415f   Thumb Code     0  startup_gd32f30x_hd.o(.text)
    DMA0_Channel6_IRQHandler                 0x0800415f   Thumb Code     0  startup_gd32f30x_hd.o(.text)
    DMA1_Channel0_IRQHandler                 0x0800415f   Thumb Code     0  startup_gd32f30x_hd.o(.text)
    DMA1_Channel1_IRQHandler                 0x0800415f   Thumb Code     0  startup_gd32f30x_hd.o(.text)
    DMA1_Channel2_IRQHandler                 0x0800415f   Thumb Code     0  startup_gd32f30x_hd.o(.text)
    DMA1_Channel3_4_IRQHandler               0x0800415f   Thumb Code     0  startup_gd32f30x_hd.o(.text)
    EXMC_IRQHandler                          0x0800415f   Thumb Code     0  startup_gd32f30x_hd.o(.text)
    EXTI0_IRQHandler                         0x0800415f   Thumb Code     0  startup_gd32f30x_hd.o(.text)
    EXTI10_15_IRQHandler                     0x0800415f   Thumb Code     0  startup_gd32f30x_hd.o(.text)
    EXTI1_IRQHandler                         0x0800415f   Thumb Code     0  startup_gd32f30x_hd.o(.text)
    EXTI2_IRQHandler                         0x0800415f   Thumb Code     0  startup_gd32f30x_hd.o(.text)
    EXTI3_IRQHandler                         0x0800415f   Thumb Code     0  startup_gd32f30x_hd.o(.text)
    EXTI4_IRQHandler                         0x0800415f   Thumb Code     0  startup_gd32f30x_hd.o(.text)
    EXTI5_9_IRQHandler                       0x0800415f   Thumb Code     0  startup_gd32f30x_hd.o(.text)
    FMC_IRQHandler                           0x0800415f   Thumb Code     0  startup_gd32f30x_hd.o(.text)
    I2C0_ER_IRQHandler                       0x0800415f   Thumb Code     0  startup_gd32f30x_hd.o(.text)
    I2C0_EV_IRQHandler                       0x0800415f   Thumb Code     0  startup_gd32f30x_hd.o(.text)
    I2C1_ER_IRQHandler                       0x0800415f   Thumb Code     0  startup_gd32f30x_hd.o(.text)
    I2C1_EV_IRQHandler                       0x0800415f   Thumb Code     0  startup_gd32f30x_hd.o(.text)
    LVD_IRQHandler                           0x0800415f   Thumb Code     0  startup_gd32f30x_hd.o(.text)
    RCU_CTC_IRQHandler                       0x0800415f   Thumb Code     0  startup_gd32f30x_hd.o(.text)
    RTC_Alarm_IRQHandler                     0x0800415f   Thumb Code     0  startup_gd32f30x_hd.o(.text)
    RTC_IRQHandler                           0x0800415f   Thumb Code     0  startup_gd32f30x_hd.o(.text)
    SDIO_IRQHandler                          0x0800415f   Thumb Code     0  startup_gd32f30x_hd.o(.text)
    SPI0_IRQHandler                          0x0800415f   Thumb Code     0  startup_gd32f30x_hd.o(.text)
    SPI1_IRQHandler                          0x0800415f   Thumb Code     0  startup_gd32f30x_hd.o(.text)
    SPI2_IRQHandler                          0x0800415f   Thumb Code     0  startup_gd32f30x_hd.o(.text)
    TAMPER_IRQHandler                        0x0800415f   Thumb Code     0  startup_gd32f30x_hd.o(.text)
    TIMER0_TRG_CMT_IRQHandler                0x0800415f   Thumb Code     0  startup_gd32f30x_hd.o(.text)
    TIMER0_UP_IRQHandler                     0x0800415f   Thumb Code     0  startup_gd32f30x_hd.o(.text)
    TIMER1_IRQHandler                        0x0800415f   Thumb Code     0  startup_gd32f30x_hd.o(.text)
    TIMER2_IRQHandler                        0x0800415f   Thumb Code     0  startup_gd32f30x_hd.o(.text)
    TIMER4_IRQHandler                        0x0800415f   Thumb Code     0  startup_gd32f30x_hd.o(.text)
    TIMER5_IRQHandler                        0x0800415f   Thumb Code     0  startup_gd32f30x_hd.o(.text)
    TIMER6_IRQHandler                        0x0800415f   Thumb Code     0  startup_gd32f30x_hd.o(.text)
    TIMER7_BRK_IRQHandler                    0x0800415f   Thumb Code     0  startup_gd32f30x_hd.o(.text)
    TIMER7_Channel_IRQHandler                0x0800415f   Thumb Code     0  startup_gd32f30x_hd.o(.text)
    TIMER7_TRG_CMT_IRQHandler                0x0800415f   Thumb Code     0  startup_gd32f30x_hd.o(.text)
    TIMER7_UP_IRQHandler                     0x0800415f   Thumb Code     0  startup_gd32f30x_hd.o(.text)
    UART3_IRQHandler                         0x0800415f   Thumb Code     0  startup_gd32f30x_hd.o(.text)
    UART4_IRQHandler                         0x0800415f   Thumb Code     0  startup_gd32f30x_hd.o(.text)
    USART0_IRQHandler                        0x0800415f   Thumb Code     0  startup_gd32f30x_hd.o(.text)
    USART1_IRQHandler                        0x0800415f   Thumb Code     0  startup_gd32f30x_hd.o(.text)
    USART2_IRQHandler                        0x0800415f   Thumb Code     0  startup_gd32f30x_hd.o(.text)
    USBD_HP_CAN0_TX_IRQHandler               0x0800415f   Thumb Code     0  startup_gd32f30x_hd.o(.text)
    USBD_LP_CAN0_RX0_IRQHandler              0x0800415f   Thumb Code     0  startup_gd32f30x_hd.o(.text)
    USBD_WKUP_IRQHandler                     0x0800415f   Thumb Code     0  startup_gd32f30x_hd.o(.text)
    WWDGT_IRQHandler                         0x0800415f   Thumb Code     0  startup_gd32f30x_hd.o(.text)
    __aeabi_memcpy                           0x08004169   Thumb Code    36  memcpya.o(.text)
    __aeabi_memcpy4                          0x08004169   Thumb Code     0  memcpya.o(.text)
    __aeabi_memcpy8                          0x08004169   Thumb Code     0  memcpya.o(.text)
    __scatterload                            0x0800418d   Thumb Code    28  init.o(.text)
    __scatterload_rt2                        0x0800418d   Thumb Code     0  init.o(.text)
    ADC0_1_IRQHandler                        0x080041b1   Thumb Code    12  main.o(i.ADC0_1_IRQHandler)
    BusFault_Handler                         0x080041c1   Thumb Code     4  gd32f30x_it.o(i.BusFault_Handler)
    DRV8323RS_clearFaults                    0x080041c5   Thumb Code    14  drv8323rs.o(i.DRV8323RS_clearFaults)
    DRV8323RS_createSPIDataWord              0x080041d3   Thumb Code    30  drv8323rs.o(i.DRV8323RS_createSPIDataWord)
    DRV8323RS_disable                        0x080041f1   Thumb Code    22  drv8323rs.o(i.DRV8323RS_disable)
    DRV8323RS_enable                         0x0800420d   Thumb Code    20  drv8323rs.o(i.DRV8323RS_enable)
    DRV8323RS_init                           0x08004225   Thumb Code   174  drv8323rs.o(i.DRV8323RS_init)
    DRV8323RS_setCsaGain                     0x080042dd   Thumb Code    16  drv8323rs.o(i.DRV8323RS_setCsaGain)
    DRV8323RS_setVdsLvl                      0x080042ed   Thumb Code    16  drv8323rs.o(i.DRV8323RS_setVdsLvl)
    DRV8323RS_spiRead                        0x080042fd   Thumb Code    52  drv8323rs.o(i.DRV8323RS_spiRead)
    DRV8323RS_spiUpdateRegister              0x08004335   Thumb Code    34  drv8323rs.o(i.DRV8323RS_spiUpdateRegister)
    DRV8323RS_spiWrite                       0x08004359   Thumb Code    46  drv8323rs.o(i.DRV8323RS_spiWrite)
    DebugMon_Handler                         0x0800438d   Thumb Code     2  gd32f30x_it.o(i.DebugMon_Handler)
    HardFault_Handler                        0x0800438f   Thumb Code     4  gd32f30x_it.o(i.HardFault_Handler)
    MemManage_Handler                        0x080043ad   Thumb Code     4  gd32f30x_it.o(i.MemManage_Handler)
    NMI_Handler                              0x080043b1   Thumb Code     2  gd32f30x_it.o(i.NMI_Handler)
    PendSV_Handler                           0x080043dd   Thumb Code     2  gd32f30x_it.o(i.PendSV_Handler)
    SVC_Handler                              0x080043df   Thumb Code     2  gd32f30x_it.o(i.SVC_Handler)
    SysTick_Handler                          0x080043e1   Thumb Code    12  systick.o(i.SysTick_Handler)
    SystemInit                               0x080043f1   Thumb Code   156  system_gd32f30x.o(i.SystemInit)
    TIMER0_BRK_IRQHandler                    0x08004499   Thumb Code    48  main.o(i.TIMER0_BRK_IRQHandler)
    TIMER0_Channel_IRQHandler                0x080044cd   Thumb Code   184  main.o(i.TIMER0_Channel_IRQHandler)
    TIMER3_IRQHandler                        0x080045b1   Thumb Code    60  encoder.o(i.TIMER3_IRQHandler)
    UsageFault_Handler                       0x080045f5   Thumb Code     4  gd32f30x_it.o(i.UsageFault_Handler)
    __scatterload_copy                       0x080045f9   Thumb Code    14  handlers.o(i.__scatterload_copy)
    __scatterload_null                       0x08004607   Thumb Code     2  handlers.o(i.__scatterload_null)
    __scatterload_zeroinit                   0x08004609   Thumb Code    14  handlers.o(i.__scatterload_zeroinit)
    adc0_init                                0x080046cd   Thumb Code    12  motor_hardware.o(i.adc0_init)
    adc_calibration_enable                   0x080046d9   Thumb Code    42  gd32f30x_adc.o(i.adc_calibration_enable)
    adc_channel_length_config                0x08004703   Thumb Code    70  gd32f30x_adc.o(i.adc_channel_length_config)
    adc_data_alignment_config                0x08004749   Thumb Code    22  gd32f30x_adc.o(i.adc_data_alignment_config)
    adc_enable                               0x0800475f   Thumb Code    18  gd32f30x_adc.o(i.adc_enable)
    adc_external_trigger_config              0x08004771   Thumb Code    62  gd32f30x_adc.o(i.adc_external_trigger_config)
    adc_external_trigger_source_config       0x080047af   Thumb Code    48  gd32f30x_adc.o(i.adc_external_trigger_source_config)
    adc_inserted_channel_config              0x08004839   Thumb Code   116  gd32f30x_adc.o(i.adc_inserted_channel_config)
    adc_inserted_data_read                   0x080048ad   Thumb Code    46  gd32f30x_adc.o(i.adc_inserted_data_read)
    adc_interrupt_enable                     0x080048db   Thumb Code    44  gd32f30x_adc.o(i.adc_interrupt_enable)
    adc_interrupt_flag_clear                 0x08004907   Thumb Code     6  gd32f30x_adc.o(i.adc_interrupt_flag_clear)
    adc_mode_config                          0x0800490d   Thumb Code    22  gd32f30x_adc.o(i.adc_mode_config)
    adc_special_function_config              0x08004929   Thumb Code    90  gd32f30x_adc.o(i.adc_special_function_config)
    bldc_init                                0x08004985   Thumb Code    70  bldc_hall.o(i.bldc_init)
    bldc_mainfunction                        0x080049dd   Thumb Code   342  bldc_hall.o(i.bldc_mainfunction)
    calc_pi                                  0x08004b49   Thumb Code   122  pid.o(i.calc_pi)
    dma_channel_enable                       0x08004bc3   Thumb Code    50  gd32f30x_dma.o(i.dma_channel_enable)
    dma_circulation_disable                  0x08004bf5   Thumb Code    50  gd32f30x_dma.o(i.dma_circulation_disable)
    dma_deinit                               0x08004c27   Thumb Code   112  gd32f30x_dma.o(i.dma_deinit)
    dma_flag_get                             0x08004c97   Thumb Code    24  gd32f30x_dma.o(i.dma_flag_get)
    dma_init                                 0x08004caf   Thumb Code   302  gd32f30x_dma.o(i.dma_init)
    dma_memory_to_memory_disable             0x08004ddd   Thumb Code    50  gd32f30x_dma.o(i.dma_memory_to_memory_disable)
    dma_struct_para_init                     0x08004e29   Thumb Code    28  gd32f30x_dma.o(i.dma_struct_para_init)
    encoder_get                              0x08004e45   Thumb Code    12  encoder.o(i.encoder_get)
    encoder_init                             0x08004e85   Thumb Code    22  encoder.o(i.encoder_init)
    gpio_bit_write                           0x08004f2d   Thumb Code    10  gd32f30x_gpio.o(i.gpio_bit_write)
    gpio_init                                0x08004f37   Thumb Code   188  gd32f30x_gpio.o(i.gpio_init)
    gpio_input_bit_get                       0x08004ff3   Thumb Code    16  gd32f30x_gpio.o(i.gpio_input_bit_get)
    gpio_output_bit_get                      0x08005003   Thumb Code    16  gd32f30x_gpio.o(i.gpio_output_bit_get)
    gpio_pin_remap_config                    0x08005015   Thumb Code   138  gd32f30x_gpio.o(i.gpio_pin_remap_config)
    hall_init                                0x080050a5   Thumb Code    86  motor_hardware.o(i.hall_init)
    init_pi                                  0x08005239   Thumb Code    18  pid.o(i.init_pi)
    interrupt_init                           0x08005251   Thumb Code    24  motor_hardware.o(i.interrupt_init)
    key_fifo_init                            0x08005335   Thumb Code    18  key_fifo.o(i.key_fifo_init)
    key_get                                  0x0800534d   Thumb Code    48  key_fifo.o(i.key_get)
    key_put                                  0x0800539d   Thumb Code    30  key_fifo.o(i.key_put)
    key_scan                                 0x080053c1   Thumb Code    24  key_fifo.o(i.key_scan)
    led_init                                 0x08005431   Thumb Code   134  led.o(i.led_init)
    led_off                                  0x080054c5   Thumb Code    16  led.o(i.led_off)
    led_on                                   0x080054dd   Thumb Code    16  led.o(i.led_on)
    led_toggle                               0x080054f5   Thumb Code    46  led.o(i.led_toggle)
    main                                     0x08005695   Thumb Code   290  main.o(i.main)
    motor_hardware_init                      0x080057d5   Thumb Code    24  motor_hardware.o(i.motor_hardware_init)
    motor_pwm_set_duty                       0x080057ed   Thumb Code    40  motor_hardware.o(i.motor_pwm_set_duty)
    nvic_irq_enable                          0x08005819   Thumb Code   186  gd32f30x_misc.o(i.nvic_irq_enable)
    nvic_priority_group_set                  0x080058dd   Thumb Code    10  gd32f30x_misc.o(i.nvic_priority_group_set)
    rcu_adc_clock_config                     0x08005ad1   Thumb Code    98  gd32f30x_rcu.o(i.rcu_adc_clock_config)
    rcu_clock_freq_get                       0x08005b3d   Thumb Code   310  gd32f30x_rcu.o(i.rcu_clock_freq_get)
    rcu_periph_clock_enable                  0x08005c95   Thumb Code    28  gd32f30x_rcu.o(i.rcu_periph_clock_enable)
    rcu_periph_reset_disable                 0x08005cb5   Thumb Code    28  gd32f30x_rcu.o(i.rcu_periph_reset_disable)
    rcu_periph_reset_enable                  0x08005cd5   Thumb Code    28  gd32f30x_rcu.o(i.rcu_periph_reset_enable)
    spi0_init                                0x08005cf5   Thumb Code    94  spi.o(i.spi0_init)
    spi0_transmit_receive_data               0x08005d5d   Thumb Code    48  spi.o(i.spi0_transmit_receive_data)
    spi_enable                               0x08005d91   Thumb Code    10  gd32f30x_spi.o(i.spi_enable)
    spi_i2s_data_receive                     0x08005d9b   Thumb Code     8  gd32f30x_spi.o(i.spi_i2s_data_receive)
    spi_i2s_data_transmit                    0x08005da3   Thumb Code     4  gd32f30x_spi.o(i.spi_i2s_data_transmit)
    spi_i2s_flag_get                         0x08005da7   Thumb Code    16  gd32f30x_spi.o(i.spi_i2s_flag_get)
    spi_init                                 0x08005db7   Thumb Code    50  gd32f30x_spi.o(i.spi_init)
    start_motor                              0x08005de9   Thumb Code    34  bldc_hall.o(i.start_motor)
    stop_motor                               0x08005e11   Thumb Code    44  bldc_hall.o(i.stop_motor)
    systick_delay                            0x08005f5d   Thumb Code    48  systick.o(i.systick_delay)
    systick_get_current_tick                 0x08005f8d   Thumb Code     6  systick.o(i.systick_get_current_tick)
    systick_init                             0x08005f99   Thumb Code    74  systick.o(i.systick_init)
    timer_auto_reload_shadow_enable          0x08005fe9   Thumb Code    10  gd32f30x_timer.o(i.timer_auto_reload_shadow_enable)
    timer_break_config                       0x08005ff3   Thumb Code    30  gd32f30x_timer.o(i.timer_break_config)
    timer_channel_input_capture_prescaler_config 0x08006011   Thumb Code    90  gd32f30x_timer.o(i.timer_channel_input_capture_prescaler_config)
    timer_channel_output_config              0x0800606d   Thumb Code   484  gd32f30x_timer.o(i.timer_channel_output_config)
    timer_channel_output_mode_config         0x08006259   Thumb Code    90  gd32f30x_timer.o(i.timer_channel_output_mode_config)
    timer_channel_output_pulse_value_config  0x080062b3   Thumb Code    38  gd32f30x_timer.o(i.timer_channel_output_pulse_value_config)
    timer_channel_output_shadow_config       0x080062d9   Thumb Code    90  gd32f30x_timer.o(i.timer_channel_output_shadow_config)
    timer_counter_read                       0x08006333   Thumb Code     8  gd32f30x_timer.o(i.timer_counter_read)
    timer_counter_value_config               0x0800633b   Thumb Code     4  gd32f30x_timer.o(i.timer_counter_value_config)
    timer_deinit                             0x08006341   Thumb Code   210  gd32f30x_timer.o(i.timer_deinit)
    timer_enable                             0x0800641d   Thumb Code    10  gd32f30x_timer.o(i.timer_enable)
    timer_hall_mode_config                   0x08006427   Thumb Code    26  gd32f30x_timer.o(i.timer_hall_mode_config)
    timer_init                               0x08006441   Thumb Code   122  gd32f30x_timer.o(i.timer_init)
    timer_input_capture_config               0x080064d9   Thumb Code   326  gd32f30x_timer.o(i.timer_input_capture_config)
    timer_input_trigger_source_select        0x0800661f   Thumb Code    16  gd32f30x_timer.o(i.timer_input_trigger_source_select)
    timer_interrupt_enable                   0x0800662f   Thumb Code     8  gd32f30x_timer.o(i.timer_interrupt_enable)
    timer_interrupt_flag_clear               0x08006637   Thumb Code     6  gd32f30x_timer.o(i.timer_interrupt_flag_clear)
    timer_interrupt_flag_get                 0x0800663d   Thumb Code    24  gd32f30x_timer.o(i.timer_interrupt_flag_get)
    timer_primary_output_config              0x08006655   Thumb Code    24  gd32f30x_timer.o(i.timer_primary_output_config)
    timer_quadrature_decoder_mode_config     0x0800666d   Thumb Code    64  gd32f30x_timer.o(i.timer_quadrature_decoder_mode_config)
    timer_slave_mode_select                  0x080066ad   Thumb Code    16  gd32f30x_timer.o(i.timer_slave_mode_select)
    usart_baudrate_set                       0x080066dd   Thumb Code   136  gd32f30x_usart.o(i.usart_baudrate_set)
    usart_deinit                             0x0800676d   Thumb Code   136  gd32f30x_usart.o(i.usart_deinit)
    usart_dma_receive_config                 0x080067fd   Thumb Code    20  gd32f30x_usart.o(i.usart_dma_receive_config)
    usart_dma_transmit_config                0x08006811   Thumb Code    20  gd32f30x_usart.o(i.usart_dma_transmit_config)
    usart_enable                             0x08006825   Thumb Code    10  gd32f30x_usart.o(i.usart_enable)
    usart_init                               0x08006831   Thumb Code   314  uart.o(i.usart_init)
    usart_receive_config                     0x08006985   Thumb Code    20  gd32f30x_usart.o(i.usart_receive_config)
    usart_send_data                          0x08006999   Thumb Code   122  uart.o(i.usart_send_data)
    usart_transmit_config                    0x08006a21   Thumb Code    20  gd32f30x_usart.o(i.usart_transmit_config)
    Region$$Table$$Base                      0x08006a34   Number         0  anon$$obj.o(Region$$Table)
    Region$$Table$$Limit                     0x08006a54   Number         0  anon$$obj.o(Region$$Table)
    temp1                                    0x20000000   Data           4  main.o(.data)
    temp2                                    0x20000004   Data           4  main.o(.data)
    temp3                                    0x20000008   Data           4  main.o(.data)
    tick                                     0x2000000c   Data           4  main.o(.data)
    key                                      0x20000010   Data           1  main.o(.data)
    encoder_code                             0x20000011   Data           1  main.o(.data)
    adc1_ia                                  0x20000012   Data           2  main.o(.data)
    adc1_ib                                  0x20000014   Data           2  main.o(.data)
    adc1_ic                                  0x20000016   Data           2  main.o(.data)
    adc1_idc                                 0x20000018   Data           2  main.o(.data)
    SystemCoreClock                          0x20000040   Data           4  system_gd32f30x.o(.data)
    pfunclist_m1                             0x20000044   Data          24  bldc_hall.o(.data)
    uart_data                                0x20000064   Data          16  main.o(.bss)
    g_bldc_motor                             0x200000c4   Data          84  bldc_hall.o(.bss)
    __initial_sp                             0x20000518   Data           0  startup_gd32f30x_hd.o(STACK)



==============================================================================

Memory Map of the image

  Image Entry point : 0x08004131

  Load Region LR_IROM1 (Base: 0x08004000, Size: 0x00002ab8, Max: 0x00040000, ABSOLUTE)

    Execution Region ER_IROM1 (Exec base: 0x08004000, Load base: 0x08004000, Size: 0x00002a54, Max: 0x00040000, ABSOLUTE)

    Exec Addr    Load Addr    Size         Type   Attr      Idx    E Section Name        Object

    0x08004000   0x08004000   0x00000130   Data   RO         1119    RESET               startup_gd32f30x_hd.o
    0x08004130   0x08004130   0x00000000   Code   RO         5281  * .ARM.Collect$$$$00000000  mc_w.l(entry.o)
    0x08004130   0x08004130   0x00000004   Code   RO         5288    .ARM.Collect$$$$00000001  mc_w.l(entry2.o)
    0x08004134   0x08004134   0x00000004   Code   RO         5291    .ARM.Collect$$$$00000004  mc_w.l(entry5.o)
    0x08004138   0x08004138   0x00000000   Code   RO         5293    .ARM.Collect$$$$00000008  mc_w.l(entry7b.o)
    0x08004138   0x08004138   0x00000000   Code   RO         5295    .ARM.Collect$$$$0000000A  mc_w.l(entry8b.o)
    0x08004138   0x08004138   0x00000008   Code   RO         5296    .ARM.Collect$$$$0000000B  mc_w.l(entry9a.o)
    0x08004140   0x08004140   0x00000000   Code   RO         5298    .ARM.Collect$$$$0000000D  mc_w.l(entry10a.o)
    0x08004140   0x08004140   0x00000000   Code   RO         5300    .ARM.Collect$$$$0000000F  mc_w.l(entry11a.o)
    0x08004140   0x08004140   0x00000004   Code   RO         5289    .ARM.Collect$$$$00002712  mc_w.l(entry2.o)
    0x08004144   0x08004144   0x00000024   Code   RO         1120    .text               startup_gd32f30x_hd.o
    0x08004168   0x08004168   0x00000024   Code   RO         5284    .text               mc_w.l(memcpya.o)
    0x0800418c   0x0800418c   0x00000024   Code   RO         5302    .text               mc_w.l(init.o)
    0x080041b0   0x080041b0   0x00000010   Code   RO          172    i.ADC0_1_IRQHandler  main.o
    0x080041c0   0x080041c0   0x00000004   Code   RO            3    i.BusFault_Handler  gd32f30x_it.o
    0x080041c4   0x080041c4   0x0000000e   Code   RO          778    i.DRV8323RS_clearFaults  drv8323rs.o
    0x080041d2   0x080041d2   0x0000001e   Code   RO          779    i.DRV8323RS_createSPIDataWord  drv8323rs.o
    0x080041f0   0x080041f0   0x0000001c   Code   RO          780    i.DRV8323RS_disable  drv8323rs.o
    0x0800420c   0x0800420c   0x00000018   Code   RO          781    i.DRV8323RS_enable  drv8323rs.o
    0x08004224   0x08004224   0x000000b8   Code   RO          782    i.DRV8323RS_init    drv8323rs.o
    0x080042dc   0x080042dc   0x00000010   Code   RO          785    i.DRV8323RS_setCsaGain  drv8323rs.o
    0x080042ec   0x080042ec   0x00000010   Code   RO          798    i.DRV8323RS_setVdsLvl  drv8323rs.o
    0x080042fc   0x080042fc   0x00000038   Code   RO          800    i.DRV8323RS_spiRead  drv8323rs.o
    0x08004334   0x08004334   0x00000022   Code   RO          801    i.DRV8323RS_spiUpdateRegister  drv8323rs.o
    0x08004356   0x08004356   0x00000002   PAD
    0x08004358   0x08004358   0x00000034   Code   RO          802    i.DRV8323RS_spiWrite  drv8323rs.o
    0x0800438c   0x0800438c   0x00000002   Code   RO            4    i.DebugMon_Handler  gd32f30x_it.o
    0x0800438e   0x0800438e   0x00000004   Code   RO            5    i.HardFault_Handler  gd32f30x_it.o
    0x08004392   0x08004392   0x00000002   PAD
    0x08004394   0x08004394   0x00000018   Code   RO         1001    i.IsKey0Down        key_fifo.o
    0x080043ac   0x080043ac   0x00000004   Code   RO            6    i.MemManage_Handler  gd32f30x_it.o
    0x080043b0   0x080043b0   0x00000002   Code   RO            7    i.NMI_Handler       gd32f30x_it.o
    0x080043b2   0x080043b2   0x00000002   PAD
    0x080043b4   0x080043b4   0x00000028   Code   RO          689    i.NVIC_SetPriority  systick.o
    0x080043dc   0x080043dc   0x00000002   Code   RO            8    i.PendSV_Handler    gd32f30x_it.o
    0x080043de   0x080043de   0x00000002   Code   RO            9    i.SVC_Handler       gd32f30x_it.o
    0x080043e0   0x080043e0   0x00000010   Code   RO          690    i.SysTick_Handler   systick.o
    0x080043f0   0x080043f0   0x000000a8   Code   RO         1078    i.SystemInit        system_gd32f30x.o
    0x08004498   0x08004498   0x00000034   Code   RO          173    i.TIMER0_BRK_IRQHandler  main.o
    0x080044cc   0x080044cc   0x000000e4   Code   RO          174    i.TIMER0_Channel_IRQHandler  main.o
    0x080045b0   0x080045b0   0x00000044   Code   RO          954    i.TIMER3_IRQHandler  encoder.o
    0x080045f4   0x080045f4   0x00000004   Code   RO           10    i.UsageFault_Handler  gd32f30x_it.o
    0x080045f8   0x080045f8   0x0000000e   Code   RO         5306    i.__scatterload_copy  mc_w.l(handlers.o)
    0x08004606   0x08004606   0x00000002   Code   RO         5307    i.__scatterload_null  mc_w.l(handlers.o)
    0x08004608   0x08004608   0x0000000e   Code   RO         5308    i.__scatterload_zeroinit  mc_w.l(handlers.o)
    0x08004616   0x08004616   0x00000002   PAD
    0x08004618   0x08004618   0x000000b4   Code   RO          273    i.adc0_config       motor_hardware.o
    0x080046cc   0x080046cc   0x0000000c   Code   RO          274    i.adc0_init         motor_hardware.o
    0x080046d8   0x080046d8   0x0000002a   Code   RO         1126    i.adc_calibration_enable  gd32f30x_adc.o
    0x08004702   0x08004702   0x00000046   Code   RO         1127    i.adc_channel_length_config  gd32f30x_adc.o
    0x08004748   0x08004748   0x00000016   Code   RO         1128    i.adc_data_alignment_config  gd32f30x_adc.o
    0x0800475e   0x0800475e   0x00000012   Code   RO         1134    i.adc_enable        gd32f30x_adc.o
    0x08004770   0x08004770   0x0000003e   Code   RO         1135    i.adc_external_trigger_config  gd32f30x_adc.o
    0x080047ae   0x080047ae   0x00000030   Code   RO         1136    i.adc_external_trigger_source_config  gd32f30x_adc.o
    0x080047de   0x080047de   0x00000002   PAD
    0x080047e0   0x080047e0   0x00000058   Code   RO          275    i.adc_gpio_init     motor_hardware.o
    0x08004838   0x08004838   0x00000074   Code   RO         1139    i.adc_inserted_channel_config  gd32f30x_adc.o
    0x080048ac   0x080048ac   0x0000002e   Code   RO         1141    i.adc_inserted_data_read  gd32f30x_adc.o
    0x080048da   0x080048da   0x0000002c   Code   RO         1143    i.adc_interrupt_enable  gd32f30x_adc.o
    0x08004906   0x08004906   0x00000006   Code   RO         1144    i.adc_interrupt_flag_clear  gd32f30x_adc.o
    0x0800490c   0x0800490c   0x0000001c   Code   RO         1146    i.adc_mode_config   gd32f30x_adc.o
    0x08004928   0x08004928   0x0000005a   Code   RO         1154    i.adc_special_function_config  gd32f30x_adc.o
    0x08004982   0x08004982   0x00000002   PAD
    0x08004984   0x08004984   0x00000058   Code   RO         5175    i.bldc_init         bldc_hall.o
    0x080049dc   0x080049dc   0x0000016c   Code   RO         5176    i.bldc_mainfunction  bldc_hall.o
    0x08004b48   0x08004b48   0x0000007a   Code   RO         5263    i.calc_pi           pid.o
    0x08004bc2   0x08004bc2   0x00000032   Code   RO         2083    i.dma_channel_enable  gd32f30x_dma.o
    0x08004bf4   0x08004bf4   0x00000032   Code   RO         2084    i.dma_circulation_disable  gd32f30x_dma.o
    0x08004c26   0x08004c26   0x00000070   Code   RO         2086    i.dma_deinit        gd32f30x_dma.o
    0x08004c96   0x08004c96   0x00000018   Code   RO         2088    i.dma_flag_get      gd32f30x_dma.o
    0x08004cae   0x08004cae   0x0000012e   Code   RO         2089    i.dma_init          gd32f30x_dma.o
    0x08004ddc   0x08004ddc   0x00000032   Code   RO         2097    i.dma_memory_to_memory_disable  gd32f30x_dma.o
    0x08004e0e   0x08004e0e   0x00000002   PAD
    0x08004e10   0x08004e10   0x00000018   Code   RO         2101    i.dma_periph_and_channel_check  gd32f30x_dma.o
    0x08004e28   0x08004e28   0x0000001c   Code   RO         2106    i.dma_struct_para_init  gd32f30x_dma.o
    0x08004e44   0x08004e44   0x00000010   Code   RO          955    i.encoder_get       encoder.o
    0x08004e54   0x08004e54   0x00000030   Code   RO          956    i.encoder_gpio_init  encoder.o
    0x08004e84   0x08004e84   0x00000016   Code   RO          957    i.encoder_init      encoder.o
    0x08004e9a   0x08004e9a   0x00000002   PAD
    0x08004e9c   0x08004e9c   0x00000090   Code   RO          958    i.encoder_timer_init  encoder.o
    0x08004f2c   0x08004f2c   0x0000000a   Code   RO         2810    i.gpio_bit_write    gd32f30x_gpio.o
    0x08004f36   0x08004f36   0x000000bc   Code   RO         2818    i.gpio_init         gd32f30x_gpio.o
    0x08004ff2   0x08004ff2   0x00000010   Code   RO         2819    i.gpio_input_bit_get  gd32f30x_gpio.o
    0x08005002   0x08005002   0x00000010   Code   RO         2821    i.gpio_output_bit_get  gd32f30x_gpio.o
    0x08005012   0x08005012   0x00000002   PAD
    0x08005014   0x08005014   0x00000090   Code   RO         2824    i.gpio_pin_remap_config  gd32f30x_gpio.o
    0x080050a4   0x080050a4   0x00000060   Code   RO          278    i.hall_init         motor_hardware.o
    0x08005104   0x08005104   0x000000d8   Code   RO          279    i.hall_timer_config  motor_hardware.o
    0x080051dc   0x080051dc   0x0000005c   Code   RO         5177    i.hallsensor_get_state  bldc_hall.o
    0x08005238   0x08005238   0x00000018   Code   RO         5264    i.init_pi           pid.o
    0x08005250   0x08005250   0x00000018   Code   RO          280    i.interrupt_init    motor_hardware.o
    0x08005268   0x08005268   0x000000cc   Code   RO         1003    i.key_detect        key_fifo.o
    0x08005334   0x08005334   0x00000018   Code   RO         1004    i.key_fifo_init     key_fifo.o
    0x0800534c   0x0800534c   0x00000034   Code   RO         1005    i.key_get           key_fifo.o
    0x08005380   0x08005380   0x0000001c   Code   RO         1006    i.key_gpio_config   key_fifo.o
    0x0800539c   0x0800539c   0x00000024   Code   RO         1008    i.key_put           key_fifo.o
    0x080053c0   0x080053c0   0x00000018   Code   RO         1009    i.key_scan          key_fifo.o
    0x080053d8   0x080053d8   0x00000058   Code   RO         1010    i.key_var_init      key_fifo.o
    0x08005430   0x08005430   0x00000094   Code   RO          582    i.led_init          led.o
    0x080054c4   0x080054c4   0x00000018   Code   RO          583    i.led_off           led.o
    0x080054dc   0x080054dc   0x00000018   Code   RO          584    i.led_on            led.o
    0x080054f4   0x080054f4   0x00000038   Code   RO          585    i.led_toggle        led.o
    0x0800552c   0x0800552c   0x0000003c   Code   RO         5178    i.m1_uhvl           bldc_hall.o
    0x08005568   0x08005568   0x0000003c   Code   RO         5179    i.m1_uhwl           bldc_hall.o
    0x080055a4   0x080055a4   0x0000003c   Code   RO         5180    i.m1_vhul           bldc_hall.o
    0x080055e0   0x080055e0   0x0000003c   Code   RO         5181    i.m1_vhwl           bldc_hall.o
    0x0800561c   0x0800561c   0x0000003c   Code   RO         5182    i.m1_whul           bldc_hall.o
    0x08005658   0x08005658   0x0000003c   Code   RO         5183    i.m1_whvl           bldc_hall.o
    0x08005694   0x08005694   0x00000140   Code   RO          175    i.main              main.o
    0x080057d4   0x080057d4   0x00000018   Code   RO          281    i.motor_hardware_init  motor_hardware.o
    0x080057ec   0x080057ec   0x0000002c   Code   RO          282    i.motor_pwm_set_duty  motor_hardware.o
    0x08005818   0x08005818   0x000000c4   Code   RO         3136    i.nvic_irq_enable   gd32f30x_misc.o
    0x080058dc   0x080058dc   0x00000014   Code   RO         3137    i.nvic_priority_group_set  gd32f30x_misc.o
    0x080058f0   0x080058f0   0x00000088   Code   RO          283    i.pwm_gpio_init     motor_hardware.o
    0x08005978   0x08005978   0x00000158   Code   RO          284    i.pwm_timer_config  motor_hardware.o
    0x08005ad0   0x08005ad0   0x0000006c   Code   RO         3326    i.rcu_adc_clock_config  gd32f30x_rcu.o
    0x08005b3c   0x08005b3c   0x00000158   Code   RO         3335    i.rcu_clock_freq_get  gd32f30x_rcu.o
    0x08005c94   0x08005c94   0x00000020   Code   RO         3353    i.rcu_periph_clock_enable  gd32f30x_rcu.o
    0x08005cb4   0x08005cb4   0x00000020   Code   RO         3356    i.rcu_periph_reset_disable  gd32f30x_rcu.o
    0x08005cd4   0x08005cd4   0x00000020   Code   RO         3357    i.rcu_periph_reset_enable  gd32f30x_rcu.o
    0x08005cf4   0x08005cf4   0x00000068   Code   RO          648    i.spi0_init         spi.o
    0x08005d5c   0x08005d5c   0x00000034   Code   RO          649    i.spi0_transmit_receive_data  spi.o
    0x08005d90   0x08005d90   0x0000000a   Code   RO         3971    i.spi_enable        gd32f30x_spi.o
    0x08005d9a   0x08005d9a   0x00000008   Code   RO         3973    i.spi_i2s_data_receive  gd32f30x_spi.o
    0x08005da2   0x08005da2   0x00000004   Code   RO         3974    i.spi_i2s_data_transmit  gd32f30x_spi.o
    0x08005da6   0x08005da6   0x00000010   Code   RO         3976    i.spi_i2s_flag_get  gd32f30x_spi.o
    0x08005db6   0x08005db6   0x00000032   Code   RO         3981    i.spi_init          gd32f30x_spi.o
    0x08005de8   0x08005de8   0x00000028   Code   RO         5184    i.start_motor       bldc_hall.o
    0x08005e10   0x08005e10   0x00000030   Code   RO         5185    i.stop_motor        bldc_hall.o
    0x08005e40   0x08005e40   0x00000114   Code   RO         1079    i.system_clock_120m_hxtal  system_gd32f30x.o
    0x08005f54   0x08005f54   0x00000008   Code   RO         1080    i.system_clock_config  system_gd32f30x.o
    0x08005f5c   0x08005f5c   0x00000030   Code   RO          692    i.systick_delay     systick.o
    0x08005f8c   0x08005f8c   0x0000000c   Code   RO          693    i.systick_get_current_tick  systick.o
    0x08005f98   0x08005f98   0x00000050   Code   RO          694    i.systick_init      systick.o
    0x08005fe8   0x08005fe8   0x0000000a   Code   RO         4217    i.timer_auto_reload_shadow_enable  gd32f30x_timer.o
    0x08005ff2   0x08005ff2   0x0000001e   Code   RO         4221    i.timer_break_config  gd32f30x_timer.o
    0x08006010   0x08006010   0x0000005a   Code   RO         4231    i.timer_channel_input_capture_prescaler_config  gd32f30x_timer.o
    0x0800606a   0x0800606a   0x00000002   PAD
    0x0800606c   0x0800606c   0x000001ec   Code   RO         4234    i.timer_channel_output_config  gd32f30x_timer.o
    0x08006258   0x08006258   0x0000005a   Code   RO         4236    i.timer_channel_output_mode_config  gd32f30x_timer.o
    0x080062b2   0x080062b2   0x00000026   Code   RO         4238    i.timer_channel_output_pulse_value_config  gd32f30x_timer.o
    0x080062d8   0x080062d8   0x0000005a   Code   RO         4239    i.timer_channel_output_shadow_config  gd32f30x_timer.o
    0x08006332   0x08006332   0x00000008   Code   RO         4244    i.timer_counter_read  gd32f30x_timer.o
    0x0800633a   0x0800633a   0x00000004   Code   RO         4246    i.timer_counter_value_config  gd32f30x_timer.o
    0x0800633e   0x0800633e   0x00000002   PAD
    0x08006340   0x08006340   0x000000dc   Code   RO         4247    i.timer_deinit      gd32f30x_timer.o
    0x0800641c   0x0800641c   0x0000000a   Code   RO         4252    i.timer_enable      gd32f30x_timer.o
    0x08006426   0x08006426   0x0000001a   Code   RO         4261    i.timer_hall_mode_config  gd32f30x_timer.o
    0x08006440   0x08006440   0x00000098   Code   RO         4262    i.timer_init        gd32f30x_timer.o
    0x080064d8   0x080064d8   0x00000146   Code   RO         4263    i.timer_input_capture_config  gd32f30x_timer.o
    0x0800661e   0x0800661e   0x00000010   Code   RO         4265    i.timer_input_trigger_source_select  gd32f30x_timer.o
    0x0800662e   0x0800662e   0x00000008   Code   RO         4269    i.timer_interrupt_enable  gd32f30x_timer.o
    0x08006636   0x08006636   0x00000006   Code   RO         4270    i.timer_interrupt_flag_clear  gd32f30x_timer.o
    0x0800663c   0x0800663c   0x00000018   Code   RO         4271    i.timer_interrupt_flag_get  gd32f30x_timer.o
    0x08006654   0x08006654   0x00000018   Code   RO         4277    i.timer_primary_output_config  gd32f30x_timer.o
    0x0800666c   0x0800666c   0x00000040   Code   RO         4278    i.timer_quadrature_decoder_mode_config  gd32f30x_timer.o
    0x080066ac   0x080066ac   0x00000010   Code   RO         4281    i.timer_slave_mode_select  gd32f30x_timer.o
    0x080066bc   0x080066bc   0x00000020   Code   RO         5186    i.uemf_edge         bldc_hall.o
    0x080066dc   0x080066dc   0x00000090   Code   RO         4657    i.usart_baudrate_set  gd32f30x_usart.o
    0x0800676c   0x0800676c   0x00000090   Code   RO         4662    i.usart_deinit      gd32f30x_usart.o
    0x080067fc   0x080067fc   0x00000014   Code   RO         4664    i.usart_dma_receive_config  gd32f30x_usart.o
    0x08006810   0x08006810   0x00000014   Code   RO         4665    i.usart_dma_transmit_config  gd32f30x_usart.o
    0x08006824   0x08006824   0x0000000a   Code   RO         4666    i.usart_enable      gd32f30x_usart.o
    0x0800682e   0x0800682e   0x00000002   PAD
    0x08006830   0x08006830   0x00000154   Code   RO          750    i.usart_init        uart.o
    0x08006984   0x08006984   0x00000014   Code   RO         4690    i.usart_receive_config  gd32f30x_usart.o
    0x08006998   0x08006998   0x00000088   Code   RO          751    i.usart_send_data   uart.o
    0x08006a20   0x08006a20   0x00000014   Code   RO         4704    i.usart_transmit_config  gd32f30x_usart.o
    0x08006a34   0x08006a34   0x00000020   Data   RO         5304    Region$$Table       anon$$obj.o


    Execution Region RW_IRAM1 (Exec base: 0x20000000, Load base: 0x08006a54, Size: 0x00000518, Max: 0x0000c000, ABSOLUTE)

    Exec Addr    Load Addr    Size         Type   Attr      Idx    E Section Name        Object

    0x20000000   0x08006a54   0x0000001a   Data   RW          177    .data               main.o
    0x2000001a   0x08006a6e   0x00000002   PAD
    0x2000001c   0x08006a70   0x00000018   Data   RW          586    .data               led.o
    0x20000034   0x08006a88   0x00000004   Data   RW          696    .data               systick.o
    0x20000038   0x08006a8c   0x00000001   Data   RW          959    .data               encoder.o
    0x20000039   0x08006a8d   0x00000007   Data   RW         1012    .data               key_fifo.o
    0x20000040   0x08006a94   0x00000004   Data   RW         1081    .data               system_gd32f30x.o
    0x20000044   0x08006a98   0x0000001d   Data   RW         5188    .data               bldc_hall.o
    0x20000061   0x08006ab5   0x00000003   PAD
    0x20000064        -       0x00000010   Zero   RW          176    .bss                main.o
    0x20000074        -       0x00000040   Zero   RW          752    .bss                uart.o
    0x200000b4        -       0x00000010   Zero   RW         1011    .bss                key_fifo.o
    0x200000c4        -       0x00000054   Zero   RW         5187    .bss                bldc_hall.o
    0x20000118        -       0x00000400   Zero   RW         1117    STACK               startup_gd32f30x_hd.o


==============================================================================

Image component sizes


      Code (inc. data)   RO Data    RW Data    ZI Data      Debug   Object Name

      1024        124          0         29         84       8163   bldc_hall.o
       454         30          0          0          0      19310   drv8323rs.o
       298         22          0          1          0       3629   encoder.o
       592          6          0          0          0       8890   gd32f30x_adc.o
       640          6          0          0          0       6456   gd32f30x_dma.o
       374          6          0          0          0       4104   gd32f30x_gpio.o
        24          0          0          0          0      67748   gd32f30x_it.o
       216         20          0          0          0       1592   gd32f30x_misc.o
       548         68          0          0          0       4031   gd32f30x_rcu.o
        88          0          0          0          0       4170   gd32f30x_spi.o
      1744         48          0          0          0      16233   gd32f30x_timer.o
       378         16          0          0          0       4941   gd32f30x_usart.o
       480         40          0          7         16       5927   key_fifo.o
       252         40          0         24          0       3331   led.o
       616         82          0         26         16       4672   main.o
      1164         46          0          0          0       5916   motor_hardware.o
       146          6          0          0          0       1400   pid.o
       156         14          0          0          0       1241   spi.o
        36          8        304          0       1024        932   startup_gd32f30x_hd.o
       452         30          0          4          0       3027   system_gd32f30x.o
       196         24          0          4          0      29919   systick.o
       476         40          0          0         64       2075   uart.o

    ----------------------------------------------------------------------
     10376        676        336        100       1204     207707   Object Totals
         0          0         32          0          0          0   (incl. Generated)
        22          0          0          5          0          0   (incl. Padding)

    ----------------------------------------------------------------------

      Code (inc. data)   RO Data    RW Data    ZI Data      Debug   Library Member Name

         0          0          0          0          0          0   entry.o
         0          0          0          0          0          0   entry10a.o
         0          0          0          0          0          0   entry11a.o
         8          4          0          0          0          0   entry2.o
         4          0          0          0          0          0   entry5.o
         0          0          0          0          0          0   entry7b.o
         0          0          0          0          0          0   entry8b.o
         8          4          0          0          0          0   entry9a.o
        30          0          0          0          0          0   handlers.o
        36          8          0          0          0         68   init.o
        36          0          0          0          0         68   memcpya.o

    ----------------------------------------------------------------------
       124         16          0          0          0        136   Library Totals
         2          0          0          0          0          0   (incl. Padding)

    ----------------------------------------------------------------------

      Code (inc. data)   RO Data    RW Data    ZI Data      Debug   Library Name

       122         16          0          0          0        136   mc_w.l

    ----------------------------------------------------------------------
       124         16          0          0          0        136   Library Totals

    ----------------------------------------------------------------------

==============================================================================


      Code (inc. data)   RO Data    RW Data    ZI Data      Debug   

     10500        692        336        100       1204     194847   Grand Totals
     10500        692        336        100       1204     194847   ELF Image Totals
     10500        692        336        100          0          0   ROM Totals

==============================================================================

    Total RO  Size (Code + RO Data)                10836 (  10.58kB)
    Total RW  Size (RW Data + ZI Data)              1304 (   1.27kB)
    Total ROM Size (Code + RO Data + RW Data)      10936 (  10.68kB)

==============================================================================

