:020000040800F2
:10400000C005002045410008E54D0008FF480008B4
:10401000E14D00082F4700081D4F00080000000078
:10402000000000000000000000000000134E000827
:10403000FD48000800000000114E0008154E000861
:104040005F4100085F4100085F4100085F410008D0
:104050005F4100085F4100085F4100085F410008C0
:104060005F4100085F4100085F4100085F410008B0
:104070005F4100085F4100085F4100085F410008A0
:104080005F4100085F410008AD4200085F41000841
:104090005F4100085F4100085F4100085F41000880
:1040A000CD4E00085F4100085F4100085F410008F5
:1040B0005F410008014F00085F4100085F410008B0
:1040C0005F4100085F4100085F4100085F41000850
:1040D0005F4100085F4100085F4100085F41000840
:1040E0005F4100085F4100085F4100085F41000830
:1040F0005F4100085F4100085F4100085F41000820
:104100005F4100085F4100085F4100085F4100080F
:104110005F4100085F4100085F4100085F410008FF
:104120005F4100085F4100085F4100085F410008EF
:10413000DFF80CD000F0A8F800480047A95A0008A2
:10414000C00500200648804706480047FEE7FEE716
:10415000FEE7FEE7FEE7FEE7FEE7FEE7FEE7FEE737
:10416000254E0008314100089FED1A1AF5EE000AAD
:1041700040EE010ABDEEE00AF5EEC00A10EE100AAC
:10418000F1EE10FA38BF401E00EE100A1349F7EEA8
:10419000001AB8EEC00A30EEC00ADFED0F0A20EEBA
:1041A000200AFCEEC00A10EE900AC0F3080000EEF0
:1041B000900A01EB8000F8EE600A90ED011A70EEB3
:1041C000600A90ED000A71EEE01A21EE800A00EE1E
:1041D000810A704783F9223E0000004438AA000893
:1041E000DFED1D0AB5EEC00A60EE200ABDEEE01A52
:1041F00011EE100AF1EE10FA38BF401E00EE100A60
:10420000B8EEC00A30EEC00ADFED140A20EE200A34
:10421000B4EEE00AF1EE10FAA8BF30EE600AFCEE50
:10422000C00A0F49F7EE001A10EE900AC0F308001A
:1042300000EE900A01EB8000F8EE600A90ED011AA2
:1042400070EE600A90ED000A71EEE01A21EE800A2D
:1042500000EE810A7047000083F9223E000000440E
:1042600038AA000840EA01039B0703D009E008C907
:10427000121F08C0042AFAD203E011F8013B00F82B
:10428000013B521EF9D27047064C074D06E0E0682C
:1042900040F0010394E8070098471034AC42F6D38D
:1042A000FFF74AFF3CB200085CB2000810B588B0C6
:1042B0009FEDFE0A8DED070A9FEDFC0A8DED060AC3
:1042C0009FEDFA0A8DED050A0020019002900390FF
:1042D000049000240421F64800F0ADFFF548007872
:1042E00000285BD1F4480088401CF3490880002175
:1042F000EF4800F073FFF14908800121EC4800F01D
:104300006DFFEF4908800221E94800F067FFED49A1
:1043100008800321E64800F061FFEB490880EB4884
:104320000068E64909880844E8490860E8480068E8
:10433000E34909880844E6490860E6480068E1491D
:1043400009880844E3490860E3480068DE490988B1
:104350000844E1490860D8480088B0F5805F1CDB5C
:104360000120D4490870D9480068000BD74908607B
:10437000D7480068000BD6490860D6480068000B93
:10438000D4490860D4480068000BD3490860012074
:1043900001F006FC0020D1490870C6E1D048006851
:1043A00047F6FF41884228D2CD480068401CCC49DE
:1043B0000860CC4801F064FCCA48008840F624112B
:1043C00090FBF1F201FB1200C64908800846008804
:1043D00000EE100AB8EE400ADFEDC30A20EE200A14
:1043E000DFEDC20A80EE201AC14880ED001A90ED80
:1043F000000AC04880ED000A97E10021AC4800F0B7
:10440000EDFEAE4908800121A94800F0E7FEAC4965
:1044100008800221A64800F0E1FEAA490880032195
:10442000A34800F0DBFEA8490880A84890ED000AE8
:10443000F8EE400AA148008800EE100AB8EE400AE3
:1044400030EEC00ADFEDAC0A20EE200A8DED070A3F
:104450009F4890ED000AF8EE400A9948008800EE67
:10446000100AB8EE400A30EEC00ADFEDA30A20EED3
:10447000200A8DED060A9148008800EE100AF8EE39
:10448000400A924890ED000AB8EE400A30EEC00AA9
:10449000DFED990A20EE200A984880ED030A88484B
:1044A000008800EE100AF8EE400A894890ED000AF4
:1044B000B8EE400A30EEC00ADFED8F0A20EE200A87
:1044C0008E4880ED040A7F48008800EE100AF8EE5E
:1044D000400A804890ED000AB8EE400A30EEC00A6B
:1044E000DFED850A20EE200A844880ED050A7D482C
:1044F00001F0C6FB7B48008840F6241190FBF1F2E6
:1045000001FB1200774908800846008800EE100A77
:10451000B8EE400ADFED740A20EE200ADFED730AE0
:1045200080EE201A724880ED001A90ED000A714862
:10453000D0ED000AB4EEE00AF1EE10FA0BDD6C48A3
:1045400090ED000A6B48D0ED000A30EE600A6C482E
:1045500080ED000A1FE0664890ED000ADFED620A78
:1045600030EE200A6348D0ED000A30EE600A64485D
:1045700080ED000A90ED000ADFED620AB4EEE00A79
:10458000F1EE10FA07DD90ED000ADFED570A30EE8C
:10459000600A80ED000A5A4890ED000ADFED5A0AE1
:1045A00020EE200A594880ED000A90ED000A584894
:1045B0005849098800EB810080ED000A55480088C1
:1045C000401C54490880084600880A2801DB002066
:1045D00008809FED360A504880ED000A00240DE067
:1045E0004B4800EB840090ED000A4B48D0ED000AE8
:1045F00030EE200A80ED000A601C84B20A2CEFDB4A
:10460000454890ED000AF2EE040A80EE201A3F4879
:1046100080ED001A90ED000A304880ED080A344819
:1046200090ED000ADFED3D0A30EE200A334880EDC0
:10463000000A01F06DFD2E4890ED000A2D4880ED36
:10464000000A2B4890ED000A8DED070A07980190AB
:104650002E4890ED000A8DED060A06980290274834
:1046600090ED090A8DED050A0598039080208DF8DC
:1046700012007F208DF81300102101A802F094FF92
:104680001E4B93ED2F0ABCEEC00A10EE103A9AB200
:104690001A4B93ED2E0ABCEEC00A10EE103A99B2F6
:1046A000164B93ED2D0ABCEEC00A39E00000000065
:1046B00000240140000000203C00002014000020E5
:1046C00016000020180000201A000020040000201E
:1046D000080000200C0000201000002094010020A1
:1046E0001C00002034000020DB0FC94000401245B0
:1046F0002C000020240000200000843CC800002082
:1047000020000020DB0F494000007A4630000020E6
:10471000600000203600002038000020DB0F493FF9
:1047200010EE103A98B201F07FFA08B010BD00BF49
:10473000FEE710B501221146022000F0B3F810BDCB
:1047400010B503464FF6FF7404EAC3304FF4F0444B
:1047500004EAC1242043C2F30A04204310BD000030
:1047600010B500224FF48061034800F0A1FF012042
:1047700002F0E2F910BD0000000C014010B501226A
:104780009102034800F094FF012002F0D5F910BD1A
:10479000000C01402DE9F0410025002600240027EF
:1047A00040F2026001F0C2FE40F2036001F0BEFE82
:1047B00040F2036001F0BAFE01F0FCFE1023032278
:1047C0001946204800F079FF4FF48063032210213E
:1047D0001D4800F072FF0423032210211A4800F044
:1047E0006CFF00224FF48061174800F061FF012246
:1047F0001021144800F05CFF01220421124800F04F
:1048000057FF022002F098F9002204210E4800F020
:104810004FFFFFF7A5FFFFF7B1FFFFF78AFF032068
:1048200000F024F80446012000F018F8012000F000
:104830000DF840F2FF30844201D000BFFEE7BDE832
:10484000F081000000080140000C014010B5044652
:10485000A201C021062000F025F810BD10B50446C5
:1048600022460F21052000F01DF810BD70B504464A
:104870000025002221460120FFF762FF06460022A4
:104880001021074800F014FF304601F0C7FE05462E
:1048900001221021024800F00BFFC5F30A0070BD91
:1048A000000801402DE9F04107460D4616463846FE
:1048B000FFF7DCFF0446AC4334432146384600F0A2
:1048C00003F8BDE8F081000070B504460D462A46A5
:1048D00021460020FFF734FF06460022102106483B
:1048E00000F0E6FE304601F099FE01221021024858
:1048F00000F0DEFE70BD000000080140704700BF00
:10490000FEE72DE9F04104460D4616461F462A20D3
:1049100000F040FA04F1280188B200F02CFA06F108
:10492000280188B200F027FA2B2000F033FA05F1B5
:10493000350188B200F01FFA07F1350188B200F0A6
:104940001AFA2C2000F026FABDE8F08170B5044672
:104950000D4616462B46224629462046FFF7D1FF34
:10496000304600F008FA70BD2DE9F04706460F46C4
:1049700014461D46DDF820A0681E83B2601E82B278
:1049800039463046FFF7BDFFB8460EE0B14606E0B7
:10499000504600F0F0F909F101001FFA80F9A14535
:1049A000F6DB08F101001FFA80F8A845EEDBBDE850
:1049B000F087000010B540F2046001F0B7FD40F24E
:1049C000036001F0B3FD4FF4005303221021164899
:1049D00000F073FE01225103134800F069FE4FF40A
:1049E000804303221021104800F067FE012291034A
:1049F0000D4800F05DFE4FF40043032210210A48E9
:104A000000F05BFE0122D103074800F051FE0223B3
:104A100003221021044800F050FE01220221024826
:104A200000F046FE10BD00000010014010B5FFF779
:104A3000C1FF01F00DFE00224FF40041664800F076
:104A400037FE642002F078F80122D103624800F0BA
:104A50002FFE642002F070F8012251035E4800F03E
:104A600027FE642002F068F8112000F093F9782006
:104A700002F062F8362000F08DF9702000F084F921
:104A80003A2000F087F9052000F07EF9B22000F00E
:104A900081F90C2000F078F90C2000F075F9002065
:104AA00000F072F9332000F06FF9332000F06CF958
:104AB000B72000F06FF9352000F066F9BB2000F058
:104AC00069F9192000F060F9C02000F063F92C208A
:104AD00000F05AF9C22000F05DF9012000F054F90D
:104AE000C32000F057F9122000F04EF9C42000F066
:104AF00051F9202000F048F9C62000F04BF90F20B2
:104B000000F042F9D02000F045F9A42000F03CF973
:104B1000A12000F039F9E02000F03CF9D02000F0AD
:104B200033F9042000F030F90D2000F02DF91120A8
:104B300000F02AF9132000F027F92B2000F024F9C7
:104B40003F2000F021F9542000F01EF94C2000F025
:104B50001BF9182000F018F90D2000F015F90B20B2
:104B600000F012F91F2000F00FF9232000F00CF9DB
:104B7000E12000F00FF9D02000F006F9042000F049
:104B800003F90C2000F000F9112000F0FDF81320CB
:104B900000F0FAF82C2000F0F7F83F2000F0F4F8CD
:104BA000442000F0F1F8512000F0EEF82F2000F042
:104BB000EBF81F2000F0E8F81F2000F0E5F82020B7
:104BC00000F0E2F8232000F0DFF8212000F0E2F806
:104BD000292000F0DFF810BD001001402DE9FF5F33
:104BE00080468A4617469B460F9D00200290CDF8CE
:104BF0000080284605EBD071C1F347042046E21738
:104C000004EB5272D2102146E31704EB5373DB100E
:104C1000A4EBC3030BB1012300E000231A446A4351
:104C200092B20192A7F12000C7B20AEB0500401E24
:104C300083B208EB0400401E82B251464046FFF7A3
:104C400060FE002669E00C2D07D107EB47003549CF
:104C500001EB8000805D03901BE0102D05D13248F0
:104C600000EB0710805D039013E0182D07D107EBD0
:104C700047002E4901EB0010805D039009E0202DD4
:104C800005D12B4800EB8710805D039001E0BDE863
:104C9000FF9F4FF000093AE01098C8B9012000FAD0
:104CA00009F00399084018B1584600F064F802E092
:104CB0000E9800F060F80298401CC0B20290029872
:104CC00090FBF4F104FB1100E8B90020029021E010
:104CD000012000FA09F00399084020B15A465146D4
:104CE0004046FFF733FE08F101001FFA80F80098F4
:104CF000A8EB0000A04206D1DDF800800AF1010017
:104D00001FFA80FA06E009F1010000F0FF09B9F18D
:104D1000080FC1DB00BF701C86B20198864292DB8F
:104D200000BFB4E744760008B87A0008A8800008FD
:104D3000789200082DE9FE4F06460F461446984625
:104D4000DDE90D5ADDF8309010E0CDE9015ACDF8DB
:104D500000902278434639463046FFF73FFF284609
:104D600005EBD07106EB61018EB2641C207800283F
:104D7000EBD1BDE8FE8F10B50446201200F01EF8FE
:104D8000E0B200F01BF810BD10B50446204600F05C
:104D900015F810BD10B5044600224FF480410648B6
:104DA00000F086FC204600F009F801229103024839
:104DB00000F07EFC10BD00000010014010B504465C
:104DC00000220221054800F073FC204601F072FC2D
:104DD00001220221014800F06BFC10BD00100140CF
:104DE00000BFFEE77047000010B5002807DA0A0789
:104DF000140E054A00F00F031B1FD45403E00A07EA
:104E0000130E024A135410BD18ED00E000E400E058
:104E10007047704702480068401C014908607047AD
:104E20005800002008B52648006840F47000244966
:104E300008602448006840F001002249086000BF73
:104E40002048006800F002000028F9D000BF1D488B
:104E5000406840F080001B4948600020009002E05C
:104E60000098401C009000985028F9D315484068DD
:104E700040F09000134948600020009002E0009844
:104E8000401C009000985028F9D300BF0D4840689E
:104E900020F003000B494860084600680A490840B2
:104EA000084908604FF41F0088600846006820F435
:104EB0008020086000204860C86201F039FE08BD0B
:104EC00088ED00E000100240FFFFF6FE10B5202242
:104ED00000210A4801F0D0FF20220121074801F0FB
:104EE000CBFF20220221054801F0C6FF80210348A4
:104EF00002F0D9F9022000F0AFFD10BD002C0140F6
:104F000010B50221044802F0D1F9012803D1022191
:104F1000014802F0C8F910BD0004004000BFFEE7E0
:104F200002E008C8121F08C1002AFAD17047704772
:104F3000002001E001C1121F002AFBD170470000D0
:104F400010B540F2096001F0F1FA012001F00CFA0D
:104F5000002000F073F901221102254800F07CF9CD
:104F600000220221224800F077F90021204800F0B9
:104F70007FF8042202211E4800F057F800230E2279
:104F800019461B4800F0F0F800230F2201211848B1
:104F900000F0EAF8002308220221154800F0E4F8A6
:104FA000002303221146124800F0DEF84FF480522D
:104FB00002210F4800F08FF8012202210C4800F076
:104FC0006BF802210A4800F036F90421084800F085
:104FD00032F90421064800F018F9054800F053F8AA
:104FE000012001F0A9FD024800F00AF810BD000000
:104FF0000024014010B500F087F8FFF7A1FF10BDB5
:10500000816841F00801816000BF816801F00801FA
:105010000029FAD1816841F00401816000BF8168F4
:1050200001F004010029FAD1704730B5012902D0FE
:1050300002291AD10CE0C36A23F47003C362C36A65
:10504000541E4FF4700505EA04542343C3620DE077
:10505000836B23F440138363836B541E4FF440151A
:1050600005EA04542343836300E000BF00BF30BD62
:1050700021B1826842F40062826003E0826822F417
:10508000006282607047816801F0010119B981688E
:1050900041F001018160704772B101F001031BB161
:1050A000836843F48013836001F0020393B1836843
:1050B00043F4004383600DE001F001031BB18368FA
:1050C00023F48013836001F002031BB1836823F48F
:1050D000004383607047012902D0022910D107E004
:1050E000836823F46023836083681343836008E04C
:1050F000836823F4E043836083681343836000E0A4
:1051000000BF00BF7047000010B540F2046001F01E
:105110000DFA40F2046001F009FA40F2036001F078
:1051200005FA40F2026001F001FA10230422002186
:105130000A4800F0C2FA202304220021074800F0A8
:10514000BCFA012304220021054800F0B6FA082326
:1051500004220021034800F0B0FA10BD0010014005
:10516000000C014000080140F0B50C46876BC7F306
:105170000156856BE71CBF1B07EB870C1F2707FA3F
:105180000CF7BD43E71CBF1B07EB870702FA07F7C5
:105190003D4385630A2A0DD2016902EB420C0727C1
:1051A00007FA0CF7B94302EB420703FA07F7394352
:1051B000016112E0122A10D2C168A2F10A0707EBBE
:1051C000470C072707FA0CF7B943A2F10A0707EBC8
:1051D000470703FA07F73943C160F0BD02460B46A3
:1051E00033B1012B06D0022B06D0032B08D105E0EA
:1051F000D16B07E0116C05E0516C03E0916C01E0AC
:10520000002100BF00BF88B2704701F001021AB14F
:10521000426842F04002426001F002021AB1426864
:1052200042F02002426001F004021AB1426842F0EA
:10523000800242607047CA430260704705490968AE
:1052400021F47021034A116011460968014311607D
:105250007047000004240140AAB101F480731BB11F
:10526000436843F48073436001F480631BB1436877
:1052700043F48063436001F00203CBB1836843F0E1
:105280000203836014E001F480731BB1436823F4CC
:105290008073436001F480631BB1436823F480632F
:1052A000436001F002031BB1836823F002038360B3
:1052B0007047D0ED061A90ED072A71EEC21AF0EE93
:1052C000610AC0ED090AD0ED001A90ED012A42EE04
:1052D000201AB0EE610AD0ED041AF4EEC01AF1EE15
:1052E00010FA04D2D0ED041AC0ED081A0DE0D0ED8A
:1052F000051AF4EEC01AF1EE10FA04DDD0ED051A2D
:10530000C0ED081A01E080ED080AD0ED081A30EE71
:10531000611AD0ED001A90ED022A42EE201A90EDAB
:10532000032A42EE411AC0ED001A70471E48007869
:10533000C0B31D488088B0F5486F05D21A488088F0
:10534000401C1949888011E0174890ED020ADFEDF2
:10535000170AB4EEE00AF1EE10FA07D290ED020A55
:10536000DFED130A30EE200A80ED020A114890EDBD
:10537000000A0D48D0ED020A30EE200A0D4880EDFB
:10538000000A90ED000ADFED0C0AB4EEE00AF1EE3F
:1053900010FA07DD90ED000ADFED070A30EE600A33
:1053A00080ED000A704700009401002067A8BB3D13
:1053B000961B0036C8000020DB0FC94090ED030AA1
:1053C00080ED060A90ED030ADFED080A20EE200AC0
:1053D000D0ED040AB0EE001A60EE810A9FED031AC8
:1053E00000EE810A80ED070A704700003ACD133FB6
:1053F00030B502460C46002112E012F8010B414084
:1054000006230BE001F0200020B1032080EA4100D8
:10541000C1B201E04806010E581EC3B2002BF1DCF8
:10542000201EA4F10105ECB2E7D101F03F0030BD30
:1054300070B505460C462146284600F01FF908B90C
:1054400000BFFEE704EB8400810005F1080040582E
:1054500040F0010104EB8400820005F10800815056
:1054600070BD70B505460C462146284600F006F989
:1054700008B900BFFEE704EB8400810005F10800D5
:10548000405820F0200104EB8400820005F1080060
:10549000815070BD70B504460D462946204600F087
:1054A000EDF808B900BFFEE705EB8500810004F1C7
:1054B0000800405820F0010105EB8500820004F14E
:1054C00008008150002105EB8500820004F10800EE
:1054D000815005EB8500820004F10C00815005EB42
:1054E0008500820004F11000815005EB85008200E8
:1054F00004F1140081506068AA000F219140084314
:10550000606070BD30B503461C688D0002FA05F579
:105510002C400CB1012000E0002030BD2DE9F0410D
:1055200004460D4616462946204600F0A7F808B95D
:1055300000BFFEE705EB8500820004F11000316832
:10554000815005EB8500820004F11400B1688150A0
:10555000308A81B205EB8500820004F10C00815095
:1055600005EB8500810004F10800475827F47C57BB
:10557000F1687068084371690843074305EB8500CB
:10558000810004F108004750307E01280ED105EB60
:105590008500810004F10800405840F0400105EB0F
:1055A0008500820004F1080081500DE005EB8500C4
:1055B000810004F10800405820F0400105EB85000F
:1055C000820004F108008150707E01280ED105EBA5
:1055D0008500810004F10800405840F0800105EB8F
:1055E0008500820004F1080081500DE005EB850084
:1055F000810004F10800405820F0800105EB85008F
:10560000820004F108008150B07E70B905EB85007E
:10561000810004F10800405820F0100105EB8500DE
:10562000820004F1080081500DE005EB8500810047
:1056300004F10800405840F0100105EB850082009D
:1056400004F108008150BDE8F08170B505460C46B4
:105650002146284600F012F808B900BFFEE704EB27
:105660008400810005F10800405820F4804104EBDB
:105670008400820005F10800815070BD02460120BF
:10568000034B9A4202D1042900DD0020704700003C
:105690000004024008B900BFFEE70021016041603C
:1056A00001768160C1604176016181764161704718
:1056B0000AB1016100E041617047F0B50446164649
:1056C0000025002201F00F0501F0100747B1042E5C
:1056D00005D145F00305E76B1F43E76300E0354361
:1056E00000201EE0012787401F40C7B122684FEA13
:1056F000800C0F2707FA0CF7BA43870005FA07F763
:105700003A43282904D1012787401F40676105E0FB
:10571000482903D1012787401F4027612260471C89
:10572000B8B20828DED3082022E0012787401F40B6
:10573000E7B16268A0F108074FEA870C0F2707FA64
:105740000CF7BA43A0F10807BF0005FA07F73A4380
:10575000282904D1012787401F40676105E04829B7
:1057600003D1012787401F4027616260471CB8B200
:105770001028DAD3F0BD0246D068084008B10120F5
:1057800070470020FCE70000F0B50A460023002423
:105790000021002500F00046B6F1004F02D11D4E59
:1057A000F16901E01B4E7168C0F3034583B200F458
:1057B0004016B6F5401F08D121F0E061154E76681D
:1057C00026F0E066134F7E6012E000F48016B6F516
:1057D000801F06D1032606FA05F4A14341F0E061DB
:1057E00006E0460D360103FA06F6B14341F0E061EA
:1057F00022B1460D360103FA06F6314300F00046A9
:10580000B6F1004F02D1034EF16101E0014E71602B
:10581000F0BD00000000014010B540F2046000F04F
:1058200085FE40F2046000F081FE40F2046000F06A
:105830007DFE4FF4C06000F079FE01210C48FFF7B7
:10584000A3FF4023032204210A48FFF736FF8023E9
:10585000032204210748FFF730FF4FF4807303222F
:1058600004210448FFF729FF00F006F810BD0000EE
:10587000000C1A000010014000B587B040F2017022
:1058800000F054FE314801F093FB7720ADF804009E
:105890000020ADF80600ADF808004FF6FF70039049
:1058A0000020ADF80A008DF8100001A9274801F08A
:1058B000FFFB0020ADF814000320ADF81600002017
:1058C000ADF81800ADF81A0005AA00211F4801F034
:1058D0003BFC0020ADF814000320ADF816000020BA
:1058E000ADF81800ADF81A0005AA0121174801F01B
:1058F0002BFC0020ADF814000320ADF816000020AA
:10590000ADF81800ADF81A0005AA02210F4801F001
:105910001BFC40210D4801F0BAFC04210B4801F0AA
:10592000DDFC0021094801F0B6FB084801F04AF906
:105930000221064801F0B7FC0221044801F0AFFC47
:10594000024801F0A3FB07B000BD000000040040C6
:105950009FED040A80ED000A9FED020A80ED080A1F
:10596000704700000000000010B50022114618200A
:1059700000F0BAF902220021122000F0B5F901224C
:1059800011461D2000F0B0F910BD90ED0A0AD0EDCF
:10599000020A20EE200AD0ED0B0A90ED011A00EE6B
:1059A000C10A80ED0C0A90ED0A0AD0ED010A20EE42
:1059B000200AD0ED0B0A90ED021A00EE810A80ED6C
:1059C0000D0A704710B540F2056000F0AFFD40F2DF
:1059D000046000F0ABFD40F2026000F0A7FD4FF460
:1059E000C06000F0A3FD01211848FFF7CDFE184963
:1059F0000B681849032208681021FFF75EFE14495E
:105A00004B681449032248681021FFF756FE1049DD
:105A10008B681049032288681021FFF74EFE0C4A5C
:105A200011680C4A10680122FFF742FE084A5168CB
:105A3000084A50680122FFF73BFE054A9168054A73
:105A400090680122FFF734FE10BD00000002300014
:105A50004C00002040000020034951F82010034A68
:105A600052F82020516170474C0000204000002077
:105A700070B504460A4A52F824100A4A52F8240023
:105A8000FFF779FEC0F10100C5B2054A52F82410B3
:105A9000044A52F824002A46FFF70AFE70BD0000AF
:105AA0004C000020400000200EB52948294908601C
:105AB00062B601F05FF8FFF785FF01F0C1FCFEF769
:105AC00069FE00F0C7F8FEF7B1FF4FF6FF708723BD
:105AD000F022002100900846FEF746FF002020211A
:105AE0004FF6FF720346CDE9002102901AA201464B
:105AF000FFF720F9002020214FF6FF720346CDE981
:105B00000021029016A2FFF715F9002020214FF680
:105B1000FF720346CDE90021029015A24021FFF754
:105B200009F900F031F89FED160A164880ED2C0AAD
:105B300000F078FA0BE00020FFF79AFF642000F0F5
:105B4000FBFF0120FFF794FF642000F0F5FFF2E770
:105B50000040000808ED00E04D435F474433320049
:105B6000474433324633303352435436000000004A
:105B700041524D20436F727465782D4D34460000BC
:105B8000A4F06045C800002010B5FFF7EDFE00F05E
:105B9000D7FA00F019FBFFF73FFEFFF72BFA10BD15
:105BA00010B50446012C1ED1012202211D4801F02E
:105BB000D0F9042202211B4801F018F801221146F5
:105BC000184801F0C6F904220121164801F00EF828
:105BD00001220021134801F0BCF9042200211148E0
:105BE00001F004F81DE0002202210E4801F0B1F995
:105BF000002202210B4800F0F9FF00220121094890
:105C000001F0A7F900220121064800F0EFFF002271
:105C10001146044801F09DF900221146014800F0A8
:105C2000E5FF10BD002C014070B504460D46164638
:105C300022460221064801F04CF92A460121044877
:105C400001F047F932460021014801F042F970BDE8
:105C5000002C014010B500F0FBFC40F2046000F0A5
:105C600065FC0223032210210448FFF726FD0122D0
:105C700002210248FFF71CFD10BD0000001001408A
:105C8000F8B50546002400200090002600220221DD
:105C90001448FFF70DFDFF2000F00CFD44EA00441E
:105CA000FF2000F007FD44EA0024FF2000F002FD81
:105CB0000443012202210B48FFF7FAFCA00C8DF8E7
:105CC0000000C4F307308DF80100C4F387108DF88D
:105CD000020003216846FFF78BFB0646A00A2880D6
:105CE0000120F8BD001001402DE9F04103460D46AA
:105CF000164600240027A0462A48006800F4E06009
:105D0000B0F5E06F03D100BF4FF0040830E0254844
:105D1000006800F4E060B0F5C06F03D101274FF0D8
:105D2000030825E01F48006800F4E060B0F5A06FAC
:105D300002D10227B8461BE01A48006800F4E06070
:105D4000B0F5806F03D103274FF0010810E015482C
:105D5000006800F4E060B0F5407F03D104274FF005
:105D6000000805E04FF4A06000F020F80227B846D4
:105D7000C7F1040005FA00F4C8F104010F20C8407F
:105D80003040044324010848C45403F01F0101209B
:105D900088405911890001F1E021C1F80001BDE8F6
:105DA000F08100000CED00E000E400E00249014356
:105DB000024A1160704700000000FA050CED00E097
:105DC00090ED060AD0ED020A20EE200AD0ED070A77
:105DD00090ED011A00EE810A80ED080A90ED070AA5
:105DE000D0ED020A20EE200AD0ED060A90ED011A4D
:105DF00000EEC10A80ED090A7047000010B52DEDD4
:105E0000028B80480078A8B37E48807838B10020A3
:105E10007C4988709FED7C0A084680ED060AB6EE44
:105E2000000A784880ED070A784890ED090A80ED6D
:105E30001F0A744890ED070A744880ED1E0A60300E
:105E4000FFF737FA714890ED200A80ED0B0A90EDCC
:105E5000080A80ED150A6B4890ED060A6B4880ED44
:105E6000140A3830FFF725FA684890ED160A80EDDD
:105E70000A0AC4E0FFE79FED640AF0EE408A9FED56
:105E8000620AB0EE408A5F48807890B100205D4998
:105E900088709FED5F0A084680ED040A9FED5A0A5C
:105EA00080ED060AB6EE000A584880ED220A0A2064
:105EB0004862544890ED030AD0ED040A30EE600ABF
:105EC00080ED050A90ED050ADFED520AB4EEE00A16
:105ED000F1EE10FA08DB90ED040ADFED4F0A30EE28
:105EE000200A80ED040A17E0464890ED050ADFED30
:105EF0004B0AB4EEE00AF1EE10FA08D890ED040A6D
:105F0000DFED450A30EE600A80ED040A04E03D480A
:105F100090ED030A80ED040A3A4890ED030ADFEDA4
:105F20003C0AB4EEE00AF1EE10FA03D290ED030A57
:105F300080ED040A3348416A406A401C314A50628D
:105F40000A2917D3002011464862084690ED080A36
:105F50002E4880ED290A084690ED040A2B4880ED72
:105F6000280A8830FFF7A5F9284890ED2A0A254825
:105F700080ED070A254890ED080A80ED150A2148B2
:105F800090ED060A214880ED140A3830FFF791F9A8
:105F90001E4890ED160A80ED0A0A90ED0A0A20EEDE
:105FA000000AF0EE408A9FED1E0A30EE680AB0EE5D
:105FB000408AB0EE480A7030B5EEC00AF1EE10FA31
:105FC00004DBF1EEC00AC0ED000A04E0DFED0E0ACA
:105FD000C0ED000A00BF0D4890ED090A80ED1F0AD0
:105FE000084890ED070A094880ED1E0A6030FFF767
:105FF00060F9064890ED200A80ED0B0A00BFBDEC69
:10600000028B10BD9401002000000000C800002099
:106010007442B744E0ED2F3F4DBE0C3EE0ED2FBF84
:1060200048E17A3F10B500F017F8012007494870A1
:1060300008708870002088809FED050A084680ED72
:10604000020A9FED040A80ED030A10BD94010020AE
:10605000000000008F9B124310B59FED270A2748D0
:1060600080ED0F0A9FED260A80ED100AB6EE000AB9
:1060700080ED110A9FED230A80ED120A90ED120ABD
:10608000B1EE400A80ED130A3830FFF761FC9FED56
:106090001A0A1A4880ED190A9FED190A80ED1A0AAA
:1060A000B6EE000A80ED1B0A9FED160A80ED1C0A71
:1060B00090ED120AB1EE400A80ED1D0A6030FFF744
:1060C00047FC9FED110A0D4880ED230A9FED0F0A52
:1060D00080ED240AB6EE000A80ED250AB0EE000A33
:1060E00080ED260A90ED120AB1EE400A80ED270AF3
:1060F0008830FFF72DFC10BD0AD7233CC8000020D4
:1061000017B7D13858FF7F3F0AD7A33CBD370636B3
:1061100010B50A48FFF752F90848FFF751FEFFF79C
:1061200005F9FFF76BFE054800F030FA0348FFF76A
:106130002CFC024800F006FB10BD0000C800002047
:1061400010B540F2026000F0F1F940F2036000F097
:10615000EDF94FF4C06000F0E9F94FF480730322C9
:1061600018211748FFF7A9FA4FF4007303221821EA
:106170001348FFF7A2FA4FF4806303221821104856
:10618000FFF79BFA4FF40053032218210D48FFF745
:1061900094FA4FF48043032218210A48FFF78DFA3E
:1061A0004FF40043032218210648FFF786FA4FF404
:1061B0008053032204210348FFF77FFA10BD00003B
:1061C00000080140000C014000B58BB040F20B60AC
:1061D00000F0ACF9634800F0EBFE0020ADF81000D1
:1061E0004020ADF812000020ADF8140040F6A56084
:1061F00006900020ADF816008DF81C0004A959483F
:1062000000F056FF0120ADF820000420ADF8220078
:106210000020ADF82400ADF82600ADF82800ADF858
:106220002A0008AA00214F4800F030FD08AA0121E9
:106230004C4800F02BFD08AA02214A4800F026FD38
:1062400008AA0321474800F021FD002211464548D5
:1062500000F03FFE60220021424800F00DFE0822BF
:106260000021404800F048FE002201213D4800F096
:1062700030FE602201213B4800F0FEFD0822012192
:10628000384800F039FE00220221364800F021FE95
:1062900060220221334800F0EFFD0822022131483C
:1062A00000F02AFE0698421E03212E4800F011FE3F
:1062B000602203212B4800F0DFFD00220321294842
:1062C00000F01AFE00220221264800F042FE0022C1
:1062D0000221244800F08AFC00220121214800F01C
:1062E00038FE002201211F4800F080FC00221146E8
:1062F0001C4800F02EFE002211461A4800F076FCE1
:106300004FF40060ADF800004010ADF80200B82076
:10631000ADF804000020ADF806004FF48040ADF861
:1063200008000020ADF80A004FF48050ADF80C00D2
:1063300069460C4800F04BFC01210A4800F0C2FFFE
:106340000121084800F0ABFF8021064800F0A7FFBC
:106350001021044800F0A3FF024800F097FE0BB0A4
:1063600000BD0000002C0140184B5968184B194023
:10637000164BDA6A22F000520C2820D2DFE800F037
:10638000060708091F0C1F0D1516171800BF00BFC0
:1063900000BF41EA803113E000BF20F004004FF05D
:1063A000805343EA803319430AE000BF00BF00BFB7
:1063B00020F00C0041EA803142F0005200E000BFC2
:1063C00000BF024B5960DA627047000000100240C3
:1063D000FF3FFFEF2DE9F04F8CB0074600200A90F9
:1063E0004AA090E8004CC068CDE905BECDF810A0E9
:1063F00007900FF21C1ADAE9000ACDE9020A0FF23F
:10640000101ADAE9000ACDE9000A44484068C0F3EE
:1064100081000B900B9820B1012804D002283FD1B5
:1064200003E03F4A3EE03E4A3CE03C48406800F41E
:10643000803CBCF5803F12D13848C06A00F08048EB
:10644000B8F1000F01D1364B00E0364B33484068BD
:1064500000F40039B9F5003F02D15B0800E0324B8F
:106460002E484068C0F383412C48406800F000602B
:1064700008B141F010012948406800F0804008B19F
:1064800041F020010F2901D2891C06E00F2903D316
:106490003E2901D8491C00E03F2103FB01F201E045
:1064A0001F4A00BF00BF1D484068C0F3031504A881
:1064B000465D22FA06F419484068C0F3022502A896
:1064C000465D24FA06F0099014484068C0F3C225DE
:1064D0001DF8056024FA06F0089037B1012F06D0A8
:1064E000022F06D0032F0AD106E00A9208E00A9490
:1064F00006E009980A9003E008980A9000E000BFBF
:1065000000BF0A980CB0BDE8F08F0000000000004A
:106510000000000001020304060708090010024001
:1065200000127A00006CDC0200093D00064A02EB12
:106530009011096800F01F0301229A401143024B99
:1065400003EB90121160704700100240064A02EB04
:106550009011096800F01F0301229A409143024BF9
:1065600003EB90121160704700100240064A02EBE4
:106570009011096800F01F0301229A401143024B59
:1065800003EB9012116070470010024010B50446F2
:10659000D4ED000AB0EE600AFDF722FE84ED010A98
:1065A000D4ED000AB0EE600AFDF7DEFD84ED020ACC
:1065B00010BD000000B587B040F20260FFF7B6FFE3
:1065C00040F20C60FFF7B2FFA0230322182111480C
:1065D000FFF773F84023032204210E48FFF76DF8FC
:1065E000002001904FF4827000904FF40060029000
:1065F000012005904002039028200690002004907E
:106600006946054800F085F8034800F06FF807B0C8
:1066100000BD0000000801400030014010B50446F4
:1066200000BF0221094800F06CF80028F9D021468B
:10663000064800F064F800BF0121044800F061F84A
:106640000028F9D0014800F056F810BD0030014094
:1066500000B587B040F20360FFF768FF40F20F70AB
:10666000FFF764FF01211048FFF78EF8382303225B
:1066700018210E48FFF721F8002001904FF4827096
:106680000090002002900120059040020390082015
:106690000690002004906946054800F03AF8044846
:1066A00000F024F807B000BD00023000000C0140EB
:1066B000003C004010B5044600BF02210A4800F02B
:1066C00020F80028F9D02146074800F018F800BF4C
:1066D0000121054800F015F80028F9D0024800F023
:1066E0000AF8C0B210BD0000003C0040016841F053
:1066F0004001016070470146C86880B27047C160C0
:10670000704702469068084008B101207047002099
:10671000FCE702460020106800F441500B68184363
:106720004B6818438B681843CB6818430B691843B0
:106730004B6918438B6918431060D36923F40063D5
:10674000D36170479FEDB34AB0EE442A9FEDB14A42
:10675000F0EE442A9FEDAF4AF0EE443A9FEDAD4A89
:10676000B0EE440A9FEDAB4AF0EE440A9FEDA94A11
:10677000B0EE441A9FEDA74AF0EE441A9FEDA54AE9
:10678000B0EE443A90ED0D4AB0EE442A90ED0D4A39
:10679000F1EE444AB0EE005A84EE854AD0ED0C4A40
:1067A0009FED9D5A05EE244AF0EE442A90ED0D4AE5
:1067B000F1EE444AB0EE005A84EE854AD0ED0C4A20
:1067C0009FED955A05EE644AF0EE443AF5EEC03A74
:1067D000F1EE10FA7DDDF5EEC02AF1EE10FA29DDBA
:1067E000052180F8C01090ED2C4A24EE224AB0EE2C
:1067F000440A90ED2C4A24EE234AF0EE440A90ED30
:106800002C4A34EE404A34EE604AF0EE004A84EE00
:10681000245AB0EE451A31EE004AF0EE441A31EE39
:10682000A04AB0EE443AC0ED2D1A80ED2E1A80ED4C
:106830002F3AEDE0B5EEC02AF1EE10FA29DD032182
:1068400080F8C01090ED2C4A24EE234AB0EE440AA2
:1068500090ED2C4A24EE024AF0EE440A90ED2C4AC8
:1068600034EE404A34EE604AF0EE004A84EE245A98
:10687000B0EE451A31EE004AF0EE441A31EEA04A6D
:10688000B0EE443A80ED2D1A80ED2E3AC0ED2F1A6D
:10689000BEE0042180F8C01090ED2C4AF1EE624A6F
:1068A00024EE244AB0EE440A90ED2C4AF1EE424A1E
:1068B00024EE244AF0EE440A90ED2C4A34EE404A8D
:1068C00034EE604AF0EE004A84EE245AB0EE451AE7
:1068D00000E00EE031EE004AF0EE441A31EEA04A3C
:1068E000B0EE443A80ED2D1AC0ED2E1A80ED2F3A0D
:1068F0008EE0F5EEC02AF1EE10FA5CDDB5EEC02AAE
:10690000F1EE10FA29DD012180F8C01090ED2C4A3B
:1069100024EE024AB0EE440A90ED2C4A24EE224ABC
:10692000F0EE440A90ED2C4A34EE404A34EE604AD0
:10693000F0EE004A84EE245AB0EE451A31EE004AD9
:10694000F0EE441A31EEA04AB0EE443A80ED2D3A12
:10695000C0ED2E1A80ED2F1A5AE0062180F8C010E3
:1069600090ED2C4AF1EE424A24EE244AB0EE440A5D
:1069700090ED2C4AF1EE634A24EE244AF0EE440AEC
:1069800090ED2C4A34EE404A34EE604AF0EE004A74
:1069900084EE245AB0EE451A31EE004AF0EE441A65
:1069A00031EEA04AB0EE443A80ED2D3A80ED2E1A39
:1069B000C0ED2F1A2CE0022180F8C01090ED2C4A77
:1069C000F1EE634A24EE244AB0EE440A90ED2C4ADC
:1069D000F1EE624A24EE244AF0EE440A90ED2C4A8D
:1069E00034EE404A34EE604AF0EE004A84EE245A17
:1069F000B0EE451A31EE004AF0EE441A31EEA04AEC
:106A0000B0EE443AC0ED2D1A80ED2E3A80ED2F1AEB
:106A10007047000000000000D7B35D3F0020002158
:106A20003F4A126842F480323D4B1A6000BF401C5E
:106A30003B4A126802F4003119B94FF6FF729042D6
:106A4000F5D1374A126802F400320AB900BFFEE7F6
:106A5000334AD26942F08052314BDA61314A1268CE
:106A600042F440422F4B1A602D4A52682C4B5A6018
:106A70001A4652685A601A46526842F480625A6056
:106A80001A46526822F440325A601A46526842F45A
:106A900040325A601A465268234B1A40204B5A60C3
:106AA0001A465268214B1A431D4B5A601A46126807
:106AB00042F080721A6000BF194A126802F0007238
:106AC000002AF9D0174A126842F48032154B1A6036
:106AD00000BF144A526802F48032002AF9D0114AE9
:106AE000126842F400320F4B1A6000BF0D4A526820
:106AF00002F40032002AF9D0094A526822F0030257
:106B0000074B5A601A46526842F002025A6000BFB0
:106B1000034A526802F00802002AF9D070470000C8
:106B20000010024000700040FFFFC3B700003408AF
:106B300010B5FFF773FF10BD10B5034600F014F851
:106B4000014600F011F80246002400BF00F00CF8E6
:106B500002468A4201D3501A02E0C1F1FF301044CC
:106B600004469C42F2D310BD014800687047000003
:106B70005800002010B5124800684FF47A71B0FB3D
:106B8000F1F4601EB0F1807F01D301200FE0601EA0
:106B90004FF0E02148610F214FF0FF30FEF724F95C
:106BA00000204FF0E021886107200861002008B133
:106BB00000BFFEE70021481EFEF716F910BD0000D9
:106BC0005C000020016841F08001016070470A8884
:106BD0004B881A438B881A43CB881A430B891A4374
:106BE0004B891A438B891A434264704721B10129AA
:106BF0000AD002291AD110E0036A23F004030362C9
:106C0000036A1343036212E0036A23F04003036242
:106C1000036A43EA0213036209E0036A23F4806310
:106C20000362036A43EA0223036200E000BF00BF7D
:106C3000704731B101290CD0022913D0032922D188
:106C400018E0836923F00C03836183691343836134
:106C50001AE0836923F440638361836943EA022372
:106C6000836111E0C36923F00C03C361C36913435B
:106C7000C36109E0C36923F44063C361C36943EAA4
:106C80000223C36100E000BF00BF704710B531B1FF
:106C900001293FD002297DD003297CD1BFE0036ABE
:106CA00023F001030362836923F003038361036A12
:106CB000148823430362036A23F002030362036A16
:106CC0009488234303626A4B984202D0694B9842EE
:106CD0001FD1036A23F004030362036A5488234329
:106CE0000362036A23F008030362036AD488234320
:106CF0000362436823F48073436043681489234329
:106D00004360436823F4007343604368548923431A
:106D10004360ABE0036A23F010030362836923F44A
:106D200040738361036A148843EA04130362036AAD
:106D300023F020030362036A948843EA0413036286
:106D40004B4B984202D04B4B984226D1036A23F01A
:106D500040030362036A548843EA04130362036A2C
:106D600023F080030362036AD48843EA04130362B6
:106D7000436823F4806343604368148943EA8403CF
:106D80004360436823F4006343604368548943EAE3
:106D9000840301E002E068E0436067E0036A23F4F3
:106DA00080730362C36923F00303C361036A148819
:106DB00043EA04230362036A23F400730362036A51
:106DC000948843EA04230362294B984202D0294B5A
:106DD000984223D1036A23F480630362036A5488D0
:106DE00043EA04230362036A23F400630362036A31
:106DF000D48843EA04230362436823F48053436046
:106E00004368148943EA04134360436823F400533E
:106E100043604368548943EA0413436026E0036AED
:106E200023F480530362C36923F44073C361036A8C
:106E3000148843EA04330362036A23F400530362B1
:106E4000036A948843EA04330362094B984202D0F0
:106E5000084B984208D1436823F480434360436859
:106E6000148943EA8413436000E000BF00BF10BDF3
:106E7000002C01400034014031B101290CD002291D
:106E800013D0032922D118E0836923F070038361B2
:106E90008369134383611AE0836923F4E0438361C8
:106EA000836943EA0223836111E0C36923F070031D
:106EB000C361C3691343C36109E0C36923F4E043B9
:106EC000C361C36943EA0223C36100E000BF00BF9E
:106ED000704731B1012906D0022906D0032908D113
:106EE00005E0426306E0826304E0C26302E00264FC
:106EF00000E000BF00BF704731B101290CD002296A
:106F000013D0032922D118E0836923F00803836199
:106F10008369134383611AE0836923F40063836107
:106F2000836943EA0223836111E0C36923F0080304
:106F3000C361C3691343C36109E0C36923F40063F8
:106F4000C361C36943EA0223C36100E000BF00BF1D
:106F5000704731B101290CD0022913D0032923D164
:106F600019E0036A23F001030362036A1343036217
:106F70001BE0036A23F010030362036A43EA02136F
:106F8000036212E0036A23F480730362036A43EA34
:106F90000223036209E0036A23F480530362036A55
:106FA00043EA0233036200E000BF00BF7047000005
:106FB00010B504463349601A8C4244D00CDCB4F15D
:106FC000804F1CD03048204410B3B0F5806F28D0DB
:106FD000B0F5006F52D12DE0B0F5806F3CD0B0F528
:106FE0008E3F03D0B0F5923F48D13EE040F20B30E7
:106FF000FFF7BCFA40F20B30FFF7A8FA3FE04FF47E
:107000008060FFF7B3FA4FF48060FFF79FFA36E035
:1070100040F20140FFF7AAFA40F20140FFF796FA6A
:107020002DE040F20240FFF7A1FA40F20240FFF7E4
:107030008DFA24E040F20340FFF798FA40F2034053
:10704000FFF784FA1BE040F20440FFF78FFA40F2AA
:107050000440FFF77BFA12E040F20540FFF786FAA2
:1070600040F20540FFF772FA09E040F20D30FFF7F9
:107070007DFA40F20D30FFF769FA00E000BF00BF73
:1070800010BD00000010004000FCFFBF016841F08F
:1070900001010160704721B9426842F080024260FC
:1070A00005E0012903D1426822F080024260704766
:1070B0000A8882621D4A90420ED0B0F1804F0BD0F8
:1070C0001B4A904208D01B4A904205D01A4A90426F
:1070D00002D01A4A90420BD1026822F0700202607C
:1070E00002684B881A43026002688B881A43026068
:1070F0008A68C262124A90420AD0124A904207D06D
:10710000026822F4407202600268CB881A4302606F
:10711000064A904202D0094A904201D10A7B02639A
:10712000426942F00102426170470000002C0140B8
:107130000004004000080040000C00400034014002
:10714000001000400014004070B504460E4615467D
:1071500036B1012E26D0022E48D0032E7DD168E014
:10716000206A20F001002062206A20F00A002062DC
:10717000206A298808432062A06920F00300A061EA
:10718000A06969880843A061A06920F0F000A061AF
:10719000A069E98840EA0110A061206A40F001007E
:1071A00020626DE0206A20F010002062206A20F04A
:1071B000A0002062206A298840EA01102062A069AC
:1071C00020F44070A061A069698840EA0120A061B4
:1071D000A06920F47040A061A069E98840EA01300C
:1071E000A061206A40F01000206249E0206A20F48B
:1071F00080702062206A20F420602062206A298842
:1072000040EA01202062E06920F00300E061E069CB
:1072100069880843E061E06920F0F000E061E0691E
:10722000E98840EA0110E061206A40F48070206241
:1072300026E0206A20F480502062206A20F400506A
:107240002062206A298840EA01302062E06920F447
:107250004070E061E069698800E010E040EA0120E8
:10726000E061E06920F47040E061E069E98840EAAB
:107270000130E061206A40F48050206200E000BFED
:1072800000BFAA8831462046FFF7D3FC70BD826854
:1072900022F07002826082680A4382607047C2688E
:1072A0000A43C2607047CA43026170470246D06811
:1072B00000EA01031069084010B10BB101207047CA
:1072C0000020FCE7012904D1426C42F400424264F0
:1072D00003E0426C22F4004242647047826822F06C
:1072E0000702826082680A43826070472DE9F04796
:1072F00004460D460027B846B94600261D49601AC7
:107300008C421CD006DC1C48204470B1B0F5806F64
:107310001FD10FE0B0F5806F16D0B0F56C4F18D1CB
:107320000320FFF757F8074614E00220FFF752F852
:1073300007460FE00220FFF74DF807460AE002205B
:10734000FFF748F8074605E00220FFF743F8074635
:1073500000E000BF00BF07EB5500B0FBF5F64FF6AD
:10736000F07006EA000806F00F0948EA0900A0607C
:10737000BDE8F087004C004000BCFFBF10B50446DC
:107380002049601A8C4228D006DC1F48204490B166
:10739000B0F5806F33D117E0B0F5806F26D0B0F52F
:1073A0006C4F2CD140F20E30FFF7E0F840F20E3077
:1073B000FFF7CCF824E040F21140FFF7D7F840F295
:1073C0001140FFF7C3F81BE040F21240FFF7CEF880
:1073D00040F21240FFF7BAF812E040F21340FFF714
:1073E000C5F840F21340FFF7B1F809E040F214404D
:1073F000FFF7BCF840F21440FFF7A8F800E000BF28
:1074000000BF10BD004C004000BCFFBF426922F02D
:1074100040024261426901F040031A4342617047F1
:10742000426922F080024261426901F080031A43FE
:1074300042617047C16841F40051C160704700006B
:1074400000B587B040F20460FFF770F84FF4A06019
:10745000FFF76CF840F21270FFF768F84FF4C06065
:10746000FFF764F801214548FEF78EF94FF4806379
:10747000032218214248FEF720F94FF4006303224B
:1074800004213F48FEF719F93E48FFF777FF4FF414
:1074900061213C48FFF72AFF04213A4800F07AF8BE
:1074A0000821384800F0C4F83648FFF7C3FF01212F
:1074B0003548FDF7EFFF6846FEF7ECF801208DF840
:1074C0001A003248029001208DF819000020039024
:1074D000202004902B48001D009000208DF81800FB
:1074E00001904FF4405005906A4601212648FEF76E
:1074F00015F802212448FDF7CDFF6846FEF7CAF8CB
:1075000000208DF81A002248029001208DF8190001
:1075100000200390202004901A48001D00900020B5
:107520008DF8180001904FF4405005906A460221F2
:107530001548FDF7F3FF01211348FDF792FF0121E4
:107540001148FEF782F802210F48FDF78AFF022159
:107550000D48FEF77AF840210A48FFF757FF01214E
:107560000948FDF765FF80210648FFF759FF022112
:107570000548FDF75DFF07B000BD000010001400D6
:10758000001001400048004000000240A800002018
:1075900088000020C26822F00402C260C26801F0C4
:1075A00004031A43C260704730B587B005460C46E5
:1075B000202C34D2022201211A48FDF7A3FF012812
:1075C0002DD1224629461848FCF74CFE01211548CA
:1075D000FDF760FF6846FEF75DF801208DF81A00A0
:1075E0001148029001208DF81900002003900494A6
:1075F0000E48009000208DF8180001904FF4405084
:1076000005906A4601210748FDF788FF01210548DA
:10761000FDF727FF01210348FDF70AFF00BF07B070
:1076200030BD000000000240A800002004480040D7
:10763000C26822F00802C260C26801F008031A435F
:10764000C260704700000000000000000000000061
:1076500000000404040404000004000014140A00E0
:10766000000000000000000000000A0A1F0A0A1FB4
:107670000A0A000000040E1505060C14150E04007D
:10768000000012150D152E2C2A1200000000040A0D
:107690000A3615152916000002020100000000003C
:1076A0000000000010080804040404040808100086
:1076B000020404080808080804040200000000048A
:1076C000150E0E150400000000000008083E080812
:1076D00000000000000000000000000002020100A5
:1076E00000000000003F000000000000000000005B
:1076F0000000000000020000002010100808040430
:107700000202010000000E1111111111110E0000F2
:107710000000040604040404040E000000000E111E
:1077200011080402011F000000000E11100C1010BF
:10773000110E00000000080C0C0A091F081C0000B4
:1077400000001F01010F1110110E000000000C12AB
:10775000010D1311110E000000001E100808040492
:107760000404000000000E11110E1111110E000092
:1077700000000E111119161009060000000000008B
:1077800004000000000400000000000000040000ED
:1077900000040400000010080402020408100000A5
:1077A000000000003F003F00000000000000020455
:1077B000081010080402000000000E111108040453
:1077C0000004000000001C22292D2D1D221C000099
:1077D000000004040C0A0A1E1233000000000F12FD
:1077E000120E1212120F000000001E110101010101
:1077F000110E000000000F1212121212120F0000E0
:1078000000001F120A0E0A02121F000000001F12C1
:107810000A0E0A020207000000001C1201013911C1
:10782000120C000000003312121E1212123300005C
:1078300000001F0404040404041F000000003E08AC
:107840000808080808080907000037120A060A1283
:10785000123700000000070202020202223F00006D
:1078600000003B1B1B1B15151535000000003B12CB
:1078700016161A1A1217000000000E11111111111C
:10788000110E000000000F12120E0202020700008B
:1078900000000E1111111117190E180000000F121F
:1078A000120E0A121237000000001E110106081005
:1078B000110F000000001F1504040404040E000052
:1078C0000000331212121212120C000000003312C8
:1078D000120A0A0C040400000000151515150E0A02
:1078E0000A0A000000001B0A0A04040A0A1B00001E
:1078F00000001B0A0A0A0404040E000000001F090D
:1079000008040402121F00001C04040404040404FC
:1079100004041C00000202040404080808101000FB
:107920000E0808080808080808080E00040A0000E5
:107930000000000000000000000000000000000047
:107940000000003F020400000000000000000000F2
:1079500000000000000C121C123C00000003020298
:10796000020E1212120E000000000000001C120293
:10797000120C000000181010101C1212123C000013
:1079800000000000000C121E021C0000001824045D
:10799000041E0404041E000000000000003C120C41
:1079A000021C221C00030202020E121212370000F7
:1079B0000004040000060404040E0000000808008F
:1079C000000C08080808080700030202021A0A0649
:1079D0000A1300000007040404040404041F000048
:1079E00000000000000F1515151500000000000034
:1079F000000F12121237000000000000000C1212DB
:107A0000120C000000000000000F1212120E0207FC
:107A100000000000001C1212121C103800000000B0
:107A2000001B06020207000000000000001E020CFE
:107A3000101E000000000004041E0404041C0000CA
:107A400000000000001B1212123C000000000000A9
:107A5000001B0A0A04040000000000000015150EB7
:107A60000A0A000000000000001B0A040A1B0000B4
:107A700000000000003312120C0804030000000094
:107A8000001E0804041E000018080808080C080856
:107A9000080818000808080808080808080808085E
:107AA0000604040404080404040406001609000083
:107AB00000000000000000000000000000000000C6
:107AC000000000000000000000000008080808088E
:107AD000080800001818000000486C24120000007C
:107AE00000000000000000000000002424247F1299
:107AF00012127F12121200000000081C2A2A0A0C1F
:107B00001828282A2A1C0808000000222515151507
:107B10002A585454542200000000000C1212120A79
:107B200076252911916E000000060604030000006E
:107B300000000000000000000040201010080808AD
:107B40000808081010204000000204080810101057
:107B500010101008080402000000000008086B1C48
:107B60001C6B08080000000000000000080808085E
:107B70007F08080808000000000000000000000066
:107B800000000000060604030000000000000000E2
:107B9000FE000000000000000000000000000000E7
:107BA0000000000006060000000080404020201079
:107BB0001008080404020200000000182442424297
:107BC0004242424224180000000000080E08080843
:107BD00008080808083E00000000003C424242201D
:107BE00020100804427E00000000003C42422018A1
:107BF00020404042221C00000000002030282424A5
:107C000022227E20207800000000007E0202021A5C
:107C100026404042221C0000000000382402021AC4
:107C200026424242241800000000007E222210104A
:107C300008080808080800000000003C42424224EE
:107C400018244242423C00000000001824424242F4
:107C500064584040241C0000000000000000181878
:107C600000000000181800000000000000000008DC
:107C70000000000000080804000000402010080474
:107C800002040810204000000000000000007F00F7
:107C900000007F0000000000000000020408102027
:107CA00040201008040200000000003C4242464010
:107CB00020101000181800000000001C225A555512
:107CC00055552D42221C000000000008081814140D
:107CD000243C224242E700000000001F2222221E14
:107CE00022424242221F00000000007C4242010169
:107CF00001010142221C00000000001F22424242FA
:107D000042424242221F00000000003F4212121E67
:107D100012120242423F00000000003F4212121EB7
:107D200012120202020700000000003C22220101A0
:107D300001712122221C0000000000E74242424261
:107D40007E42424242E700000000003E0808080868
:107D500008080808083E00000000007C1010101001
:107D6000101010101010110F0000007722120A0ED0
:107D70000A1212222277000000000007020202020B
:107D800002020202427F00000000007736363636DB
:107D90002A2A2A2A2A6B0000000000E346464A4AA3
:107DA00052525262624700000000001C22414141D1
:107DB00041414141221C00000000003F424242423A
:107DC0003E020202020700000000001C2241414165
:107DD00041414D53321C60000000003F4242423E90
:107DE0001212222242C700000000007C424202041C
:107DF00018204042423E00000000007F4908080869
:107E000008080808081C0000000000E7424242423F
:107E100042424242423C0000000000E7424222242B
:107E200024141418080800000000006B494949494F
:107E30005555362222220000000000E74224241873
:107E40001818242442E700000000007722221414AE
:107E500008080808081C00000000007E21201010FF
:107E600008040442423F0000007808080808080897
:107E7000080808080808780000000202040408083E
:107E80000810102020204040001E1010101010106C
:107E90001010101010101E000038440000000000E8
:107EA00000000000000000000000000000000000D2
:107EB00000000000000000FF0006080000000000B5
:107EC0000000000000000000000000000000003C76
:107ED0004278444242FC0000000000030202021A01
:107EE00026424242261A000000000000000000382E
:107EF0004402020244380000000000604040407824
:107F00004442424264D80000000000000000003CEF
:107F1000427E0202423C0000000000F08808087E19
:107F200008080808083E0000000000000000007C6F
:107F300022221C023C42423C000000030202023AA0
:107F40004642424242E700000000000C0C00000ED6
:107F500008080808083E0000000000303000003823
:107F6000202020202020221E000000030202027296
:107F7000120A1612227700000000000E08080808F6
:107F800008080808083E0000000000000000007F0C
:107F90009292929292B70000000000000000003B15
:107FA0004642424242E70000000000000000003C60
:107FB00042424242423C0000000000000000001B20
:107FC00026424242221E0207000000000000007804
:107FD00044424242447840E0000000000000007744
:107FE0004C040404041F0000000000000000007C9A
:107FF00042023C40423E0000000000000008083EF3
:1080000008080808083000000000000000000063B5
:108010004242424262DC000000000000000000E733
:10802000422424140808000000000000000000EBB7
:10803000494955552222000000000000000000764A
:1080400024181818246E000000000000000000E74B
:108050004224241418080807000000000000007ED5
:1080600022100808447E000000C02020202020109C
:10807000202020202020C000101010101010101000
:108080001010101010101010000608080808081032
:1080900008080808080806000C32C20000000000AA
:1080A00000000000000000000000000000000000D0
:1080B00000000000000000000000000000000000C0
:1080C00000000000000000000000000000000000B0
:1080D00000000000000000000000000000000000A0
:1080E00060006000600060006000600060004000B0
:1080F0002000200020000000000000006000600060
:108100006000000000000000000000006006600643
:1081100030039801880044000000000000000000C7
:10812000000000000000000000000000000000004F
:10813000000000000000000000000000000000003F
:108140001002100210021002FE07FE0708020801CA
:10815000080108010801FE07FE07040104010401EB
:1081600004010000000000000000000000004000CA
:108170004000F00158034C03CC034C005800700041
:10818000E000C001C00140034C035C034C03480104
:10819000F00040004000000000000000000000006F
:1081A0000E010A01910091009100510051003A0026
:1081B000AE03A0025004500448044804480484025A
:1081C0008403000000000000000000000000000028
:1081D00038006C006C006C006C006C002C00980780
:1081E0001C011A01330133016301E300C308C6090E
:1081F0003C07000000000000000000000C001C0014
:108200001000100008000400000000000000000042
:10821000000000000000000000000000000000005E
:108220000000000000000000000000000004000248
:10823000000180008000400040002000200020005D
:10824000200020002000200040004000800080002E
:108250000001000200040000000000000200040011
:1082600008001000100020002000400040004000E6
:10827000400040004000400020002000100010009E
:1082800008000400020000000000000000000000E0
:10829000000000004000C0004000460C4E0FD0011E
:1082A000F0015E0F460C400040004000000000005E
:1082B00000000000000000000000000000000000BE
:1082C000000000000000400040004000400040006E
:1082D000FE0F400040004000400040000000000051
:1082E000000000000000000000000000000000008E
:1082F000000000000000000000000000000000007E
:108300000000000000000000000000000C001C0045
:108310001000100008000400000000000000000031
:10832000000000000000000000000000000000004D
:10833000FE07000000000000000000000000000038
:10834000000000000000000000000000000000002D
:10835000000000000000000000000000000000001D
:108360000000000000000000000000001C001C00D5
:108370001C000000000000000000000000040006D7
:108380000002000300010001800080004000400066
:1083900060002000200010001000080008000C0001
:1083A00004000600020000000000000000000000C1
:1083B0000000F00098010C030C03060606060606F2
:1083C000060606060606060606060C030C039801BA
:1083D000F0000000000000000000000000000000AD
:1083E000000040007C0060006000600060006000F1
:1083F000600060006000600060006000600060007D
:10840000FC0300000000000000000000000000006D
:108410000000F800840102030603060300030001C4
:108420008001C00060002000100008020402060263
:10843000FE0300000000000000000000000000003B
:1084400000007800C6008601860180018001C0001E
:10845000700080010001000300030603060386018B
:10846000F800000000000000000000000000000014
:10847000000080018001C001A001A00190018801DD
:10848000880184018201FE0F80018001800180014A
:10849000E0070000000000000000000000000000F5
:1084A0000000FC0304000400040004000400F400C5
:1084B0008C01040300030003060306038201840108
:1084C000F8000000000000000000000000000000B4
:1084D0000000E00118030C030C0004000600E60194
:1084E00016030E0606060606060604060C02180308
:1084F000F00000000000000000000000000000008C
:108500000000F8070C0604020401000100018000CD
:10851000800040004000400060006000600060009B
:1085200060000000000000000000000000000000EB
:108530000000F8010C030606060606060C021C03E2
:10854000F000C8010C0306060606060606060C0324
:10855000F00100000000000000000000000000002A
:108560000000F0000C010C030602060606060606D3
:1085700006078C0678060006000300030C018C0138
:108580007800000000000000000000000000000073
:10859000000000000000000000000000E000E0001B
:1085A000E00000000000000000000000E000E0002B
:1085B000E0000000000000000000000000000000DB
:1085C00000000000000000000000000060006000EB
:1085D000000000000000000000000000000060003B
:1085E00060004000200020000000000000000000AB
:1085F000000400020001800040002000100008007C
:10860000040008001000200040008000000100026B
:108610000004000000000000000000000000000056
:10862000000000000000000000000000FE07000045
:1086300000000000FE070000000000000000000035
:10864000000000000000000000000000000000002A
:10865000040008001000200040008000000100021B
:10866000000400020001800040002000100008000B
:1086700004000000000000000000000000000000F6
:108680000000E0031806040C040C0C0C0C0C000792
:10869000800140004000400000000000E000E000D9
:1086A000E0000000000000000000000000000000EA
:1086B000E00018030C02CC0564056605A605B604A7
:1086C000B604B604B604B602E4010C040C021803A6
:1086D000F0000000000000000000000000000000AA
:1086E0000000600060005000D00090009000880002
:1086F00088010801F80104030403040202020206CF
:108700000F0F00000000000000000000000000004B
:108710000000FE008C030C030C030C030C038C0103
:10872000FC000C030C020C060C060C060C060C03D9
:10873000FE0100000000000000000000000000003A
:108740000000E00318030C060C04040406000600F5
:10875000060006000600060006040C040C021803BE
:10876000F000000000000000000000000000000019
:1087700000007F008C010C030C030C060C060C0699
:108780000C060C060C060C060C060C030C038C01E4
:108790007F0000000000000000000000000000005A
:1087A0000000FF0306030604060406008600860098
:1087B000FE00860086008600060006040604060207
:1087C000FF030000000000000000000000000000A7
:1087D0000000FF0306030604060406008600860068
:1087E000FE008600860086000600060006000600E1
:1087F0001F0000000000000000000000000000005A
:108800000000F00018010C020C0204020600060031
:1088100006000600C60F060306030C030C0318032C
:10882000F000000000000000000000000000000058
:1088300000000F0F060606060606060606060606D2
:10884000FE070606060606060606060606060606CF
:108850000F0F0000000000000000000000000000FA
:108860000000FC03600060006000600060006000C9
:1088700060006000600060006000600060006000F8
:10888000FC030000000000000000000000000000E9
:108890000000F807C000C000C000C000C000C00059
:1088A000C000C000C000C000C000C000C000C000C8
:1088B000C000C60066003C00000000000000000090
:1088C0000000CF038601C6004600260016003600D1
:1088D0002E006E004600C6008600860106010603D3
:1088E0008F070000000000000000000000000000F2
:1088F00000001F0006000600060006000600060035
:10890000060006000600060006000604060406022D
:10891000FF03000000000000000000000000000055
:1089200000000707860386038E038E034E034E0363
:108930004A035A035A033A0332033203320312033F
:108940008707000000000000000000000000000099
:1089500000008E0F0C021C021C023402340264025E
:1089600064024402C40284028403840304030403F3
:108970001F020000000000000000000000000000D6
:108980000000F00098010C030C020606060606061D
:10899000060606060606060606060C020C039801E5
:1089A000F0000000000000000000000000000000D7
:1089B0000000FF0006030606060606060606060673
:1089C0008603FE00060006000600060006000600FC
:1089D0001F00000000000000000000000000000078
:1089E0000000F00098010C030C02060606060606BD
:1089F000060606060606060676064C02CC03980115
:108A0000F0008007000300000000000000000000EC
:108A10000000FF0106030606060606060606060314
:108A2000FE004600C6008600860106030603060611
:108A30000F0E000000000000000000000000000019
:108A40000000F8020C030602060206000E003C00BD
:108A5000F800E003800300070206020606060C0386
:108A6000F001000000000000000000000000000015
:108A70000000FE0762046108610860006000600099
:108A800060006000600060006000600060006000E6
:108A9000F8010000000000000000000000000000DD
:108AA00000001E070C020C020C020C020C020C024D
:108AB0000C020C020C020C020C020C020C0218013B
:108AC000F0000000000000000000000000000000B6
:108AD00000000F070602040104010C010C018800CC
:108AE000880098009800500050007000300020006E
:108AF0002000000000000000000000000000000056
:108B00000000F70E62044204460446046402640254
:108B1000E402E4029C029C0198019801880188000B
:108B200088000000000000000000000000000000BD
:108B300000009E070C01080118019000B0006000C1
:108B4000200060006000D00090008801080104034C
:108B50008E07000000000000000000000000000080
:108B600000000F0F060404020C0208011801B800EF
:108B7000B000700060006000600060006000600095
:108B8000F8010000000000000000000000000000EC
:108B90000000FC070C020603020180018000400077
:108BA0004000200020001000180008040C040402FB
:108BB000FE0300000000000000000000E0032000B1
:108BC00020002000200020002000200020002000A5
:108BD0002000200020002000200020002000200095
:108BE00020002000E0030000000000000000000062
:108BF000040004000800080010001000100020000D
:108C0000200040004000C000800080000001000102
:108C10000002000200020004000000007C0040008E
:108C20004000400040004000400040004000400044
:108C30004000400040004000400040004000400034
:108C4000400040007C00000000006000900008012F
:108C50000000000000000000000000000000000014
:108C60000000000000000000000000000000000004
:108C700000000000000000000000000000000000F4
:108C800000000000000000000000000000000000E4
:108C900000000000000000000000000000000000D4
:108CA000000000000000FF0F00000000180060003E
:108CB00000000000000000000000000000000000B4
:108CC00000000000000000000000000000000000A4
:108CD0000000000000000000000000000000000094
:108CE000000000000000000000000000F0010C0384
:108CF0000C030003E0031C030E03060306038E0BA4
:108D00007C0E0000000000000000000000000000D9
:108D100008000E000C000C000C000C00CC013C0301
:108D20001C060C060C060C060C060C060C021C039A
:108D3000E40100000000000000000000000000004E
:108D4000000000000000000000000000F0008C01A6
:108D50008C01860106000600060006020C020C01CA
:108D6000F000000000000000000000000000000013
:108D70000002C003000300030003000378038C0318
:108D80000C030603060306030603060304038C070D
:108D9000780100000000000000000000000000005A
:108DA000000000000000000000000000E0011803C7
:108DB00008020C060C06FC070C000C001804180234
:108DC000E0010000000000000000000000000000C2
:108DD0000000C0036006300630003000FE013000A5
:108DE0003000300030003000300030003000300003
:108DF000FC01000000000000000000000000000076
:108E0000000000000000000000000000F007D8068D
:108E10008C018C018C019801F8000C00FC00CC0343
:108E2000060306038E03F8000000000000000000A7
:108E300008000E000C000C000C000C00EC011C03E0
:108E40000C030C030C030C030C030C030C030C03AA
:108E50009E0700000000000000000000000000006D
:108E60000000600060000000000040007C00600026
:108E700060006000600060006000600060006000F2
:108E8000FC030000000000000000000000000000E3
:108E90000000C001C001000000000001F0018001DD
:108EA00080018001800180018001800180018001BA
:108EB00080018001CC007C00000000000000000068
:108EC00008000E000C000C000C000C008C038C0041
:108ED0008C004C006C005C008C008C010C010C03BD
:108EE0009E070000000000000000000000000000DD
:108EF00040007C0060006000600060006000600076
:108F00006000600060006000600060006000600061
:108F1000FC03000000000000000000000000000052
:108F20000000000000000000000000003707EE060F
:108F300066066606660666066606660666066606D1
:108F4000FF0F000000000000000000000000000013
:108F5000000000000000000000000000EE011C0303
:108F60000C030C030C030C030C030C030C030C0389
:108F70009E0700000000000000000000000000004C
:108F8000000000000000000000000000F000980158
:108F90000C03060606060606060606060C030C0368
:108FA000F0000000000000000000000000000000D1
:108FB000000000000000000000000000EE011C03A3
:108FC0000C060C060C060C060C060C060C031C0307
:108FD000EC010C000C003E0000000000000000004E
:108FE00000000000000000000000000078028C0378
:108FF0000C030603060306030603060304038C039F
:10900000780300030003C007000000000000000018
:109010000000000000000000000000009F03580650
:10902000380618001800180018001800180018005A
:10903000FF00000000000000000000000000000031
:10904000000000000000000000000000F0031C030E
:109050000C020C023800F000C003040304038C036C
:10906000FC01000000000000000000000000000003
:10907000000000002000200030003000FE01300021
:10908000300030003000300030003000300230025C
:10909000E0010000000000000000000000000000EF
:1090A0000000000000000000000008028E030C0316
:1090B0000C030C030C030C030C030C030C039C07A4
:1090C0007801000000000000000000000000000027
:1090D0000000000000000000000000001E070C025D
:1090E0000801080118019000B000B00060006000A5
:1090F0002000000000000000000000000000000050
:10910000000000000000000000000000F70E6204F4
:10911000460464026402EC029C01980198019801E3
:109120000800000000000000000000000000000037
:10913000000000000000000000000000BC07180153
:109140001001B00060006000E0009000080108031A
:109150009E0700000000000000000000000000006A
:109160000000000000000000000000009E07080151
:109170000801080190009000B000600060006000ED
:109180002000200024001C0000000000000000005F
:10919000000000000000000000000000FC0184014D
:1091A000C4004400600020003000180208020C03D4
:1091B000FC0100000000000000000000000380002F
:1091C00080008000800080008000800080004000DF
:1091D000200040008000800080008000800080002F
:1091E000800080000003000040004000400040007C
:1091F000400040004000400040004000400040006F
:10920000400040004000400040004000400040005E
:109210004000400040004000000000000C00100032
:1092200010001000100010001000100010002000AE
:10923000400020001000100010001000100010006E
:10924000100010000C00000000001C002204C204EA
:10925000800300000000000000000000000000008B
:1092600000000000000000000000000000000000FE
:1092700000000000000000000000000000000000EE
:1092800000000000000000000000000000000000DE
:1092900000000000000000000000000000000000CE
:1092A00000000000000000000000000000000000BE
:1092B00000000000000000000000000000000000AE
:1092C0000000C001C001C001C001C001C001C00157
:1092D000800080008000800080008000800000000E
:1092E0000000000000008001C003C00380010000F6
:1092F0000000000000000000000000000000E01C72
:10930000E01CF01E700E38071803080184000000EE
:10931000000000000000000000000000000000004D
:10932000000000000000000000000000000000003D
:10933000000000000000000000000000000000002D
:109340000000000020102010201020102010FE7FB0
:10935000FE7F1008100810081008100810081008E8
:10936000FE7FFE7F080408040804080408040000C7
:1093700000000000000000000000000000000000ED
:1093800000010001C007601910311831183918396F
:1093900038017001E001C0038007000F001D003993
:1093A00000311C311C310C310C11180DE00700018B
:1093B00000010001000000000000000000000000AB
:1093C000000000001C1036186308630C630463047B
:1093D000630263026301361D9C3780228063406311
:1093E000406320632063306310221836081C00009D
:1093F000000000000000000000000000000000006D
:1094000000000000F00098018C018C018C018C019F
:109410008C00CC007800183E1C0836083208630423
:109420006304C304C303834306438E26781C0000F1
:1094300000000000000000000000000000001C0010
:109440003C003C003000300010000C000600000022
:10945000000000000000000000000000000000000C
:1094600000000000000000000000000000000000FC
:1094700000000000000000000000000000000040AC
:10948000002000100008000C000400060003000388
:109490000003800180018001800180018001800142
:1094A000800100030003000300060006000C000812
:1094B000001000200040000000000000000002003A
:1094C000040008001000300020006000C000C00050
:1094D000C000800180018001800180018001800145
:1094E0008001C000C000C0006000600030001000BB
:1094F000080004000200000000000000000000005E
:109500000000000000000000000180038003000153
:109510001C713C79783DC0070001C007783D3C795B
:109520001C71000180038003800100000000000026
:10953000000000000000000000000000000000002B
:109540000000000000000000000000010001000118
:109550000001000100010001FC7F00010001000189
:1095600000010001000100010000000000000000F7
:1095700000000000000000000000000000000000EB
:1095800000000000000000000000000000000000DB
:1095900000000000000000000000000000000000CB
:1095A00000000000000000001C003C003C003000F7
:1095B000300010000C000600000000000000000059
:1095C000000000000000000000000000000000009B
:1095D0000000000000000000FE7F0000000000000E
:1095E000000000000000000000000000000000007B
:1095F000000000000000000000000000000000006B
:10960000000000000000000000000000000000005A
:10961000000000000000000000000000000000004A
:1096200000000000000018003C003C001800000092
:1096300000000000000000000000000000000040EA
:10964000006000200030001000180008000C00042A
:10965000000600020003000180018000C0004000FD
:109660006000200030001000180008000C0004000A
:1096700006000200000000000000000000000000E2
:1096800000000000C007600C301818301830182097
:109690000C600C600C600C600C600C600C600C606A
:1096A0000C601820183018303018600CC00700000B
:1096B00000000000000000000000000000000000AA
:1096C0000000000000018001F8018001800180019C
:1096D0008001800180018001800180018001800182
:1096E00080018001800180018001C003F81F00001B
:1096F000000000000000000000000000000000006A
:1097000000000000E007101C0818043004300C3082
:109710000C30003000180008000400020001800036
:1097200040002020102008200430FC1FFC1F0000F7
:109730000000000000000000000000000000000029
:1097400000000000E003180E0C0C0C180C180C188C
:109750000018000C0006C003000E001800100030B6
:1097600000300C300C300C100C18180CE00300000A
:1097700000000000000000000000000000000000E9
:1097800000000000000C000E000E000F800E800E86
:10979000400E600E200E100E100E080E040E040E69
:1097A000FE7F000E000E000E000E000E000EC07FA9
:1097B00000000000000000000000000000000000A9
:1097C00000000000F03FF03F100010001000080003
:1097D0000800C807280C18180810003000300030A6
:1097E00000300C300C3004180418080CF003000092
:1097F0000000000000000000000000000000000069
:1098000000000000800FC010203010301800180039
:1098100008000C008C0F6C183C301C600C600C6055
:109820000C600C601860182030306018C007000011
:109830000000000000000000000000000000000028
:1098400000000000F83FF83F1C100C080408040456
:1098500000040002000200010001000180008000FD
:109860008000C000C000C000C000C000C0000000F8
:1098700000000000000000000000000000000000E8
:1098800000000000E007300C18180C300C300C30D1
:109890001C3038187008E007B007180E0C1C06388A
:1098A00006300630063006300C18180CE0030000B5
:1098B00000000000000000000000000000000000A8
:1098C00000000000E00318040C080C180610063015
:1098D00006300630063006380C3C1836F0310030C1
:1098E0000018001800180C0C0C060C03F001000006
:1098F0000000000000000000000000000000000068
:109900000000000000000000000000000000000057
:1099100000008001C003C0038001000000000000BF
:109920000000000000008001C003C00380010000AF
:109930000000000000000000000000000000000027
:109940000000000000000000000000000000000017
:109950000000C000C0000000000000000000000087
:1099600000000000000000000000C000C0008000F7
:1099700080004000400000000000000000000000E7
:109980000000002000100008000400060003800111
:10999000C0006000300018000C00180030006000AB
:1099A000C000800100030006000400080010002031
:1099B00000000000000000000000000000000000A7
:1099C0000000000000000000000000000000000097
:1099D0000000FE7F00000000000000000000FE7F8D
:1099E0000000000000000000000000000000000077
:1099F0000000000000000000000000000000000067
:109A0000000004000800100020006000C000800179
:109A100000030006000C001800300018000C0006BF
:109A200000038001C0006000200010000800040056
:109A30000000000000000000000000000000000026
:109A40000000C0073018083008600C601C601C6003
:109A50001C600030001C00060001800080008000B7
:109A60008000000000008001C003C00380010000EE
:109A700000000000000000000000000000000000E6
:109A800000000000C0076018103018200C2F8C4D0B
:109A9000864CC64CC64C664C6644664466266626B2
:109AA0006615CC1C0C40082018303018C007000088
:109AB00000000000000000000000000000000000A6
:109AC00000000001C001C001C0014001600320038B
:109AD000200320033006100610061006F80F080CAD
:109AE000080C080C0C0C0418041806181F7C000045
:109AF0000000000000000000000000000000000066
:109B000000000000FE07181C1838183018301830F4
:109B100018301818180CF807181818301820186082
:109B2000186018601860186018301818FE0F0000D0
:109B30000000000000000000000000000000000025
:109B400000000000C0276038103018200C400C4086
:109B500004000600060006000600060006000600D7
:109B600006000C400C400C2018303018C0070000D4
:109B700000000000000000000000000000000000E5
:109B800000000000FE03180E1818183018301830A6
:109B90001860186018601860186018601860186005
:109BA00018601830183018101818180EFE0300002E
:109BB00000000000000000000000000000000000A5
:109BC00000000000FE3F18301820186018401800F0
:109BD00018081808180CF80F180C1808180818009E
:109BE000180018001840184018201830FE3F0000D8
:109BF0000000000000000000000000000000000065
:109C000000000000FE7F1870184018C0188018006F
:109C1000181018101818F81F181818101810180015
:109C20001800180018001800180018007E00000026
:109C30000000000000000000000000000000000024
:109C400000000000C013701C101018100C200C2015
:109C500004000600060006000600060006FC0630AA
:109C600006300C300C30183018303008C0070000B7
:109C700000000000000000000000000000000000E4
:109C8000000000003F7E0C180C180C180C180C1863
:109C90000C180C180C180C18FC1F0C180C180C18AD
:109CA0000C180C180C180C180C180C183F7E00001F
:109CB00000000000000000000000000000000000A4
:109CC00000000000F81F80018001800180018001F8
:109CD000800180018001800180018001800180017C
:109CE000800180018001800180018001F81F000057
:109CF0000000000000000000000000000000000064
:109D000000000000E07F00060006000600060006D6
:109D10000006000600060006000600060006000613
:109D20000006000600060006000600060006000603
:109D30000E060E038E01FC00000000000000000073
:109D4000000000007E7C1818180818041806180275
:109D5000180198019801D801B803380318071806AC
:109D6000180E180C181C1818183018307EFC00003B
:109D700000000000000000000000000000000000E3
:109D8000000000007E0018001800180018001800DD
:109D90001800180018001800180018001800180003
:109DA000180018001840184018201830FE3F000016
:109DB00000000000000000000000000000000000A3
:109DC000000000001FF81C381C381C381C3C3434C0
:109DD000343434343436743264326432643264314C
:109DE000C431C431C431C430C43084309FFC00005D
:109DF0000000000000000000000000000000000063
:109E0000000000001F7C1C103C1034103410741033
:109E10006410E410C410C4118411841304130417D3
:109E20000416041E041C041C041C04181F18000043
:109E30000000000000000000000000000000000022
:109E400000000000C003300C181808100C300C3053
:109E500006600660066006600660066006600660D2
:109E600006600C200C3008101818300CC0030000DD
:109E700000000000000000000000000000000000E2
:109E800000000000FE0F18181830186018601860E5
:109E90001860186018301818F80F1800180018000B
:109EA0001800180018001800180018007E000000A4
:109EB00000000000000000000000000000000000A2
:109EC00000000000C003300C18180C100C300C20DF
:109ED0000660066006600660066006600660066052
:109EE0000660E4612C331C321816300EC007004C9B
:109EF000007C0038000000000000000000000000AE
:109F000000000000FE07181C1838183018301830F0
:109F100018301818180CF8079803180318071806B3
:109F20001806180E180C180C181C18187E7800004B
:109F30000000000000000000000000000000000021
:109F400000000000E027303818300C200C200C00F6
:109F50000C0018007800E003800F001E003800702D
:109F6000006004600460086018303818C80F0000F2
:109F700000000000000000000000000000000000E1
:109F800000000000FC3F8C218461824182418001FD
:109F900080018001800180018001800180018001B9
:109FA000800180018001800180018001E0070000C4
:109FB00000000000000000000000000000000000A1
:109FC000000000003F7C0C100C100C100C100C104A
:109FD0000C100C100C100C100C100C100C100C10A1
:109FE0000C100C100C100C1008083804E0030000D2
:109FF0000000000000000000000000000000000061
:10A00000000000003EF818201820182030103010F2
:10A0100030103010600860086008E00CC004C00414
:10A02000C00480038003800380030001000100005E
:10A030000000000000000000000000000000000020
:10A0400000000000DFF38661862186218C210C212F
:10A050008C238C138C138C134C1358125816580ED7
:10A06000380E380E380E300C1004100410040000A6
:10A0700000000000000000000000000000000000E0
:10A08000000000007E3E18083808300430047002DA
:10A090006002E001C001C00180018003400340076D
:10A0A00020062006100C100C081808183E7C000032
:10A0B00000000000000000000000000000000000A0
:10A0C000000000007E7C1C10181018083008300CAE
:10A0D000700460046002C002C002C00180018001FF
:10A0E000800180018001800180018001E007000083
:10A0F0000000000000000000000000000000000060
:10A1000000000000F83F18180818040C040E0006A0
:10A110000007000380038001C001C000E000600070
:10A1200070003000382018201C100C18FE1F000092
:10A130000000000000000000000000000000C03F20
:10A14000400040004000400040004000400040000F
:10A1500040004000400040004000400040004000FF
:10A1600040004000400040004000400040004000EF
:10A170004000C03F000000000000000000000000A0
:10A1800000000800180018001000300020006000D7
:10A1900060004000C00080008001800100010003D9
:10A1A0000002000600060004000C00080018001859
:10A1B0000010003000200000000000000000FC0340
:10A1C000000200020002000200020002000200027F
:10A1D000000200020002000200020002000200026F
:10A1E000000200020002000200020002000200025F
:10A1F0000002FC03000000000000000000008007D7
:10A20000C006200810100000000000000000000040
:10A21000000000000000000000000000000000003E
:10A22000000000000000000000000000000000002E
:10A23000000000000000000000000000000000001E
:10A24000000000000000000000000000000000000E
:10A2500000000000000000000000000000000000FE
:10A2600000000000000000000000000000000000EE
:10A27000000000000000FFFF000000000000780068
:10A28000C00000010000000000000000000000000D
:10A2900000000000000000000000000000000000BE
:10A2A00000000000000000000000000000000000AE
:10A2B000000000000000000000000000000000009E
:10A2C000000000000000000000000000000000008E
:10A2D0000000F00318060C0C0C0C000C800F700C26
:10A2E0001C0C0C0C060C060C064C0C4FF83800002D
:10A2F000000000000000000000000000000000005E
:10A30000000010001E0018001800180018001800A7
:10A310001800180FD81838303860186018601860A6
:10A32000186018601860182038307818C8070000C6
:10A33000000000000000000000000000000000001D
:10A34000000000000000000000000000000000000D
:10A350000000C007700C181818180C180C000C001E
:10A360000C000C000C20182018103008C00700004A
:10A3700000000000000000000000000000000000DD
:10A3800000000010001E0018001800180018001827
:10A390000018E01B301C181818180C180C180C1892
:10A3A0000C180C180C180818181C307AE00900005A
:10A3B000000000000000000000000000000000009D
:10A3C000000000000000000000000000000000008D
:10A3D0000000C007300C181808100C300C30FC3F7F
:10A3E0000C000C000C00182018107018C00700009A
:10A3F000000000000000000000000000000000005D
:10A4000000000000003E80C380C0C0C0C000C0008B
:10A41000C000FC1FC000C000C000C000C000C000E1
:10A42000C000C000C000C000C000C000F80F0000A5
:10A43000000000000000000000000000000000001C
:10A44000000000000000000000000000000000000C
:10A450000000C077306C1018181818181818101849
:10A46000300CF00718001800F00FF03F08700C6077
:10A470000C600C603838E00F0000000000000000A5
:10A48000000010001E001800180018001800180026
:10A490001800980FD8183830183018301830183085
:10A4A0001830183018301830183018307EFC000082
:10A4B000000000000000000000000000000000009C
:10A4C0000000000080038003800300000000000003
:10A4D0000001F8018001800180018001800180017C
:10A4E000800180018001800180018001F81F00004F
:10A4F000000000000000000000000000000000005C
:10A5000000000000003800380038000000000000A3
:10A510000010801F001800180018001800180018FC
:10A52000001800180018001800180018001800186B
:10A530000018180C1806F0030000000000000000CE
:10A54000000010001E001800180018001800180065
:10A550001800183E180C1806180318019801D801A5
:10A56000380318071806180C181C18187E7C0000F1
:10A5700000000000000000000000000000000000DB
:10A5800000000001F801800180018001800180014C
:10A5900080018001800180018001800180018001B3
:10A5A000800180018001800180018001F81F00008E
:10A5B000000000000000000000000000000000009B
:10A5C000000000000000000000000000000000008B
:10A5D0000800EE1C9C338C318C318C318C318C31E9
:10A5E0008C318C318C318C318C318C31DE7B0000A4
:10A5F000000000000000000000000000000000005B
:10A60000000000000000000000000000000000004A
:10A6100010001E0FD8183830183018301830183085
:10A620001830183018301830183018307EFC000000
:10A63000000000000000000000000000000000001A
:10A64000000000000000000000000000000000000A
:10A650000000C007701C103018300C600C600C60DB
:10A660000C600C600C60183018303018C007000007
:10A6700000000000000000000000000000000000DA
:10A6800000000000000000000000000000000000CA
:10A6900010009E0F58183830182018601860186085
:10A6A000186018601860183038307818980718004B
:10A6B0001800180018007E000000000000000000D4
:10A6C000000000000000000000000000000000008A
:10A6D0000000C023303C183818300C300C300C30DF
:10A6E0000C300C300C3008301838303CE03300307F
:10A6F00000300030003000FC0000000000000000CE
:10A700000000000000000000000000000000000049
:10A7100060007E3C60666061E000E0006000600018
:10A72000600060006000600060006000FE070000E4
:10A730000000000000000000000000000000000019
:10A740000000000000000000000000000000000009
:10A750000000E02730381830182018007000E0039F
:10A76000800F001C043004300C301C18EC0F00006B
:10A7700000000000000000000000000000000000D9
:10A780000000000000000000800080008000C00089
:10A79000E000FC1FC000C000C000C000C000C0003E
:10A7A000C000C000C000C020C0208011000F000009
:10A7B0000000000000000000000000000000000099
:10A7C0000000000000000000000000000000000089
:10A7D00010201E3C1830183018301830183018303F
:10A7E0001830183018301830183830F4E0130000E2
:10A7F0000000000000000000000000000000000059
:10A800000000000000000000000000000000000048
:10A8100000007E3C18181808380830043004700214
:10A8200060026002E001C001C001C00080000000C1
:10A830000000000000000000000000000000000018
:10A840000000000000000000000000000000000008
:10A850000000DFF78E630C238C238C23981398134E
:10A8600058165816700E700E700E2004200400004A
:10A8700000000000000000000000000000000000D8
:10A8800000000000000000000000000000000000C8
:10A890000000FC3E70087004E004C002C0018003A8
:10A8A000800340076006200C100C18183E7E000044
:10A8B0000000000000000000000000000000000098
:10A8C0000000000000000000000000000000000088
:10A8D00000007E7C18181808300830083004600426
:10A8E0006004C002C002C0028001800180018000BB
:10A8F000800080004C003C000000000000000000D0
:10A900000000000000000000000000000000000047
:10A910000000FC1F0C0C040E0406000380038001E1
:10A92000C000E0007020302038301C18FC1F0000F0
:10A9300000000000000000000000000000000030E7
:10A9400000080004000400040004000400040004E3
:10A95000000400040004000280010002000400045E
:10A9600000040004000400040004000400040004C7
:10A970000004000800300000000100010001000197
:10A9800000010001000100010001000100010001BF
:10A9900000010001000100010001000100010001AF
:10A9A000000100010001000100010001000100019F
:10A9B00000010001000100010000000000000C0087
:10A9C0001000200020002000200020002000200097
:10A9D00020002000200040008001400020002000D6
:10A9E0002000200020002000200020002000200067
:10A9F000200010000C00000000003800C400864059
:10AA000002610022001C00000000000000000000A5
:10AA10000000000000000000000000000000000036
:10AA20000000000000000000000000000000000026
:10AA3000000000000000000000000000920E493CF1
:10AA4000B10AC93C2BC3163D2EFB483D752B7B3DFF
:10AA500004A9963D80B6AF3D36BDC83D2FBCE13D53
:10AA600073B2FA3D87CF093E8340163EB5AB223E16
:10AA7000A2102F3ECF6E3B3EC2C5473E0115543E4D
:10AA8000135C603E7F9A6C3ECCCF783EC07D823EA8
:10AA9000938E883E229A8E3E32A0943E86A09A3EA5
:10AAA000E59AA03E128FA63ED47CAC3EEF63B23E48
:10AAB0002A44B83E491DBE3E15EFC33E53B9C93EB8
:10AAC000CA7BCF3E4136D53E80E8DA3E4F92E03E2B
:10AAD0007533E63EBBCBEB3EEA5AF13ECBE0F63EA9
:10AAE000275DFC3EE4E7003F3D9C033F824B063F71
:10AAF0009BF5083F6B9A0B3FDA390E3FCDD3103FE1
:10AB00002A68133FD9F6153FC07F183FC6021B3F86
:10AB1000D17F1D3FCBF61F3F9967223F25D2243FAF
:10AB20005636273F1594293F4AEB2B3FDE3B2E3FFD
:10AB3000BB85303FC9C8323FF304353F233A373F26
:10AB40004268393F3B8F3B3FF9AE3D3F67C73F3FD0
:10AB500070D8413F01E2433F03E4453F65DE473F94
:10AB600012D1493FF8BB4B3F029F4D3F207A4F3FE8
:10AB70003D4D513F4918533F31DB543FE595563F1A
:10AB80005348583F6AF2593F1A945B3F532D5D3F3B
:10AB900005BE5E3F2146603F97C5613F5A3C633F1B
:10ABA00059AA643F880F663FD86B673F3CBF683F38
:10ABB000A7096A3F0C4B6B3F5E836C3F93B26D3FBE
:10ABC0009ED86E3F73F56F3F0809713F5213723F75
:10ABD0004714733FDD0B743F0BFA743FC6DE753FBD
:10ABE00007BA763FC58B773FF853783F9812793F85
:10ABF0009DC7793F02737A3FBE147B3FCDAC7B3F4C
:10AC0000283B7C3FC9BF7C3FAC3A7D3FCCAB7D3F0E
:10AC100023137E3FB0707E3F6DC47E3F580E7F3F52
:10AC20006D4E7F3FAB847F3F0FB17F3F97D37F3F18
:10AC300043EC7F3F11FB7F3F0000803F11FB7F3FD4
:10AC400043EC7F3F97D37F3F0FB17F3FAB847F3F84
:10AC50006D4E7F3F580E7F3F6DC47E3FB0707E3F8C
:10AC600023137E3FCCAB7D3FAC3A7D3FC9BF7C3FD9
:10AC7000283B7C3FCDAC7B3FBE147B3F02737A3FC9
:10AC80009DC7793F9812793FF853783FC58B773F3E
:10AC900007BA763FC6DE753F0BFA743FDD0B743F93
:10ACA0004714733F5213723F0809713F73F56F3FAA
:10ACB0009ED86E3F93B26D3F5E836C3F0C4B6B3FF3
:10ACC000A7096A3F3CBF683FD86B673F880F663F64
:10ACD00059AA643F5A3C633F97C5613F2146603F94
:10ACE00005BE5E3F532D5D3F1A945B3F6AF2593FAC
:10ACF0005348583FE595563F31DB543F4918533F81
:10AD00003D4D513F207A4F3F029F4D3FF8BB4B3F97
:10AD100012D1493F65DE473F03E4453F01E2433F2F
:10AD200070D8413F67C73F3FF9AE3D3F3B8F3B3F48
:10AD30004268393F233A373FF304353FC9C8323FB1
:10AD4000BB85303FDE3B2E3F4AEB2B3F1594293F1E
:10AD50005636273F25D2243F9967223FCBF61F3F27
:10AD6000D17F1D3FC6021B3FC07F183FD9F6153F5C
:10AD70002A68133FCDD3103FDA390E3F6B9A0B3F51
:10AD80009BF5083F824B063F3D9C033FE4E7003FB5
:10AD9000275DFC3ECBE0F63EEA5AF13EBBCBEB3EF4
:10ADA0007533E63E4F92E03E80E8DA3E4136D53ECE
:10ADB000CA7BCF3E53B9C93E15EFC33E491DBE3EC7
:10ADC0002A44B83EEF63B23ED47CAC3E128FA63E1E
:10ADD000E59AA03E86A09A3E32A0943E229A8E3EEC
:10ADE000938E883EC07D823ECCCF783E7F9A6C3E6B
:10ADF000135C603E0115543EC2C5473ECF6E3B3EDC
:10AE0000A2102F3EB5AB223E8340163E87CF093EAF
:10AE100073B2FA3D2FBCE13D36BDC83D80B6AF3DB3
:10AE200004A9963D752B7B3D2EFB483D2BC3163D5B
:10AE3000B10AC93C920E493C00000000920E49BC88
:10AE4000B10AC9BC2BC316BD2EFB48BD752B7BBDFB
:10AE500004A996BD80B6AFBD36BDC8BD2FBCE1BD4F
:10AE600073B2FABD87CF09BE834016BEB5AB22BE12
:10AE7000A2102FBECF6E3BBEC2C547BE011554BE49
:10AE8000135C60BE7F9A6CBECCCF78BEC07D82BEA4
:10AE9000938E88BE229A8EBE32A094BE86A09ABEA1
:10AEA000E59AA0BE128FA6BED47CACBEEF63B2BE44
:10AEB0002A44B8BE491DBEBE15EFC3BE53B9C9BEB4
:10AEC000CA7BCFBE4136D5BE80E8DABE4F92E0BE27
:10AED0007533E6BEBBCBEBBEEA5AF1BECBE0F6BEA5
:10AEE000275DFCBEE4E700BF3D9C03BF824B06BF6D
:10AEF0009BF508BF6B9A0BBFDA390EBFCDD310BFDD
:10AF00002A6813BFD9F615BFC07F18BFC6021BBF82
:10AF1000D17F1DBFCBF61FBF996722BF25D224BFAB
:10AF2000563627BF159429BF4AEB2BBFDE3B2EBFF9
:10AF3000BB8530BFC9C832BFF30435BF233A37BF22
:10AF4000426839BF3B8F3BBFF9AE3DBF67C73FBFCC
:10AF500070D841BF01E243BF03E445BF65DE47BF90
:10AF600012D149BFF8BB4BBF029F4DBF207A4FBFE4
:10AF70003D4D51BF491853BF31DB54BFE59556BF16
:10AF8000534858BF6AF259BF1A945BBF532D5DBF37
:10AF900005BE5EBF214660BF97C561BF5A3C63BF17
:10AFA00059AA64BF880F66BFD86B67BF3CBF68BF34
:10AFB000A7096ABF0C4B6BBF5E836CBF93B26DBFBA
:10AFC0009ED86EBF73F56FBF080971BF521372BF71
:10AFD000471473BFDD0B74BF0BFA74BFC6DE75BFB9
:10AFE00007BA76BFC58B77BFF85378BF981279BF81
:10AFF0009DC779BF02737ABFBE147BBFCDAC7BBF48
:10B00000283B7CBFC9BF7CBFAC3A7DBFCCAB7DBF0A
:10B0100023137EBFB0707EBF6DC47EBF580E7FBF4E
:10B020006D4E7FBFAB847FBF0FB17FBF97D37FBF14
:10B0300043EC7FBF11FB7FBF000080BF11FB7FBFD0
:10B0400043EC7FBF97D37FBF0FB17FBFAB847FBF80
:10B050006D4E7FBF580E7FBF6DC47EBFB0707EBF88
:10B0600023137EBFCCAB7DBFAC3A7DBFC9BF7CBFD5
:10B07000283B7CBFCDAC7BBFBE147BBF02737ABFC5
:10B080009DC779BF981279BFF85378BFC58B77BF3A
:10B0900007BA76BFC6DE75BF0BFA74BFDD0B74BF8F
:10B0A000471473BF521372BF080971BF73F56FBFA6
:10B0B0009ED86EBF93B26DBF5E836CBF0C4B6BBFEF
:10B0C000A7096ABF3CBF68BFD86B67BF880F66BF60
:10B0D00059AA64BF5A3C63BF97C561BF214660BF90
:10B0E00005BE5EBF532D5DBF1A945BBF6AF259BFA8
:10B0F000534858BFE59556BF31DB54BF491853BF7D
:10B100003D4D51BF207A4FBF029F4DBFF8BB4BBF93
:10B1100012D149BF65DE47BF03E445BF01E243BF2B
:10B1200070D841BF67C73FBFF9AE3DBF3B8F3BBF44
:10B13000426839BF233A37BFF30435BFC9C832BFAD
:10B14000BB8530BFDE3B2EBF4AEB2BBF159429BF1A
:10B15000563627BF25D224BF996722BFCBF61FBF23
:10B16000D17F1DBFC6021BBFC07F18BFD9F615BF58
:10B170002A6813BFCDD310BFDA390EBF6B9A0BBF4D
:10B180009BF508BF824B06BF3D9C03BFE4E700BFB1
:10B19000275DFCBECBE0F6BEEA5AF1BEBBCBEBBEF0
:10B1A0007533E6BE4F92E0BE80E8DABE4136D5BECA
:10B1B000CA7BCFBE53B9C9BE15EFC3BE491DBEBEC3
:10B1C0002A44B8BEEF63B2BED47CACBE128FA6BE1A
:10B1D000E59AA0BE86A09ABE32A094BE229A8EBEE8
:10B1E000938E88BEC07D82BECCCF78BE7F9A6CBE67
:10B1F000135C60BE011554BEC2C547BECF6E3BBED8
:10B20000A2102FBEB5AB22BE834016BE87CF09BEAB
:10B2100073B2FABD2FBCE1BD36BDC8BD80B6AFBDAF
:10B2200004A996BD752B7BBD2EFB48BD2BC316BD57
:10B23000B10AC9BC920E49BC000000805CB2000893
:10B240000000002060000000204F0008BCB2000891
:10B250006000002060050000304F00080000000082
:10B2600000000000000000000000000000000000DE
:10B2700000000000000000000000000000000000CE
:10B2800000000000000000000000000000000000BE
:10B290000000000000000000000000000014014059
:10B2A00000100140000801400400000000100000F0
:0CB2B0000080000000000000000E2707D6
:04000005080041317D
:00000001FF
