Component: ARM Compiler 5.06 update 6 (build 750) Tool: armlink [4d35ed]

==============================================================================

Section Cross References

    main.o(i.ADC0_1_IRQHandler) refers to gd32f30x_adc.o(i.adc_interrupt_flag_clear) for adc_interrupt_flag_clear
    main.o(i.ADC0_1_IRQHandler) refers to motor_app.o(i.motor_app_isr) for motor_app_isr
    main.o(i.TIMER0_BRK_IRQHandler) refers to gd32f30x_timer.o(i.timer_channel_output_mode_config) for timer_channel_output_mode_config
    main.o(i.TIMER0_BRK_IRQHandler) refers to gd32f30x_timer.o(i.timer_interrupt_flag_clear) for timer_interrupt_flag_clear
    main.o(i.TIMER0_BRK_IRQHandler) refers to led.o(i.led_on) for led_on
    main.o(i.TIMER2_IRQHandler) refers to gd32f30x_timer.o(i.timer_interrupt_flag_get) for timer_interrupt_flag_get
    main.o(i.TIMER2_IRQHandler) refers to gd32f30x_timer.o(i.timer_interrupt_flag_clear) for timer_interrupt_flag_clear
    main.o(i.TIMER2_IRQHandler) refers to gd32f30x_timer.o(i.timer_channel_capture_value_register_read) for timer_channel_capture_value_register_read
    main.o(i.TIMER2_IRQHandler) refers to motor_hardware.o(i.hall_get) for hall_get
    main.o(i.TIMER2_IRQHandler) refers to main.o(.data) for hall_timer_counter
    main.o(i.main) refers to systick.o(i.systick_init) for systick_init
    main.o(i.main) refers to led.o(i.led_init) for led_init
    main.o(i.main) refers to uart.o(i.usart_init) for usart_init
    main.o(i.main) refers to adc_simple.o(i.adc1_init) for adc1_init
    main.o(i.main) refers to can.o(i.can_bus_init) for can_bus_init
    main.o(i.main) refers to encoder.o(i.encoder_init) for encoder_init
    main.o(i.main) refers to lcd_init.o(i.LCD_Init) for LCD_Init
    main.o(i.main) refers to lcd.o(i.LCD_Fill) for LCD_Fill
==============================================================================

Removing Unused input sections from the image.

    Removing gd32f30x_it.o(.rev16_text), (4 bytes).
    Removing gd32f30x_it.o(.revsh_text), (4 bytes).
    Removing main.o(.rev16_text), (4 bytes).
    Removing main.o(.revsh_text), (4 bytes).
    Removing motor_hardware.o(.rev16_text), (4 bytes).
    Removing motor_hardware.o(.revsh_text), (4 bytes).
    Removing motor_hardware.o(i.comp_protect_init), (76 bytes).
    Removing motor_hardware.o(i.motor_pwm_pin_disable), (168 bytes).
    Removing motor_hardware.o(i.motor_pwm_pin_enable), (96 bytes).
    Removing motor_hardware.o(i.motor_set_voltage_vector), (592 bytes).
    Removing adc_simple.o(.rev16_text), (4 bytes).
    Removing adc_simple.o(.revsh_text), (4 bytes).
    Removing can.o(.rev16_text), (4 bytes).
    Removing can.o(.revsh_text), (4 bytes).
    Removing dac.o(.rev16_text), (4 bytes).
    Removing dac.o(.revsh_text), (4 bytes).
    Removing dac.o(i.dac_init), (76 bytes).
    Removing delay.o(.rev16_text), (4 bytes).
==============================================================================

Image Symbol Table

    Local Symbols

    Symbol Name                              Value     Ov Type        Size  Object(Section)

    ../clib/../cmprslib/zerorunl.c           0x00000000   Number         0  __dczerorl.o ABSOLUTE
    ../clib/microlib/init/entry.s            0x00000000   Number         0  entry8a.o ABSOLUTE
    ../clib/microlib/init/entry.s            0x00000000   Number         0  entry7a.o ABSOLUTE
    ../clib/microlib/init/entry.s            0x00000000   Number         0  entry5.o ABSOLUTE
    ../clib/microlib/init/entry.s            0x00000000   Number         0  entry8b.o ABSOLUTE
    ../clib/microlib/init/entry.s            0x00000000   Number         0  entry9a.o ABSOLUTE
    ../clib/microlib/init/entry.s            0x00000000   Number         0  entry9b.o ABSOLUTE
    ../clib/microlib/init/entry.s            0x00000000   Number         0  entry10a.o ABSOLUTE
    ../clib/microlib/init/entry.s            0x00000000   Number         0  entry2.o ABSOLUTE
    ../clib/microlib/init/entry.s            0x00000000   Number         0  entry10b.o ABSOLUTE
    ../clib/microlib/init/entry.s            0x00000000   Number         0  entry11b.o ABSOLUTE
    ../clib/microlib/init/entry.s            0x00000000   Number         0  entry11a.o ABSOLUTE
    ../clib/microlib/init/entry.s            0x00000000   Number         0  entry.o ABSOLUTE
    ../clib/microlib/init/entry.s            0x00000000   Number         0  entry7b.o ABSOLUTE
    ../clib/microlib/string/memcpy.c         0x00000000   Number         0  memcpyb.o ABSOLUTE
    ../clib/microlib/string/memcpy.c         0x00000000   Number         0  memcpya.o ABSOLUTE
    ..\CommonTables\arm_common_tables.c      0x00000000   Number         0  arm_common_tables.o ABSOLUTE
    ..\FOC\foc.c                             0x00000000   Number         0  foc.o ABSOLUTE
    ..\FOC\pmsm.c                            0x00000000   Number         0  pmsm.o ABSOLUTE
    ..\FastMathFunctions\arm_cos_f32.c       0x00000000   Number         0  arm_cos_f32.o ABSOLUTE
    ..\FastMathFunctions\arm_sin_f32.c       0x00000000   Number         0  arm_sin_f32.o ABSOLUTE
    ..\LCD\lcd.c                             0x00000000   Number         0  lcd.o ABSOLUTE
    ..\LCD\lcd_init.c                        0x00000000   Number         0  lcd_init.o ABSOLUTE
    ..\Libraries\CMSIS\GD\GD32F30x\Source\ARM\startup_gd32f30x_hd.s 0x00000000   Number         0  startup_gd32f30x_hd.o ABSOLUTE
    ..\Libraries\CMSIS\GD\GD32F30x\Source\system_gd32f30x.c 0x00000000   Number         0  system_gd32f30x.o ABSOLUTE
    ..\Libraries\GD32F30x_standard_peripheral\Source\gd32f30x_adc.c 0x00000000   Number         0  gd32f30x_adc.o ABSOLUTE
    ..\Libraries\GD32F30x_standard_peripheral\Source\gd32f30x_bkp.c 0x00000000   Number         0  gd32f30x_bkp.o ABSOLUTE
    ..\Libraries\GD32F30x_standard_peripheral\Source\gd32f30x_can.c 0x00000000   Number         0  gd32f30x_can.o ABSOLUTE
    ..\Libraries\GD32F30x_standard_peripheral\Source\gd32f30x_crc.c 0x00000000   Number         0  gd32f30x_crc.o ABSOLUTE
    ..\Libraries\GD32F30x_standard_peripheral\Source\gd32f30x_ctc.c 0x00000000   Number         0  gd32f30x_ctc.o ABSOLUTE
    ..\Libraries\GD32F30x_standard_peripheral\Source\gd32f30x_dac.c 0x00000000   Number         0  gd32f30x_dac.o ABSOLUTE
    ..\Libraries\GD32F30x_standard_peripheral\Source\gd32f30x_dbg.c 0x00000000   Number         0  gd32f30x_dbg.o ABSOLUTE
    ..\Libraries\GD32F30x_standard_peripheral\Source\gd32f30x_dma.c 0x00000000   Number         0  gd32f30x_dma.o ABSOLUTE
    ..\Libraries\GD32F30x_standard_peripheral\Source\gd32f30x_enet.c 0x00000000   Number         0  gd32f30x_enet.o ABSOLUTE
    ..\Libraries\GD32F30x_standard_peripheral\Source\gd32f30x_exmc.c 0x00000000   Number         0  gd32f30x_exmc.o ABSOLUTE
    ..\Libraries\GD32F30x_standard_peripheral\Source\gd32f30x_exti.c 0x00000000   Number         0  gd32f30x_exti.o ABSOLUTE
    ..\Libraries\GD32F30x_standard_peripheral\Source\gd32f30x_fmc.c 0x00000000   Number         0  gd32f30x_fmc.o ABSOLUTE
    ..\Libraries\GD32F30x_standard_peripheral\Source\gd32f30x_fwdgt.c 0x00000000   Number         0  gd32f30x_fwdgt.o ABSOLUTE
    ..\Libraries\GD32F30x_standard_peripheral\Source\gd32f30x_gpio.c 0x00000000   Number         0  gd32f30x_gpio.o ABSOLUTE
    ..\Libraries\GD32F30x_standard_peripheral\Source\gd32f30x_i2c.c 0x00000000   Number         0  gd32f30x_i2c.o ABSOLUTE
    ..\Libraries\GD32F30x_standard_peripheral\Source\gd32f30x_misc.c 0x00000000   Number         0  gd32f30x_misc.o ABSOLUTE
    ..\Libraries\GD32F30x_standard_peripheral\Source\gd32f30x_pmu.c 0x00000000   Number         0  gd32f30x_pmu.o ABSOLUTE
    ..\Libraries\GD32F30x_standard_peripheral\Source\gd32f30x_rcu.c 0x00000000   Number         0  gd32f30x_rcu.o ABSOLUTE
    ..\Libraries\GD32F30x_standard_peripheral\Source\gd32f30x_rtc.c 0x00000000   Number         0  gd32f30x_rtc.o ABSOLUTE
    ..\Libraries\GD32F30x_standard_peripheral\Source\gd32f30x_sdio.c 0x00000000   Number         0  gd32f30x_sdio.o ABSOLUTE
    ..\Libraries\GD32F30x_standard_peripheral\Source\gd32f30x_spi.c 0x00000000   Number         0  gd32f30x_spi.o ABSOLUTE
    ..\Libraries\GD32F30x_standard_peripheral\Source\gd32f30x_timer.c 0x00000000   Number         0  gd32f30x_timer.o ABSOLUTE
    ..\Libraries\GD32F30x_standard_peripheral\Source\gd32f30x_usart.c 0x00000000   Number         0  gd32f30x_usart.o ABSOLUTE
    ..\Libraries\GD32F30x_standard_peripheral\Source\gd32f30x_wwdgt.c 0x00000000   Number         0  gd32f30x_wwdgt.o ABSOLUTE
    ..\User\BSP\adc_simple.c                 0x00000000   Number         0  adc_simple.o ABSOLUTE
    ..\User\BSP\can.c                        0x00000000   Number         0  can.o ABSOLUTE
    ..\User\BSP\dac.c                        0x00000000   Number         0  dac.o ABSOLUTE
    ..\User\BSP\delay.c                      0x00000000   Number         0  delay.o ABSOLUTE
    ..\User\BSP\drv8323rs.c                  0x00000000   Number         0  drv8323rs.o ABSOLUTE
    ..\User\BSP\eeprom.c                     0x00000000   Number         0  eeprom.o ABSOLUTE
    ..\User\BSP\encoder.c                    0x00000000   Number         0  encoder.o ABSOLUTE
    ..\User\BSP\i2c.c                        0x00000000   Number         0  i2c.o ABSOLUTE
    ..\User\BSP\led.c                        0x00000000   Number         0  led.o ABSOLUTE
    ..\User\BSP\ntc.c                        0x00000000   Number         0  ntc.o ABSOLUTE
    ..\User\BSP\spi.c                        0x00000000   Number         0  spi.o ABSOLUTE
    ..\User\BSP\systick.c                    0x00000000   Number         0  systick.o ABSOLUTE
    ..\User\BSP\uart.c                       0x00000000   Number         0  uart.o ABSOLUTE
    ..\User\Task\motor_app.c                 0x00000000   Number         0  motor_app.o ABSOLUTE
    ..\User\Task\task.c                      0x00000000   Number         0  task.o ABSOLUTE
    ..\User\gd32f30x_it.c                    0x00000000   Number         0  gd32f30x_it.o ABSOLUTE
    ..\User\main.c                           0x00000000   Number         0  main.o ABSOLUTE
    ..\User\motor_hardware.c                 0x00000000   Number         0  motor_hardware.o ABSOLUTE
    ..\\CommonTables\\arm_common_tables.c    0x00000000   Number         0  arm_common_tables.o ABSOLUTE
    ..\\FOC\\foc.c                           0x00000000   Number         0  foc.o ABSOLUTE
    ..\\FOC\\pmsm.c                          0x00000000   Number         0  pmsm.o ABSOLUTE
    ..\\FastMathFunctions\\arm_cos_f32.c     0x00000000   Number         0  arm_cos_f32.o ABSOLUTE
    ..\\FastMathFunctions\\arm_sin_f32.c     0x00000000   Number         0  arm_sin_f32.o ABSOLUTE
    ..\\LCD\\lcd.c                           0x00000000   Number         0  lcd.o ABSOLUTE
    ..\\LCD\\lcd_init.c                      0x00000000   Number         0  lcd_init.o ABSOLUTE
    ..\\Libraries\\CMSIS\\GD\\GD32F30x\\Source\\system_gd32f30x.c 0x00000000   Number         0  system_gd32f30x.o ABSOLUTE
    ..\\Libraries\\GD32F30x_standard_peripheral\\Source\\gd32f30x_adc.c 0x00000000   Number         0  gd32f30x_adc.o ABSOLUTE
    ..\\Libraries\\GD32F30x_standard_peripheral\\Source\\gd32f30x_bkp.c 0x00000000   Number         0  gd32f30x_bkp.o ABSOLUTE
    ..\\Libraries\\GD32F30x_standard_peripheral\\Source\\gd32f30x_can.c 0x00000000   Number         0  gd32f30x_can.o ABSOLUTE
    ..\\Libraries\\GD32F30x_standard_peripheral\\Source\\gd32f30x_crc.c 0x00000000   Number         0  gd32f30x_crc.o ABSOLUTE
    ..\\Libraries\\GD32F30x_standard_peripheral\\Source\\gd32f30x_ctc.c 0x00000000   Number         0  gd32f30x_ctc.o ABSOLUTE
    ..\\Libraries\\GD32F30x_standard_peripheral\\Source\\gd32f30x_dac.c 0x00000000   Number         0  gd32f30x_dac.o ABSOLUTE
    ..\\Libraries\\GD32F30x_standard_peripheral\\Source\\gd32f30x_dbg.c 0x00000000   Number         0  gd32f30x_dbg.o ABSOLUTE
    ..\\Libraries\\GD32F30x_standard_peripheral\\Source\\gd32f30x_dma.c 0x00000000   Number         0  gd32f30x_dma.o ABSOLUTE
    ..\\Libraries\\GD32F30x_standard_peripheral\\Source\\gd32f30x_enet.c 0x00000000   Number         0  gd32f30x_enet.o ABSOLUTE
    ..\\Libraries\\GD32F30x_standard_peripheral\\Source\\gd32f30x_exmc.c 0x00000000   Number         0  gd32f30x_exmc.o ABSOLUTE
    ..\\Libraries\\GD32F30x_standard_peripheral\\Source\\gd32f30x_exti.c 0x00000000   Number         0  gd32f30x_exti.o ABSOLUTE
    ..\\Libraries\\GD32F30x_standard_peripheral\\Source\\gd32f30x_fmc.c 0x00000000   Number         0  gd32f30x_fmc.o ABSOLUTE
    ..\\Libraries\\GD32F30x_standard_peripheral\\Source\\gd32f30x_fwdgt.c 0x00000000   Number         0  gd32f30x_fwdgt.o ABSOLUTE
    ..\\Libraries\\GD32F30x_standard_peripheral\\Source\\gd32f30x_gpio.c 0x00000000   Number         0  gd32f30x_gpio.o ABSOLUTE
    ..\\Libraries\\GD32F30x_standard_peripheral\\Source\\gd32f30x_i2c.c 0x00000000   Number         0  gd32f30x_i2c.o ABSOLUTE
    ..\\Libraries\\GD32F30x_standard_peripheral\\Source\\gd32f30x_misc.c 0x00000000   Number         0  gd32f30x_misc.o ABSOLUTE
    ..\\Libraries\\GD32F30x_standard_peripheral\\Source\\gd32f30x_pmu.c 0x00000000   Number         0  gd32f30x_pmu.o ABSOLUTE
    ..\\Libraries\\GD32F30x_standard_peripheral\\Source\\gd32f30x_rcu.c 0x00000000   Number         0  gd32f30x_rcu.o ABSOLUTE
    ..\\Libraries\\GD32F30x_standard_peripheral\\Source\\gd32f30x_rtc.c 0x00000000   Number         0  gd32f30x_rtc.o ABSOLUTE
    ..\\Libraries\\GD32F30x_standard_peripheral\\Source\\gd32f30x_sdio.c 0x00000000   Number         0  gd32f30x_sdio.o ABSOLUTE
    ..\\Libraries\\GD32F30x_standard_peripheral\\Source\\gd32f30x_spi.c 0x00000000   Number         0  gd32f30x_spi.o ABSOLUTE
    ..\\Libraries\\GD32F30x_standard_peripheral\\Source\\gd32f30x_timer.c 0x00000000   Number         0  gd32f30x_timer.o ABSOLUTE
    ..\\Libraries\\GD32F30x_standard_peripheral\\Source\\gd32f30x_usart.c 0x00000000   Number         0  gd32f30x_usart.o ABSOLUTE
    ..\\Libraries\\GD32F30x_standard_peripheral\\Source\\gd32f30x_wwdgt.c 0x00000000   Number         0  gd32f30x_wwdgt.o ABSOLUTE
    ..\\User\\BSP\\adc_simple.c              0x00000000   Number         0  adc_simple.o ABSOLUTE
    ..\\User\\BSP\\can.c                     0x00000000   Number         0  can.o ABSOLUTE
    ..\\User\\BSP\\dac.c                     0x00000000   Number         0  dac.o ABSOLUTE
    ..\\User\\BSP\\delay.c                   0x00000000   Number         0  delay.o ABSOLUTE
    ..\\User\\BSP\\drv8323rs.c               0x00000000   Number         0  drv8323rs.o ABSOLUTE
    ..\\User\\BSP\\eeprom.c                  0x00000000   Number         0  eeprom.o ABSOLUTE
    ..\\User\\BSP\\encoder.c                 0x00000000   Number         0  encoder.o ABSOLUTE
    ..\\User\\BSP\\i2c.c                     0x00000000   Number         0  i2c.o ABSOLUTE
    ..\\User\\BSP\\led.c                     0x00000000   Number         0  led.o ABSOLUTE
    ..\\User\\BSP\\ntc.c                     0x00000000   Number         0  ntc.o ABSOLUTE
    ..\\User\\BSP\\spi.c                     0x00000000   Number         0  spi.o ABSOLUTE
    ..\\User\\BSP\\systick.c                 0x00000000   Number         0  systick.o ABSOLUTE
    ..\\User\\BSP\\uart.c                    0x00000000   Number         0  uart.o ABSOLUTE
    ..\\User\\Task\\motor_app.c              0x00000000   Number         0  motor_app.o ABSOLUTE
    ..\\User\\Task\\task.c                   0x00000000   Number         0  task.o ABSOLUTE
    ..\\User\\gd32f30x_it.c                  0x00000000   Number         0  gd32f30x_it.o ABSOLUTE
    ..\\User\\main.c                         0x00000000   Number         0  main.o ABSOLUTE
    ..\\User\\motor_hardware.c               0x00000000   Number         0  motor_hardware.o ABSOLUTE
    dc.s                                     0x00000000   Number         0  dc.o ABSOLUTE
    handlers.s                               0x00000000   Number         0  handlers.o ABSOLUTE
    init.s                                   0x00000000   Number         0  init.o ABSOLUTE
    RESET                                    0x08004000   Section      304  startup_gd32f30x_hd.o(RESET)
    .ARM.Collect$$$$00000000                 0x08004130   Section        0  entry.o(.ARM.Collect$$$$00000000)
    .ARM.Collect$$$$00000001                 0x08004130   Section        4  entry2.o(.ARM.Collect$$$$00000001)
    .ARM.Collect$$$$00000004                 0x08004134   Section        4  entry5.o(.ARM.Collect$$$$00000004)
    .ARM.Collect$$$$00000008                 0x08004138   Section        0  entry7b.o(.ARM.Collect$$$$00000008)
    .ARM.Collect$$$$0000000A                 0x08004138   Section        0  entry8b.o(.ARM.Collect$$$$0000000A)
    .ARM.Collect$$$$0000000B                 0x08004138   Section        8  entry9a.o(.ARM.Collect$$$$0000000B)
    .ARM.Collect$$$$0000000D                 0x08004140   Section        0  entry10a.o(.ARM.Collect$$$$0000000D)
    .ARM.Collect$$$$0000000F                 0x08004140   Section        0  entry11a.o(.ARM.Collect$$$$0000000F)
    .ARM.Collect$$$$00002712                 0x08004140   Section        4  entry2.o(.ARM.Collect$$$$00002712)
    __lit__00000000                          0x08004140   Data           4  entry2.o(.ARM.Collect$$$$00002712)
    .text                                    0x08004144   Section       36  startup_gd32f30x_hd.o(.text)
    $v0                                      0x08004144   Number         0  startup_gd32f30x_hd.o(.text)
    .text                                    0x08004168   Section        0  arm_cos_f32.o(.text)
    .text                                    0x080041e0   Section        0  arm_sin_f32.o(.text)
    .text                                    0x08004264   Section        0  memcpya.o(.text)
    .text                                    0x08004288   Section       36  init.o(.text)
    .text                                    0x080042ac   Section        0  __dczerorl.o(.text)
    i.ADC0_1_IRQHandler                      0x080042e8   Section        0  main.o(i.ADC0_1_IRQHandler)
    i.BusFault_Handler                       0x080042fc   Section        0  gd32f30x_it.o(i.BusFault_Handler)
    i.DRV8323RS_clearFaults                  0x08004300   Section        0  drv8323rs.o(i.DRV8323RS_clearFaults)
    i.DRV8323RS_createSPIDataWord            0x0800430e   Section        0  drv8323rs.o(i.DRV8323RS_createSPIDataWord)
    i.DRV8323RS_disable                      0x0800432c   Section        0  drv8323rs.o(i.DRV8323RS_disable)
    i.DRV8323RS_enable                       0x08004348   Section        0  drv8323rs.o(i.DRV8323RS_enable)
    i.DRV8323RS_init                         0x08004360   Section        0  drv8323rs.o(i.DRV8323RS_init)
    i.DRV8323RS_setCsaGain                   0x0800440c   Section        0  drv8323rs.o(i.DRV8323RS_setCsaGain)
    i.DRV8323RS_setVdsLvl                    0x0800441c   Section        0  drv8323rs.o(i.DRV8323RS_setVdsLvl)
    i.DRV8323RS_spiRead                      0x0800442c   Section        0  drv8323rs.o(i.DRV8323RS_spiRead)
    i.DRV8323RS_spiUpdateRegister            0x08004464   Section        0  drv8323rs.o(i.DRV8323RS_spiUpdateRegister)
    i.DRV8323RS_spiWrite                     0x08004488   Section        0  drv8323rs.o(i.DRV8323RS_spiWrite)
    i.DebugMon_Handler                       0x080044bc   Section        0  gd32f30x_it.o(i.DebugMon_Handler)
    i.HardFault_Handler                      0x080044be   Section        0  gd32f30x_it.o(i.HardFault_Handler)
    i.IsKey0Down                             0x080044c4   Section        0  encoder.o(i.IsKey0Down)
    IsKey0Down                               0x080044c5   Thumb Code    20  encoder.o(i.IsKey0Down)
    i.LCD_Address_Set                        0x080044dc   Section        0  lcd_init.o(i.LCD_Address_Set)
    i.LCD_DrawPoint                          0x08004526   Section        0  lcd.o(i.LCD_DrawPoint)
    i.LCD_Fill                               0x08004542   Section        0  lcd.o(i.LCD_Fill)
    i.LCD_GPIO_Init                          0x0800458c   Section        0  lcd_init.o(i.LCD_GPIO_Init)
    i.LCD_Init                               0x08004604   Section        0  lcd_init.o(i.LCD_Init)
    i.LCD_ShowChar                           0x080047b4   Section        0  lcd.o(i.LCD_ShowChar)
    i.LCD_ShowFloatNum2                      0x0800490c   Section        0  lcd.o(i.LCD_ShowFloatNum2)
    i.LCD_ShowIntNum                         0x08004a46   Section        0  lcd.o(i.LCD_ShowIntNum)
    i.LCD_ShowString                         0x08004b00   Section        0  lcd.o(i.LCD_ShowString)
    i.LCD_WR_DATA                            0x08004b42   Section        0  lcd_init.o(i.LCD_WR_DATA)
    i.LCD_WR_DATA8                           0x08004b54   Section        0  lcd_init.o(i.LCD_WR_DATA8)
    i.LCD_WR_REG                             0x08004b60   Section        0  lcd_init.o(i.LCD_WR_REG)
    i.LCD_Writ_Bus                           0x08004b88   Section        0  lcd_init.o(i.LCD_Writ_Bus)
    i.MemManage_Handler                      0x08004bac   Section        0  gd32f30x_it.o(i.MemManage_Handler)
    i.NMI_Handler                            0x08004bb0   Section        0  gd32f30x_it.o(i.NMI_Handler)
    i.NVIC_SetPriority                       0x08004bb4   Section        0  systick.o(i.NVIC_SetPriority)
    NVIC_SetPriority                         0x08004bb5   Thumb Code    32  systick.o(i.NVIC_SetPriority)
    i.PendSV_Handler                         0x08004bdc   Section        0  gd32f30x_it.o(i.PendSV_Handler)
    i.SVC_Handler                            0x08004bde   Section        0  gd32f30x_it.o(i.SVC_Handler)
    i.SysTick_Handler                        0x08004be0   Section        0  systick.o(i.SysTick_Handler)
    i.SystemInit                             0x08004bf0   Section        0  system_gd32f30x.o(i.SystemInit)
    i.TIMER0_BRK_IRQHandler                  0x08004c98   Section        0  main.o(i.TIMER0_BRK_IRQHandler)
    i.TIMER2_IRQHandler                      0x08004ccc   Section        0  main.o(i.TIMER2_IRQHandler)
    i.TIMER3_IRQHandler                      0x08004d9c   Section        0  encoder.o(i.TIMER3_IRQHandler)
    i.USBD_LP_CAN0_RX0_IRQHandler            0x08004de0   Section        0  can.o(i.USBD_LP_CAN0_RX0_IRQHandler)
    i.UsageFault_Handler                     0x08004df8   Section        0  gd32f30x_it.o(i.UsageFault_Handler)
    i.__scatterload_copy                     0x08004dfc   Section       14  handlers.o(i.__scatterload_copy)
    i.__scatterload_null                     0x08004e0a   Section        2  handlers.o(i.__scatterload_null)
    i.__scatterload_zeroinit                 0x08004e0c   Section       14  handlers.o(i.__scatterload_zeroinit)
    i.adc0_config                            0x08004e1c   Section        0  motor_hardware.o(i.adc0_config)
    adc0_config                              0x08004e1d   Thumb Code   162  motor_hardware.o(i.adc0_config)
    i.adc0_init                              0x08004ec4   Section        0  motor_hardware.o(i.adc0_init)
    i.adc1_init                              0x08004ed0   Section        0  adc_simple.o(i.adc1_init)
    i.adc_calibration_enable                 0x08004f94   Section        0  gd32f30x_adc.o(i.adc_calibration_enable)
    i.adc_channel_length_config              0x08004fbe   Section        0  gd32f30x_adc.o(i.adc_channel_length_config)
    i.adc_data_alignment_config              0x08005004   Section        0  gd32f30x_adc.o(i.adc_data_alignment_config)
    i.adc_enable                             0x0800501a   Section        0  gd32f30x_adc.o(i.adc_enable)
    i.adc_external_trigger_config            0x0800502c   Section        0  gd32f30x_adc.o(i.adc_external_trigger_config)
    i.adc_external_trigger_source_config     0x0800506a   Section        0  gd32f30x_adc.o(i.adc_external_trigger_source_config)
    i.adc_flag_clear                         0x0800509a   Section        0  gd32f30x_adc.o(i.adc_flag_clear)
    i.adc_flag_get                           0x080050a0   Section        0  gd32f30x_adc.o(i.adc_flag_get)
    i.adc_gpio_init                          0x080050b0   Section        0  motor_hardware.o(i.adc_gpio_init)
    adc_gpio_init                            0x080050b1   Thumb Code    84  motor_hardware.o(i.adc_gpio_init)
    i.adc_inserted_channel_config            0x08005110   Section        0  gd32f30x_adc.o(i.adc_inserted_channel_config)
    i.adc_inserted_data_read                 0x08005184   Section        0  gd32f30x_adc.o(i.adc_inserted_data_read)
    i.adc_interrupt_enable                   0x080051b2   Section        0  gd32f30x_adc.o(i.adc_interrupt_enable)
    i.adc_interrupt_flag_clear               0x080051de   Section        0  gd32f30x_adc.o(i.adc_interrupt_flag_clear)
    i.adc_mode_config                        0x080051e4   Section        0  gd32f30x_adc.o(i.adc_mode_config)
    i.adc_read_data                          0x08005200   Section        0  adc_simple.o(i.adc_read_data)
    i.adc_regular_channel_config             0x08005238   Section        0  gd32f30x_adc.o(i.adc_regular_channel_config)
    i.adc_regular_data_read                  0x080052e4   Section        0  gd32f30x_adc.o(i.adc_regular_data_read)
    i.adc_software_trigger_enable            0x080052ec   Section        0  gd32f30x_adc.o(i.adc_software_trigger_enable)
    i.adc_special_function_config            0x0800530a   Section        0  gd32f30x_adc.o(i.adc_special_function_config)
    i.adc_task                               0x08005364   Section        0  adc_simple.o(i.adc_task)
    i.calc_pi                                0x08005424   Section        0  foc.o(i.calc_pi)
    i.calculate_park_angle                   0x080054a0   Section        0  pmsm.o(i.calculate_park_angle)
    calculate_park_angle                     0x080054a1   Thumb Code   138  pmsm.o(i.calculate_park_angle)
    i.calculate_temperature_float            0x08005540   Section        0  ntc.o(i.calculate_temperature_float)
    i.can_bus_init                           0x0800562c   Section        0  can.o(i.can_bus_init)
    i.can_config                             0x08005648   Section        0  can.o(i.can_config)
    can_config                               0x08005649   Thumb Code   156  can.o(i.can_config)
    i.can_deinit                             0x080056e8   Section        0  gd32f30x_can.o(i.can_deinit)
    i.can_fifo_release                       0x08005708   Section        0  gd32f30x_can.o(i.can_fifo_release)
    i.can_filter_init                        0x08005728   Section        0  gd32f30x_can.o(i.can_filter_init)
    i.can_gpio_config                        0x08005838   Section        0  can.o(i.can_gpio_config)
    can_gpio_config                          0x08005839   Thumb Code    40  can.o(i.can_gpio_config)
    i.can_init                               0x08005864   Section        0  gd32f30x_can.o(i.can_init)
    i.can_interrupt_enable                   0x08005986   Section        0  gd32f30x_can.o(i.can_interrupt_enable)
    i.can_message_transmit                   0x08005990   Section        0  gd32f30x_can.o(i.can_message_transmit)
    i.can_nvic_config                        0x08005ae0   Section        0  can.o(i.can_nvic_config)
    can_nvic_config                          0x08005ae1   Thumb Code    14  can.o(i.can_nvic_config)
    i.can_struct_para_init                   0x08005aee   Section        0  gd32f30x_can.o(i.can_struct_para_init)
    i.clark                                  0x08005b94   Section        0  foc.o(i.clark)
    i.dma_channel_enable                     0x08005bc8   Section        0  gd32f30x_dma.o(i.dma_channel_enable)
    i.dma_circulation_disable                0x08005bfa   Section        0  gd32f30x_dma.o(i.dma_circulation_disable)
    i.dma_deinit                             0x08005c2c   Section        0  gd32f30x_dma.o(i.dma_deinit)
    i.dma_flag_get                           0x08005c9c   Section        0  gd32f30x_dma.o(i.dma_flag_get)
    i.dma_init                               0x08005cb4   Section        0  gd32f30x_dma.o(i.dma_init)
    i.dma_memory_to_memory_disable           0x08005de2   Section        0  gd32f30x_dma.o(i.dma_memory_to_memory_disable)
    i.dma_periph_and_channel_check           0x08005e14   Section        0  gd32f30x_dma.o(i.dma_periph_and_channel_check)
    dma_periph_and_channel_check             0x08005e15   Thumb Code    18  gd32f30x_dma.o(i.dma_periph_and_channel_check)
    i.dma_struct_para_init                   0x08005e2c   Section        0  gd32f30x_dma.o(i.dma_struct_para_init)
    i.encoder_get                            0x08005e48   Section        0  encoder.o(i.encoder_get)
    i.encoder_gpio_init                      0x08005e58   Section        0  encoder.o(i.encoder_gpio_init)
    encoder_gpio_init                        0x08005e59   Thumb Code    64  encoder.o(i.encoder_gpio_init)
    i.encoder_init                           0x08005ea0   Section        0  encoder.o(i.encoder_init)
    i.encoder_timer_init                     0x08005ebc   Section        0  encoder.o(i.encoder_timer_init)
    encoder_timer_init                       0x08005ebd   Thumb Code   138  encoder.o(i.encoder_timer_init)
    i.gpio_bit_write                         0x08005f4c   Section        0  gd32f30x_gpio.o(i.gpio_bit_write)
    i.gpio_init                              0x08005f56   Section        0  gd32f30x_gpio.o(i.gpio_init)
    i.gpio_input_bit_get                     0x08006012   Section        0  gd32f30x_gpio.o(i.gpio_input_bit_get)
    i.gpio_output_bit_get                    0x08006022   Section        0  gd32f30x_gpio.o(i.gpio_output_bit_get)
    i.gpio_pin_remap_config                  0x08006034   Section        0  gd32f30x_gpio.o(i.gpio_pin_remap_config)
    i.hall_get                               0x080060c4   Section        0  motor_hardware.o(i.hall_get)
    i.hall_init                              0x080060f8   Section        0  motor_hardware.o(i.hall_init)
    i.hall_timer_config                      0x08006158   Section        0  motor_hardware.o(i.hall_timer_config)
    hall_timer_config                        0x08006159   Thumb Code   210  motor_hardware.o(i.hall_timer_config)
    i.init_pi                                0x08006230   Section        0  foc.o(i.init_pi)
    i.interrupt_init                         0x08006248   Section        0  motor_hardware.o(i.interrupt_init)
    i.inv_park                               0x0800626a   Section        0  foc.o(i.inv_park)
    i.key_detect                             0x080062a4   Section        0  encoder.o(i.key_detect)
    key_detect                               0x080062a5   Thumb Code   214  encoder.o(i.key_detect)
    i.key_get                                0x08006380   Section        0  encoder.o(i.key_get)
    i.key_put                                0x080063b4   Section        0  encoder.o(i.key_put)
    key_put                                  0x080063b5   Thumb Code    30  encoder.o(i.key_put)
    i.key_scan                               0x080063d8   Section        0  encoder.o(i.key_scan)
    i.key_var_init                           0x080063f0   Section        0  encoder.o(i.key_var_init)
    key_var_init                             0x080063f1   Thumb Code    84  encoder.o(i.key_var_init)
    i.led_init                               0x08006450   Section        0  led.o(i.led_init)
    i.led_on                                 0x080064e4   Section        0  led.o(i.led_on)
    i.led_toggle                             0x080064fc   Section        0  led.o(i.led_toggle)
    i.main                                   0x08006534   Section        0  main.o(i.main)
    i.motor_app_idle                         0x080065a0   Section        0  motor_app.o(i.motor_app_idle)
    i.motor_app_init                         0x080065a8   Section        0  motor_app.o(i.motor_app_init)
    i.motor_app_isr                          0x080065f8   Section        0  motor_app.o(i.motor_app_isr)
    i.motor_app_task100ms                    0x08006944   Section        0  motor_app.o(i.motor_app_task100ms)
    i.motor_app_task10ms                     0x08006948   Section        0  motor_app.o(i.motor_app_task10ms)
    i.motor_app_task1s                       0x08006b00   Section        0  motor_app.o(i.motor_app_task1s)
    i.motor_app_task500ms                    0x08006b08   Section        0  motor_app.o(i.motor_app_task500ms)
    i.motor_can_transmit                     0x08006b0c   Section        0  motor_app.o(i.motor_can_transmit)
    motor_can_transmit                       0x08006b0d   Thumb Code   174  motor_app.o(i.motor_can_transmit)
    i.motor_hardware_init                    0x08006bd4   Section        0  motor_hardware.o(i.motor_hardware_init)
    i.motor_pwm_disable                      0x08006bf0   Section        0  motor_hardware.o(i.motor_pwm_disable)
    i.motor_pwm_enable                       0x08006c34   Section        0  motor_hardware.o(i.motor_pwm_enable)
    i.motor_pwm_set_duty                     0x08006c78   Section        0  motor_hardware.o(i.motor_pwm_set_duty)
    i.motor_ui_init                          0x08006ca4   Section        0  motor_app.o(i.motor_ui_init)
    motor_ui_init                            0x08006ca5   Thumb Code   580  motor_app.o(i.motor_ui_init)
    i.motor_ui_updata                        0x08006f40   Section        0  motor_app.o(i.motor_ui_updata)
    motor_ui_updata                          0x08006f41   Thumb Code   444  motor_app.o(i.motor_ui_updata)
    i.mypow                                  0x0800712c   Section        0  lcd.o(i.mypow)
    i.nvic_irq_enable                        0x08007144   Section        0  gd32f30x_misc.o(i.nvic_irq_enable)
    i.nvic_priority_group_set                0x08007208   Section        0  gd32f30x_misc.o(i.nvic_priority_group_set)
    i.park                                   0x0800721c   Section        0  foc.o(i.park)
    i.pid_control                            0x08007258   Section        0  pmsm.o(i.pid_control)
    pid_control                              0x08007259   Thumb Code   492  pmsm.o(i.pid_control)
    i.pmsm_foc_init                          0x08007464   Section        0  pmsm.o(i.pmsm_foc_init)
    i.pmsm_foc_init_control_parameters       0x08007498   Section        0  pmsm.o(i.pmsm_foc_init_control_parameters)
    pmsm_foc_init_control_parameters         0x08007499   Thumb Code   160  pmsm.o(i.pmsm_foc_init_control_parameters)
    i.pmsm_foc_run                           0x08007550   Section        0  pmsm.o(i.pmsm_foc_run)
    i.pwm_gpio_init                          0x08007580   Section        0  motor_hardware.o(i.pwm_gpio_init)
    pwm_gpio_init                            0x08007581   Thumb Code   126  motor_hardware.o(i.pwm_gpio_init)
    i.pwm_timer_config                       0x08007608   Section        0  motor_hardware.o(i.pwm_timer_config)
    pwm_timer_config                         0x08007609   Thumb Code   356  motor_hardware.o(i.pwm_timer_config)
    i.rcu_adc_clock_config                   0x08007770   Section        0  gd32f30x_rcu.o(i.rcu_adc_clock_config)
    i.rcu_clock_freq_get                     0x080077dc   Section        0  gd32f30x_rcu.o(i.rcu_clock_freq_get)
    i.rcu_periph_clock_enable                0x08007934   Section        0  gd32f30x_rcu.o(i.rcu_periph_clock_enable)
    i.rcu_periph_reset_disable               0x08007954   Section        0  gd32f30x_rcu.o(i.rcu_periph_reset_disable)
    i.rcu_periph_reset_enable                0x08007974   Section        0  gd32f30x_rcu.o(i.rcu_periph_reset_enable)
    i.sch_idle                               0x08007994   Section        0  task.o(i.sch_idle)
    sch_idle                                 0x08007995   Thumb Code     8  task.o(i.sch_idle)
    i.sch_task100ms                          0x0800799c   Section        0  task.o(i.sch_task100ms)
    sch_task100ms                            0x0800799d   Thumb Code     8  task.o(i.sch_task100ms)
    i.sch_task10ms                           0x080079a4   Section        0  task.o(i.sch_task10ms)
    sch_task10ms                             0x080079a5   Thumb Code     8  task.o(i.sch_task10ms)
    i.sch_task1ms                            0x080079ac   Section        0  task.o(i.sch_task1ms)
    sch_task1ms                              0x080079ad   Thumb Code     2  task.o(i.sch_task1ms)
    i.sch_task1s                             0x080079ae   Section        0  task.o(i.sch_task1s)
    sch_task1s                               0x080079af   Thumb Code     8  task.o(i.sch_task1s)
    i.sch_task500ms                          0x080079b6   Section        0  task.o(i.sch_task500ms)
    sch_task500ms                            0x080079b7   Thumb Code    14  task.o(i.sch_task500ms)
    i.sch_task5ms                            0x080079c4   Section        0  task.o(i.sch_task5ms)
    sch_task5ms                              0x080079c5   Thumb Code     2  task.o(i.sch_task5ms)
    i.sin_cos                                0x080079c6   Section        0  foc.o(i.sin_cos)
    i.spi0_init                              0x080079ec   Section        0  spi.o(i.spi0_init)
    i.spi0_transmit_receive_data             0x08007a54   Section        0  spi.o(i.spi0_transmit_receive_data)
    i.spi2_init                              0x08007a88   Section        0  spi.o(i.spi2_init)
    i.spi2_transmit_receive_data             0x08007aec   Section        0  spi.o(i.spi2_transmit_receive_data)
    i.spi_enable                             0x08007b24   Section        0  gd32f30x_spi.o(i.spi_enable)
    i.spi_i2s_data_receive                   0x08007b2e   Section        0  gd32f30x_spi.o(i.spi_i2s_data_receive)
    i.spi_i2s_data_transmit                  0x08007b36   Section        0  gd32f30x_spi.o(i.spi_i2s_data_transmit)
    i.spi_i2s_flag_get                       0x08007b3a   Section        0  gd32f30x_spi.o(i.spi_i2s_flag_get)
    i.spi_init                               0x08007b4a   Section        0  gd32f30x_spi.o(i.spi_init)
    i.svpwm                                  0x08007b7c   Section        0  foc.o(i.svpwm)
    i.system_clock_120m_hxtal                0x08007e54   Section        0  system_gd32f30x.o(i.system_clock_120m_hxtal)
    system_clock_120m_hxtal                  0x08007e55   Thumb Code   258  system_gd32f30x.o(i.system_clock_120m_hxtal)
    i.system_clock_config                    0x08007f68   Section        0  system_gd32f30x.o(i.system_clock_config)
    system_clock_config                      0x08007f69   Thumb Code     8  system_gd32f30x.o(i.system_clock_config)
    i.systick_delay                          0x08007f70   Section        0  systick.o(i.systick_delay)
    i.systick_get_current_tick               0x08007fa0   Section        0  systick.o(i.systick_get_current_tick)
    i.systick_init                           0x08007fac   Section        0  systick.o(i.systick_init)
    i.task_init                              0x08007ffc   Section        0  task.o(i.task_init)
    i.task_scheduler                         0x08008004   Section        0  task.o(i.task_scheduler)
    i.timer_auto_reload_shadow_enable        0x0800812c   Section        0  gd32f30x_timer.o(i.timer_auto_reload_shadow_enable)
    i.timer_break_config                     0x08008136   Section        0  gd32f30x_timer.o(i.timer_break_config)
    i.timer_channel_capture_value_register_read 0x08008154   Section        0  gd32f30x_timer.o(i.timer_channel_capture_value_register_read)
    i.timer_channel_complementary_output_state_config 0x0800817e   Section        0  gd32f30x_timer.o(i.timer_channel_complementary_output_state_config)
    i.timer_channel_input_capture_prescaler_config 0x080081c4   Section        0  gd32f30x_timer.o(i.timer_channel_input_capture_prescaler_config)
    i.timer_channel_output_config            0x08008220   Section        0  gd32f30x_timer.o(i.timer_channel_output_config)
    i.timer_channel_output_mode_config       0x0800840c   Section        0  gd32f30x_timer.o(i.timer_channel_output_mode_config)
    i.timer_channel_output_pulse_value_config 0x08008466   Section        0  gd32f30x_timer.o(i.timer_channel_output_pulse_value_config)
    i.timer_channel_output_shadow_config     0x0800848c   Section        0  gd32f30x_timer.o(i.timer_channel_output_shadow_config)
    i.timer_channel_output_state_config      0x080084e6   Section        0  gd32f30x_timer.o(i.timer_channel_output_state_config)
    i.timer_counter_read                     0x08008542   Section        0  gd32f30x_timer.o(i.timer_counter_read)
    i.timer_counter_value_config             0x0800854a   Section        0  gd32f30x_timer.o(i.timer_counter_value_config)
    i.timer_deinit                           0x08008550   Section        0  gd32f30x_timer.o(i.timer_deinit)
    i.timer_enable                           0x0800862c   Section        0  gd32f30x_timer.o(i.timer_enable)
    i.timer_hall_mode_config                 0x08008636   Section        0  gd32f30x_timer.o(i.timer_hall_mode_config)
    i.timer_init                             0x08008650   Section        0  gd32f30x_timer.o(i.timer_init)
    i.timer_input_capture_config             0x080086e8   Section        0  gd32f30x_timer.o(i.timer_input_capture_config)
    i.timer_input_trigger_source_select      0x0800882e   Section        0  gd32f30x_timer.o(i.timer_input_trigger_source_select)
    i.timer_interrupt_enable                 0x0800883e   Section        0  gd32f30x_timer.o(i.timer_interrupt_enable)
    i.timer_interrupt_flag_clear             0x08008846   Section        0  gd32f30x_timer.o(i.timer_interrupt_flag_clear)
    i.timer_interrupt_flag_get               0x0800884c   Section        0  gd32f30x_timer.o(i.timer_interrupt_flag_get)
    i.timer_primary_output_config            0x08008864   Section        0  gd32f30x_timer.o(i.timer_primary_output_config)
    i.timer_quadrature_decoder_mode_config   0x0800887c   Section        0  gd32f30x_timer.o(i.timer_quadrature_decoder_mode_config)
    i.timer_slave_mode_select                0x080088bc   Section        0  gd32f30x_timer.o(i.timer_slave_mode_select)
    i.usart_baudrate_set                     0x080088cc   Section        0  gd32f30x_usart.o(i.usart_baudrate_set)
    i.usart_deinit                           0x0800895c   Section        0  gd32f30x_usart.o(i.usart_deinit)
    i.usart_dma_receive_config               0x080089ec   Section        0  gd32f30x_usart.o(i.usart_dma_receive_config)
    i.usart_dma_transmit_config              0x08008a00   Section        0  gd32f30x_usart.o(i.usart_dma_transmit_config)
    i.usart_enable                           0x08008a14   Section        0  gd32f30x_usart.o(i.usart_enable)
    i.usart_init                             0x08008a20   Section        0  uart.o(i.usart_init)
    i.usart_receive_config                   0x08008b74   Section        0  gd32f30x_usart.o(i.usart_receive_config)
    i.usart_send_data                        0x08008b88   Section        0  uart.o(i.usart_send_data)
    i.usart_transmit_config                  0x08008c10   Section        0  gd32f30x_usart.o(i.usart_transmit_config)
    .constdata                               0x08008c24   Section    13300  lcd.o(.constdata)
    .constdata                               0x0800c018   Section     2052  arm_common_tables.o(.constdata)
    .data                                    0x20000000   Section       49  main.o(.data)
    .data                                    0x20000031   Section        4  adc_simple.o(.data)
    .data                                    0x20000038   Section       24  led.o(.data)
    GPIO_PORT                                0x20000038   Data          12  led.o(.data)
    GPIO_PIN                                 0x20000044   Data          12  led.o(.data)
    .data                                    0x20000050   Section      704  ntc.o(.data)
    .data                                    0x20000310   Section        4  systick.o(.data)
    tick_cnt                                 0x20000310   Data           4  systick.o(.data)
    .data                                    0x20000314   Section        5  encoder.o(.data)
    encoder_code                             0x20000314   Data           1  encoder.o(.data)
    key_f                                    0x20000315   Data           4  encoder.o(.data)
    .data                                    0x2000031c   Section       12  motor_app.o(.data)
    ia_sum                                   0x2000031c   Data           4  motor_app.o(.data)
    ib_sum                                   0x20000320   Data           4  motor_app.o(.data)
    ic_sum                                   0x20000324   Data           4  motor_app.o(.data)
    .data                                    0x20000328   Section       24  task.o(.data)
    tick1ms                                  0x20000328   Data           4  task.o(.data)
    tick5ms                                  0x2000032c   Data           4  task.o(.data)
    tick10ms                                 0x20000330   Data           4  task.o(.data)
    tick100ms                                0x20000334   Data           4  task.o(.data)
    tick500ms                                0x20000338   Data           4  task.o(.data)
    tick1s                                   0x2000033c   Data           4  task.o(.data)
    .data                                    0x20000340   Section        4  system_gd32f30x.o(.data)
    .bss                                     0x20000344   Section      102  adc_simple.o(.bss)
    .bss                                     0x200003aa   Section       64  uart.o(.bss)
    rxbuffer                                 0x200003aa   Data          32  uart.o(.bss)
    txbuffer                                 0x200003ca   Data          32  uart.o(.bss)
    .bss                                     0x200003ec   Section       16  encoder.o(.bss)
    key_x                                    0x200003ec   Data          16  encoder.o(.bss)
    .bss                                     0x200003fc   Section       64  motor_app.o(.bss)
    .bss                                     0x2000043c   Section      256  pmsm.o(.bss)
    STACK                                    0x20000540   Section     1024  startup_gd32f30x_hd.o(STACK)

    Global Symbols

    Symbol Name                              Value     Ov Type        Size  Object(Section)

    BuildAttributes$$THM_ISAv4$E$P$D$K$B$S$7EM$VFPi3$EXTD16$VFPS$VFMA$PE$A:L22UL41UL21$X:L11$S22US41US21$IEEE1$IW$USESV6$~STKCKD$USESV7$~SHL$OTIME$IEEEX$EBA8$MICROLIB$REQ8$PRES8$EABIv2 0x00000000   Number         0  anon$$obj.o ABSOLUTE
    __ARM_use_no_argv                        0x00000000   Number         0  main.o ABSOLUTE
    __cpp_initialize__aeabi_                  - Undefined Weak Reference
    __cxa_finalize                            - Undefined Weak Reference
    _clock_init                               - Undefined Weak Reference
    _microlib_exit                            - Undefined Weak Reference
    __Vectors_Size                           0x00000130   Number         0  startup_gd32f30x_hd.o ABSOLUTE
    __Vectors                                0x08004000   Data           4  startup_gd32f30x_hd.o(RESET)
    __Vectors_End                            0x08004130   Data           0  startup_gd32f30x_hd.o(RESET)
    __main                                   0x08004131   Thumb Code     0  entry.o(.ARM.Collect$$$$00000000)
    _main_stk                                0x08004131   Thumb Code     0  entry2.o(.ARM.Collect$$$$00000001)
    _main_scatterload                        0x08004135   Thumb Code     0  entry5.o(.ARM.Collect$$$$00000004)
    __main_after_scatterload                 0x08004139   Thumb Code     0  entry5.o(.ARM.Collect$$$$00000004)
    _main_clock                              0x08004139   Thumb Code     0  entry7b.o(.ARM.Collect$$$$00000008)
    _main_cpp_init                           0x08004139   Thumb Code     0  entry8b.o(.ARM.Collect$$$$0000000A)
    _main_init                               0x08004139   Thumb Code     0  entry9a.o(.ARM.Collect$$$$0000000B)
    __rt_final_cpp                           0x08004141   Thumb Code     0  entry10a.o(.ARM.Collect$$$$0000000D)
    __rt_final_exit                          0x08004141   Thumb Code     0  entry11a.o(.ARM.Collect$$$$0000000F)
    Reset_Handler                            0x08004145   Thumb Code     8  startup_gd32f30x_hd.o(.text)
    ADC2_IRQHandler                          0x0800415f   Thumb Code     0  startup_gd32f30x_hd.o(.text)
    CAN0_EWMC_IRQHandler                     0x0800415f   Thumb Code     0  startup_gd32f30x_hd.o(.text)
    CAN0_RX1_IRQHandler                      0x0800415f   Thumb Code     0  startup_gd32f30x_hd.o(.text)
    DMA0_Channel0_IRQHandler                 0x0800415f   Thumb Code     0  startup_gd32f30x_hd.o(.text)
    DMA0_Channel1_IRQHandler                 0x0800415f   Thumb Code     0  startup_gd32f30x_hd.o(.text)
    DMA0_Channel2_IRQHandler                 0x0800415f   Thumb Code     0  startup_gd32f30x_hd.o(.text)
    DMA0_Channel3_IRQHandler                 0x0800415f   Thumb Code     0  startup_gd32f30x_hd.o(.text)
    DMA0_Channel4_IRQHandler                 0x0800415f   Thumb Code     0  startup_gd32f30x_hd.o(.text)
    DMA0_Channel5_IRQHandler                 0x0800415f   Thumb Code     0  startup_gd32f30x_hd.o(.text)
    DMA0_Channel6_IRQHandler                 0x0800415f   Thumb Code     0  startup_gd32f30x_hd.o(.text)
    DMA1_Channel0_IRQHandler                 0x0800415f   Thumb Code     0  startup_gd32f30x_hd.o(.text)
    DMA1_Channel1_IRQHandler                 0x0800415f   Thumb Code     0  startup_gd32f30x_hd.o(.text)
    DMA1_Channel2_IRQHandler                 0x0800415f   Thumb Code     0  startup_gd32f30x_hd.o(.text)
    DMA1_Channel3_4_IRQHandler               0x0800415f   Thumb Code     0  startup_gd32f30x_hd.o(.text)
    EXMC_IRQHandler                          0x0800415f   Thumb Code     0  startup_gd32f30x_hd.o(.text)
    EXTI0_IRQHandler                         0x0800415f   Thumb Code     0  startup_gd32f30x_hd.o(.text)
    EXTI10_15_IRQHandler                     0x0800415f   Thumb Code     0  startup_gd32f30x_hd.o(.text)
    EXTI1_IRQHandler                         0x0800415f   Thumb Code     0  startup_gd32f30x_hd.o(.text)
    EXTI2_IRQHandler                         0x0800415f   Thumb Code     0  startup_gd32f30x_hd.o(.text)
    EXTI3_IRQHandler                         0x0800415f   Thumb Code     0  startup_gd32f30x_hd.o(.text)
    EXTI4_IRQHandler                         0x0800415f   Thumb Code     0  startup_gd32f30x_hd.o(.text)
    EXTI5_9_IRQHandler                       0x0800415f   Thumb Code     0  startup_gd32f30x_hd.o(.text)
    FMC_IRQHandler                           0x0800415f   Thumb Code     0  startup_gd32f30x_hd.o(.text)
    I2C0_ER_IRQHandler                       0x0800415f   Thumb Code     0  startup_gd32f30x_hd.o(.text)
    I2C0_EV_IRQHandler                       0x0800415f   Thumb Code     0  startup_gd32f30x_hd.o(.text)
    I2C1_ER_IRQHandler                       0x0800415f   Thumb Code     0  startup_gd32f30x_hd.o(.text)
    I2C1_EV_IRQHandler                       0x0800415f   Thumb Code     0  startup_gd32f30x_hd.o(.text)
    LVD_IRQHandler                           0x0800415f   Thumb Code     0  startup_gd32f30x_hd.o(.text)
    RCU_CTC_IRQHandler                       0x0800415f   Thumb Code     0  startup_gd32f30x_hd.o(.text)
    RTC_Alarm_IRQHandler                     0x0800415f   Thumb Code     0  startup_gd32f30x_hd.o(.text)
    RTC_IRQHandler                           0x0800415f   Thumb Code     0  startup_gd32f30x_hd.o(.text)
    SDIO_IRQHandler                          0x0800415f   Thumb Code     0  startup_gd32f30x_hd.o(.text)
    SPI0_IRQHandler                          0x0800415f   Thumb Code     0  startup_gd32f30x_hd.o(.text)
    SPI1_IRQHandler                          0x0800415f   Thumb Code     0  startup_gd32f30x_hd.o(.text)
    SPI2_IRQHandler                          0x0800415f   Thumb Code     0  startup_gd32f30x_hd.o(.text)
    TAMPER_IRQHandler                        0x0800415f   Thumb Code     0  startup_gd32f30x_hd.o(.text)
    TIMER0_Channel_IRQHandler                0x0800415f   Thumb Code     0  startup_gd32f30x_hd.o(.text)
    TIMER0_TRG_CMT_IRQHandler                0x0800415f   Thumb Code     0  startup_gd32f30x_hd.o(.text)
    TIMER0_UP_IRQHandler                     0x0800415f   Thumb Code     0  startup_gd32f30x_hd.o(.text)
    TIMER1_IRQHandler                        0x0800415f   Thumb Code     0  startup_gd32f30x_hd.o(.text)
    TIMER4_IRQHandler                        0x0800415f   Thumb Code     0  startup_gd32f30x_hd.o(.text)
    TIMER5_IRQHandler                        0x0800415f   Thumb Code     0  startup_gd32f30x_hd.o(.text)
    TIMER6_IRQHandler                        0x0800415f   Thumb Code     0  startup_gd32f30x_hd.o(.text)
    TIMER7_BRK_IRQHandler                    0x0800415f   Thumb Code     0  startup_gd32f30x_hd.o(.text)
    TIMER7_Channel_IRQHandler                0x0800415f   Thumb Code     0  startup_gd32f30x_hd.o(.text)
    TIMER7_TRG_CMT_IRQHandler                0x0800415f   Thumb Code     0  startup_gd32f30x_hd.o(.text)
    TIMER7_UP_IRQHandler                     0x0800415f   Thumb Code     0  startup_gd32f30x_hd.o(.text)
    UART3_IRQHandler                         0x0800415f   Thumb Code     0  startup_gd32f30x_hd.o(.text)
    UART4_IRQHandler                         0x0800415f   Thumb Code     0  startup_gd32f30x_hd.o(.text)
    USART0_IRQHandler                        0x0800415f   Thumb Code     0  startup_gd32f30x_hd.o(.text)
    USART1_IRQHandler                        0x0800415f   Thumb Code     0  startup_gd32f30x_hd.o(.text)
    USART2_IRQHandler                        0x0800415f   Thumb Code     0  startup_gd32f30x_hd.o(.text)
    USBD_HP_CAN0_TX_IRQHandler               0x0800415f   Thumb Code     0  startup_gd32f30x_hd.o(.text)
    USBD_WKUP_IRQHandler                     0x0800415f   Thumb Code     0  startup_gd32f30x_hd.o(.text)
    WWDGT_IRQHandler                         0x0800415f   Thumb Code     0  startup_gd32f30x_hd.o(.text)
    arm_cos_f32                              0x08004169   Thumb Code   108  arm_cos_f32.o(.text)
    arm_sin_f32                              0x080041e1   Thumb Code   118  arm_sin_f32.o(.text)
    __aeabi_memcpy                           0x08004265   Thumb Code    36  memcpya.o(.text)
    __aeabi_memcpy4                          0x08004265   Thumb Code     0  memcpya.o(.text)
    __aeabi_memcpy8                          0x08004265   Thumb Code     0  memcpya.o(.text)
    __scatterload                            0x08004289   Thumb Code    28  init.o(.text)
    __scatterload_rt2                        0x08004289   Thumb Code     0  init.o(.text)
    __decompress                             0x080042ad   Thumb Code     0  __dczerorl.o(.text)
    __decompress0                            0x080042ad   Thumb Code    58  __dczerorl.o(.text)
    ADC0_1_IRQHandler                        0x080042e9   Thumb Code    16  main.o(i.ADC0_1_IRQHandler)
    BusFault_Handler                         0x080042fd   Thumb Code     4  gd32f30x_it.o(i.BusFault_Handler)
    DRV8323RS_clearFaults                    0x08004301   Thumb Code    14  drv8323rs.o(i.DRV8323RS_clearFaults)
    DRV8323RS_createSPIDataWord              0x0800430f   Thumb Code    30  drv8323rs.o(i.DRV8323RS_createSPIDataWord)
    DRV8323RS_disable                        0x0800432d   Thumb Code    22  drv8323rs.o(i.DRV8323RS_disable)
    DRV8323RS_enable                         0x08004349   Thumb Code    20  drv8323rs.o(i.DRV8323RS_enable)
    DRV8323RS_init                           0x08004361   Thumb Code   164  drv8323rs.o(i.DRV8323RS_init)
    DRV8323RS_setCsaGain                     0x0800440d   Thumb Code    16  drv8323rs.o(i.DRV8323RS_setCsaGain)
    DRV8323RS_setVdsLvl                      0x0800441d   Thumb Code    16  drv8323rs.o(i.DRV8323RS_setVdsLvl)
    DRV8323RS_spiRead                        0x0800442d   Thumb Code    52  drv8323rs.o(i.DRV8323RS_spiRead)
    DRV8323RS_spiUpdateRegister              0x08004465   Thumb Code    34  drv8323rs.o(i.DRV8323RS_spiUpdateRegister)
    DRV8323RS_spiWrite                       0x08004489   Thumb Code    46  drv8323rs.o(i.DRV8323RS_spiWrite)
    DebugMon_Handler                         0x080044bd   Thumb Code     2  gd32f30x_it.o(i.DebugMon_Handler)
    HardFault_Handler                        0x080044bf   Thumb Code     4  gd32f30x_it.o(i.HardFault_Handler)
    LCD_Address_Set                          0x080044dd   Thumb Code    74  lcd_init.o(i.LCD_Address_Set)
    LCD_DrawPoint                            0x08004527   Thumb Code    28  lcd.o(i.LCD_DrawPoint)
    LCD_Fill                                 0x08004543   Thumb Code    74  lcd.o(i.LCD_Fill)
    LCD_GPIO_Init                            0x0800458d   Thumb Code   114  lcd_init.o(i.LCD_GPIO_Init)
    LCD_Init                                 0x08004605   Thumb Code   428  lcd_init.o(i.LCD_Init)
    LCD_ShowChar                             0x080047b5   Thumb Code   328  lcd.o(i.LCD_ShowChar)
    LCD_ShowFloatNum2                        0x0800490d   Thumb Code   314  lcd.o(i.LCD_ShowFloatNum2)
    LCD_ShowIntNum                           0x08004a47   Thumb Code   186  lcd.o(i.LCD_ShowIntNum)
    LCD_ShowString                           0x08004b01   Thumb Code    66  lcd.o(i.LCD_ShowString)
    LCD_WR_DATA                              0x08004b43   Thumb Code    18  lcd_init.o(i.LCD_WR_DATA)
    LCD_WR_DATA8                             0x08004b55   Thumb Code    12  lcd_init.o(i.LCD_WR_DATA8)
    LCD_WR_REG                               0x08004b61   Thumb Code    34  lcd_init.o(i.LCD_WR_REG)
    LCD_Writ_Bus                             0x08004b89   Thumb Code    32  lcd_init.o(i.LCD_Writ_Bus)
    MemManage_Handler                        0x08004bad   Thumb Code     4  gd32f30x_it.o(i.MemManage_Handler)
    NMI_Handler                              0x08004bb1   Thumb Code     2  gd32f30x_it.o(i.NMI_Handler)
    PendSV_Handler                           0x08004bdd   Thumb Code     2  gd32f30x_it.o(i.PendSV_Handler)
    SVC_Handler                              0x08004bdf   Thumb Code     2  gd32f30x_it.o(i.SVC_Handler)
    SysTick_Handler                          0x08004be1   Thumb Code    12  systick.o(i.SysTick_Handler)
    SystemInit                               0x08004bf1   Thumb Code   156  system_gd32f30x.o(i.SystemInit)
    TIMER0_BRK_IRQHandler                    0x08004c99   Thumb Code    48  main.o(i.TIMER0_BRK_IRQHandler)
    TIMER2_IRQHandler                        0x08004ccd   Thumb Code   164  main.o(i.TIMER2_IRQHandler)
    TIMER3_IRQHandler                        0x08004d9d   Thumb Code    60  encoder.o(i.TIMER3_IRQHandler)
    USBD_LP_CAN0_RX0_IRQHandler              0x08004de1   Thumb Code    20  can.o(i.USBD_LP_CAN0_RX0_IRQHandler)
    UsageFault_Handler                       0x08004df9   Thumb Code     4  gd32f30x_it.o(i.UsageFault_Handler)
    __scatterload_copy                       0x08004dfd   Thumb Code    14  handlers.o(i.__scatterload_copy)
    __scatterload_null                       0x08004e0b   Thumb Code     2  handlers.o(i.__scatterload_null)
    __scatterload_zeroinit                   0x08004e0d   Thumb Code    14  handlers.o(i.__scatterload_zeroinit)
    adc0_init                                0x08004ec5   Thumb Code    12  motor_hardware.o(i.adc0_init)
    adc1_init                                0x08004ed1   Thumb Code   174  adc_simple.o(i.adc1_init)
    adc_calibration_enable                   0x08004f95   Thumb Code    42  gd32f30x_adc.o(i.adc_calibration_enable)
    adc_channel_length_config                0x08004fbf   Thumb Code    70  gd32f30x_adc.o(i.adc_channel_length_config)
    adc_data_alignment_config                0x08005005   Thumb Code    22  gd32f30x_adc.o(i.adc_data_alignment_config)
    adc_enable                               0x0800501b   Thumb Code    18  gd32f30x_adc.o(i.adc_enable)
    adc_external_trigger_config              0x0800502d   Thumb Code    62  gd32f30x_adc.o(i.adc_external_trigger_config)
    adc_external_trigger_source_config       0x0800506b   Thumb Code    48  gd32f30x_adc.o(i.adc_external_trigger_source_config)
    adc_flag_clear                           0x0800509b   Thumb Code     6  gd32f30x_adc.o(i.adc_flag_clear)
    adc_flag_get                             0x080050a1   Thumb Code    14  gd32f30x_adc.o(i.adc_flag_get)
    adc_inserted_channel_config              0x08005111   Thumb Code   116  gd32f30x_adc.o(i.adc_inserted_channel_config)
    adc_inserted_data_read                   0x08005185   Thumb Code    46  gd32f30x_adc.o(i.adc_inserted_data_read)
    adc_interrupt_enable                     0x080051b3   Thumb Code    44  gd32f30x_adc.o(i.adc_interrupt_enable)
    adc_interrupt_flag_clear                 0x080051df   Thumb Code     6  gd32f30x_adc.o(i.adc_interrupt_flag_clear)
    adc_mode_config                          0x080051e5   Thumb Code    22  gd32f30x_adc.o(i.adc_mode_config)
    adc_read_data                            0x08005201   Thumb Code    52  adc_simple.o(i.adc_read_data)
    adc_regular_channel_config               0x08005239   Thumb Code   172  gd32f30x_adc.o(i.adc_regular_channel_config)
    adc_regular_data_read                    0x080052e5   Thumb Code     8  gd32f30x_adc.o(i.adc_regular_data_read)
    adc_software_trigger_enable              0x080052ed   Thumb Code    30  gd32f30x_adc.o(i.adc_software_trigger_enable)
    adc_special_function_config              0x0800530b   Thumb Code    90  gd32f30x_adc.o(i.adc_special_function_config)
    adc_task                                 0x08005365   Thumb Code   174  adc_simple.o(i.adc_task)
    calc_pi                                  0x08005425   Thumb Code   122  foc.o(i.calc_pi)
    calculate_temperature_float              0x08005541   Thumb Code   230  ntc.o(i.calculate_temperature_float)
    can_bus_init                             0x0800562d   Thumb Code    24  can.o(i.can_bus_init)
    can_deinit                               0x080056e9   Thumb Code    28  gd32f30x_can.o(i.can_deinit)
    can_fifo_release                         0x08005709   Thumb Code    32  gd32f30x_can.o(i.can_fifo_release)
    can_filter_init                          0x08005729   Thumb Code   262  gd32f30x_can.o(i.can_filter_init)
    can_init                                 0x08005865   Thumb Code   290  gd32f30x_can.o(i.can_init)
    can_interrupt_enable                     0x08005987   Thumb Code     8  gd32f30x_can.o(i.can_interrupt_enable)
    can_message_transmit                     0x08005991   Thumb Code   332  gd32f30x_can.o(i.can_message_transmit)
    can_struct_para_init                     0x08005aef   Thumb Code   164  gd32f30x_can.o(i.can_struct_para_init)
    clark                                    0x08005b95   Thumb Code    46  foc.o(i.clark)
    dma_channel_enable                       0x08005bc9   Thumb Code    50  gd32f30x_dma.o(i.dma_channel_enable)
    dma_circulation_disable                  0x08005bfb   Thumb Code    50  gd32f30x_dma.o(i.dma_circulation_disable)
    dma_deinit                               0x08005c2d   Thumb Code   112  gd32f30x_dma.o(i.dma_deinit)
    dma_flag_get                             0x08005c9d   Thumb Code    24  gd32f30x_dma.o(i.dma_flag_get)
    dma_init                                 0x08005cb5   Thumb Code   302  gd32f30x_dma.o(i.dma_init)
    dma_memory_to_memory_disable             0x08005de3   Thumb Code    50  gd32f30x_dma.o(i.dma_memory_to_memory_disable)
    dma_struct_para_init                     0x08005e2d   Thumb Code    28  gd32f30x_dma.o(i.dma_struct_para_init)
    encoder_get                              0x08005e49   Thumb Code    12  encoder.o(i.encoder_get)
    encoder_init                             0x08005ea1   Thumb Code    26  encoder.o(i.encoder_init)
    gpio_bit_write                           0x08005f4d   Thumb Code    10  gd32f30x_gpio.o(i.gpio_bit_write)
    gpio_init                                0x08005f57   Thumb Code   188  gd32f30x_gpio.o(i.gpio_init)
    gpio_input_bit_get                       0x08006013   Thumb Code    16  gd32f30x_gpio.o(i.gpio_input_bit_get)
    gpio_output_bit_get                      0x08006023   Thumb Code    16  gd32f30x_gpio.o(i.gpio_output_bit_get)
    gpio_pin_remap_config                    0x08006035   Thumb Code   138  gd32f30x_gpio.o(i.gpio_pin_remap_config)
    hall_get                                 0x080060c5   Thumb Code    48  motor_hardware.o(i.hall_get)
    hall_init                                0x080060f9   Thumb Code    86  motor_hardware.o(i.hall_init)
    init_pi                                  0x08006231   Thumb Code    18  foc.o(i.init_pi)
    interrupt_init                           0x08006249   Thumb Code    34  motor_hardware.o(i.interrupt_init)
    inv_park                                 0x0800626b   Thumb Code    58  foc.o(i.inv_park)
    key_get                                  0x08006381   Thumb Code    48  encoder.o(i.key_get)
    key_scan                                 0x080063d9   Thumb Code    24  encoder.o(i.key_scan)
    led_init                                 0x08006451   Thumb Code   134  led.o(i.led_init)
    led_on                                   0x080064e5   Thumb Code    16  led.o(i.led_on)
    led_toggle                               0x080064fd   Thumb Code    46  led.o(i.led_toggle)
    main                                     0x08006535   Thumb Code    90  main.o(i.main)
    motor_app_idle                           0x080065a1   Thumb Code     8  motor_app.o(i.motor_app_idle)
    motor_app_init                           0x080065a9   Thumb Code    70  motor_app.o(i.motor_app_init)
    motor_app_isr                            0x080065f9   Thumb Code   774  motor_app.o(i.motor_app_isr)
    motor_app_task100ms                      0x08006945   Thumb Code     2  motor_app.o(i.motor_app_task100ms)
    motor_app_task10ms                       0x08006949   Thumb Code   388  motor_app.o(i.motor_app_task10ms)
    motor_app_task1s                         0x08006b01   Thumb Code     8  motor_app.o(i.motor_app_task1s)
    motor_app_task500ms                      0x08006b09   Thumb Code     2  motor_app.o(i.motor_app_task500ms)
    motor_hardware_init                      0x08006bd5   Thumb Code    28  motor_hardware.o(i.motor_hardware_init)
    motor_pwm_disable                        0x08006bf1   Thumb Code    64  motor_hardware.o(i.motor_pwm_disable)
    motor_pwm_enable                         0x08006c35   Thumb Code    64  motor_hardware.o(i.motor_pwm_enable)
    motor_pwm_set_duty                       0x08006c79   Thumb Code    40  motor_hardware.o(i.motor_pwm_set_duty)
    mypow                                    0x0800712d   Thumb Code    22  lcd.o(i.mypow)
    nvic_irq_enable                          0x08007145   Thumb Code   186  gd32f30x_misc.o(i.nvic_irq_enable)
    nvic_priority_group_set                  0x08007209   Thumb Code    10  gd32f30x_misc.o(i.nvic_priority_group_set)
    park                                     0x0800721d   Thumb Code    58  foc.o(i.park)
    pmsm_foc_init                            0x08007465   Thumb Code    40  pmsm.o(i.pmsm_foc_init)
    pmsm_foc_run                             0x08007551   Thumb Code    42  pmsm.o(i.pmsm_foc_run)
    rcu_adc_clock_config                     0x08007771   Thumb Code    98  gd32f30x_rcu.o(i.rcu_adc_clock_config)
    rcu_clock_freq_get                       0x080077dd   Thumb Code   310  gd32f30x_rcu.o(i.rcu_clock_freq_get)
    rcu_periph_clock_enable                  0x08007935   Thumb Code    28  gd32f30x_rcu.o(i.rcu_periph_clock_enable)
    rcu_periph_reset_disable                 0x08007955   Thumb Code    28  gd32f30x_rcu.o(i.rcu_periph_reset_disable)
    rcu_periph_reset_enable                  0x08007975   Thumb Code    28  gd32f30x_rcu.o(i.rcu_periph_reset_enable)
    sin_cos                                  0x080079c7   Thumb Code    38  foc.o(i.sin_cos)
    spi0_init                                0x080079ed   Thumb Code    94  spi.o(i.spi0_init)
    spi0_transmit_receive_data               0x08007a55   Thumb Code    48  spi.o(i.spi0_transmit_receive_data)
    spi2_init                                0x08007a89   Thumb Code    86  spi.o(i.spi2_init)
    spi2_transmit_receive_data               0x08007aed   Thumb Code    50  spi.o(i.spi2_transmit_receive_data)
    spi_enable                               0x08007b25   Thumb Code    10  gd32f30x_spi.o(i.spi_enable)
    spi_i2s_data_receive                     0x08007b2f   Thumb Code     8  gd32f30x_spi.o(i.spi_i2s_data_receive)
    spi_i2s_data_transmit                    0x08007b37   Thumb Code     4  gd32f30x_spi.o(i.spi_i2s_data_transmit)
    spi_i2s_flag_get                         0x08007b3b   Thumb Code    16  gd32f30x_spi.o(i.spi_i2s_flag_get)
    spi_init                                 0x08007b4b   Thumb Code    50  gd32f30x_spi.o(i.spi_init)
    svpwm                                    0x08007b7d   Thumb Code   718  foc.o(i.svpwm)
    systick_delay                            0x08007f71   Thumb Code    48  systick.o(i.systick_delay)
    systick_get_current_tick                 0x08007fa1   Thumb Code     6  systick.o(i.systick_get_current_tick)
    systick_init                             0x08007fad   Thumb Code    74  systick.o(i.systick_init)
    task_init                                0x08007ffd   Thumb Code     8  task.o(i.task_init)
    task_scheduler                           0x08008005   Thumb Code   272  task.o(i.task_scheduler)
    timer_auto_reload_shadow_enable          0x0800812d   Thumb Code    10  gd32f30x_timer.o(i.timer_auto_reload_shadow_enable)
    timer_break_config                       0x08008137   Thumb Code    30  gd32f30x_timer.o(i.timer_break_config)
    timer_channel_capture_value_register_read 0x08008155   Thumb Code    42  gd32f30x_timer.o(i.timer_channel_capture_value_register_read)
    timer_channel_complementary_output_state_config 0x0800817f   Thumb Code    70  gd32f30x_timer.o(i.timer_channel_complementary_output_state_config)
    timer_channel_input_capture_prescaler_config 0x080081c5   Thumb Code    90  gd32f30x_timer.o(i.timer_channel_input_capture_prescaler_config)
    timer_channel_output_config              0x08008221   Thumb Code   484  gd32f30x_timer.o(i.timer_channel_output_config)
    timer_channel_output_mode_config         0x0800840d   Thumb Code    90  gd32f30x_timer.o(i.timer_channel_output_mode_config)
    timer_channel_output_pulse_value_config  0x08008467   Thumb Code    38  gd32f30x_timer.o(i.timer_channel_output_pulse_value_config)
    timer_channel_output_shadow_config       0x0800848d   Thumb Code    90  gd32f30x_timer.o(i.timer_channel_output_shadow_config)
    timer_channel_output_state_config        0x080084e7   Thumb Code    92  gd32f30x_timer.o(i.timer_channel_output_state_config)
    timer_counter_read                       0x08008543   Thumb Code     8  gd32f30x_timer.o(i.timer_counter_read)
    timer_counter_value_config               0x0800854b   Thumb Code     4  gd32f30x_timer.o(i.timer_counter_value_config)
    timer_deinit                             0x08008551   Thumb Code   210  gd32f30x_timer.o(i.timer_deinit)
    timer_enable                             0x0800862d   Thumb Code    10  gd32f30x_timer.o(i.timer_enable)
    timer_hall_mode_config                   0x08008637   Thumb Code    26  gd32f30x_timer.o(i.timer_hall_mode_config)
    timer_init                               0x08008651   Thumb Code   122  gd32f30x_timer.o(i.timer_init)
    timer_input_capture_config               0x080086e9   Thumb Code   326  gd32f30x_timer.o(i.timer_input_capture_config)
    timer_input_trigger_source_select        0x0800882f   Thumb Code    16  gd32f30x_timer.o(i.timer_input_trigger_source_select)
    timer_interrupt_enable                   0x0800883f   Thumb Code     8  gd32f30x_timer.o(i.timer_interrupt_enable)
    timer_interrupt_flag_clear               0x08008847   Thumb Code     6  gd32f30x_timer.o(i.timer_interrupt_flag_clear)
    timer_interrupt_flag_get                 0x0800884d   Thumb Code    24  gd32f30x_timer.o(i.timer_interrupt_flag_get)
    timer_primary_output_config              0x08008865   Thumb Code    24  gd32f30x_timer.o(i.timer_primary_output_config)
    timer_quadrature_decoder_mode_config     0x0800887d   Thumb Code    64  gd32f30x_timer.o(i.timer_quadrature_decoder_mode_config)
    timer_slave_mode_select                  0x080088bd   Thumb Code    16  gd32f30x_timer.o(i.timer_slave_mode_select)
    usart_baudrate_set                       0x080088cd   Thumb Code   136  gd32f30x_usart.o(i.usart_baudrate_set)
    usart_deinit                             0x0800895d   Thumb Code   136  gd32f30x_usart.o(i.usart_deinit)
    usart_dma_receive_config                 0x080089ed   Thumb Code    20  gd32f30x_usart.o(i.usart_dma_receive_config)
    usart_dma_transmit_config                0x08008a01   Thumb Code    20  gd32f30x_usart.o(i.usart_dma_transmit_config)
    usart_enable                             0x08008a15   Thumb Code    10  gd32f30x_usart.o(i.usart_enable)
    usart_init                               0x08008a21   Thumb Code   314  uart.o(i.usart_init)
    usart_receive_config                     0x08008b75   Thumb Code    20  gd32f30x_usart.o(i.usart_receive_config)
    usart_send_data                          0x08008b89   Thumb Code   122  uart.o(i.usart_send_data)
    usart_transmit_config                    0x08008c11   Thumb Code    20  gd32f30x_usart.o(i.usart_transmit_config)
    ascii_1206                               0x08008c24   Data        1140  lcd.o(.constdata)
    ascii_1608                               0x08009098   Data        1520  lcd.o(.constdata)
    ascii_2412                               0x08009688   Data        4560  lcd.o(.constdata)
    ascii_3216                               0x0800a858   Data        6080  lcd.o(.constdata)
    sinTable_f32                             0x0800c018   Data        2052  arm_common_tables.o(.constdata)
    Region$$Table$$Base                      0x0800c81c   Number         0  anon$$obj.o(Region$$Table)
    Region$$Table$$Limit                     0x0800c83c   Number         0  anon$$obj.o(Region$$Table)
    hall_timer_counter                       0x20000000   Data           4  main.o(.data)
    hall_theta                               0x20000004   Data           4  main.o(.data)
    hall_theta_inc                           0x20000008   Data           4  main.o(.data)
    hall_speed                               0x2000000c   Data           4  main.o(.data)
    hall_state                               0x20000010   Data           1  main.o(.data)
    hall_last_state                          0x20000011   Data           1  main.o(.data)
    hall_tick                                0x20000014   Data           4  main.o(.data)
    hall_theta_tab                           0x20000018   Data          24  main.o(.data)
    encoder_code                             0x20000030   Data           1  main.o(.data)
    channel_index                            0x20000031   Data           1  adc_simple.o(.data)
    adc_channel_buffer                       0x20000032   Data           3  adc_simple.o(.data)
    ntc_table                                0x20000050   Data         704  ntc.o(.data)
    SystemCoreClock                          0x20000340   Data           4  system_gd32f30x.o(.data)
    adc_filter_handler                       0x20000344   Data         102  adc_simple.o(.bss)
    motor1                                   0x200003fc   Data          44  motor_app.o(.bss)
    transmit_message                         0x20000428   Data          20  motor_app.o(.bss)
    pmsm_foc_param                           0x2000043c   Data         204  pmsm.o(.bss)
    pmsm_mc_param                            0x20000508   Data          52  pmsm.o(.bss)
    __initial_sp                             0x20000940   Data           0  startup_gd32f30x_hd.o(STACK)



==============================================================================

Memory Map of the image

  Image Entry point : 0x08004131

  Load Region LR_IROM1 (Base: 0x08004000, Size: 0x00008b80, Max: 0x00040000, ABSOLUTE, COMPRESSED[0x00008b2c])

    Execution Region ER_IROM1 (Exec base: 0x08004000, Load base: 0x08004000, Size: 0x0000883c, Max: 0x00040000, ABSOLUTE)

    Exec Addr    Load Addr    Size         Type   Attr      Idx    E Section Name        Object

    0x08004000   0x08004000   0x00000130   Data   RO         1305    RESET               startup_gd32f30x_hd.o
    0x08004130   0x08004130   0x00000000   Code   RO         5635  * .ARM.Collect$$$$00000000  mc_w.l(entry.o)
    0x08004130   0x08004130   0x00000004   Code   RO         5642    .ARM.Collect$$$$00000001  mc_w.l(entry2.o)
    0x08004134   0x08004134   0x00000004   Code   RO         5645    .ARM.Collect$$$$00000004  mc_w.l(entry5.o)
    0x08004138   0x08004138   0x00000000   Code   RO         5647    .ARM.Collect$$$$00000008  mc_w.l(entry7b.o)
    0x08004138   0x08004138   0x00000000   Code   RO         5649    .ARM.Collect$$$$0000000A  mc_w.l(entry8b.o)
    0x08004138   0x08004138   0x00000008   Code   RO         5650    .ARM.Collect$$$$0000000B  mc_w.l(entry9a.o)
    0x08004140   0x08004140   0x00000000   Code   RO         5652    .ARM.Collect$$$$0000000D  mc_w.l(entry10a.o)
    0x08004140   0x08004140   0x00000000   Code   RO         5654    .ARM.Collect$$$$0000000F  mc_w.l(entry11a.o)
    0x08004140   0x08004140   0x00000004   Code   RO         5643    .ARM.Collect$$$$00002712  mc_w.l(entry2.o)
    0x08004144   0x08004144   0x00000024   Code   RO         1306    .text               startup_gd32f30x_hd.o
    0x08004168   0x08004168   0x00000078   Code   RO         5476    .text               arm_cortexM4lf_math.lib(arm_cos_f32.o)
    0x080041e0   0x080041e0   0x00000084   Code   RO         5532    .text               arm_cortexM4lf_math.lib(arm_sin_f32.o)
    0x08004264   0x08004264   0x00000024   Code   RO         5638    .text               mc_w.l(memcpya.o)
    0x08004288   0x08004288   0x00000024   Code   RO         5656    .text               mc_w.l(init.o)
    0x080042ac   0x080042ac   0x0000003a   Code   RO         5666    .text               mc_w.l(__dczerorl.o)
    0x080042e6   0x080042e6   0x00000002   PAD
    0x080042e8   0x080042e8   0x00000014   Code   RO          172    i.ADC0_1_IRQHandler  main.o
    0x080042fc   0x080042fc   0x00000004   Code   RO            3    i.BusFault_Handler  gd32f30x_it.o
    0x08004300   0x08004300   0x0000000e   Code   RO          942    i.DRV8323RS_clearFaults  drv8323rs.o
    0x0800430e   0x0800430e   0x0000001e   Code   RO          943    i.DRV8323RS_createSPIDataWord  drv8323rs.o
    0x0800432c   0x0800432c   0x0000001c   Code   RO          944    i.DRV8323RS_disable  drv8323rs.o
    0x08004348   0x08004348   0x00000018   Code   RO          945    i.DRV8323RS_enable  drv8323rs.o
    0x08004360   0x08004360   0x000000ac   Code   RO          946    i.DRV8323RS_init    drv8323rs.o
    0x0800440c   0x0800440c   0x00000010   Code   RO          949    i.DRV8323RS_setCsaGain  drv8323rs.o
    0x0800441c   0x0800441c   0x00000010   Code   RO          962    i.DRV8323RS_setVdsLvl  drv8323rs.o
    0x0800442c   0x0800442c   0x00000038   Code   RO          964    i.DRV8323RS_spiRead  drv8323rs.o
    0x08004464   0x08004464   0x00000022   Code   RO          965    i.DRV8323RS_spiUpdateRegister  drv8323rs.o
    0x08004486   0x08004486   0x00000002   PAD
    0x08004488   0x08004488   0x00000034   Code   RO          966    i.DRV8323RS_spiWrite  drv8323rs.o
    0x080044bc   0x080044bc   0x00000002   Code   RO            4    i.DebugMon_Handler  gd32f30x_it.o
    0x080044be   0x080044be   0x00000004   Code   RO            5    i.HardFault_Handler  gd32f30x_it.o
    0x080044c2   0x080044c2   0x00000002   PAD
    0x080044c4   0x080044c4   0x00000018   Code   RO          856    i.IsKey0Down        encoder.o
    0x080044dc   0x080044dc   0x0000004a   Code   RO         5304    i.LCD_Address_Set   lcd_init.o
    0x08004526   0x08004526   0x0000001c   Code   RO         5214    i.LCD_DrawPoint     lcd.o
    0x08004542   0x08004542   0x0000004a   Code   RO         5216    i.LCD_Fill          lcd.o
    0x0800458c   0x0800458c   0x00000078   Code   RO         5305    i.LCD_GPIO_Init     lcd_init.o
    0x08004604   0x08004604   0x000001b0   Code   RO         5306    i.LCD_Init          lcd_init.o
    0x080047b4   0x080047b4   0x00000158   Code   RO         5217    i.LCD_ShowChar      lcd.o
    0x0800490c   0x0800490c   0x0000013a   Code   RO         5219    i.LCD_ShowFloatNum2  lcd.o
    0x08004a46   0x08004a46   0x000000ba   Code   RO         5220    i.LCD_ShowIntNum    lcd.o
    0x08004b00   0x08004b00   0x00000042   Code   RO         5222    i.LCD_ShowString    lcd.o
    0x08004b42   0x08004b42   0x00000012   Code   RO         5307    i.LCD_WR_DATA       lcd_init.o
    0x08004b54   0x08004b54   0x0000000c   Code   RO         5308    i.LCD_WR_DATA8      lcd_init.o
    0x08004b60   0x08004b60   0x00000028   Code   RO         5309    i.LCD_WR_REG        lcd_init.o
    0x08004b88   0x08004b88   0x00000024   Code   RO         5310    i.LCD_Writ_Bus      lcd_init.o
    0x08004bac   0x08004bac   0x00000004   Code   RO            6    i.MemManage_Handler  gd32f30x_it.o
    0x08004bb0   0x08004bb0   0x00000002   Code   RO            7    i.NMI_Handler       gd32f30x_it.o
    0x08004bb2   0x08004bb2   0x00000002   PAD
    0x08004bb4   0x08004bb4   0x00000028   Code   RO          767    i.NVIC_SetPriority  systick.o
    0x08004bdc   0x08004bdc   0x00000002   Code   RO            8    i.PendSV_Handler    gd32f30x_it.o
    0x08004bde   0x08004bde   0x00000002   Code   RO            9    i.SVC_Handler       gd32f30x_it.o
    0x08004be0   0x08004be0   0x00000010   Code   RO          768    i.SysTick_Handler   systick.o
    0x08004bf0   0x08004bf0   0x000000a8   Code   RO         1264    i.SystemInit        system_gd32f30x.o
    0x08004c98   0x08004c98   0x00000034   Code   RO          173    i.TIMER0_BRK_IRQHandler  main.o
    0x08004ccc   0x08004ccc   0x000000d0   Code   RO          174    i.TIMER2_IRQHandler  main.o
    0x08004d9c   0x08004d9c   0x00000044   Code   RO          857    i.TIMER3_IRQHandler  encoder.o
    0x08004de0   0x08004de0   0x00000018   Code   RO          438    i.USBD_LP_CAN0_RX0_IRQHandler  can.o
    0x08004df8   0x08004df8   0x00000004   Code   RO           10    i.UsageFault_Handler  gd32f30x_it.o
    0x08004dfc   0x08004dfc   0x0000000e   Code   RO         5660    i.__scatterload_copy  mc_w.l(handlers.o)
    0x08004e0a   0x08004e0a   0x00000002   Code   RO         5661    i.__scatterload_null  mc_w.l(handlers.o)
    0x08004e0c   0x08004e0c   0x0000000e   Code   RO         5662    i.__scatterload_zeroinit  mc_w.l(handlers.o)
    0x08004e1a   0x08004e1a   0x00000002   PAD
    0x08004e1c   0x08004e1c   0x000000a8   Code   RO          285    i.adc0_config       motor_hardware.o
    0x08004ec4   0x08004ec4   0x0000000c   Code   RO          286    i.adc0_init         motor_hardware.o
    0x08004ed0   0x08004ed0   0x000000c4   Code   RO          396    i.adc1_init         adc_simple.o
    0x08004f94   0x08004f94   0x0000002a   Code   RO         1312    i.adc_calibration_enable  gd32f30x_adc.o
    0x08004fbe   0x08004fbe   0x00000046   Code   RO         1313    i.adc_channel_length_config  gd32f30x_adc.o
    0x08005004   0x08005004   0x00000016   Code   RO         1314    i.adc_data_alignment_config  gd32f30x_adc.o
    0x0800501a   0x0800501a   0x00000012   Code   RO         1320    i.adc_enable        gd32f30x_adc.o
    0x0800502c   0x0800502c   0x0000003e   Code   RO         1321    i.adc_external_trigger_config  gd32f30x_adc.o
    0x0800506a   0x0800506a   0x00000030   Code   RO         1322    i.adc_external_trigger_source_config  gd32f30x_adc.o
    0x0800509a   0x0800509a   0x00000006   Code   RO         1323    i.adc_flag_clear    gd32f30x_adc.o
    0x080050a0   0x080050a0   0x0000000e   Code   RO         1324    i.adc_flag_get      gd32f30x_adc.o
    0x080050ae   0x080050ae   0x00000002   PAD
    0x080050b0   0x080050b0   0x00000060   Code   RO          287    i.adc_gpio_init     motor_hardware.o
    0x08005110   0x08005110   0x00000074   Code   RO         1325    i.adc_inserted_channel_config  gd32f30x_adc.o
    0x08005184   0x08005184   0x0000002e   Code   RO         1327    i.adc_inserted_data_read  gd32f30x_adc.o
    0x080051b2   0x080051b2   0x0000002c   Code   RO         1329    i.adc_interrupt_enable  gd32f30x_adc.o
    0x080051de   0x080051de   0x00000006   Code   RO         1330    i.adc_interrupt_flag_clear  gd32f30x_adc.o
    0x080051e4   0x080051e4   0x0000001c   Code   RO         1332    i.adc_mode_config   gd32f30x_adc.o
    0x08005200   0x08005200   0x00000038   Code   RO          397    i.adc_read_data     adc_simple.o
    0x08005238   0x08005238   0x000000ac   Code   RO         1336    i.adc_regular_channel_config  gd32f30x_adc.o
    0x080052e4   0x080052e4   0x00000008   Code   RO         1337    i.adc_regular_data_read  gd32f30x_adc.o
    0x080052ec   0x080052ec   0x0000001e   Code   RO         1339    i.adc_software_trigger_enable  gd32f30x_adc.o
    0x0800530a   0x0800530a   0x0000005a   Code   RO         1340    i.adc_special_function_config  gd32f30x_adc.o
    0x08005364   0x08005364   0x000000c0   Code   RO          398    i.adc_task          adc_simple.o
    0x08005424   0x08005424   0x0000007a   Code   RO         5366    i.calc_pi           foc.o
    0x0800549e   0x0800549e   0x00000002   PAD
    0x080054a0   0x080054a0   0x000000a0   Code   RO         5425    i.calculate_park_angle  pmsm.o
    0x08005540   0x08005540   0x000000ec   Code   RO          703    i.calculate_temperature_float  ntc.o
    0x0800562c   0x0800562c   0x0000001c   Code   RO          439    i.can_bus_init      can.o
    0x08005648   0x08005648   0x000000a0   Code   RO          440    i.can_config        can.o
    0x080056e8   0x080056e8   0x00000020   Code   RO         1679    i.can_deinit        gd32f30x_can.o
    0x08005708   0x08005708   0x00000020   Code   RO         1681    i.can_fifo_release  gd32f30x_can.o
    0x08005728   0x08005728   0x00000110   Code   RO         1682    i.can_filter_init   gd32f30x_can.o
    0x08005838   0x08005838   0x0000002c   Code   RO          441    i.can_gpio_config   can.o
    0x08005864   0x08005864   0x00000122   Code   RO         1685    i.can_init          gd32f30x_can.o
    0x08005986   0x08005986   0x00000008   Code   RO         1687    i.can_interrupt_enable  gd32f30x_can.o
    0x0800598e   0x0800598e   0x00000002   PAD
    0x08005990   0x08005990   0x00000150   Code   RO         1691    i.can_message_transmit  gd32f30x_can.o
    0x08005ae0   0x08005ae0   0x0000000e   Code   RO          442    i.can_nvic_config   can.o
    0x08005aee   0x08005aee   0x000000a4   Code   RO         1694    i.can_struct_para_init  gd32f30x_can.o
    0x08005b92   0x08005b92   0x00000002   PAD
    0x08005b94   0x08005b94   0x00000034   Code   RO         5367    i.clark             foc.o
    0x08005bc8   0x08005bc8   0x00000032   Code   RO         2269    i.dma_channel_enable  gd32f30x_dma.o
    0x08005bfa   0x08005bfa   0x00000032   Code   RO         2270    i.dma_circulation_disable  gd32f30x_dma.o
    0x08005c2c   0x08005c2c   0x00000070   Code   RO         2272    i.dma_deinit        gd32f30x_dma.o
    0x08005c9c   0x08005c9c   0x00000018   Code   RO         2274    i.dma_flag_get      gd32f30x_dma.o
    0x08005cb4   0x08005cb4   0x0000012e   Code   RO         2275    i.dma_init          gd32f30x_dma.o
    0x08005de2   0x08005de2   0x00000032   Code   RO         2283    i.dma_memory_to_memory_disable  gd32f30x_dma.o
    0x08005e14   0x08005e14   0x00000018   Code   RO         2287    i.dma_periph_and_channel_check  gd32f30x_dma.o
    0x08005e2c   0x08005e2c   0x0000001c   Code   RO         2292    i.dma_struct_para_init  gd32f30x_dma.o
    0x08005e48   0x08005e48   0x00000010   Code   RO          858    i.encoder_get       encoder.o
    0x08005e58   0x08005e58   0x00000048   Code   RO          859    i.encoder_gpio_init  encoder.o
    0x08005ea0   0x08005ea0   0x0000001a   Code   RO          860    i.encoder_init      encoder.o
    0x08005eba   0x08005eba   0x00000002   PAD
    0x08005ebc   0x08005ebc   0x00000090   Code   RO          861    i.encoder_timer_init  encoder.o
    0x08005f4c   0x08005f4c   0x0000000a   Code   RO         2996    i.gpio_bit_write    gd32f30x_gpio.o
    0x08005f56   0x08005f56   0x000000bc   Code   RO         3004    i.gpio_init         gd32f30x_gpio.o
    0x08006012   0x08006012   0x00000010   Code   RO         3005    i.gpio_input_bit_get  gd32f30x_gpio.o
    0x08006022   0x08006022   0x00000010   Code   RO         3007    i.gpio_output_bit_get  gd32f30x_gpio.o
    0x08006032   0x08006032   0x00000002   PAD
    0x08006034   0x08006034   0x00000090   Code   RO         3010    i.gpio_pin_remap_config  gd32f30x_gpio.o
    0x080060c4   0x080060c4   0x00000034   Code   RO          289    i.hall_get          motor_hardware.o
    0x080060f8   0x080060f8   0x00000060   Code   RO          290    i.hall_init         motor_hardware.o
    0x08006158   0x08006158   0x000000d8   Code   RO          291    i.hall_timer_config  motor_hardware.o
    0x08006230   0x08006230   0x00000018   Code   RO         5368    i.init_pi           foc.o
    0x08006248   0x08006248   0x00000022   Code   RO          292    i.interrupt_init    motor_hardware.o
    0x0800626a   0x0800626a   0x0000003a   Code   RO         5369    i.inv_park          foc.o
    0x080062a4   0x080062a4   0x000000dc   Code   RO          863    i.key_detect        encoder.o
    0x08006380   0x08006380   0x00000034   Code   RO          864    i.key_get           encoder.o
    0x080063b4   0x080063b4   0x00000024   Code   RO          865    i.key_put           encoder.o
    0x080063d8   0x080063d8   0x00000018   Code   RO          866    i.key_scan          encoder.o
    0x080063f0   0x080063f0   0x00000060   Code   RO          867    i.key_var_init      encoder.o
    0x08006450   0x08006450   0x00000094   Code   RO          660    i.led_init          led.o
    0x080064e4   0x080064e4   0x00000018   Code   RO          662    i.led_on            led.o
    0x080064fc   0x080064fc   0x00000038   Code   RO          663    i.led_toggle        led.o
    0x08006534   0x08006534   0x0000006c   Code   RO          175    i.main              main.o
    0x080065a0   0x080065a0   0x00000008   Code   RO         1118    i.motor_app_idle    motor_app.o
    0x080065a8   0x080065a8   0x00000050   Code   RO         1119    i.motor_app_init    motor_app.o
    0x080065f8   0x080065f8   0x0000034c   Code   RO         1120    i.motor_app_isr     motor_app.o
    0x08006944   0x08006944   0x00000002   Code   RO         1121    i.motor_app_task100ms  motor_app.o
    0x08006946   0x08006946   0x00000002   PAD
    0x08006948   0x08006948   0x000001b8   Code   RO         1122    i.motor_app_task10ms  motor_app.o
    0x08006b00   0x08006b00   0x00000008   Code   RO         1123    i.motor_app_task1s  motor_app.o
    0x08006b08   0x08006b08   0x00000002   Code   RO         1124    i.motor_app_task500ms  motor_app.o
    0x08006b0a   0x08006b0a   0x00000002   PAD
    0x08006b0c   0x08006b0c   0x000000c8   Code   RO         1125    i.motor_can_transmit  motor_app.o
    0x08006bd4   0x08006bd4   0x0000001c   Code   RO          293    i.motor_hardware_init  motor_hardware.o
    0x08006bf0   0x08006bf0   0x00000044   Code   RO          294    i.motor_pwm_disable  motor_hardware.o
    0x08006c34   0x08006c34   0x00000044   Code   RO          295    i.motor_pwm_enable  motor_hardware.o
    0x08006c78   0x08006c78   0x0000002c   Code   RO          298    i.motor_pwm_set_duty  motor_hardware.o
    0x08006ca4   0x08006ca4   0x0000029c   Code   RO         1126    i.motor_ui_init     motor_app.o
    0x08006f40   0x08006f40   0x000001ec   Code   RO         1127    i.motor_ui_updata   motor_app.o
    0x0800712c   0x0800712c   0x00000016   Code   RO         5223    i.mypow             lcd.o
    0x08007142   0x08007142   0x00000002   PAD
    0x08007144   0x08007144   0x000000c4   Code   RO         3322    i.nvic_irq_enable   gd32f30x_misc.o
    0x08007208   0x08007208   0x00000014   Code   RO         3323    i.nvic_priority_group_set  gd32f30x_misc.o
    0x0800721c   0x0800721c   0x0000003a   Code   RO         5370    i.park              foc.o
    0x08007256   0x08007256   0x00000002   PAD
    0x08007258   0x08007258   0x0000020c   Code   RO         5426    i.pid_control       pmsm.o
    0x08007464   0x08007464   0x00000034   Code   RO         5427    i.pmsm_foc_init     pmsm.o
    0x08007498   0x08007498   0x000000b8   Code   RO         5428    i.pmsm_foc_init_control_parameters  pmsm.o
    0x08007550   0x08007550   0x00000030   Code   RO         5429    i.pmsm_foc_run      pmsm.o
    0x08007580   0x08007580   0x00000088   Code   RO          300    i.pwm_gpio_init     motor_hardware.o
    0x08007608   0x08007608   0x00000168   Code   RO          301    i.pwm_timer_config  motor_hardware.o
    0x08007770   0x08007770   0x0000006c   Code   RO         3512    i.rcu_adc_clock_config  gd32f30x_rcu.o
    0x080077dc   0x080077dc   0x00000158   Code   RO         3521    i.rcu_clock_freq_get  gd32f30x_rcu.o
    0x08007934   0x08007934   0x00000020   Code   RO         3539    i.rcu_periph_clock_enable  gd32f30x_rcu.o
    0x08007954   0x08007954   0x00000020   Code   RO         3542    i.rcu_periph_reset_disable  gd32f30x_rcu.o
    0x08007974   0x08007974   0x00000020   Code   RO         3543    i.rcu_periph_reset_enable  gd32f30x_rcu.o
    0x08007994   0x08007994   0x00000008   Code   RO         1197    i.sch_idle          task.o
    0x0800799c   0x0800799c   0x00000008   Code   RO         1198    i.sch_task100ms     task.o
    0x080079a4   0x080079a4   0x00000008   Code   RO         1199    i.sch_task10ms      task.o
    0x080079ac   0x080079ac   0x00000002   Code   RO         1200    i.sch_task1ms       task.o
    0x080079ae   0x080079ae   0x00000008   Code   RO         1201    i.sch_task1s        task.o
    0x080079b6   0x080079b6   0x0000000e   Code   RO         1202    i.sch_task500ms     task.o
    0x080079c4   0x080079c4   0x00000002   Code   RO         1203    i.sch_task5ms       task.o
    0x080079c6   0x080079c6   0x00000026   Code   RO         5371    i.sin_cos           foc.o
    0x080079ec   0x080079ec   0x00000068   Code   RO          726    i.spi0_init         spi.o
    0x08007a54   0x08007a54   0x00000034   Code   RO          727    i.spi0_transmit_receive_data  spi.o
    0x08007a88   0x08007a88   0x00000064   Code   RO          728    i.spi2_init         spi.o
    0x08007aec   0x08007aec   0x00000038   Code   RO          729    i.spi2_transmit_receive_data  spi.o
    0x08007b24   0x08007b24   0x0000000a   Code   RO         4157    i.spi_enable        gd32f30x_spi.o
    0x08007b2e   0x08007b2e   0x00000008   Code   RO         4159    i.spi_i2s_data_receive  gd32f30x_spi.o
    0x08007b36   0x08007b36   0x00000004   Code   RO         4160    i.spi_i2s_data_transmit  gd32f30x_spi.o
    0x08007b3a   0x08007b3a   0x00000010   Code   RO         4162    i.spi_i2s_flag_get  gd32f30x_spi.o
    0x08007b4a   0x08007b4a   0x00000032   Code   RO         4167    i.spi_init          gd32f30x_spi.o
    0x08007b7c   0x08007b7c   0x000002d8   Code   RO         5372    i.svpwm             foc.o
    0x08007e54   0x08007e54   0x00000114   Code   RO         1265    i.system_clock_120m_hxtal  system_gd32f30x.o
    0x08007f68   0x08007f68   0x00000008   Code   RO         1266    i.system_clock_config  system_gd32f30x.o
    0x08007f70   0x08007f70   0x00000030   Code   RO          770    i.systick_delay     systick.o
    0x08007fa0   0x08007fa0   0x0000000c   Code   RO          771    i.systick_get_current_tick  systick.o
    0x08007fac   0x08007fac   0x00000050   Code   RO          772    i.systick_init      systick.o
    0x08007ffc   0x08007ffc   0x00000008   Code   RO         1204    i.task_init         task.o
    0x08008004   0x08008004   0x00000128   Code   RO         1205    i.task_scheduler    task.o
    0x0800812c   0x0800812c   0x0000000a   Code   RO         4403    i.timer_auto_reload_shadow_enable  gd32f30x_timer.o
    0x08008136   0x08008136   0x0000001e   Code   RO         4407    i.timer_break_config  gd32f30x_timer.o
    0x08008154   0x08008154   0x0000002a   Code   RO         4411    i.timer_channel_capture_value_register_read  gd32f30x_timer.o
    0x0800817e   0x0800817e   0x00000046   Code   RO         4413    i.timer_channel_complementary_output_state_config  gd32f30x_timer.o
    0x080081c4   0x080081c4   0x0000005a   Code   RO         4417    i.timer_channel_input_capture_prescaler_config  gd32f30x_timer.o
    0x0800821e   0x0800821e   0x00000002   PAD
    0x08008220   0x08008220   0x000001ec   Code   RO         4420    i.timer_channel_output_config  gd32f30x_timer.o
    0x0800840c   0x0800840c   0x0000005a   Code   RO         4422    i.timer_channel_output_mode_config  gd32f30x_timer.o
    0x08008466   0x08008466   0x00000026   Code   RO         4424    i.timer_channel_output_pulse_value_config  gd32f30x_timer.o
    0x0800848c   0x0800848c   0x0000005a   Code   RO         4425    i.timer_channel_output_shadow_config  gd32f30x_timer.o
    0x080084e6   0x080084e6   0x0000005c   Code   RO         4426    i.timer_channel_output_state_config  gd32f30x_timer.o
    0x08008542   0x08008542   0x00000008   Code   RO         4430    i.timer_counter_read  gd32f30x_timer.o
    0x0800854a   0x0800854a   0x00000004   Code   RO         4432    i.timer_counter_value_config  gd32f30x_timer.o
    0x0800854e   0x0800854e   0x00000002   PAD
    0x08008550   0x08008550   0x000000dc   Code   RO         4433    i.timer_deinit      gd32f30x_timer.o
    0x0800862c   0x0800862c   0x0000000a   Code   RO         4438    i.timer_enable      gd32f30x_timer.o
    0x08008636   0x08008636   0x0000001a   Code   RO         4447    i.timer_hall_mode_config  gd32f30x_timer.o
    0x08008650   0x08008650   0x00000098   Code   RO         4448    i.timer_init        gd32f30x_timer.o
    0x080086e8   0x080086e8   0x00000146   Code   RO         4449    i.timer_input_capture_config  gd32f30x_timer.o
    0x0800882e   0x0800882e   0x00000010   Code   RO         4451    i.timer_input_trigger_source_select  gd32f30x_timer.o
    0x0800883e   0x0800883e   0x00000008   Code   RO         4455    i.timer_interrupt_enable  gd32f30x_timer.o
    0x08008846   0x08008846   0x00000006   Code   RO         4456    i.timer_interrupt_flag_clear  gd32f30x_timer.o
    0x0800884c   0x0800884c   0x00000018   Code   RO         4457    i.timer_interrupt_flag_get  gd32f30x_timer.o
    0x08008864   0x08008864   0x00000018   Code   RO         4463    i.timer_primary_output_config  gd32f30x_timer.o
    0x0800887c   0x0800887c   0x00000040   Code   RO         4464    i.timer_quadrature_decoder_mode_config  gd32f30x_timer.o
    0x080088bc   0x080088bc   0x00000010   Code   RO         4467    i.timer_slave_mode_select  gd32f30x_timer.o
    0x080088cc   0x080088cc   0x00000090   Code   RO         4843    i.usart_baudrate_set  gd32f30x_usart.o
    0x0800895c   0x0800895c   0x00000090   Code   RO         4848    i.usart_deinit      gd32f30x_usart.o
    0x080089ec   0x080089ec   0x00000014   Code   RO         4850    i.usart_dma_receive_config  gd32f30x_usart.o
    0x08008a00   0x08008a00   0x00000014   Code   RO         4851    i.usart_dma_transmit_config  gd32f30x_usart.o
    0x08008a14   0x08008a14   0x0000000a   Code   RO         4852    i.usart_enable      gd32f30x_usart.o
    0x08008a1e   0x08008a1e   0x00000002   PAD
    0x08008a20   0x08008a20   0x00000154   Code   RO          828    i.usart_init        uart.o
    0x08008b74   0x08008b74   0x00000014   Code   RO         4876    i.usart_receive_config  gd32f30x_usart.o
    0x08008b88   0x08008b88   0x00000088   Code   RO          829    i.usart_send_data   uart.o
    0x08008c10   0x08008c10   0x00000014   Code   RO         4890    i.usart_transmit_config  gd32f30x_usart.o
    0x08008c24   0x08008c24   0x000033f4   Data   RO         5224    .constdata          lcd.o
    0x0800c018   0x0800c018   0x00000804   Data   RO         5612    .constdata          arm_cortexM4lf_math.lib(arm_common_tables.o)
    0x0800c81c   0x0800c81c   0x00000020   Data   RO         5658    Region$$Table       anon$$obj.o


    Execution Region RW_IRAM1 (Exec base: 0x20000000, Load base: 0x0800c83c, Size: 0x00000940, Max: 0x0000c000, ABSOLUTE, COMPRESSED[0x000002f0])

    Exec Addr    Load Addr    Size         Type   Attr      Idx    E Section Name        Object

    0x20000000   COMPRESSED   0x00000031   Data   RW          176    .data               main.o
    0x20000031   COMPRESSED   0x00000004   Data   RW          400    .data               adc_simple.o
    0x20000035   COMPRESSED   0x00000003   PAD
    0x20000038   COMPRESSED   0x00000018   Data   RW          664    .data               led.o
    0x20000050   COMPRESSED   0x000002c0   Data   RW          704    .data               ntc.o
    0x20000310   COMPRESSED   0x00000004   Data   RW          774    .data               systick.o
    0x20000314   COMPRESSED   0x00000005   Data   RW          869    .data               encoder.o
    0x20000319   COMPRESSED   0x00000003   PAD
    0x2000031c   COMPRESSED   0x0000000c   Data   RW         1129    .data               motor_app.o
    0x20000328   COMPRESSED   0x00000018   Data   RW         1206    .data               task.o
    0x20000340   COMPRESSED   0x00000004   Data   RW         1267    .data               system_gd32f30x.o
    0x20000344        -       0x00000066   Zero   RW          399    .bss                adc_simple.o
    0x200003aa        -       0x00000040   Zero   RW          830    .bss                uart.o
    0x200003ea   COMPRESSED   0x00000002   PAD
    0x200003ec        -       0x00000010   Zero   RW          868    .bss                encoder.o
    0x200003fc        -       0x00000040   Zero   RW         1128    .bss                motor_app.o
    0x2000043c        -       0x00000100   Zero   RW         5430    .bss                pmsm.o
    0x2000053c   COMPRESSED   0x00000004   PAD
    0x20000540        -       0x00000400   Zero   RW         1303    STACK               startup_gd32f30x_hd.o


==============================================================================

Image component sizes


      Code (inc. data)   RO Data    RW Data    ZI Data      Debug   Object Name

       444         44          0          4        102       3385   adc_simple.o
       270         16          0          0          0       2617   can.o
       442         28          0          0          0      19042   drv8323rs.o
       778         58          0          5         16       7810   encoder.o
      1080         22          0          0          0       4464   foc.o
       822          6          0          0          0      12445   gd32f30x_adc.o
      1134         18          0          0          0       5962   gd32f30x_can.o
       640          6          0          0          0       6360   gd32f30x_dma.o
       374          6          0          0          0       4048   gd32f30x_gpio.o
        24          0          0          0          0      84112   gd32f30x_it.o
       216         20          0          0          0       1572   gd32f30x_misc.o
       548         68          0          0          0       3971   gd32f30x_rcu.o
        88          0          0          0          0       4110   gd32f30x_spi.o
      1948         48          0          0          0      18339   gd32f30x_timer.o
       378         16          0          0          0       4865   gd32f30x_usart.o
      1034         16      13300          0          0       7290   lcd.o
       732         20          0          0          0       4230   lcd_init.o
       228         32          0         24          0       2757   led.o
       388         70          0         49          0       5546   main.o
      2744        300          0         12         64       7168   motor_app.o
      1378         64          0          0          0       7462   motor_hardware.o
       236          6          0        704          0       1502   ntc.o
       968         96          0          0        256      17278   pmsm.o
       312         34          0          0          0       2426   spi.o
        36          8        304          0       1024        920   startup_gd32f30x_hd.o
       452         30          0          4          0       2967   system_gd32f30x.o
       196         24          0          4          0      29835   systick.o
       354         24          0         24          0       4845   task.o
       476         40          0          0         64       2035   uart.o

    ----------------------------------------------------------------------
     18752       1120      13636        836       1532     279363   Object Totals
         0          0         32          0          0          0   (incl. Generated)
        32          0          0          6          6          0   (incl. Padding)

    ----------------------------------------------------------------------

      Code (inc. data)   RO Data    RW Data    ZI Data      Debug   Library Member Name

         0          0       2052          0          0       4636   arm_common_tables.o
       120         12          0          0          0      17018   arm_cos_f32.o
       132         14          0          0          0        750   arm_sin_f32.o
        58          0          0          0          0          0   __dczerorl.o
         0          0          0          0          0          0   entry.o
         0          0          0          0          0          0   entry10a.o
         0          0          0          0          0          0   entry11a.o
         8          4          0          0          0          0   entry2.o
         4          0          0          0          0          0   entry5.o
         0          0          0          0          0          0   entry7b.o
         0          0          0          0          0          0   entry8b.o
         8          4          0          0          0          0   entry9a.o
        30          0          0          0          0          0   handlers.o
        36          8          0          0          0         68   init.o
        36          0          0          0          0         68   memcpya.o

    ----------------------------------------------------------------------
       436         42       2052          0          0      22540   Library Totals
         4          0          0          0          0          0   (incl. Padding)

    ----------------------------------------------------------------------

      Code (inc. data)   RO Data    RW Data    ZI Data      Debug   Library Name

       252         26       2052          0          0      22404   arm_cortexM4lf_math.lib
       180         16          0          0          0        136   mc_w.l

    ----------------------------------------------------------------------
       436         42       2052          0          0      22540   Library Totals

    ----------------------------------------------------------------------

==============================================================================


      Code (inc. data)   RO Data    RW Data    ZI Data      Debug   

     19188       1162      15688        836       1532     283487   Grand Totals
     19188       1162      15688        752       1532     283487   ELF Image Totals (compressed)
     19188       1162      15688        752          0          0   ROM Totals

==============================================================================

    Total RO  Size (Code + RO Data)                34876 (  34.06kB)
    Total RW  Size (RW Data + ZI Data)              2368 (   2.31kB)
    Total ROM Size (Code + RO Data + RW Data)      35628 (  34.79kB)

==============================================================================

